{
  "abi": [
    {
      "inputs": [],
      "name": "InsufficientRewardsBalance",
      "type": "error"
    },
    {
      "inputs": [],
      "name": "InsufficientStakeBalance",
      "type": "error"
    },
    {
      "inputs": [],
      "name": "InvalidEndBlock",
      "type": "error"
    },
    {
      "inputs": [],
      "name": "InvalidRewardsAmount",
      "type": "error"
    },
    {
      "inputs": [],
      "name": "InvalidStartBlock",
      "type": "error"
    },
    {
      "anonymous": false,
      "inputs": [
        {
          "indexed": true,
          "internalType": "address",
          "name": "user",
          "type": "address"
        },
        {
          "indexed": false,
          "internalType": "uint256",
          "name": "rewards",
          "type": "uint256"
        }
      ],
      "name": "Claim",
      "type": "event"
    },
    {
      "anonymous": false,
      "inputs": [
        {
          "indexed": true,
          "internalType": "address",
          "name": "user",
          "type": "address"
        },
        {
          "indexed": false,
          "internalType": "uint256",
          "name": "amount",
          "type": "uint256"
        }
      ],
      "name": "Deposit",
      "type": "event"
    },
    {
      "anonymous": false,
      "inputs": [
        {
          "indexed": false,
          "internalType": "uint8",
          "name": "version",
          "type": "uint8"
        }
      ],
      "name": "Initialized",
      "type": "event"
    },
    {
      "anonymous": false,
      "inputs": [
        {
          "indexed": true,
          "internalType": "address",
          "name": "previousOwner",
          "type": "address"
        },
        {
          "indexed": true,
          "internalType": "address",
          "name": "newOwner",
          "type": "address"
        }
      ],
      "name": "OwnershipTransferred",
      "type": "event"
    },
    {
      "anonymous": false,
      "inputs": [
        {
          "indexed": false,
          "internalType": "address",
          "name": "acccount",
          "type": "address"
        },
        {
          "indexed": false,
          "internalType": "uint256",
          "name": "balance",
          "type": "uint256"
        },
        {
          "indexed": false,
          "internalType": "uint256",
          "name": "totalBalance",
          "type": "uint256"
        }
      ],
      "name": "UpdatedBalances",
      "type": "event"
    },
    {
      "anonymous": false,
      "inputs": [
        {
          "indexed": true,
          "internalType": "address",
          "name": "user",
          "type": "address"
        },
        {
          "indexed": false,
          "internalType": "uint256",
          "name": "amount",
          "type": "uint256"
        }
      ],
      "name": "Withdraw",
      "type": "event"
    },
    {
      "inputs": [],
      "name": "boostToken",
      "outputs": [
        {
          "internalType": "contract ERC20",
          "name": "",
          "type": "address"
        }
      ],
      "stateMutability": "view",
      "type": "function"
    },
    {
      "inputs": [],
      "name": "claimRewards",
      "outputs": [
        {
          "internalType": "uint256",
          "name": "",
          "type": "uint256"
        }
      ],
      "stateMutability": "nonpayable",
      "type": "function"
    },
    {
      "inputs": [
        {
          "internalType": "uint256",
          "name": "amount",
          "type": "uint256"
        }
      ],
      "name": "deposit",
      "outputs": [],
      "stateMutability": "nonpayable",
      "type": "function"
    },
    {
      "inputs": [],
      "name": "distributedRewards",
      "outputs": [
        {
          "internalType": "uint256",
          "name": "",
          "type": "uint256"
        }
      ],
      "stateMutability": "view",
      "type": "function"
    },
    {
      "inputs": [],
      "name": "endBlock",
      "outputs": [
        {
          "internalType": "uint256",
          "name": "",
          "type": "uint256"
        }
      ],
      "stateMutability": "view",
      "type": "function"
    },
    {
      "inputs": [
        {
          "internalType": "address",
          "name": "acccount",
          "type": "address"
        }
      ],
      "name": "getUnclaimedRewards",
      "outputs": [
        {
          "internalType": "uint256",
          "name": "",
          "type": "uint256"
        }
      ],
      "stateMutability": "view",
      "type": "function"
    },
    {
      "inputs": [
        {
          "internalType": "contract ERC20",
          "name": "_rewardsToken",
          "type": "address"
        },
        {
          "internalType": "contract ERC20",
          "name": "_lpToken",
          "type": "address"
        },
        {
          "internalType": "address",
          "name": "_boostToken",
          "type": "address"
        }
      ],
      "name": "initialize",
      "outputs": [],
      "stateMutability": "nonpayable",
      "type": "function"
    },
    {
      "inputs": [
        {
          "internalType": "address",
          "name": "account",
          "type": "address"
        }
      ],
      "name": "kick",
      "outputs": [],
      "stateMutability": "nonpayable",
      "type": "function"
    },
    {
      "inputs": [],
      "name": "lpToken",
      "outputs": [
        {
          "internalType": "contract ERC20",
          "name": "",
          "type": "address"
        }
      ],
      "stateMutability": "view",
      "type": "function"
    },
    {
      "inputs": [],
      "name": "owner",
      "outputs": [
        {
          "internalType": "address",
          "name": "",
          "type": "address"
        }
      ],
      "stateMutability": "view",
      "type": "function"
    },
    {
      "inputs": [
        {
          "internalType": "contract ERC20",
          "name": "token",
          "type": "address"
        },
        {
          "internalType": "address",
          "name": "to",
          "type": "address"
        }
      ],
      "name": "recoverTokens",
      "outputs": [
        {
          "internalType": "uint256",
          "name": "amount",
          "type": "uint256"
        }
      ],
      "stateMutability": "nonpayable",
      "type": "function"
    },
    {
      "inputs": [],
      "name": "renounceOwnership",
      "outputs": [],
      "stateMutability": "nonpayable",
      "type": "function"
    },
    {
      "inputs": [],
      "name": "rewardsToken",
      "outputs": [
        {
          "internalType": "contract ERC20",
          "name": "",
          "type": "address"
        }
      ],
      "stateMutability": "view",
      "type": "function"
    },
    {
      "inputs": [
        {
          "internalType": "uint256",
          "name": "amount",
          "type": "uint256"
        },
        {
          "internalType": "uint256",
          "name": "_startBlock",
          "type": "uint256"
        },
        {
          "internalType": "uint256",
          "name": "_endBlock",
          "type": "uint256"
        }
      ],
      "name": "setRewards",
      "outputs": [],
      "stateMutability": "nonpayable",
      "type": "function"
    },
    {
      "inputs": [],
      "name": "startBlock",
      "outputs": [
        {
          "internalType": "uint256",
          "name": "",
          "type": "uint256"
        }
      ],
      "stateMutability": "view",
      "type": "function"
    },
    {
      "inputs": [],
      "name": "totalBalance",
      "outputs": [
        {
          "internalType": "uint256",
          "name": "",
          "type": "uint256"
        }
      ],
      "stateMutability": "view",
      "type": "function"
    },
    {
      "inputs": [],
      "name": "totalDeposit",
      "outputs": [
        {
          "internalType": "uint256",
          "name": "",
          "type": "uint256"
        }
      ],
      "stateMutability": "view",
      "type": "function"
    },
    {
      "inputs": [],
      "name": "totalRewards",
      "outputs": [
        {
          "internalType": "uint256",
          "name": "",
          "type": "uint256"
        }
      ],
      "stateMutability": "view",
      "type": "function"
    },
    {
      "inputs": [
        {
          "internalType": "address",
          "name": "newOwner",
          "type": "address"
        }
      ],
      "name": "transferOwnership",
      "outputs": [],
      "stateMutability": "nonpayable",
      "type": "function"
    },
    {
      "inputs": [
        {
          "internalType": "address",
          "name": "",
          "type": "address"
        }
      ],
      "name": "userBalance",
      "outputs": [
        {
          "internalType": "uint256",
          "name": "",
          "type": "uint256"
        }
      ],
      "stateMutability": "view",
      "type": "function"
    },
    {
      "inputs": [
        {
          "internalType": "address",
          "name": "",
          "type": "address"
        }
      ],
      "name": "userDeposit",
      "outputs": [
        {
          "internalType": "uint256",
          "name": "",
          "type": "uint256"
        }
      ],
      "stateMutability": "view",
      "type": "function"
    },
    {
      "inputs": [
        {
          "internalType": "uint256",
          "name": "amount",
          "type": "uint256"
        }
      ],
      "name": "withdraw",
      "outputs": [],
      "stateMutability": "nonpayable",
      "type": "function"
    },
    {
      "inputs": [],
      "name": "withdrawAndClaim",
      "outputs": [
        {
          "internalType": "uint256",
          "name": "withdrawAmount",
          "type": "uint256"
        },
        {
          "internalType": "uint256",
          "name": "unclaimedRewards",
          "type": "uint256"
        }
      ],
      "stateMutability": "nonpayable",
      "type": "function"
    }
  ],
  "bytecode": {
    "object": "0x608060405234801561001057600080fd5b5061001a3361001f565b61007a565b600080546001600160a01b038381166201000081810262010000600160b01b0319851617855560405193049190911692909183917f8be0079c531659141344cd1fd0a4f28419497f9722a3daafe3b4186f6b6457e091a35050565b611327806100896000396000f3fe608060405234801561001057600080fd5b506004361061014d5760003560e01c80638da5cb5b116100c3578063d1af0c7d1161007c578063d1af0c7d146102a0578063d4437724146102b3578063f2fde38b146102d0578063f36d1e4e146102e3578063f3e14f1e146102f6578063f6153ccd146102ff57600080fd5b80638da5cb5b1461022957806396c5517514610240578063ad7a672f14610251578063b6b55f251461025a578063c0c53b8b1461026d578063d1260edd1461028057600080fd5b8063372500ab11610115578063372500ab146101bf5780633a589b97146101c757806348cd4cb1146101f25780635fcbd285146101fb57806369a69e291461020e578063715018a61461022157600080fd5b80630103c92b14610152578063056097ac14610185578063083c6323146101985780630e15561a146101a15780632e1a7d4d146101aa575b600080fd5b6101726101603660046110e9565b600e6020526000908152604090205481565b6040519081526020015b60405180910390f35b610172610193366004611106565b610308565b61017260055481565b61017260085481565b6101bd6101b836600461113f565b610418565b005b6101726104ef565b6003546101da906001600160a01b031681565b6040516001600160a01b03909116815260200161017c565b61017260045481565b6002546101da906001600160a01b031681565b61017261021c3660046110e9565b6105e7565b6101bd610615565b6000546201000090046001600160a01b03166101da565b6101bd61024e3660046110e9565b50565b61017260075481565b6101bd61026836600461113f565b610652565b6101bd61027b366004611158565b610727565b61017261028e3660046110e9565b600d6020526000908152604090205481565b6001546101da906001600160a01b031681565b6102bb6107d4565b6040805192835260208301919091520161017c565b6101bd6102de3660046110e9565b610916565b6101bd6102f13660046111a3565b6109b5565b61017260095481565b61017260065481565b600080546001600160a01b03620100009091041633146103435760405162461bcd60e51b815260040161033a906111cf565b60405180910390fd5b6040516370a0823160e01b81523060048201526001600160a01b038416906370a0823190602401602060405180830381865afa158015610387573d6000803e3d6000fd5b505050506040513d601f19601f820116820180604052508101906103ab9190611204565b6002549091506001600160a01b03848116911614156103d8576006546103d19082611233565b90506103fe565b6001546001600160a01b03848116911614156103fe576008546103fb9082611233565b90505b6104126001600160a01b0384168383610b44565b92915050565b336000908152600d6020526040902054808211156104495760405163263892ab60e01b815260040160405180910390fd5b60045443111561045e5761045c33610bbc565b505b6104688282611233565b336000908152600d6020526040902081905560065490915061048b908390611233565b60068190555061049e3382600654610c9e565b6002546104b5906001600160a01b03163384610b44565b60405182815233907f884edad9ce6fa2440d8a54cc123490eb96d2768479d49ff9c7366125a9424364906020015b60405180910390a25050565b60006004544311156105065761050433610bbc565b505b33600090815260116020908152604080832054601090925282205461052b9190611233565b90506000811161054e57604051635772cb5960e11b815260040160405180910390fd5b3360009081526011602052604090205461056990829061124a565b33600081815260116020908152604080832094909455600d90529190912054600654610596929190610c9e565b6001546105ad906001600160a01b03163383610b44565b60405181815233907f47cee97cb7acd717b3c0aa1435d004cd5b3c8c57d70dbceb4e4458bbd60e39d49060200160405180910390a2919050565b6001600160a01b03811660009081526011602090815260408083205460109092528220546104129190611233565b6000546001600160a01b03620100009091041633146106465760405162461bcd60e51b815260040161033a906111cf565b6106506000610e8b565b565b60025461066a906001600160a01b0316333084610ee6565b336000908152600d60205260409020546004544311156106b55780156106995761069333610bbc565b506106b5565b6106a1610f70565b600b54336000908152600f60205260409020555b6106bf828261124a565b336000908152600d602052604090208190556006549091506106e290839061124a565b6006819055506106f53382600654610c9e565b60405182815233907fe1fffcc4923d04b559f4d29a8bfc6cda04eb5b0d3c460751c2402c5c5cc9109c906020016104e3565b60006107336001611034565b9050801561074b576000805461ff0019166101001790555b600180546001600160a01b038087166001600160a01b03199283161790925560028054868416908316179055600380549285169290911691909117905580156107ce576000805461ff0019169055604051600181527f7f26b83ff96e1f2b6a682f133852f6798a09c465da95921460cefb38474024989060200160405180910390a15b50505050565b6000806004544311156107ec576107ea33610bbc565b505b336000908152600d60209081526040808320546011835281842054601090935292205491935061081b91611233565b336000908152600d602052604081205560065490915061083c908390611233565b6006553360009081526011602052604090205461085a90829061124a565b3360008181526011602052604081209290925560065461087a9290610c9e565b600254610891906001600160a01b03163384610b44565b6001546108a8906001600160a01b03163383610b44565b60405182815233907f884edad9ce6fa2440d8a54cc123490eb96d2768479d49ff9c7366125a94243649060200160405180910390a260405181815233907f47cee97cb7acd717b3c0aa1435d004cd5b3c8c57d70dbceb4e4458bbd60e39d49060200160405180910390a29091565b6000546001600160a01b03620100009091041633146109475760405162461bcd60e51b815260040161033a906111cf565b6001600160a01b0381166109ac5760405162461bcd60e51b815260206004820152602660248201527f4f776e61626c653a206e6577206f776e657220697320746865207a65726f206160448201526564647265737360d01b606482015260840161033a565b61024e81610e8b565b6000546001600160a01b03620100009091041633146109e65760405162461bcd60e51b815260040161033a906111cf565b6001546040516370a0823160e01b81523060048201526001600160a01b03909116906370a0823190602401602060405180830381865afa158015610a2e573d6000803e3d6000fd5b505050506040513d601f19601f82011682018060405250810190610a529190611204565b600954610a5f9085611233565b1115610a7e57604051635772cb5960e11b815260040160405180910390fd5b43821015610a9f5760405163ec2caa0d60e01b815260040160405180910390fd5b818111610abf57604051633dea3a3b60e11b815260040160405180910390fd5b60065415610acf57610acf610f70565b6009548311610af157604051636989984d60e01b815260040160405180910390fd5b600883905560048290556005819055610b0a8282611233565b6c0c9f2c9cd04674edea40000000600954600854610b289190611233565b610b329190611262565b610b3c9190611281565b600a55505050565b600060405163a9059cbb60e01b8152836004820152826024820152602060006044836000895af13d15601f3d11600160005114161716915050806107ce5760405162461bcd60e51b815260206004820152600f60248201526e1514905394d1915497d19052531151608a1b604482015260640161033a565b6001600160a01b0381166000908152600e602052604081205480610be35750600092915050565b610beb610f70565b6001600160a01b0383166000908152600f6020526040812054600b546c0c9f2c9cd04674edea4000000091610c1f91611233565b610c299084611262565b610c339190611281565b905060008111610c47575060009392505050565b600b546001600160a01b0385166000908152600f6020908152604080832093909355601090522054610c7a90829061124a565b6001600160a01b039094166000908152601060205260409020939093555090919050565b6003546040516370a0823160e01b81526001600160a01b03858116600483015260009216906370a0823190602401602060405180830381865afa158015610ce9573d6000803e3d6000fd5b505050506040513d601f19601f82011682018060405250810190610d0d9190611204565b90506000600360009054906101000a90046001600160a01b03166001600160a01b03166318160ddd6040518163ffffffff1660e01b8152600401602060405180830381865afa158015610d64573d6000803e3d6000fd5b505050506040513d601f19601f82011682018060405250810190610d889190611204565b905060006064610d99602887611262565b610da39190611281565b90508115610dee576064610db8602882611233565b83610dc38688611262565b610dcd9190611281565b610dd79190611262565b610de19190611281565b610deb908261124a565b90505b610df885826110bc565b6001600160a01b0387166000908152600e60205260409020805490829055600754919250908190610e2a90849061124a565b610e349190611233565b6007819055604080516001600160a01b038a1681526020810185905280820192909252517fe48db16f43f9bc819014afd4918faf23f1854cf365b8b99746a953980173f8779181900360600190a150505050505050565b600080546001600160a01b038381166201000081810262010000600160b01b0319851617855560405193049190911692909183917f8be0079c531659141344cd1fd0a4f28419497f9722a3daafe3b4186f6b6457e091a35050565b60006040516323b872dd60e01b81528460048201528360248201528260448201526020600060648360008a5af13d15601f3d1160016000511416171691505080610f695760405162461bcd60e51b81526020600482015260146024820152731514905394d1915497d19493d357d1905253115160621b604482015260640161033a565b5050505050565b600060085411610f7c57565b600454600c541015610f8f57600454600c555b60006005544311610fae57600c54610fa79043611233565b9050610fc1565b600c54600554610fbe9190611233565b90505b600081600a54610fd19190611262565b905060008111610fdf575050565b43600c5560075415611030576110026c0c9f2c9cd04674edea4000000082611281565b60095461100f919061124a565b60095560075461101f9082611281565b600b5461102c919061124a565b600b555b5050565b60008054610100900460ff161561107b578160ff1660011480156110575750303b155b6110735760405162461bcd60e51b815260040161033a906112a3565b506000919050565b60005460ff8084169116106110a25760405162461bcd60e51b815260040161033a906112a3565b506000805460ff191660ff92909216919091179055600190565b60008183106110cb57816110cd565b825b9392505050565b6001600160a01b038116811461024e57600080fd5b6000602082840312156110fb57600080fd5b81356110cd816110d4565b6000806040838503121561111957600080fd5b8235611124816110d4565b91506020830135611134816110d4565b809150509250929050565b60006020828403121561115157600080fd5b5035919050565b60008060006060848603121561116d57600080fd5b8335611178816110d4565b92506020840135611188816110d4565b91506040840135611198816110d4565b809150509250925092565b6000806000606084860312156111b857600080fd5b505081359360208301359350604090920135919050565b6020808252818101527f4f776e61626c653a2063616c6c6572206973206e6f7420746865206f776e6572604082015260600190565b60006020828403121561121657600080fd5b5051919050565b634e487b7160e01b600052601160045260246000fd5b6000828210156112455761124561121d565b500390565b6000821982111561125d5761125d61121d565b500190565b600081600019048311821515161561127c5761127c61121d565b500290565b60008261129e57634e487b7160e01b600052601260045260246000fd5b500490565b6020808252602e908201527f496e697469616c697a61626c653a20636f6e747261637420697320616c72656160408201526d191e481a5b9a5d1a585b1a5e995960921b60608201526080019056fea26469706673582212205d8467b8882a601599d231fef924133a46e3f52484a9bc8a292e3176e6b2665364736f6c634300080a0033",
    "linkReferences": {}
  }
}