{
  "abi": [
    {
      "inputs": [],
      "name": "InsufficientDepositBalance",
      "type": "error"
    },
    {
      "inputs": [],
      "name": "InsufficientRewardsBalance",
      "type": "error"
    },
    {
      "inputs": [],
      "name": "InvalidEndBlock",
      "type": "error"
    },
    {
      "inputs": [],
      "name": "InvalidRewardsAmount",
      "type": "error"
    },
    {
      "inputs": [],
      "name": "InvalidStartBlock",
      "type": "error"
    },
    {
      "inputs": [],
      "name": "KickNotAllowed",
      "type": "error"
    },
    {
      "anonymous": false,
      "inputs": [
        {
          "indexed": true,
          "internalType": "address",
          "name": "user",
          "type": "address"
        },
        {
          "indexed": false,
          "internalType": "uint256",
          "name": "rewards",
          "type": "uint256"
        }
      ],
      "name": "Claim",
      "type": "event"
    },
    {
      "anonymous": false,
      "inputs": [
        {
          "indexed": true,
          "internalType": "address",
          "name": "user",
          "type": "address"
        },
        {
          "indexed": false,
          "internalType": "uint256",
          "name": "amount",
          "type": "uint256"
        }
      ],
      "name": "Deposit",
      "type": "event"
    },
    {
      "anonymous": false,
      "inputs": [
        {
          "indexed": false,
          "internalType": "uint8",
          "name": "version",
          "type": "uint8"
        }
      ],
      "name": "Initialized",
      "type": "event"
    },
    {
      "anonymous": false,
      "inputs": [
        {
          "indexed": true,
          "internalType": "address",
          "name": "previousOwner",
          "type": "address"
        },
        {
          "indexed": true,
          "internalType": "address",
          "name": "newOwner",
          "type": "address"
        }
      ],
      "name": "OwnershipTransferred",
      "type": "event"
    },
    {
      "anonymous": false,
      "inputs": [
        {
          "indexed": false,
          "internalType": "uint256",
          "name": "amount",
          "type": "uint256"
        },
        {
          "indexed": false,
          "internalType": "uint256",
          "name": "startBlock",
          "type": "uint256"
        },
        {
          "indexed": false,
          "internalType": "uint256",
          "name": "endBlock",
          "type": "uint256"
        }
      ],
      "name": "RewardsSet",
      "type": "event"
    },
    {
      "anonymous": false,
      "inputs": [
        {
          "indexed": false,
          "internalType": "address",
          "name": "account",
          "type": "address"
        },
        {
          "indexed": false,
          "internalType": "uint256",
          "name": "balance",
          "type": "uint256"
        },
        {
          "indexed": false,
          "internalType": "uint256",
          "name": "totalBalance",
          "type": "uint256"
        }
      ],
      "name": "UpdatedBalances",
      "type": "event"
    },
    {
      "anonymous": false,
      "inputs": [
        {
          "indexed": true,
          "internalType": "address",
          "name": "user",
          "type": "address"
        },
        {
          "indexed": false,
          "internalType": "uint256",
          "name": "amount",
          "type": "uint256"
        }
      ],
      "name": "Withdraw",
      "type": "event"
    },
    {
      "inputs": [],
      "name": "boostToken",
      "outputs": [
        {
          "internalType": "contract ERC20",
          "name": "",
          "type": "address"
        }
      ],
      "stateMutability": "view",
      "type": "function"
    },
    {
      "inputs": [],
      "name": "claimRewards",
      "outputs": [
        {
          "internalType": "uint256",
          "name": "",
          "type": "uint256"
        }
      ],
      "stateMutability": "nonpayable",
      "type": "function"
    },
    {
      "inputs": [
        {
          "internalType": "uint256",
          "name": "amount",
          "type": "uint256"
        }
      ],
      "name": "deposit",
      "outputs": [],
      "stateMutability": "nonpayable",
      "type": "function"
    },
    {
      "inputs": [],
      "name": "distributedRewards",
      "outputs": [
        {
          "internalType": "uint256",
          "name": "",
          "type": "uint256"
        }
      ],
      "stateMutability": "view",
      "type": "function"
    },
    {
      "inputs": [],
      "name": "endBlock",
      "outputs": [
        {
          "internalType": "uint256",
          "name": "",
          "type": "uint256"
        }
      ],
      "stateMutability": "view",
      "type": "function"
    },
    {
      "inputs": [
        {
          "internalType": "address",
          "name": "account",
          "type": "address"
        }
      ],
      "name": "getUnclaimedRewards",
      "outputs": [
        {
          "internalType": "uint256",
          "name": "",
          "type": "uint256"
        }
      ],
      "stateMutability": "view",
      "type": "function"
    },
    {
      "inputs": [
        {
          "internalType": "contract ERC20",
          "name": "_rewardsToken",
          "type": "address"
        },
        {
          "internalType": "contract ERC20",
          "name": "_lpToken",
          "type": "address"
        },
        {
          "internalType": "address",
          "name": "_boostToken",
          "type": "address"
        }
      ],
      "name": "initialize",
      "outputs": [],
      "stateMutability": "nonpayable",
      "type": "function"
    },
    {
      "inputs": [
        {
          "internalType": "address",
          "name": "account",
          "type": "address"
        }
      ],
      "name": "kick",
      "outputs": [],
      "stateMutability": "nonpayable",
      "type": "function"
    },
    {
      "inputs": [],
      "name": "lpToken",
      "outputs": [
        {
          "internalType": "contract ERC20",
          "name": "",
          "type": "address"
        }
      ],
      "stateMutability": "view",
      "type": "function"
    },
    {
      "inputs": [],
      "name": "owner",
      "outputs": [
        {
          "internalType": "address",
          "name": "",
          "type": "address"
        }
      ],
      "stateMutability": "view",
      "type": "function"
    },
    {
      "inputs": [
        {
          "internalType": "contract ERC20",
          "name": "token",
          "type": "address"
        },
        {
          "internalType": "address",
          "name": "to",
          "type": "address"
        }
      ],
      "name": "recoverTokens",
      "outputs": [
        {
          "internalType": "uint256",
          "name": "amount",
          "type": "uint256"
        }
      ],
      "stateMutability": "nonpayable",
      "type": "function"
    },
    {
      "inputs": [],
      "name": "renounceOwnership",
      "outputs": [],
      "stateMutability": "nonpayable",
      "type": "function"
    },
    {
      "inputs": [],
      "name": "rewardsToken",
      "outputs": [
        {
          "internalType": "contract ERC20",
          "name": "",
          "type": "address"
        }
      ],
      "stateMutability": "view",
      "type": "function"
    },
    {
      "inputs": [
        {
          "internalType": "uint256",
          "name": "amount",
          "type": "uint256"
        },
        {
          "internalType": "uint256",
          "name": "_startBlock",
          "type": "uint256"
        },
        {
          "internalType": "uint256",
          "name": "_endBlock",
          "type": "uint256"
        }
      ],
      "name": "setRewards",
      "outputs": [],
      "stateMutability": "nonpayable",
      "type": "function"
    },
    {
      "inputs": [],
      "name": "startBlock",
      "outputs": [
        {
          "internalType": "uint256",
          "name": "",
          "type": "uint256"
        }
      ],
      "stateMutability": "view",
      "type": "function"
    },
    {
      "inputs": [],
      "name": "totalBalance",
      "outputs": [
        {
          "internalType": "uint256",
          "name": "",
          "type": "uint256"
        }
      ],
      "stateMutability": "view",
      "type": "function"
    },
    {
      "inputs": [],
      "name": "totalDeposit",
      "outputs": [
        {
          "internalType": "uint256",
          "name": "",
          "type": "uint256"
        }
      ],
      "stateMutability": "view",
      "type": "function"
    },
    {
      "inputs": [],
      "name": "totalRewards",
      "outputs": [
        {
          "internalType": "uint256",
          "name": "",
          "type": "uint256"
        }
      ],
      "stateMutability": "view",
      "type": "function"
    },
    {
      "inputs": [
        {
          "internalType": "address",
          "name": "newOwner",
          "type": "address"
        }
      ],
      "name": "transferOwnership",
      "outputs": [],
      "stateMutability": "nonpayable",
      "type": "function"
    },
    {
      "inputs": [
        {
          "internalType": "address",
          "name": "",
          "type": "address"
        }
      ],
      "name": "userBalance",
      "outputs": [
        {
          "internalType": "uint256",
          "name": "",
          "type": "uint256"
        }
      ],
      "stateMutability": "view",
      "type": "function"
    },
    {
      "inputs": [
        {
          "internalType": "address",
          "name": "",
          "type": "address"
        }
      ],
      "name": "userDeposit",
      "outputs": [
        {
          "internalType": "uint256",
          "name": "",
          "type": "uint256"
        }
      ],
      "stateMutability": "view",
      "type": "function"
    },
    {
      "inputs": [
        {
          "internalType": "uint256",
          "name": "amount",
          "type": "uint256"
        }
      ],
      "name": "withdraw",
      "outputs": [],
      "stateMutability": "nonpayable",
      "type": "function"
    },
    {
      "inputs": [],
      "name": "withdrawAndClaim",
      "outputs": [
        {
          "internalType": "uint256",
          "name": "withdrawAmount",
          "type": "uint256"
        },
        {
          "internalType": "uint256",
          "name": "unclaimedRewards",
          "type": "uint256"
        }
      ],
      "stateMutability": "nonpayable",
      "type": "function"
    }
  ],
  "bytecode": {
    "object": "0x608060405234801561001057600080fd5b5061001a3361001f565b61007a565b600080546001600160a01b038381166201000081810262010000600160b01b0319851617855560405193049190911692909183917f8be0079c531659141344cd1fd0a4f28419497f9722a3daafe3b4186f6b6457e091a35050565b611474806100896000396000f3fe608060405234801561001057600080fd5b506004361061014d5760003560e01c80638da5cb5b116100c3578063d1af0c7d1161007c578063d1af0c7d146102a2578063d4437724146102b5578063f2fde38b146102d2578063f36d1e4e146102e5578063f3e14f1e146102f8578063f6153ccd1461030157600080fd5b80638da5cb5b1461022957806396c5517514610240578063ad7a672f14610253578063b6b55f251461025c578063c0c53b8b1461026f578063d1260edd1461028257600080fd5b8063372500ab11610115578063372500ab146101bf5780633a589b97146101c757806348cd4cb1146101f25780635fcbd285146101fb57806369a69e291461020e578063715018a61461022157600080fd5b80630103c92b14610152578063056097ac14610185578063083c6323146101985780630e15561a146101a15780632e1a7d4d146101aa575b600080fd5b610172610160366004611236565b600e6020526000908152604090205481565b6040519081526020015b60405180910390f35b610172610193366004611253565b61030a565b61017260055481565b61017260085481565b6101bd6101b836600461128c565b61041a565b005b6101726104f1565b6003546101da906001600160a01b031681565b6040516001600160a01b03909116815260200161017c565b61017260045481565b6002546101da906001600160a01b031681565b61017261021c366004611236565b6105e9565b6101bd610617565b6000546201000090046001600160a01b03166101da565b6101bd61024e366004611236565b610654565b61017260075481565b6101bd61026a36600461128c565b610764565b6101bd61027d3660046112a5565b610839565b610172610290366004611236565b600d6020526000908152604090205481565b6001546101da906001600160a01b031681565b6102bd6108e7565b6040805192835260208301919091520161017c565b6101bd6102e0366004611236565b610a29565b6101bd6102f33660046112f0565b610acb565b61017260095481565b61017260065481565b600080546001600160a01b03620100009091041633146103455760405162461bcd60e51b815260040161033c9061131c565b60405180910390fd5b6040516370a0823160e01b81523060048201526001600160a01b038416906370a0823190602401602060405180830381865afa158015610389573d6000803e3d6000fd5b505050506040513d601f19601f820116820180604052508101906103ad9190611351565b6002549091506001600160a01b03848116911614156103da576006546103d39082611380565b9050610400565b6001546001600160a01b0384811691161415610400576008546103fd9082611380565b90505b6104146001600160a01b0384168383610c86565b92915050565b336000908152600d60205260409020548082111561044b57604051631650c97f60e11b815260040160405180910390fd5b6004544311156104605761045e33610cfe565b505b61046a8282611380565b336000908152600d6020526040902081905560065490915061048d908390611380565b6006819055506104a03382600654610de0565b6002546104b7906001600160a01b03163384610c86565b60405182815233907f884edad9ce6fa2440d8a54cc123490eb96d2768479d49ff9c7366125a9424364906020015b60405180910390a25050565b60006004544311156105085761050633610cfe565b505b33600090815260116020908152604080832054601090925282205461052d9190611380565b90506000811161055057604051635772cb5960e11b815260040160405180910390fd5b3360009081526011602052604090205461056b908290611397565b33600081815260116020908152604080832094909455600d90529190912054600654610598929190610de0565b6001546105af906001600160a01b03163383610c86565b60405181815233907f47cee97cb7acd717b3c0aa1435d004cd5b3c8c57d70dbceb4e4458bbd60e39d49060200160405180910390a2919050565b6001600160a01b03811660009081526011602090815260408083205460109092528220546104149190611380565b6000546001600160a01b03620100009091041633146106485760405162461bcd60e51b815260040161033c9061131c565b6106526000610fcc565b565b6001600160a01b0381166000908152600d6020526040902054606461067a6028836113af565b61068491906113ce565b6001600160a01b0383166000908152600e6020526040902054116106bb576040516365c7416b60e11b815260040160405180910390fd5b6003546040516370a0823160e01b81526001600160a01b03848116600483015260009216906370a0823190602401602060405180830381865afa158015610706573d6000803e3d6000fd5b505050506040513d601f19601f8201168201806040525081019061072a9190611351565b1115610749576040516365c7416b60e11b815260040160405180910390fd5b61075282610cfe565b506107608282600654610de0565b5050565b60025461077c906001600160a01b0316333084611027565b336000908152600d60205260409020546004544311156107c75780156107ab576107a533610cfe565b506107c7565b6107b36110b1565b600b54336000908152600f60205260409020555b6107d18282611397565b336000908152600d602052604090208190556006549091506107f4908390611397565b6006819055506108073382600654610de0565b60405182815233907fe1fffcc4923d04b559f4d29a8bfc6cda04eb5b0d3c460751c2402c5c5cc9109c906020016104e5565b60006108456001611181565b9050801561085d576000805461ff0019166101001790555b600180546001600160a01b038087166001600160a01b03199283161790925560028054868416908316179055600380549285169290911691909117905580156108e1576000805461ff0019169055604051600181527f7f26b83ff96e1f2b6a682f133852f6798a09c465da95921460cefb3847402498906020015b60405180910390a15b50505050565b6000806004544311156108ff576108fd33610cfe565b505b336000908152600d60209081526040808320546011835281842054601090935292205491935061092e91611380565b336000908152600d602052604081205560065490915061094f908390611380565b6006553360009081526011602052604090205461096d908290611397565b3360008181526011602052604081209290925560065461098d9290610de0565b6002546109a4906001600160a01b03163384610c86565b6001546109bb906001600160a01b03163383610c86565b60405182815233907f884edad9ce6fa2440d8a54cc123490eb96d2768479d49ff9c7366125a94243649060200160405180910390a260405181815233907f47cee97cb7acd717b3c0aa1435d004cd5b3c8c57d70dbceb4e4458bbd60e39d49060200160405180910390a29091565b6000546001600160a01b0362010000909104163314610a5a5760405162461bcd60e51b815260040161033c9061131c565b6001600160a01b038116610abf5760405162461bcd60e51b815260206004820152602660248201527f4f776e61626c653a206e6577206f776e657220697320746865207a65726f206160448201526564647265737360d01b606482015260840161033c565b610ac881610fcc565b50565b6000546001600160a01b0362010000909104163314610afc5760405162461bcd60e51b815260040161033c9061131c565b43821015610b1d5760405163ec2caa0d60e01b815260040160405180910390fd5b818111610b3d57604051633dea3a3b60e11b815260040160405180910390fd5b610b456110b1565b600954808411610b6857604051636989984d60e01b815260040160405180910390fd5b6001546040516370a0823160e01b81523060048201526001600160a01b03909116906370a0823190602401602060405180830381865afa158015610bb0573d6000803e3d6000fd5b505050506040513d601f19601f82011682018060405250810190610bd49190611351565b600954610be19086611380565b1115610c0057604051635772cb5960e11b815260040160405180910390fd5b600884905560048390556005829055610c198383611380565b6c0c9f2c9cd04674edea40000000610c318387611380565b610c3b91906113af565b610c4591906113ce565b600a5560408051858152602081018590529081018390527ff0f7bde9cfd224702fe707f27ad7d6b35c7d7f63fd91bb24a760cfd6a99f85e7906060016108d8565b600060405163a9059cbb60e01b8152836004820152826024820152602060006044836000895af13d15601f3d11600160005114161716915050806108e15760405162461bcd60e51b815260206004820152600f60248201526e1514905394d1915497d19052531151608a1b604482015260640161033c565b6001600160a01b0381166000908152600e602052604081205480610d255750600092915050565b610d2d6110b1565b6001600160a01b0383166000908152600f6020526040812054600b546c0c9f2c9cd04674edea4000000091610d6191611380565b610d6b90846113af565b610d7591906113ce565b905060008111610d89575060009392505050565b600b546001600160a01b0385166000908152600f6020908152604080832093909355601090522054610dbc908290611397565b6001600160a01b039094166000908152601060205260409020939093555090919050565b6003546040516370a0823160e01b81526001600160a01b03858116600483015260009216906370a0823190602401602060405180830381865afa158015610e2b573d6000803e3d6000fd5b505050506040513d601f19601f82011682018060405250810190610e4f9190611351565b90506000600360009054906101000a90046001600160a01b03166001600160a01b03166318160ddd6040518163ffffffff1660e01b8152600401602060405180830381865afa158015610ea6573d6000803e3d6000fd5b505050506040513d601f19601f82011682018060405250810190610eca9190611351565b905060006064610edb6028876113af565b610ee591906113ce565b90508115610f2f57610ef88260646113af565b610f0460286064611380565b610f0e85876113af565b610f1891906113af565b610f2291906113ce565b610f2c9082611397565b90505b610f398582611209565b6001600160a01b0387166000908152600e60205260409020805490829055600754919250908190610f6b908490611397565b610f759190611380565b6007819055604080516001600160a01b038a1681526020810185905280820192909252517fe48db16f43f9bc819014afd4918faf23f1854cf365b8b99746a953980173f8779181900360600190a150505050505050565b600080546001600160a01b038381166201000081810262010000600160b01b0319851617855560405193049190911692909183917f8be0079c531659141344cd1fd0a4f28419497f9722a3daafe3b4186f6b6457e091a35050565b60006040516323b872dd60e01b81528460048201528360248201528260448201526020600060648360008a5af13d15601f3d11600160005114161716915050806110aa5760405162461bcd60e51b81526020600482015260146024820152731514905394d1915497d19493d357d1905253115160621b604482015260640161033c565b5050505050565b6000600854116110bd57565b600c54600554116110ca57565b600454600c5410156110dd57600454600c555b600060055443116110fc57600c546110f59043611380565b905061110f565b600c5460055461110c9190611380565b90505b600081600a5461111f91906113af565b90506000811161112d575050565b43600c5560075415610760576111506c0c9f2c9cd04674edea40000000826113ce565b60095461115d9190611397565b60095560075461116d90826113ce565b600b5461117a9190611397565b600b555050565b60008054610100900460ff16156111c8578160ff1660011480156111a45750303b155b6111c05760405162461bcd60e51b815260040161033c906113f0565b506000919050565b60005460ff8084169116106111ef5760405162461bcd60e51b815260040161033c906113f0565b506000805460ff191660ff92909216919091179055600190565b6000818310611218578161121a565b825b9392505050565b6001600160a01b0381168114610ac857600080fd5b60006020828403121561124857600080fd5b813561121a81611221565b6000806040838503121561126657600080fd5b823561127181611221565b9150602083013561128181611221565b809150509250929050565b60006020828403121561129e57600080fd5b5035919050565b6000806000606084860312156112ba57600080fd5b83356112c581611221565b925060208401356112d581611221565b915060408401356112e581611221565b809150509250925092565b60008060006060848603121561130557600080fd5b505081359360208301359350604090920135919050565b6020808252818101527f4f776e61626c653a2063616c6c6572206973206e6f7420746865206f776e6572604082015260600190565b60006020828403121561136357600080fd5b5051919050565b634e487b7160e01b600052601160045260246000fd5b6000828210156113925761139261136a565b500390565b600082198211156113aa576113aa61136a565b500190565b60008160001904831182151516156113c9576113c961136a565b500290565b6000826113eb57634e487b7160e01b600052601260045260246000fd5b500490565b6020808252602e908201527f496e697469616c697a61626c653a20636f6e747261637420697320616c72656160408201526d191e481a5b9a5d1a585b1a5e995960921b60608201526080019056fea2646970667358221220278f456e50253e8fd5051409fe6ebdbc98b6f913d0e65d21e5ae131c0d06cd4264736f6c634300080a0033",
    "linkReferences": {}
  }
}