{
  "_format": "hh-sol-artifact-1",
  "contractName": "LiquidityRewardsDistributor",
  "sourceName": "contracts/LiquidityRewardsDistributor.sol",
  "abi": [
    {
      "inputs": [],
      "name": "InsufficientRewardsBalance",
      "type": "error"
    },
    {
      "inputs": [],
      "name": "InsufficientStakeBalance",
      "type": "error"
    },
    {
      "inputs": [],
      "name": "InvalidEndBlock",
      "type": "error"
    },
    {
      "inputs": [],
      "name": "InvalidRewardsAmount",
      "type": "error"
    },
    {
      "anonymous": false,
      "inputs": [
        {
          "indexed": true,
          "internalType": "address",
          "name": "previousOwner",
          "type": "address"
        },
        {
          "indexed": true,
          "internalType": "address",
          "name": "newOwner",
          "type": "address"
        }
      ],
      "name": "OwnershipTransferred",
      "type": "event"
    },
    {
      "inputs": [],
      "name": "claimRewards",
      "outputs": [
        {
          "internalType": "uint256",
          "name": "",
          "type": "uint256"
        }
      ],
      "stateMutability": "nonpayable",
      "type": "function"
    },
    {
      "inputs": [
        {
          "internalType": "uint256",
          "name": "amount",
          "type": "uint256"
        }
      ],
      "name": "deposit",
      "outputs": [],
      "stateMutability": "nonpayable",
      "type": "function"
    },
    {
      "inputs": [],
      "name": "distributionEndBlock",
      "outputs": [
        {
          "internalType": "uint256",
          "name": "",
          "type": "uint256"
        }
      ],
      "stateMutability": "view",
      "type": "function"
    },
    {
      "inputs": [],
      "name": "distributionStartBlock",
      "outputs": [
        {
          "internalType": "uint256",
          "name": "",
          "type": "uint256"
        }
      ],
      "stateMutability": "view",
      "type": "function"
    },
    {
      "inputs": [
        {
          "internalType": "address",
          "name": "holder",
          "type": "address"
        }
      ],
      "name": "getStakingBalance",
      "outputs": [
        {
          "internalType": "uint256",
          "name": "",
          "type": "uint256"
        }
      ],
      "stateMutability": "view",
      "type": "function"
    },
    {
      "inputs": [
        {
          "internalType": "address",
          "name": "holder",
          "type": "address"
        }
      ],
      "name": "getUnclaimedRewards",
      "outputs": [
        {
          "internalType": "uint256",
          "name": "",
          "type": "uint256"
        }
      ],
      "stateMutability": "view",
      "type": "function"
    },
    {
      "inputs": [
        {
          "internalType": "contract IERC20",
          "name": "_rewardsToken",
          "type": "address"
        },
        {
          "internalType": "contract IERC20",
          "name": "_lpToken",
          "type": "address"
        }
      ],
      "name": "initialize",
      "outputs": [],
      "stateMutability": "nonpayable",
      "type": "function"
    },
    {
      "inputs": [],
      "name": "lpToken",
      "outputs": [
        {
          "internalType": "contract IERC20",
          "name": "",
          "type": "address"
        }
      ],
      "stateMutability": "view",
      "type": "function"
    },
    {
      "inputs": [],
      "name": "owner",
      "outputs": [
        {
          "internalType": "address",
          "name": "",
          "type": "address"
        }
      ],
      "stateMutability": "view",
      "type": "function"
    },
    {
      "inputs": [],
      "name": "renounceOwnership",
      "outputs": [],
      "stateMutability": "nonpayable",
      "type": "function"
    },
    {
      "inputs": [],
      "name": "rewardsToken",
      "outputs": [
        {
          "internalType": "contract IERC20",
          "name": "",
          "type": "address"
        }
      ],
      "stateMutability": "view",
      "type": "function"
    },
    {
      "inputs": [
        {
          "internalType": "uint256",
          "name": "amount",
          "type": "uint256"
        },
        {
          "internalType": "uint256",
          "name": "_distributionEndBlock",
          "type": "uint256"
        }
      ],
      "name": "setRewards",
      "outputs": [],
      "stateMutability": "nonpayable",
      "type": "function"
    },
    {
      "inputs": [],
      "name": "totalRewards",
      "outputs": [
        {
          "internalType": "uint256",
          "name": "",
          "type": "uint256"
        }
      ],
      "stateMutability": "view",
      "type": "function"
    },
    {
      "inputs": [],
      "name": "totalStaked",
      "outputs": [
        {
          "internalType": "uint256",
          "name": "",
          "type": "uint256"
        }
      ],
      "stateMutability": "view",
      "type": "function"
    },
    {
      "inputs": [
        {
          "internalType": "address",
          "name": "newOwner",
          "type": "address"
        }
      ],
      "name": "transferOwnership",
      "outputs": [],
      "stateMutability": "nonpayable",
      "type": "function"
    },
    {
      "inputs": [
        {
          "internalType": "uint256",
          "name": "amount",
          "type": "uint256"
        }
      ],
      "name": "withdraw",
      "outputs": [],
      "stateMutability": "nonpayable",
      "type": "function"
    },
    {
      "inputs": [],
      "name": "withdrawAndClaim",
      "outputs": [
        {
          "internalType": "uint256",
          "name": "stakingAmount",
          "type": "uint256"
        },
        {
          "internalType": "uint256",
          "name": "unclaimedRewards",
          "type": "uint256"
        }
      ],
      "stateMutability": "nonpayable",
      "type": "function"
    }
  ],
  "bytecode": "0x608060405234801561001057600080fd5b5061002d61002261003260201b60201c565b61003a60201b60201c565b6100ff565b600033905090565b60008060029054906101000a900473ffffffffffffffffffffffffffffffffffffffff16905081600060026101000a81548173ffffffffffffffffffffffffffffffffffffffff021916908373ffffffffffffffffffffffffffffffffffffffff1602179055508173ffffffffffffffffffffffffffffffffffffffff168173ffffffffffffffffffffffffffffffffffffffff167f8be0079c531659141344cd1fd0a4f28419497f9722a3daafe3b4186f6b6457e060405160405180910390a35050565b612104806200010f6000396000f3fe608060405234801561001057600080fd5b506004361061010b5760003560e01c8063715018a6116100a2578063b04ef9c211610071578063b04ef9c214610270578063b6b55f25146102a0578063d1af0c7d146102bc578063d4437724146102da578063f2fde38b146102f95761010b565b8063715018a61461020c578063735c6f5914610216578063817b1cd2146102345780638da5cb5b146102525761010b565b8063485cc955116100de578063485cc955146101865780635fcbd285146101a2578063654e51e7146101c057806369a69e29146101dc5761010b565b80630e15561a146101105780632e1a7d4d1461012e578063372500ab1461014a578063411c9e1114610168575b600080fd5b610118610315565b604051610125919061178c565b60405180910390f35b610148600480360381019061014391906117d8565b61031b565b005b61015261049b565b60405161015f919061178c565b60405180910390f35b61017061065c565b60405161017d919061178c565b60405180910390f35b6101a0600480360381019061019b9190611875565b610662565b005b6101aa6107ca565b6040516101b79190611914565b60405180910390f35b6101da60048036038101906101d5919061192f565b6107f0565b005b6101f660048036038101906101f1919061199b565b6109f9565b604051610203919061178c565b60405180910390f35b610214610a8c565b005b61021e610b14565b60405161022b919061178c565b60405180910390f35b61023c610b1a565b604051610249919061178c565b60405180910390f35b61025a610b20565b60405161026791906119d7565b60405180910390f35b61028a6004803603810190610285919061199b565b610b49565b604051610297919061178c565b60405180910390f35b6102ba60048036038101906102b591906117d8565b610b92565b005b6102c4610d37565b6040516102d19190611914565b60405180910390f35b6102e2610d5d565b6040516102f09291906119f2565b60405180910390f35b610313600480360381019061030e919061199b565b610fc8565b005b60055481565b600a60003373ffffffffffffffffffffffffffffffffffffffff1673ffffffffffffffffffffffffffffffffffffffff16815260200190815260200160002054811115610394576040517f263892ab00000000000000000000000000000000000000000000000000000000815260040160405180910390fd5b6003544311156103a9576103a7336110c0565b505b80600a60003373ffffffffffffffffffffffffffffffffffffffff1673ffffffffffffffffffffffffffffffffffffffff168152602001908152602001600020546103f49190611a4a565b600a60003373ffffffffffffffffffffffffffffffffffffffff1673ffffffffffffffffffffffffffffffffffffffff16815260200190815260200160002081905550806006546104459190611a4a565b6006819055506104983382600260009054906101000a900473ffffffffffffffffffffffffffffffffffffffff1673ffffffffffffffffffffffffffffffffffffffff1661126d9092919063ffffffff16565b50565b60006003544311156104b2576104b0336110c0565b505b6000600d60003373ffffffffffffffffffffffffffffffffffffffff1673ffffffffffffffffffffffffffffffffffffffff16815260200190815260200160002054600c60003373ffffffffffffffffffffffffffffffffffffffff1673ffffffffffffffffffffffffffffffffffffffff1681526020019081526020016000205461053e9190611a4a565b90506000811161057a576040517faee596b200000000000000000000000000000000000000000000000000000000815260040160405180910390fd5b80600d60003373ffffffffffffffffffffffffffffffffffffffff1673ffffffffffffffffffffffffffffffffffffffff168152602001908152602001600020546105c59190611a7e565b600d60003373ffffffffffffffffffffffffffffffffffffffff1673ffffffffffffffffffffffffffffffffffffffff168152602001908152602001600020819055506106553382600160009054906101000a900473ffffffffffffffffffffffffffffffffffffffff1673ffffffffffffffffffffffffffffffffffffffff1661126d9092919063ffffffff16565b8091505090565b60035481565b600060019054906101000a900460ff1661068a5760008054906101000a900460ff1615610693565b6106926112f3565b5b6106d2576040517f08c379a00000000000000000000000000000000000000000000000000000000081526004016106c990611b57565b60405180910390fd5b60008060019054906101000a900460ff161590508015610722576001600060016101000a81548160ff02191690831515021790555060016000806101000a81548160ff0219169083151502179055505b82600160006101000a81548173ffffffffffffffffffffffffffffffffffffffff021916908373ffffffffffffffffffffffffffffffffffffffff16021790555081600260006101000a81548173ffffffffffffffffffffffffffffffffffffffff021916908373ffffffffffffffffffffffffffffffffffffffff16021790555080156107c55760008060016101000a81548160ff0219169083151502179055505b505050565b600260009054906101000a900473ffffffffffffffffffffffffffffffffffffffff1681565b6107f8611304565b73ffffffffffffffffffffffffffffffffffffffff16610816610b20565b73ffffffffffffffffffffffffffffffffffffffff161461086c576040517f08c379a000000000000000000000000000000000000000000000000000000000815260040161086390611bc3565b60405180910390fd5b600160009054906101000a900473ffffffffffffffffffffffffffffffffffffffff1673ffffffffffffffffffffffffffffffffffffffff166370a08231306040518263ffffffff1660e01b81526004016108c791906119d7565b602060405180830381865afa1580156108e4573d6000803e3d6000fd5b505050506040513d601f19601f820116820180604052508101906109089190611bf8565b821115610941576040517faee596b200000000000000000000000000000000000000000000000000000000815260040160405180910390fd5b600854821161097c576040517f6989984d00000000000000000000000000000000000000000000000000000000815260040160405180910390fd5b4381116109b5576040517f7bd4747600000000000000000000000000000000000000000000000000000000815260040160405180910390fd5b60085460055411156109ca576109c961130c565b5b8160058190555043600381905550806004819055506003546004546109ef9190611a4a565b6007819055505050565b6000600d60008373ffffffffffffffffffffffffffffffffffffffff1673ffffffffffffffffffffffffffffffffffffffff16815260200190815260200160002054600c60008473ffffffffffffffffffffffffffffffffffffffff1673ffffffffffffffffffffffffffffffffffffffff16815260200190815260200160002054610a859190611a4a565b9050919050565b610a94611304565b73ffffffffffffffffffffffffffffffffffffffff16610ab2610b20565b73ffffffffffffffffffffffffffffffffffffffff1614610b08576040517f08c379a0000000000000000000000000000000000000000000000000000000008152600401610aff90611bc3565b60405180910390fd5b610b1260006113a8565b565b60045481565b60065481565b60008060029054906101000a900473ffffffffffffffffffffffffffffffffffffffff16905090565b6000600a60008373ffffffffffffffffffffffffffffffffffffffff1673ffffffffffffffffffffffffffffffffffffffff168152602001908152602001600020549050919050565b610be1333083600260009054906101000a900473ffffffffffffffffffffffffffffffffffffffff1673ffffffffffffffffffffffffffffffffffffffff1661146d909392919063ffffffff16565b600354431115610c92576000600a60003373ffffffffffffffffffffffffffffffffffffffff1673ffffffffffffffffffffffffffffffffffffffff168152602001908152602001600020541115610c4257610c3c336110c0565b50610c91565b610c4a61130c565b600954600b60003373ffffffffffffffffffffffffffffffffffffffff1673ffffffffffffffffffffffffffffffffffffffff168152602001908152602001600020819055505b5b80600a60003373ffffffffffffffffffffffffffffffffffffffff1673ffffffffffffffffffffffffffffffffffffffff16815260200190815260200160002054610cdd9190611a7e565b600a60003373ffffffffffffffffffffffffffffffffffffffff1673ffffffffffffffffffffffffffffffffffffffff1681526020019081526020016000208190555080600654610d2e9190611a7e565b60068190555050565b600160009054906101000a900473ffffffffffffffffffffffffffffffffffffffff1681565b600080600354431115610d7557610d73336110c0565b505b600a60003373ffffffffffffffffffffffffffffffffffffffff1673ffffffffffffffffffffffffffffffffffffffff168152602001908152602001600020549150600d60003373ffffffffffffffffffffffffffffffffffffffff1673ffffffffffffffffffffffffffffffffffffffff16815260200190815260200160002054600c60003373ffffffffffffffffffffffffffffffffffffffff1673ffffffffffffffffffffffffffffffffffffffff16815260200190815260200160002054610e419190611a4a565b90506000600a60003373ffffffffffffffffffffffffffffffffffffffff1673ffffffffffffffffffffffffffffffffffffffff1681526020019081526020016000208190555081600654610e969190611a4a565b60068190555080600d60003373ffffffffffffffffffffffffffffffffffffffff1673ffffffffffffffffffffffffffffffffffffffff16815260200190815260200160002054610ee79190611a7e565b600d60003373ffffffffffffffffffffffffffffffffffffffff1673ffffffffffffffffffffffffffffffffffffffff16815260200190815260200160002081905550610f773383600260009054906101000a900473ffffffffffffffffffffffffffffffffffffffff1673ffffffffffffffffffffffffffffffffffffffff1661126d9092919063ffffffff16565b610fc43382600160009054906101000a900473ffffffffffffffffffffffffffffffffffffffff1673ffffffffffffffffffffffffffffffffffffffff1661126d9092919063ffffffff16565b9091565b610fd0611304565b73ffffffffffffffffffffffffffffffffffffffff16610fee610b20565b73ffffffffffffffffffffffffffffffffffffffff1614611044576040517f08c379a000000000000000000000000000000000000000000000000000000000815260040161103b90611bc3565b60405180910390fd5b600073ffffffffffffffffffffffffffffffffffffffff168173ffffffffffffffffffffffffffffffffffffffff1614156110b4576040517f08c379a00000000000000000000000000000000000000000000000000000000081526004016110ab90611c97565b60405180910390fd5b6110bd816113a8565b50565b600080600a60008473ffffffffffffffffffffffffffffffffffffffff1673ffffffffffffffffffffffffffffffffffffffff16815260200190815260200160002054905060008111611117576000915050611268565b61111f61130c565b6000600b60008573ffffffffffffffffffffffffffffffffffffffff1673ffffffffffffffffffffffffffffffffffffffff1681526020019081526020016000205460095461116e9190611a4a565b826111799190611cb7565b90506000811161118e57600092505050611268565b600954600b60008673ffffffffffffffffffffffffffffffffffffffff1673ffffffffffffffffffffffffffffffffffffffff1681526020019081526020016000208190555080600c60008673ffffffffffffffffffffffffffffffffffffffff1673ffffffffffffffffffffffffffffffffffffffff1681526020019081526020016000205461121f9190611a7e565b600c60008673ffffffffffffffffffffffffffffffffffffffff1673ffffffffffffffffffffffffffffffffffffffff1681526020019081526020016000208190555080925050505b919050565b6112ee8363a9059cbb60e01b848460405160240161128c929190611d11565b604051602081830303815290604052907bffffffffffffffffffffffffffffffffffffffffffffffffffffffff19166020820180517bffffffffffffffffffffffffffffffffffffffffffffffffffffffff83818316178352505050506114f6565b505050565b60006112fe306115bd565b15905090565b600033905090565b60006005541161131b576113a6565b60006003544361132b9190611a4a565b90506000600754826005546113409190611cb7565b61134a9190611d69565b905060006008548261135c9190611a4a565b90506000811161136e575050506113a6565b81600881905550600060065411156113a2576006548161138e9190611d69565b60095461139b9190611a7e565b6009819055505b5050505b565b60008060029054906101000a900473ffffffffffffffffffffffffffffffffffffffff16905081600060026101000a81548173ffffffffffffffffffffffffffffffffffffffff021916908373ffffffffffffffffffffffffffffffffffffffff1602179055508173ffffffffffffffffffffffffffffffffffffffff168173ffffffffffffffffffffffffffffffffffffffff167f8be0079c531659141344cd1fd0a4f28419497f9722a3daafe3b4186f6b6457e060405160405180910390a35050565b6114f0846323b872dd60e01b85858560405160240161148e93929190611d9a565b604051602081830303815290604052907bffffffffffffffffffffffffffffffffffffffffffffffffffffffff19166020820180517bffffffffffffffffffffffffffffffffffffffffffffffffffffffff83818316178352505050506114f6565b50505050565b6000611558826040518060400160405280602081526020017f5361666545524332303a206c6f772d6c6576656c2063616c6c206661696c65648152508573ffffffffffffffffffffffffffffffffffffffff166115e09092919063ffffffff16565b90506000815111156115b857808060200190518101906115789190611e09565b6115b7576040517f08c379a00000000000000000000000000000000000000000000000000000000081526004016115ae90611ea8565b60405180910390fd5b5b505050565b6000808273ffffffffffffffffffffffffffffffffffffffff163b119050919050565b60606115ef84846000856115f8565b90509392505050565b60608247101561163d576040517f08c379a000000000000000000000000000000000000000000000000000000000815260040161163490611f3a565b60405180910390fd5b611646856115bd565b611685576040517f08c379a000000000000000000000000000000000000000000000000000000000815260040161167c90611fa6565b60405180910390fd5b6000808673ffffffffffffffffffffffffffffffffffffffff1685876040516116ae9190612040565b60006040518083038185875af1925050503d80600081146116eb576040519150601f19603f3d011682016040523d82523d6000602084013e6116f0565b606091505b509150915061170082828661170c565b92505050949350505050565b6060831561171c5782905061176c565b60008351111561172f5782518084602001fd5b816040517f08c379a000000000000000000000000000000000000000000000000000000000815260040161176391906120ac565b60405180910390fd5b9392505050565b6000819050919050565b61178681611773565b82525050565b60006020820190506117a1600083018461177d565b92915050565b600080fd5b6117b581611773565b81146117c057600080fd5b50565b6000813590506117d2816117ac565b92915050565b6000602082840312156117ee576117ed6117a7565b5b60006117fc848285016117c3565b91505092915050565b600073ffffffffffffffffffffffffffffffffffffffff82169050919050565b600061183082611805565b9050919050565b600061184282611825565b9050919050565b61185281611837565b811461185d57600080fd5b50565b60008135905061186f81611849565b92915050565b6000806040838503121561188c5761188b6117a7565b5b600061189a85828601611860565b92505060206118ab85828601611860565b9150509250929050565b6000819050919050565b60006118da6118d56118d084611805565b6118b5565b611805565b9050919050565b60006118ec826118bf565b9050919050565b60006118fe826118e1565b9050919050565b61190e816118f3565b82525050565b60006020820190506119296000830184611905565b92915050565b60008060408385031215611946576119456117a7565b5b6000611954858286016117c3565b9250506020611965858286016117c3565b9150509250929050565b61197881611825565b811461198357600080fd5b50565b6000813590506119958161196f565b92915050565b6000602082840312156119b1576119b06117a7565b5b60006119bf84828501611986565b91505092915050565b6119d181611825565b82525050565b60006020820190506119ec60008301846119c8565b92915050565b6000604082019050611a07600083018561177d565b611a14602083018461177d565b9392505050565b7f4e487b7100000000000000000000000000000000000000000000000000000000600052601160045260246000fd5b6000611a5582611773565b9150611a6083611773565b925082821015611a7357611a72611a1b565b5b828203905092915050565b6000611a8982611773565b9150611a9483611773565b9250827fffffffffffffffffffffffffffffffffffffffffffffffffffffffffffffffff03821115611ac957611ac8611a1b565b5b828201905092915050565b600082825260208201905092915050565b7f496e697469616c697a61626c653a20636f6e747261637420697320616c72656160008201527f647920696e697469616c697a6564000000000000000000000000000000000000602082015250565b6000611b41602e83611ad4565b9150611b4c82611ae5565b604082019050919050565b60006020820190508181036000830152611b7081611b34565b9050919050565b7f4f776e61626c653a2063616c6c6572206973206e6f7420746865206f776e6572600082015250565b6000611bad602083611ad4565b9150611bb882611b77565b602082019050919050565b60006020820190508181036000830152611bdc81611ba0565b9050919050565b600081519050611bf2816117ac565b92915050565b600060208284031215611c0e57611c0d6117a7565b5b6000611c1c84828501611be3565b91505092915050565b7f4f776e61626c653a206e6577206f776e657220697320746865207a65726f206160008201527f6464726573730000000000000000000000000000000000000000000000000000602082015250565b6000611c81602683611ad4565b9150611c8c82611c25565b604082019050919050565b60006020820190508181036000830152611cb081611c74565b9050919050565b6000611cc282611773565b9150611ccd83611773565b9250817fffffffffffffffffffffffffffffffffffffffffffffffffffffffffffffffff0483118215151615611d0657611d05611a1b565b5b828202905092915050565b6000604082019050611d2660008301856119c8565b611d33602083018461177d565b9392505050565b7f4e487b7100000000000000000000000000000000000000000000000000000000600052601260045260246000fd5b6000611d7482611773565b9150611d7f83611773565b925082611d8f57611d8e611d3a565b5b828204905092915050565b6000606082019050611daf60008301866119c8565b611dbc60208301856119c8565b611dc9604083018461177d565b949350505050565b60008115159050919050565b611de681611dd1565b8114611df157600080fd5b50565b600081519050611e0381611ddd565b92915050565b600060208284031215611e1f57611e1e6117a7565b5b6000611e2d84828501611df4565b91505092915050565b7f5361666545524332303a204552433230206f7065726174696f6e20646964206e60008201527f6f74207375636365656400000000000000000000000000000000000000000000602082015250565b6000611e92602a83611ad4565b9150611e9d82611e36565b604082019050919050565b60006020820190508181036000830152611ec181611e85565b9050919050565b7f416464726573733a20696e73756666696369656e742062616c616e636520666f60008201527f722063616c6c0000000000000000000000000000000000000000000000000000602082015250565b6000611f24602683611ad4565b9150611f2f82611ec8565b604082019050919050565b60006020820190508181036000830152611f5381611f17565b9050919050565b7f416464726573733a2063616c6c20746f206e6f6e2d636f6e7472616374000000600082015250565b6000611f90601d83611ad4565b9150611f9b82611f5a565b602082019050919050565b60006020820190508181036000830152611fbf81611f83565b9050919050565b600081519050919050565b600081905092915050565b60005b83811015611ffa578082015181840152602081019050611fdf565b83811115612009576000848401525b50505050565b600061201a82611fc6565b6120248185611fd1565b9350612034818560208601611fdc565b80840191505092915050565b600061204c828461200f565b915081905092915050565b600081519050919050565b6000601f19601f8301169050919050565b600061207e82612057565b6120888185611ad4565b9350612098818560208601611fdc565b6120a181612062565b840191505092915050565b600060208201905081810360008301526120c68184612073565b90509291505056fea26469706673582212205a66479681bd9609744114d29e2b5436e48f2e06fba6120a8caad8b76df0c75564736f6c634300080a0033",
  "linkReferences": {},
  "deployedLinkReferences": {}
}