{
  "_format": "hh-sol-artifact-1",
  "contractName": "LiquidityRewardsDistributor",
  "sourceName": "contracts/LiquidityRewardsDistributor.sol",
  "abi": [
    {
      "inputs": [],
      "name": "InsufficientRewardsBalance",
      "type": "error"
    },
    {
      "inputs": [],
      "name": "InsufficientStakeBalance",
      "type": "error"
    },
    {
      "inputs": [],
      "name": "InvalidEndBlock",
      "type": "error"
    },
    {
      "inputs": [],
      "name": "InvalidRewardsAmount",
      "type": "error"
    },
    {
      "inputs": [],
      "name": "InvalidStartBlock",
      "type": "error"
    },
    {
      "anonymous": false,
      "inputs": [
        {
          "indexed": true,
          "internalType": "address",
          "name": "user",
          "type": "address"
        },
        {
          "indexed": false,
          "internalType": "uint256",
          "name": "rewards",
          "type": "uint256"
        }
      ],
      "name": "Claim",
      "type": "event"
    },
    {
      "anonymous": false,
      "inputs": [
        {
          "indexed": true,
          "internalType": "address",
          "name": "user",
          "type": "address"
        },
        {
          "indexed": false,
          "internalType": "uint256",
          "name": "amount",
          "type": "uint256"
        }
      ],
      "name": "Deposit",
      "type": "event"
    },
    {
      "anonymous": false,
      "inputs": [
        {
          "indexed": true,
          "internalType": "address",
          "name": "previousOwner",
          "type": "address"
        },
        {
          "indexed": true,
          "internalType": "address",
          "name": "newOwner",
          "type": "address"
        }
      ],
      "name": "OwnershipTransferred",
      "type": "event"
    },
    {
      "anonymous": false,
      "inputs": [
        {
          "indexed": true,
          "internalType": "address",
          "name": "user",
          "type": "address"
        },
        {
          "indexed": false,
          "internalType": "uint256",
          "name": "amount",
          "type": "uint256"
        }
      ],
      "name": "Withdraw",
      "type": "event"
    },
    {
      "inputs": [],
      "name": "claimRewards",
      "outputs": [
        {
          "internalType": "uint256",
          "name": "",
          "type": "uint256"
        }
      ],
      "stateMutability": "nonpayable",
      "type": "function"
    },
    {
      "inputs": [
        {
          "internalType": "uint256",
          "name": "amount",
          "type": "uint256"
        }
      ],
      "name": "deposit",
      "outputs": [],
      "stateMutability": "nonpayable",
      "type": "function"
    },
    {
      "inputs": [],
      "name": "distributedRewards",
      "outputs": [
        {
          "internalType": "uint256",
          "name": "",
          "type": "uint256"
        }
      ],
      "stateMutability": "view",
      "type": "function"
    },
    {
      "inputs": [],
      "name": "endBlock",
      "outputs": [
        {
          "internalType": "uint256",
          "name": "",
          "type": "uint256"
        }
      ],
      "stateMutability": "view",
      "type": "function"
    },
    {
      "inputs": [
        {
          "internalType": "address",
          "name": "holder",
          "type": "address"
        }
      ],
      "name": "getStakingBalance",
      "outputs": [
        {
          "internalType": "uint256",
          "name": "",
          "type": "uint256"
        }
      ],
      "stateMutability": "view",
      "type": "function"
    },
    {
      "inputs": [
        {
          "internalType": "address",
          "name": "holder",
          "type": "address"
        }
      ],
      "name": "getUnclaimedRewards",
      "outputs": [
        {
          "internalType": "uint256",
          "name": "",
          "type": "uint256"
        }
      ],
      "stateMutability": "view",
      "type": "function"
    },
    {
      "inputs": [
        {
          "internalType": "contract IERC20",
          "name": "_rewardsToken",
          "type": "address"
        },
        {
          "internalType": "contract IERC20",
          "name": "_lpToken",
          "type": "address"
        }
      ],
      "name": "initialize",
      "outputs": [],
      "stateMutability": "nonpayable",
      "type": "function"
    },
    {
      "inputs": [],
      "name": "lpToken",
      "outputs": [
        {
          "internalType": "contract IERC20",
          "name": "",
          "type": "address"
        }
      ],
      "stateMutability": "view",
      "type": "function"
    },
    {
      "inputs": [],
      "name": "owner",
      "outputs": [
        {
          "internalType": "address",
          "name": "",
          "type": "address"
        }
      ],
      "stateMutability": "view",
      "type": "function"
    },
    {
      "inputs": [
        {
          "internalType": "contract IERC20",
          "name": "token",
          "type": "address"
        },
        {
          "internalType": "address",
          "name": "to",
          "type": "address"
        }
      ],
      "name": "recoverTokens",
      "outputs": [
        {
          "internalType": "uint256",
          "name": "amount",
          "type": "uint256"
        }
      ],
      "stateMutability": "nonpayable",
      "type": "function"
    },
    {
      "inputs": [],
      "name": "renounceOwnership",
      "outputs": [],
      "stateMutability": "nonpayable",
      "type": "function"
    },
    {
      "inputs": [],
      "name": "rewardsToken",
      "outputs": [
        {
          "internalType": "contract IERC20",
          "name": "",
          "type": "address"
        }
      ],
      "stateMutability": "view",
      "type": "function"
    },
    {
      "inputs": [
        {
          "internalType": "uint256",
          "name": "amount",
          "type": "uint256"
        },
        {
          "internalType": "uint256",
          "name": "_startBlock",
          "type": "uint256"
        },
        {
          "internalType": "uint256",
          "name": "_endBlock",
          "type": "uint256"
        }
      ],
      "name": "setRewards",
      "outputs": [],
      "stateMutability": "nonpayable",
      "type": "function"
    },
    {
      "inputs": [],
      "name": "startBlock",
      "outputs": [
        {
          "internalType": "uint256",
          "name": "",
          "type": "uint256"
        }
      ],
      "stateMutability": "view",
      "type": "function"
    },
    {
      "inputs": [],
      "name": "totalRewards",
      "outputs": [
        {
          "internalType": "uint256",
          "name": "",
          "type": "uint256"
        }
      ],
      "stateMutability": "view",
      "type": "function"
    },
    {
      "inputs": [],
      "name": "totalStaked",
      "outputs": [
        {
          "internalType": "uint256",
          "name": "",
          "type": "uint256"
        }
      ],
      "stateMutability": "view",
      "type": "function"
    },
    {
      "inputs": [
        {
          "internalType": "address",
          "name": "newOwner",
          "type": "address"
        }
      ],
      "name": "transferOwnership",
      "outputs": [],
      "stateMutability": "nonpayable",
      "type": "function"
    },
    {
      "inputs": [
        {
          "internalType": "uint256",
          "name": "amount",
          "type": "uint256"
        }
      ],
      "name": "withdraw",
      "outputs": [],
      "stateMutability": "nonpayable",
      "type": "function"
    },
    {
      "inputs": [],
      "name": "withdrawAndClaim",
      "outputs": [
        {
          "internalType": "uint256",
          "name": "stakingAmount",
          "type": "uint256"
        },
        {
          "internalType": "uint256",
          "name": "unclaimedRewards",
          "type": "uint256"
        }
      ],
      "stateMutability": "nonpayable",
      "type": "function"
    }
  ],
  "bytecode": "0x60806040523480156200001157600080fd5b5062000032620000266200003860201b60201c565b6200004060201b60201c565b62000105565b600033905090565b60008060029054906101000a900473ffffffffffffffffffffffffffffffffffffffff16905081600060026101000a81548173ffffffffffffffffffffffffffffffffffffffff021916908373ffffffffffffffffffffffffffffffffffffffff1602179055508173ffffffffffffffffffffffffffffffffffffffff168173ffffffffffffffffffffffffffffffffffffffff167f8be0079c531659141344cd1fd0a4f28419497f9722a3daafe3b4186f6b6457e060405160405180910390a35050565b61261880620001156000396000f3fe608060405234801561001057600080fd5b50600436106101215760003560e01c8063715018a6116100ad578063d1af0c7d11610071578063d1af0c7d146102e6578063d443772414610304578063f2fde38b14610323578063f36d1e4e1461033f578063f3e14f1e1461035b57610121565b8063715018a614610254578063817b1cd21461025e5780638da5cb5b1461027c578063b04ef9c21461029a578063b6b55f25146102ca57610121565b8063372500ab116100f4578063372500ab146101ae578063485cc955146101cc57806348cd4cb1146101e85780635fcbd2851461020657806369a69e291461022457610121565b8063056097ac14610126578063083c6323146101565780630e15561a146101745780632e1a7d4d14610192575b600080fd5b610140600480360381019061013b9190611cd5565b610379565b60405161014d9190611d2e565b60405180910390f35b61015e610577565b60405161016b9190611d2e565b60405180910390f35b61017c61057d565b6040516101899190611d2e565b60405180910390f35b6101ac60048036038101906101a79190611d75565b610583565b005b6101b6610751565b6040516101c39190611d2e565b60405180910390f35b6101e660048036038101906101e19190611da2565b610960565b005b6101f0610ac8565b6040516101fd9190611d2e565b60405180910390f35b61020e610ace565b60405161021b9190611e41565b60405180910390f35b61023e60048036038101906102399190611e5c565b610af4565b60405161024b9190611d2e565b60405180910390f35b61025c610b87565b005b610266610c0f565b6040516102739190611d2e565b60405180910390f35b610284610c15565b6040516102919190611e98565b60405180910390f35b6102b460048036038101906102af9190611e5c565b610c3e565b6040516102c19190611d2e565b60405180910390f35b6102e460048036038101906102df9190611d75565b610c87565b005b6102ee610e7a565b6040516102fb9190611e41565b60405180910390f35b61030c610ea0565b60405161031a929190611eb3565b60405180910390f35b61033d60048036038101906103389190611e5c565b6111a7565b005b61035960048036038101906103549190611edc565b61129f565b005b610363611521565b6040516103709190611d2e565b60405180910390f35b6000610383611527565b73ffffffffffffffffffffffffffffffffffffffff166103a1610c15565b73ffffffffffffffffffffffffffffffffffffffff16146103f7576040517f08c379a00000000000000000000000000000000000000000000000000000000081526004016103ee90611f8c565b60405180910390fd5b8273ffffffffffffffffffffffffffffffffffffffff166370a08231306040518263ffffffff1660e01b81526004016104309190611e98565b602060405180830381865afa15801561044d573d6000803e3d6000fd5b505050506040513d601f19601f820116820180604052508101906104719190611fc1565b9050600260009054906101000a900473ffffffffffffffffffffffffffffffffffffffff1673ffffffffffffffffffffffffffffffffffffffff168373ffffffffffffffffffffffffffffffffffffffff1614156104de57600554816104d7919061201d565b9050610546565b600160009054906101000a900473ffffffffffffffffffffffffffffffffffffffff1673ffffffffffffffffffffffffffffffffffffffff168373ffffffffffffffffffffffffffffffffffffffff1614156105455760065481610542919061201d565b90505b5b61057182828573ffffffffffffffffffffffffffffffffffffffff1661152f9092919063ffffffff16565b92915050565b60045481565b60065481565b600b60003373ffffffffffffffffffffffffffffffffffffffff1673ffffffffffffffffffffffffffffffffffffffff168152602001908152602001600020548111156105fc576040517f263892ab00000000000000000000000000000000000000000000000000000000815260040160405180910390fd5b6003544311156106115761060f336115b5565b505b80600b60003373ffffffffffffffffffffffffffffffffffffffff1673ffffffffffffffffffffffffffffffffffffffff1681526020019081526020016000205461065c919061201d565b600b60003373ffffffffffffffffffffffffffffffffffffffff1673ffffffffffffffffffffffffffffffffffffffff16815260200190815260200160002081905550806005546106ad919061201d565b6005819055506107003382600260009054906101000a900473ffffffffffffffffffffffffffffffffffffffff1673ffffffffffffffffffffffffffffffffffffffff1661152f9092919063ffffffff16565b3373ffffffffffffffffffffffffffffffffffffffff167f884edad9ce6fa2440d8a54cc123490eb96d2768479d49ff9c7366125a9424364826040516107469190611d2e565b60405180910390a250565b600060035443111561076857610766336115b5565b505b6000600e60003373ffffffffffffffffffffffffffffffffffffffff1673ffffffffffffffffffffffffffffffffffffffff16815260200190815260200160002054600d60003373ffffffffffffffffffffffffffffffffffffffff1673ffffffffffffffffffffffffffffffffffffffff168152602001908152602001600020546107f4919061201d565b905060008111610830576040517faee596b200000000000000000000000000000000000000000000000000000000815260040160405180910390fd5b80600e60003373ffffffffffffffffffffffffffffffffffffffff1673ffffffffffffffffffffffffffffffffffffffff1681526020019081526020016000205461087b9190612051565b600e60003373ffffffffffffffffffffffffffffffffffffffff1673ffffffffffffffffffffffffffffffffffffffff1681526020019081526020016000208190555061090b3382600160009054906101000a900473ffffffffffffffffffffffffffffffffffffffff1673ffffffffffffffffffffffffffffffffffffffff1661152f9092919063ffffffff16565b3373ffffffffffffffffffffffffffffffffffffffff167f47cee97cb7acd717b3c0aa1435d004cd5b3c8c57d70dbceb4e4458bbd60e39d4826040516109519190611d2e565b60405180910390a28091505090565b600060019054906101000a900460ff166109885760008054906101000a900460ff1615610991565b61099061177a565b5b6109d0576040517f08c379a00000000000000000000000000000000000000000000000000000000081526004016109c790612119565b60405180910390fd5b60008060019054906101000a900460ff161590508015610a20576001600060016101000a81548160ff02191690831515021790555060016000806101000a81548160ff0219169083151502179055505b82600160006101000a81548173ffffffffffffffffffffffffffffffffffffffff021916908373ffffffffffffffffffffffffffffffffffffffff16021790555081600260006101000a81548173ffffffffffffffffffffffffffffffffffffffff021916908373ffffffffffffffffffffffffffffffffffffffff1602179055508015610ac35760008060016101000a81548160ff0219169083151502179055505b505050565b60035481565b600260009054906101000a900473ffffffffffffffffffffffffffffffffffffffff1681565b6000600e60008373ffffffffffffffffffffffffffffffffffffffff1673ffffffffffffffffffffffffffffffffffffffff16815260200190815260200160002054600d60008473ffffffffffffffffffffffffffffffffffffffff1673ffffffffffffffffffffffffffffffffffffffff16815260200190815260200160002054610b80919061201d565b9050919050565b610b8f611527565b73ffffffffffffffffffffffffffffffffffffffff16610bad610c15565b73ffffffffffffffffffffffffffffffffffffffff1614610c03576040517f08c379a0000000000000000000000000000000000000000000000000000000008152600401610bfa90611f8c565b60405180910390fd5b610c0d600061178b565b565b60055481565b60008060029054906101000a900473ffffffffffffffffffffffffffffffffffffffff16905090565b6000600b60008373ffffffffffffffffffffffffffffffffffffffff1673ffffffffffffffffffffffffffffffffffffffff168152602001908152602001600020549050919050565b610cd6333083600260009054906101000a900473ffffffffffffffffffffffffffffffffffffffff1673ffffffffffffffffffffffffffffffffffffffff16611850909392919063ffffffff16565b600354431115610d87576000600b60003373ffffffffffffffffffffffffffffffffffffffff1673ffffffffffffffffffffffffffffffffffffffff168152602001908152602001600020541115610d3757610d31336115b5565b50610d86565b610d3f6118d9565b600954600c60003373ffffffffffffffffffffffffffffffffffffffff1673ffffffffffffffffffffffffffffffffffffffff168152602001908152602001600020819055505b5b80600b60003373ffffffffffffffffffffffffffffffffffffffff1673ffffffffffffffffffffffffffffffffffffffff16815260200190815260200160002054610dd29190612051565b600b60003373ffffffffffffffffffffffffffffffffffffffff1673ffffffffffffffffffffffffffffffffffffffff1681526020019081526020016000208190555080600554610e239190612051565b6005819055503373ffffffffffffffffffffffffffffffffffffffff167fe1fffcc4923d04b559f4d29a8bfc6cda04eb5b0d3c460751c2402c5c5cc9109c82604051610e6f9190611d2e565b60405180910390a250565b600160009054906101000a900473ffffffffffffffffffffffffffffffffffffffff1681565b600080600354431115610eb857610eb6336115b5565b505b600b60003373ffffffffffffffffffffffffffffffffffffffff1673ffffffffffffffffffffffffffffffffffffffff168152602001908152602001600020549150600e60003373ffffffffffffffffffffffffffffffffffffffff1673ffffffffffffffffffffffffffffffffffffffff16815260200190815260200160002054600d60003373ffffffffffffffffffffffffffffffffffffffff1673ffffffffffffffffffffffffffffffffffffffff16815260200190815260200160002054610f84919061201d565b90506000600b60003373ffffffffffffffffffffffffffffffffffffffff1673ffffffffffffffffffffffffffffffffffffffff1681526020019081526020016000208190555081600554610fd9919061201d565b60058190555080600e60003373ffffffffffffffffffffffffffffffffffffffff1673ffffffffffffffffffffffffffffffffffffffff1681526020019081526020016000205461102a9190612051565b600e60003373ffffffffffffffffffffffffffffffffffffffff1673ffffffffffffffffffffffffffffffffffffffff168152602001908152602001600020819055506110ba3383600260009054906101000a900473ffffffffffffffffffffffffffffffffffffffff1673ffffffffffffffffffffffffffffffffffffffff1661152f9092919063ffffffff16565b6111073382600160009054906101000a900473ffffffffffffffffffffffffffffffffffffffff1673ffffffffffffffffffffffffffffffffffffffff1661152f9092919063ffffffff16565b3373ffffffffffffffffffffffffffffffffffffffff167f884edad9ce6fa2440d8a54cc123490eb96d2768479d49ff9c7366125a94243648360405161114d9190611d2e565b60405180910390a23373ffffffffffffffffffffffffffffffffffffffff167f47cee97cb7acd717b3c0aa1435d004cd5b3c8c57d70dbceb4e4458bbd60e39d48260405161119b9190611d2e565b60405180910390a29091565b6111af611527565b73ffffffffffffffffffffffffffffffffffffffff166111cd610c15565b73ffffffffffffffffffffffffffffffffffffffff1614611223576040517f08c379a000000000000000000000000000000000000000000000000000000000815260040161121a90611f8c565b60405180910390fd5b600073ffffffffffffffffffffffffffffffffffffffff168173ffffffffffffffffffffffffffffffffffffffff161415611293576040517f08c379a000000000000000000000000000000000000000000000000000000000815260040161128a906121ab565b60405180910390fd5b61129c8161178b565b50565b6112a7611527565b73ffffffffffffffffffffffffffffffffffffffff166112c5610c15565b73ffffffffffffffffffffffffffffffffffffffff161461131b576040517f08c379a000000000000000000000000000000000000000000000000000000000815260040161131290611f8c565b60405180910390fd5b600160009054906101000a900473ffffffffffffffffffffffffffffffffffffffff1673ffffffffffffffffffffffffffffffffffffffff166370a08231306040518263ffffffff1660e01b81526004016113769190611e98565b602060405180830381865afa158015611393573d6000803e3d6000fd5b505050506040513d601f19601f820116820180604052508101906113b79190611fc1565b600754846113c5919061201d565b11156113fd576040517faee596b200000000000000000000000000000000000000000000000000000000815260040160405180910390fd5b43821015611437576040517fec2caa0d00000000000000000000000000000000000000000000000000000000815260040160405180910390fd5b818111611470576040517f7bd4747600000000000000000000000000000000000000000000000000000000815260040160405180910390fd5b60006005541115611484576114836118d9565b5b60075483116114bf576040517f6989984d00000000000000000000000000000000000000000000000000000000815260040160405180910390fd5b8260068190555081600381905550806004819055506003546004546114e4919061201d565b6c0c9f2c9cd04674edea40000000600754600654611502919061201d565b61150c91906121cb565b6115169190612254565b600881905550505050565b60075481565b600033905090565b6115b08363a9059cbb60e01b848460405160240161154e929190612285565b604051602081830303815290604052907bffffffffffffffffffffffffffffffffffffffffffffffffffffffff19166020820180517bffffffffffffffffffffffffffffffffffffffffffffffffffffffff83818316178352505050506119b7565b505050565b600080600b60008473ffffffffffffffffffffffffffffffffffffffff1673ffffffffffffffffffffffffffffffffffffffff1681526020019081526020016000205490506000811161160c576000915050611775565b6116146118d9565b60006c0c9f2c9cd04674edea40000000600c60008673ffffffffffffffffffffffffffffffffffffffff1673ffffffffffffffffffffffffffffffffffffffff16815260200190815260200160002054600954611671919061201d565b8361167c91906121cb565b6116869190612254565b90506000811161169b57600092505050611775565b600954600c60008673ffffffffffffffffffffffffffffffffffffffff1673ffffffffffffffffffffffffffffffffffffffff1681526020019081526020016000208190555080600d60008673ffffffffffffffffffffffffffffffffffffffff1673ffffffffffffffffffffffffffffffffffffffff1681526020019081526020016000205461172c9190612051565b600d60008673ffffffffffffffffffffffffffffffffffffffff1673ffffffffffffffffffffffffffffffffffffffff1681526020019081526020016000208190555080925050505b919050565b600061178530611a7e565b15905090565b60008060029054906101000a900473ffffffffffffffffffffffffffffffffffffffff16905081600060026101000a81548173ffffffffffffffffffffffffffffffffffffffff021916908373ffffffffffffffffffffffffffffffffffffffff1602179055508173ffffffffffffffffffffffffffffffffffffffff168173ffffffffffffffffffffffffffffffffffffffff167f8be0079c531659141344cd1fd0a4f28419497f9722a3daafe3b4186f6b6457e060405160405180910390a35050565b6118d3846323b872dd60e01b858585604051602401611871939291906122ae565b604051602081830303815290604052907bffffffffffffffffffffffffffffffffffffffffffffffffffffffff19166020820180517bffffffffffffffffffffffffffffffffffffffffffffffffffffffff83818316178352505050506119b7565b50505050565b6000600654116118e8576119b5565b600354600a5410156118fe57600354600a819055505b6000600454431161191e57600a5443611917919061201d565b9050611931565b600a5460045461192e919061201d565b90505b60008160085461194191906121cb565b9050600081116119525750506119b5565b43600a81905550600060055411156119b2576c0c9f2c9cd04674edea400000008161197d9190612254565b60075461198a9190612051565b6007819055506005548161199e9190612254565b6009546119ab9190612051565b6009819055505b50505b565b6000611a19826040518060400160405280602081526020017f5361666545524332303a206c6f772d6c6576656c2063616c6c206661696c65648152508573ffffffffffffffffffffffffffffffffffffffff16611aa19092919063ffffffff16565b9050600081511115611a795780806020019051810190611a39919061231d565b611a78576040517f08c379a0000000000000000000000000000000000000000000000000000000008152600401611a6f906123bc565b60405180910390fd5b5b505050565b6000808273ffffffffffffffffffffffffffffffffffffffff163b119050919050565b6060611ab08484600085611ab9565b90509392505050565b606082471015611afe576040517f08c379a0000000000000000000000000000000000000000000000000000000008152600401611af59061244e565b60405180910390fd5b611b0785611a7e565b611b46576040517f08c379a0000000000000000000000000000000000000000000000000000000008152600401611b3d906124ba565b60405180910390fd5b6000808673ffffffffffffffffffffffffffffffffffffffff168587604051611b6f9190612554565b60006040518083038185875af1925050503d8060008114611bac576040519150601f19603f3d011682016040523d82523d6000602084013e611bb1565b606091505b5091509150611bc1828286611bcd565b92505050949350505050565b60608315611bdd57829050611c2d565b600083511115611bf05782518084602001fd5b816040517f08c379a0000000000000000000000000000000000000000000000000000000008152600401611c2491906125c0565b60405180910390fd5b9392505050565b600080fd5b600073ffffffffffffffffffffffffffffffffffffffff82169050919050565b6000611c6482611c39565b9050919050565b6000611c7682611c59565b9050919050565b611c8681611c6b565b8114611c9157600080fd5b50565b600081359050611ca381611c7d565b92915050565b611cb281611c59565b8114611cbd57600080fd5b50565b600081359050611ccf81611ca9565b92915050565b60008060408385031215611cec57611ceb611c34565b5b6000611cfa85828601611c94565b9250506020611d0b85828601611cc0565b9150509250929050565b6000819050919050565b611d2881611d15565b82525050565b6000602082019050611d436000830184611d1f565b92915050565b611d5281611d15565b8114611d5d57600080fd5b50565b600081359050611d6f81611d49565b92915050565b600060208284031215611d8b57611d8a611c34565b5b6000611d9984828501611d60565b91505092915050565b60008060408385031215611db957611db8611c34565b5b6000611dc785828601611c94565b9250506020611dd885828601611c94565b9150509250929050565b6000819050919050565b6000611e07611e02611dfd84611c39565b611de2565b611c39565b9050919050565b6000611e1982611dec565b9050919050565b6000611e2b82611e0e565b9050919050565b611e3b81611e20565b82525050565b6000602082019050611e566000830184611e32565b92915050565b600060208284031215611e7257611e71611c34565b5b6000611e8084828501611cc0565b91505092915050565b611e9281611c59565b82525050565b6000602082019050611ead6000830184611e89565b92915050565b6000604082019050611ec86000830185611d1f565b611ed56020830184611d1f565b9392505050565b600080600060608486031215611ef557611ef4611c34565b5b6000611f0386828701611d60565b9350506020611f1486828701611d60565b9250506040611f2586828701611d60565b9150509250925092565b600082825260208201905092915050565b7f4f776e61626c653a2063616c6c6572206973206e6f7420746865206f776e6572600082015250565b6000611f76602083611f2f565b9150611f8182611f40565b602082019050919050565b60006020820190508181036000830152611fa581611f69565b9050919050565b600081519050611fbb81611d49565b92915050565b600060208284031215611fd757611fd6611c34565b5b6000611fe584828501611fac565b91505092915050565b7f4e487b7100000000000000000000000000000000000000000000000000000000600052601160045260246000fd5b600061202882611d15565b915061203383611d15565b92508282101561204657612045611fee565b5b828203905092915050565b600061205c82611d15565b915061206783611d15565b9250827fffffffffffffffffffffffffffffffffffffffffffffffffffffffffffffffff0382111561209c5761209b611fee565b5b828201905092915050565b7f496e697469616c697a61626c653a20636f6e747261637420697320616c72656160008201527f647920696e697469616c697a6564000000000000000000000000000000000000602082015250565b6000612103602e83611f2f565b915061210e826120a7565b604082019050919050565b60006020820190508181036000830152612132816120f6565b9050919050565b7f4f776e61626c653a206e6577206f776e657220697320746865207a65726f206160008201527f6464726573730000000000000000000000000000000000000000000000000000602082015250565b6000612195602683611f2f565b91506121a082612139565b604082019050919050565b600060208201905081810360008301526121c481612188565b9050919050565b60006121d682611d15565b91506121e183611d15565b9250817fffffffffffffffffffffffffffffffffffffffffffffffffffffffffffffffff048311821515161561221a57612219611fee565b5b828202905092915050565b7f4e487b7100000000000000000000000000000000000000000000000000000000600052601260045260246000fd5b600061225f82611d15565b915061226a83611d15565b92508261227a57612279612225565b5b828204905092915050565b600060408201905061229a6000830185611e89565b6122a76020830184611d1f565b9392505050565b60006060820190506122c36000830186611e89565b6122d06020830185611e89565b6122dd6040830184611d1f565b949350505050565b60008115159050919050565b6122fa816122e5565b811461230557600080fd5b50565b600081519050612317816122f1565b92915050565b60006020828403121561233357612332611c34565b5b600061234184828501612308565b91505092915050565b7f5361666545524332303a204552433230206f7065726174696f6e20646964206e60008201527f6f74207375636365656400000000000000000000000000000000000000000000602082015250565b60006123a6602a83611f2f565b91506123b18261234a565b604082019050919050565b600060208201905081810360008301526123d581612399565b9050919050565b7f416464726573733a20696e73756666696369656e742062616c616e636520666f60008201527f722063616c6c0000000000000000000000000000000000000000000000000000602082015250565b6000612438602683611f2f565b9150612443826123dc565b604082019050919050565b600060208201905081810360008301526124678161242b565b9050919050565b7f416464726573733a2063616c6c20746f206e6f6e2d636f6e7472616374000000600082015250565b60006124a4601d83611f2f565b91506124af8261246e565b602082019050919050565b600060208201905081810360008301526124d381612497565b9050919050565b600081519050919050565b600081905092915050565b60005b8381101561250e5780820151818401526020810190506124f3565b8381111561251d576000848401525b50505050565b600061252e826124da565b61253881856124e5565b93506125488185602086016124f0565b80840191505092915050565b60006125608284612523565b915081905092915050565b600081519050919050565b6000601f19601f8301169050919050565b60006125928261256b565b61259c8185611f2f565b93506125ac8185602086016124f0565b6125b581612576565b840191505092915050565b600060208201905081810360008301526125da8184612587565b90509291505056fea2646970667358221220e2f2769f606389cf8949b9db38d9492f050f5101ba9e83febcff1b9a647a105064736f6c634300080a0033",
  "linkReferences": {},
  "deployedLinkReferences": {}
}