{
  "_format": "hh-sol-artifact-1",
  "contractName": "MerkleDistributor",
  "sourceName": "contracts/MerkleDistributor.sol",
  "abi": [
    {
      "inputs": [
        {
          "internalType": "address",
          "name": "_sender",
          "type": "address"
        },
        {
          "internalType": "contract IERC20",
          "name": "_token",
          "type": "address"
        },
        {
          "internalType": "bytes32",
          "name": "_merkleRoot",
          "type": "bytes32"
        }
      ],
      "stateMutability": "nonpayable",
      "type": "constructor"
    },
    {
      "inputs": [],
      "name": "AlreadyClaimed",
      "type": "error"
    },
    {
      "inputs": [],
      "name": "InvalidProof",
      "type": "error"
    },
    {
      "anonymous": false,
      "inputs": [
        {
          "indexed": true,
          "internalType": "uint256",
          "name": "index",
          "type": "uint256"
        },
        {
          "indexed": true,
          "internalType": "address",
          "name": "recipient",
          "type": "address"
        },
        {
          "indexed": false,
          "internalType": "uint256",
          "name": "amount",
          "type": "uint256"
        }
      ],
      "name": "Claimed",
      "type": "event"
    },
    {
      "inputs": [
        {
          "internalType": "uint256",
          "name": "index",
          "type": "uint256"
        },
        {
          "internalType": "address",
          "name": "recipient",
          "type": "address"
        },
        {
          "internalType": "uint256",
          "name": "amount",
          "type": "uint256"
        },
        {
          "internalType": "bytes32[]",
          "name": "merkleProof",
          "type": "bytes32[]"
        }
      ],
      "name": "claim",
      "outputs": [],
      "stateMutability": "nonpayable",
      "type": "function"
    },
    {
      "inputs": [
        {
          "internalType": "uint256",
          "name": "index",
          "type": "uint256"
        }
      ],
      "name": "isClaimed",
      "outputs": [
        {
          "internalType": "bool",
          "name": "",
          "type": "bool"
        }
      ],
      "stateMutability": "view",
      "type": "function"
    },
    {
      "inputs": [],
      "name": "merkleRoot",
      "outputs": [
        {
          "internalType": "bytes32",
          "name": "",
          "type": "bytes32"
        }
      ],
      "stateMutability": "view",
      "type": "function"
    },
    {
      "inputs": [],
      "name": "sender",
      "outputs": [
        {
          "internalType": "address",
          "name": "",
          "type": "address"
        }
      ],
      "stateMutability": "view",
      "type": "function"
    },
    {
      "inputs": [],
      "name": "token",
      "outputs": [
        {
          "internalType": "contract IERC20",
          "name": "",
          "type": "address"
        }
      ],
      "stateMutability": "view",
      "type": "function"
    }
  ],
  "bytecode": "0x60e06040523480156200001157600080fd5b506040516200117e3803806200117e83398181016040528101906200003791906200019a565b8273ffffffffffffffffffffffffffffffffffffffff1660808173ffffffffffffffffffffffffffffffffffffffff16815250508173ffffffffffffffffffffffffffffffffffffffff1660a08173ffffffffffffffffffffffffffffffffffffffff16815250508060c08181525050505050620001f6565b600080fd5b600073ffffffffffffffffffffffffffffffffffffffff82169050919050565b6000620000e282620000b5565b9050919050565b620000f481620000d5565b81146200010057600080fd5b50565b6000815190506200011481620000e9565b92915050565b60006200012782620000d5565b9050919050565b62000139816200011a565b81146200014557600080fd5b50565b60008151905062000159816200012e565b92915050565b6000819050919050565b62000174816200015f565b81146200018057600080fd5b50565b600081519050620001948162000169565b92915050565b600080600060608486031215620001b657620001b5620000b0565b5b6000620001c68682870162000103565b9350506020620001d98682870162000148565b9250506040620001ec8682870162000183565b9150509250925092565b60805160a05160c051610f436200023b600039600081816101b801526102ed01526000818161024f015261035201526000818161022c01526103110152610f436000f3fe608060405234801561001057600080fd5b50600436106100575760003560e01c80632e7ba6ef1461005c5780632eb4a7ab1461007857806367e404ce146100965780639e34070f146100b4578063fc0c546a146100e4575b600080fd5b6100766004803603810190610071919061089a565b610102565b005b6100806102eb565b60405161008d919061093b565b60405180910390f35b61009e61030f565b6040516100ab9190610965565b60405180910390f35b6100ce60048036038101906100c99190610980565b610333565b6040516100db91906109c8565b60405180910390f35b6100ec610350565b6040516100f99190610a42565b60405180910390f35b61010b85610333565b15610142576040517f646cf55800000000000000000000000000000000000000000000000000000000815260040160405180910390fd5b600085858560405160200161015993929190610ac6565b6040516020818303038152906040528051906020012090506101dd838380806020026020016040519081016040528093929190818152602001838360200280828437600081840152601f19601f820116905080830192505050505050507f000000000000000000000000000000000000000000000000000000000000000083610374565b610213576040517f09bde33900000000000000000000000000000000000000000000000000000000815260040160405180910390fd5b61022786600061038b90919063ffffffff16565b6102947f000000000000000000000000000000000000000000000000000000000000000086867f000000000000000000000000000000000000000000000000000000000000000073ffffffffffffffffffffffffffffffffffffffff166103c9909392919063ffffffff16565b8473ffffffffffffffffffffffffffffffffffffffff16867f4ec90e965519d92681267467f775ada5bd214aa92c0dc93d90a5e880ce9ed026866040516102db9190610b12565b60405180910390a3505050505050565b7f000000000000000000000000000000000000000000000000000000000000000081565b7f000000000000000000000000000000000000000000000000000000000000000081565b600061034982600061045290919063ffffffff16565b9050919050565b7f000000000000000000000000000000000000000000000000000000000000000081565b600082610381858461048e565b1490509392505050565b6000600882901c9050600060ff83166001901b9050808460000160008481526020019081526020016000206000828254179250508190555050505050565b61044c846323b872dd60e01b8585856040516024016103ea93929190610b2d565b604051602081830303815290604052907bffffffffffffffffffffffffffffffffffffffffffffffffffffffff19166020820180517bffffffffffffffffffffffffffffffffffffffffffffffffffffffff8381831617835250505050610503565b50505050565b600080600883901c9050600060ff84166001901b9050600081866000016000858152602001908152602001600020541614159250505092915050565b60008082905060005b84518110156104f85760008582815181106104b5576104b4610b64565b5b602002602001015190508083116104d7576104d083826105ca565b92506104e4565b6104e181846105ca565b92505b5080806104f090610bc2565b915050610497565b508091505092915050565b6000610565826040518060400160405280602081526020017f5361666545524332303a206c6f772d6c6576656c2063616c6c206661696c65648152508573ffffffffffffffffffffffffffffffffffffffff166105e19092919063ffffffff16565b90506000815111156105c557808060200190518101906105859190610c37565b6105c4576040517f08c379a00000000000000000000000000000000000000000000000000000000081526004016105bb90610ce7565b60405180910390fd5b5b505050565b600082600052816020526040600020905092915050565b60606105f084846000856105f9565b90509392505050565b60608247101561063e576040517f08c379a000000000000000000000000000000000000000000000000000000000815260040161063590610d79565b60405180910390fd5b6106478561070d565b610686576040517f08c379a000000000000000000000000000000000000000000000000000000000815260040161067d90610de5565b60405180910390fd5b6000808673ffffffffffffffffffffffffffffffffffffffff1685876040516106af9190610e7f565b60006040518083038185875af1925050503d80600081146106ec576040519150601f19603f3d011682016040523d82523d6000602084013e6106f1565b606091505b5091509150610701828286610730565b92505050949350505050565b6000808273ffffffffffffffffffffffffffffffffffffffff163b119050919050565b6060831561074057829050610790565b6000835111156107535782518084602001fd5b816040517f08c379a00000000000000000000000000000000000000000000000000000000081526004016107879190610eeb565b60405180910390fd5b9392505050565b600080fd5b600080fd5b6000819050919050565b6107b4816107a1565b81146107bf57600080fd5b50565b6000813590506107d1816107ab565b92915050565b600073ffffffffffffffffffffffffffffffffffffffff82169050919050565b6000610802826107d7565b9050919050565b610812816107f7565b811461081d57600080fd5b50565b60008135905061082f81610809565b92915050565b600080fd5b600080fd5b600080fd5b60008083601f84011261085a57610859610835565b5b8235905067ffffffffffffffff8111156108775761087661083a565b5b6020830191508360208202830111156108935761089261083f565b5b9250929050565b6000806000806000608086880312156108b6576108b5610797565b5b60006108c4888289016107c2565b95505060206108d588828901610820565b94505060406108e6888289016107c2565b935050606086013567ffffffffffffffff8111156109075761090661079c565b5b61091388828901610844565b92509250509295509295909350565b6000819050919050565b61093581610922565b82525050565b6000602082019050610950600083018461092c565b92915050565b61095f816107f7565b82525050565b600060208201905061097a6000830184610956565b92915050565b60006020828403121561099657610995610797565b5b60006109a4848285016107c2565b91505092915050565b60008115159050919050565b6109c2816109ad565b82525050565b60006020820190506109dd60008301846109b9565b92915050565b6000819050919050565b6000610a08610a036109fe846107d7565b6109e3565b6107d7565b9050919050565b6000610a1a826109ed565b9050919050565b6000610a2c82610a0f565b9050919050565b610a3c81610a21565b82525050565b6000602082019050610a576000830184610a33565b92915050565b6000819050919050565b610a78610a73826107a1565b610a5d565b82525050565b60008160601b9050919050565b6000610a9682610a7e565b9050919050565b6000610aa882610a8b565b9050919050565b610ac0610abb826107f7565b610a9d565b82525050565b6000610ad28286610a67565b602082019150610ae28285610aaf565b601482019150610af28284610a67565b602082019150819050949350505050565b610b0c816107a1565b82525050565b6000602082019050610b276000830184610b03565b92915050565b6000606082019050610b426000830186610956565b610b4f6020830185610956565b610b5c6040830184610b03565b949350505050565b7f4e487b7100000000000000000000000000000000000000000000000000000000600052603260045260246000fd5b7f4e487b7100000000000000000000000000000000000000000000000000000000600052601160045260246000fd5b6000610bcd826107a1565b91507fffffffffffffffffffffffffffffffffffffffffffffffffffffffffffffffff821415610c0057610bff610b93565b5b600182019050919050565b610c14816109ad565b8114610c1f57600080fd5b50565b600081519050610c3181610c0b565b92915050565b600060208284031215610c4d57610c4c610797565b5b6000610c5b84828501610c22565b91505092915050565b600082825260208201905092915050565b7f5361666545524332303a204552433230206f7065726174696f6e20646964206e60008201527f6f74207375636365656400000000000000000000000000000000000000000000602082015250565b6000610cd1602a83610c64565b9150610cdc82610c75565b604082019050919050565b60006020820190508181036000830152610d0081610cc4565b9050919050565b7f416464726573733a20696e73756666696369656e742062616c616e636520666f60008201527f722063616c6c0000000000000000000000000000000000000000000000000000602082015250565b6000610d63602683610c64565b9150610d6e82610d07565b604082019050919050565b60006020820190508181036000830152610d9281610d56565b9050919050565b7f416464726573733a2063616c6c20746f206e6f6e2d636f6e7472616374000000600082015250565b6000610dcf601d83610c64565b9150610dda82610d99565b602082019050919050565b60006020820190508181036000830152610dfe81610dc2565b9050919050565b600081519050919050565b600081905092915050565b60005b83811015610e39578082015181840152602081019050610e1e565b83811115610e48576000848401525b50505050565b6000610e5982610e05565b610e638185610e10565b9350610e73818560208601610e1b565b80840191505092915050565b6000610e8b8284610e4e565b915081905092915050565b600081519050919050565b6000601f19601f8301169050919050565b6000610ebd82610e96565b610ec78185610c64565b9350610ed7818560208601610e1b565b610ee081610ea1565b840191505092915050565b60006020820190508181036000830152610f058184610eb2565b90509291505056fea264697066735822122039c9bd69ccb40b6837a6f40f78694744294ee29be7b3bb5389876d0876e5d29e64736f6c634300080a0033",
  "linkReferences": {},
  "deployedLinkReferences": {}
}