{
  "_format": "hh-sol-artifact-1",
  "contractName": "MerkleDistributor",
  "sourceName": "contracts/MerkleDistributor.sol",
  "abi": [
    {
      "inputs": [
        {
          "internalType": "contract IERC20",
          "name": "_token",
          "type": "address"
        },
        {
          "internalType": "bytes32",
          "name": "_merkleRoot",
          "type": "bytes32"
        }
      ],
      "stateMutability": "nonpayable",
      "type": "constructor"
    },
    {
      "inputs": [],
      "name": "AlreadyClaimed",
      "type": "error"
    },
    {
      "inputs": [],
      "name": "InvalidProof",
      "type": "error"
    },
    {
      "anonymous": false,
      "inputs": [
        {
          "indexed": true,
          "internalType": "uint256",
          "name": "index",
          "type": "uint256"
        },
        {
          "indexed": true,
          "internalType": "address",
          "name": "account",
          "type": "address"
        },
        {
          "indexed": false,
          "internalType": "uint256",
          "name": "amount",
          "type": "uint256"
        }
      ],
      "name": "Claimed",
      "type": "event"
    },
    {
      "inputs": [
        {
          "internalType": "uint256",
          "name": "index",
          "type": "uint256"
        },
        {
          "internalType": "address",
          "name": "account",
          "type": "address"
        },
        {
          "internalType": "uint256",
          "name": "amount",
          "type": "uint256"
        },
        {
          "internalType": "bytes32[]",
          "name": "merkleProof",
          "type": "bytes32[]"
        }
      ],
      "name": "claim",
      "outputs": [],
      "stateMutability": "nonpayable",
      "type": "function"
    },
    {
      "inputs": [
        {
          "internalType": "uint256",
          "name": "index",
          "type": "uint256"
        }
      ],
      "name": "isClaimed",
      "outputs": [
        {
          "internalType": "bool",
          "name": "",
          "type": "bool"
        }
      ],
      "stateMutability": "view",
      "type": "function"
    },
    {
      "inputs": [],
      "name": "merkleRoot",
      "outputs": [
        {
          "internalType": "bytes32",
          "name": "",
          "type": "bytes32"
        }
      ],
      "stateMutability": "view",
      "type": "function"
    },
    {
      "inputs": [],
      "name": "token",
      "outputs": [
        {
          "internalType": "contract IERC20",
          "name": "",
          "type": "address"
        }
      ],
      "stateMutability": "view",
      "type": "function"
    }
  ],
  "bytecode": "0x60c06040523480156200001157600080fd5b506040516200105738038062001057833981810160405281019062000037919062000134565b8173ffffffffffffffffffffffffffffffffffffffff1660808173ffffffffffffffffffffffffffffffffffffffff16815250508060a0818152505050506200017b565b600080fd5b600073ffffffffffffffffffffffffffffffffffffffff82169050919050565b6000620000ad8262000080565b9050919050565b6000620000c182620000a0565b9050919050565b620000d381620000b4565b8114620000df57600080fd5b50565b600081519050620000f381620000c8565b92915050565b6000819050919050565b6200010e81620000f9565b81146200011a57600080fd5b50565b6000815190506200012e8162000103565b92915050565b600080604083850312156200014e576200014d6200007b565b5b60006200015e85828601620000e2565b925050602062000171858286016200011d565b9150509250929050565b60805160a051610ea8620001af6000396000818161018f01526102a201526000818161020501526102e30152610ea86000f3fe608060405234801561001057600080fd5b506004361061004c5760003560e01c80632e7ba6ef146100515780632eb4a7ab1461006d5780639e34070f1461008b578063fc0c546a146100bb575b600080fd5b61006b60048036038101906100669190610828565b6100d9565b005b6100756102a0565b60405161008291906108c9565b60405180910390f35b6100a560048036038101906100a091906108e4565b6102c4565b6040516100b2919061092c565b60405180910390f35b6100c36102e1565b6040516100d091906109a6565b60405180910390f35b6100e2856102c4565b15610119576040517f646cf55800000000000000000000000000000000000000000000000000000000815260040160405180910390fd5b600085858560405160200161013093929190610a2a565b6040516020818303038152906040528051906020012090506101b4838380806020026020016040519081016040528093929190818152602001838360200280828437600081840152601f19601f820116905080830192505050505050507f000000000000000000000000000000000000000000000000000000000000000083610305565b6101ea576040517f09bde33900000000000000000000000000000000000000000000000000000000815260040160405180910390fd5b6101fe86600061031c90919063ffffffff16565b61024985857f000000000000000000000000000000000000000000000000000000000000000073ffffffffffffffffffffffffffffffffffffffff1661035a9092919063ffffffff16565b8473ffffffffffffffffffffffffffffffffffffffff16867f4ec90e965519d92681267467f775ada5bd214aa92c0dc93d90a5e880ce9ed026866040516102909190610a76565b60405180910390a3505050505050565b7f000000000000000000000000000000000000000000000000000000000000000081565b60006102da8260006103e090919063ffffffff16565b9050919050565b7f000000000000000000000000000000000000000000000000000000000000000081565b600082610312858461041c565b1490509392505050565b6000600882901c9050600060ff83166001901b9050808460000160008481526020019081526020016000206000828254179250508190555050505050565b6103db8363a9059cbb60e01b8484604051602401610379929190610aa0565b604051602081830303815290604052907bffffffffffffffffffffffffffffffffffffffffffffffffffffffff19166020820180517bffffffffffffffffffffffffffffffffffffffffffffffffffffffff8381831617835250505050610491565b505050565b600080600883901c9050600060ff84166001901b9050600081866000016000858152602001908152602001600020541614159250505092915050565b60008082905060005b845181101561048657600085828151811061044357610442610ac9565b5b602002602001015190508083116104655761045e8382610558565b9250610472565b61046f8184610558565b92505b50808061047e90610b27565b915050610425565b508091505092915050565b60006104f3826040518060400160405280602081526020017f5361666545524332303a206c6f772d6c6576656c2063616c6c206661696c65648152508573ffffffffffffffffffffffffffffffffffffffff1661056f9092919063ffffffff16565b905060008151111561055357808060200190518101906105139190610b9c565b610552576040517f08c379a000000000000000000000000000000000000000000000000000000000815260040161054990610c4c565b60405180910390fd5b5b505050565b600082600052816020526040600020905092915050565b606061057e8484600085610587565b90509392505050565b6060824710156105cc576040517f08c379a00000000000000000000000000000000000000000000000000000000081526004016105c390610cde565b60405180910390fd5b6105d58561069b565b610614576040517f08c379a000000000000000000000000000000000000000000000000000000000815260040161060b90610d4a565b60405180910390fd5b6000808673ffffffffffffffffffffffffffffffffffffffff16858760405161063d9190610de4565b60006040518083038185875af1925050503d806000811461067a576040519150601f19603f3d011682016040523d82523d6000602084013e61067f565b606091505b509150915061068f8282866106be565b92505050949350505050565b6000808273ffffffffffffffffffffffffffffffffffffffff163b119050919050565b606083156106ce5782905061071e565b6000835111156106e15782518084602001fd5b816040517f08c379a00000000000000000000000000000000000000000000000000000000081526004016107159190610e50565b60405180910390fd5b9392505050565b600080fd5b600080fd5b6000819050919050565b6107428161072f565b811461074d57600080fd5b50565b60008135905061075f81610739565b92915050565b600073ffffffffffffffffffffffffffffffffffffffff82169050919050565b600061079082610765565b9050919050565b6107a081610785565b81146107ab57600080fd5b50565b6000813590506107bd81610797565b92915050565b600080fd5b600080fd5b600080fd5b60008083601f8401126107e8576107e76107c3565b5b8235905067ffffffffffffffff811115610805576108046107c8565b5b602083019150836020820283011115610821576108206107cd565b5b9250929050565b60008060008060006080868803121561084457610843610725565b5b600061085288828901610750565b9550506020610863888289016107ae565b945050604061087488828901610750565b935050606086013567ffffffffffffffff8111156108955761089461072a565b5b6108a1888289016107d2565b92509250509295509295909350565b6000819050919050565b6108c3816108b0565b82525050565b60006020820190506108de60008301846108ba565b92915050565b6000602082840312156108fa576108f9610725565b5b600061090884828501610750565b91505092915050565b60008115159050919050565b61092681610911565b82525050565b6000602082019050610941600083018461091d565b92915050565b6000819050919050565b600061096c61096761096284610765565b610947565b610765565b9050919050565b600061097e82610951565b9050919050565b600061099082610973565b9050919050565b6109a081610985565b82525050565b60006020820190506109bb6000830184610997565b92915050565b6000819050919050565b6109dc6109d78261072f565b6109c1565b82525050565b60008160601b9050919050565b60006109fa826109e2565b9050919050565b6000610a0c826109ef565b9050919050565b610a24610a1f82610785565b610a01565b82525050565b6000610a3682866109cb565b602082019150610a468285610a13565b601482019150610a5682846109cb565b602082019150819050949350505050565b610a708161072f565b82525050565b6000602082019050610a8b6000830184610a67565b92915050565b610a9a81610785565b82525050565b6000604082019050610ab56000830185610a91565b610ac26020830184610a67565b9392505050565b7f4e487b7100000000000000000000000000000000000000000000000000000000600052603260045260246000fd5b7f4e487b7100000000000000000000000000000000000000000000000000000000600052601160045260246000fd5b6000610b328261072f565b91507fffffffffffffffffffffffffffffffffffffffffffffffffffffffffffffffff821415610b6557610b64610af8565b5b600182019050919050565b610b7981610911565b8114610b8457600080fd5b50565b600081519050610b9681610b70565b92915050565b600060208284031215610bb257610bb1610725565b5b6000610bc084828501610b87565b91505092915050565b600082825260208201905092915050565b7f5361666545524332303a204552433230206f7065726174696f6e20646964206e60008201527f6f74207375636365656400000000000000000000000000000000000000000000602082015250565b6000610c36602a83610bc9565b9150610c4182610bda565b604082019050919050565b60006020820190508181036000830152610c6581610c29565b9050919050565b7f416464726573733a20696e73756666696369656e742062616c616e636520666f60008201527f722063616c6c0000000000000000000000000000000000000000000000000000602082015250565b6000610cc8602683610bc9565b9150610cd382610c6c565b604082019050919050565b60006020820190508181036000830152610cf781610cbb565b9050919050565b7f416464726573733a2063616c6c20746f206e6f6e2d636f6e7472616374000000600082015250565b6000610d34601d83610bc9565b9150610d3f82610cfe565b602082019050919050565b60006020820190508181036000830152610d6381610d27565b9050919050565b600081519050919050565b600081905092915050565b60005b83811015610d9e578082015181840152602081019050610d83565b83811115610dad576000848401525b50505050565b6000610dbe82610d6a565b610dc88185610d75565b9350610dd8818560208601610d80565b80840191505092915050565b6000610df08284610db3565b915081905092915050565b600081519050919050565b6000601f19601f8301169050919050565b6000610e2282610dfb565b610e2c8185610bc9565b9350610e3c818560208601610d80565b610e4581610e06565b840191505092915050565b60006020820190508181036000830152610e6a8184610e17565b90509291505056fea2646970667358221220c53ba4b704d34441e93fc533e32b4ceaa96f1ab0ca874f80b89dca5d19044c4364736f6c634300080a0033",
  "linkReferences": {},
  "deployedLinkReferences": {}
}