{
  "abi": [
    {
      "inputs": [
        {
          "internalType": "string",
          "name": "_name",
          "type": "string"
        },
        {
          "internalType": "string",
          "name": "_symbol",
          "type": "string"
        }
      ],
      "stateMutability": "nonpayable",
      "type": "constructor"
    },
    {
      "inputs": [],
      "name": "CallerIsNotAuthorized",
      "type": "error"
    },
    {
      "inputs": [],
      "name": "InvalidFrom",
      "type": "error"
    },
    {
      "inputs": [],
      "name": "NotAuthorized",
      "type": "error"
    },
    {
      "inputs": [],
      "name": "NotMinted",
      "type": "error"
    },
    {
      "inputs": [],
      "name": "NotSafeRecipient",
      "type": "error"
    },
    {
      "inputs": [],
      "name": "TargetIsZeroAddress",
      "type": "error"
    },
    {
      "anonymous": false,
      "inputs": [
        {
          "indexed": true,
          "internalType": "address",
          "name": "owner",
          "type": "address"
        },
        {
          "indexed": true,
          "internalType": "address",
          "name": "spender",
          "type": "address"
        },
        {
          "indexed": true,
          "internalType": "uint256",
          "name": "id",
          "type": "uint256"
        }
      ],
      "name": "Approval",
      "type": "event"
    },
    {
      "anonymous": false,
      "inputs": [
        {
          "indexed": true,
          "internalType": "address",
          "name": "owner",
          "type": "address"
        },
        {
          "indexed": true,
          "internalType": "address",
          "name": "operator",
          "type": "address"
        },
        {
          "indexed": false,
          "internalType": "bool",
          "name": "approved",
          "type": "bool"
        }
      ],
      "name": "ApprovalForAll",
      "type": "event"
    },
    {
      "anonymous": false,
      "inputs": [
        {
          "indexed": true,
          "internalType": "address",
          "name": "previousController",
          "type": "address"
        },
        {
          "indexed": true,
          "internalType": "address",
          "name": "newController",
          "type": "address"
        }
      ],
      "name": "ControlTransferred",
      "type": "event"
    },
    {
      "anonymous": false,
      "inputs": [
        {
          "indexed": true,
          "internalType": "address",
          "name": "previousOwner",
          "type": "address"
        },
        {
          "indexed": true,
          "internalType": "address",
          "name": "newOwner",
          "type": "address"
        }
      ],
      "name": "OwnershipTransferred",
      "type": "event"
    },
    {
      "anonymous": false,
      "inputs": [
        {
          "indexed": true,
          "internalType": "address",
          "name": "from",
          "type": "address"
        },
        {
          "indexed": true,
          "internalType": "address",
          "name": "to",
          "type": "address"
        },
        {
          "indexed": true,
          "internalType": "uint256",
          "name": "id",
          "type": "uint256"
        }
      ],
      "name": "Transfer",
      "type": "event"
    },
    {
      "inputs": [
        {
          "internalType": "address",
          "name": "spender",
          "type": "address"
        },
        {
          "internalType": "uint256",
          "name": "id",
          "type": "uint256"
        }
      ],
      "name": "approve",
      "outputs": [],
      "stateMutability": "nonpayable",
      "type": "function"
    },
    {
      "inputs": [
        {
          "internalType": "address",
          "name": "owner",
          "type": "address"
        }
      ],
      "name": "balanceOf",
      "outputs": [
        {
          "internalType": "uint256",
          "name": "",
          "type": "uint256"
        }
      ],
      "stateMutability": "view",
      "type": "function"
    },
    {
      "inputs": [
        {
          "internalType": "uint256",
          "name": "id",
          "type": "uint256"
        }
      ],
      "name": "burn",
      "outputs": [],
      "stateMutability": "nonpayable",
      "type": "function"
    },
    {
      "inputs": [],
      "name": "controller",
      "outputs": [
        {
          "internalType": "address",
          "name": "",
          "type": "address"
        }
      ],
      "stateMutability": "view",
      "type": "function"
    },
    {
      "inputs": [
        {
          "internalType": "uint256",
          "name": "",
          "type": "uint256"
        }
      ],
      "name": "getApproved",
      "outputs": [
        {
          "internalType": "address",
          "name": "",
          "type": "address"
        }
      ],
      "stateMutability": "view",
      "type": "function"
    },
    {
      "inputs": [],
      "name": "getNextId",
      "outputs": [
        {
          "internalType": "uint256",
          "name": "",
          "type": "uint256"
        }
      ],
      "stateMutability": "view",
      "type": "function"
    },
    {
      "inputs": [
        {
          "internalType": "address",
          "name": "",
          "type": "address"
        },
        {
          "internalType": "address",
          "name": "",
          "type": "address"
        }
      ],
      "name": "isApprovedForAll",
      "outputs": [
        {
          "internalType": "bool",
          "name": "",
          "type": "bool"
        }
      ],
      "stateMutability": "view",
      "type": "function"
    },
    {
      "inputs": [
        {
          "internalType": "address",
          "name": "to",
          "type": "address"
        }
      ],
      "name": "mint",
      "outputs": [
        {
          "internalType": "uint256",
          "name": "tokenId",
          "type": "uint256"
        }
      ],
      "stateMutability": "nonpayable",
      "type": "function"
    },
    {
      "inputs": [],
      "name": "name",
      "outputs": [
        {
          "internalType": "string",
          "name": "",
          "type": "string"
        }
      ],
      "stateMutability": "view",
      "type": "function"
    },
    {
      "inputs": [],
      "name": "owner",
      "outputs": [
        {
          "internalType": "address",
          "name": "",
          "type": "address"
        }
      ],
      "stateMutability": "view",
      "type": "function"
    },
    {
      "inputs": [
        {
          "internalType": "uint256",
          "name": "id",
          "type": "uint256"
        }
      ],
      "name": "ownerOf",
      "outputs": [
        {
          "internalType": "address",
          "name": "owner",
          "type": "address"
        }
      ],
      "stateMutability": "view",
      "type": "function"
    },
    {
      "inputs": [
        {
          "internalType": "contract ERC20",
          "name": "token",
          "type": "address"
        },
        {
          "internalType": "address",
          "name": "to",
          "type": "address"
        }
      ],
      "name": "recoverTokens",
      "outputs": [
        {
          "internalType": "uint256",
          "name": "amount",
          "type": "uint256"
        }
      ],
      "stateMutability": "nonpayable",
      "type": "function"
    },
    {
      "inputs": [],
      "name": "removeControl",
      "outputs": [],
      "stateMutability": "nonpayable",
      "type": "function"
    },
    {
      "inputs": [],
      "name": "renderer",
      "outputs": [
        {
          "internalType": "contract Renderer",
          "name": "",
          "type": "address"
        }
      ],
      "stateMutability": "view",
      "type": "function"
    },
    {
      "inputs": [],
      "name": "renounceOwnership",
      "outputs": [],
      "stateMutability": "nonpayable",
      "type": "function"
    },
    {
      "inputs": [
        {
          "internalType": "address",
          "name": "to",
          "type": "address"
        }
      ],
      "name": "safeMint",
      "outputs": [
        {
          "internalType": "uint256",
          "name": "tokenId",
          "type": "uint256"
        }
      ],
      "stateMutability": "nonpayable",
      "type": "function"
    },
    {
      "inputs": [
        {
          "internalType": "address",
          "name": "from",
          "type": "address"
        },
        {
          "internalType": "address",
          "name": "to",
          "type": "address"
        },
        {
          "internalType": "uint256",
          "name": "id",
          "type": "uint256"
        }
      ],
      "name": "safeTransferFrom",
      "outputs": [],
      "stateMutability": "nonpayable",
      "type": "function"
    },
    {
      "inputs": [
        {
          "internalType": "address",
          "name": "from",
          "type": "address"
        },
        {
          "internalType": "address",
          "name": "to",
          "type": "address"
        },
        {
          "internalType": "uint256",
          "name": "id",
          "type": "uint256"
        },
        {
          "internalType": "bytes",
          "name": "data",
          "type": "bytes"
        }
      ],
      "name": "safeTransferFrom",
      "outputs": [],
      "stateMutability": "nonpayable",
      "type": "function"
    },
    {
      "inputs": [
        {
          "internalType": "address",
          "name": "operator",
          "type": "address"
        },
        {
          "internalType": "bool",
          "name": "approved",
          "type": "bool"
        }
      ],
      "name": "setApprovalForAll",
      "outputs": [],
      "stateMutability": "nonpayable",
      "type": "function"
    },
    {
      "inputs": [
        {
          "internalType": "contract Renderer",
          "name": "_renderer",
          "type": "address"
        }
      ],
      "name": "setRenderer",
      "outputs": [],
      "stateMutability": "nonpayable",
      "type": "function"
    },
    {
      "inputs": [
        {
          "internalType": "uint256",
          "name": "id",
          "type": "uint256"
        },
        {
          "internalType": "address",
          "name": "signer",
          "type": "address"
        }
      ],
      "name": "setSigner",
      "outputs": [],
      "stateMutability": "nonpayable",
      "type": "function"
    },
    {
      "inputs": [
        {
          "internalType": "uint256",
          "name": "id",
          "type": "uint256"
        }
      ],
      "name": "signerOf",
      "outputs": [
        {
          "internalType": "address",
          "name": "",
          "type": "address"
        }
      ],
      "stateMutability": "view",
      "type": "function"
    },
    {
      "inputs": [
        {
          "internalType": "bytes4",
          "name": "interfaceId",
          "type": "bytes4"
        }
      ],
      "name": "supportsInterface",
      "outputs": [
        {
          "internalType": "bool",
          "name": "",
          "type": "bool"
        }
      ],
      "stateMutability": "view",
      "type": "function"
    },
    {
      "inputs": [],
      "name": "symbol",
      "outputs": [
        {
          "internalType": "string",
          "name": "",
          "type": "string"
        }
      ],
      "stateMutability": "view",
      "type": "function"
    },
    {
      "inputs": [
        {
          "internalType": "uint256",
          "name": "id",
          "type": "uint256"
        }
      ],
      "name": "timestampOf",
      "outputs": [
        {
          "internalType": "uint256",
          "name": "",
          "type": "uint256"
        }
      ],
      "stateMutability": "view",
      "type": "function"
    },
    {
      "inputs": [
        {
          "internalType": "uint256",
          "name": "id",
          "type": "uint256"
        }
      ],
      "name": "tokenURI",
      "outputs": [
        {
          "internalType": "string",
          "name": "",
          "type": "string"
        }
      ],
      "stateMutability": "view",
      "type": "function"
    },
    {
      "inputs": [],
      "name": "totalSupply",
      "outputs": [
        {
          "internalType": "uint256",
          "name": "",
          "type": "uint256"
        }
      ],
      "stateMutability": "view",
      "type": "function"
    },
    {
      "inputs": [
        {
          "internalType": "address",
          "name": "newController",
          "type": "address"
        }
      ],
      "name": "transferControl",
      "outputs": [],
      "stateMutability": "nonpayable",
      "type": "function"
    },
    {
      "inputs": [
        {
          "internalType": "address",
          "name": "from",
          "type": "address"
        },
        {
          "internalType": "address",
          "name": "to",
          "type": "address"
        },
        {
          "internalType": "uint256",
          "name": "id",
          "type": "uint256"
        }
      ],
      "name": "transferFrom",
      "outputs": [],
      "stateMutability": "nonpayable",
      "type": "function"
    },
    {
      "inputs": [
        {
          "internalType": "address",
          "name": "newOwner",
          "type": "address"
        }
      ],
      "name": "transferOwnership",
      "outputs": [],
      "stateMutability": "nonpayable",
      "type": "function"
    }
  ],
  "bytecode": {
    "object": "0x60806040523480156200001157600080fd5b5060405162001af638038062001af68339810160408190526200003491620002a1565b8151829082906200004d9060009060208501906200012e565b508051620000639060019060208401906200012e565b50505062000077336200008a60201b60201c565b6200008233620000dc565b505062000348565b600680546001600160a01b038381166001600160a01b0319831681179093556040519116919082907f8be0079c531659141344cd1fd0a4f28419497f9722a3daafe3b4186f6b6457e090600090a35050565b600780546001600160a01b038381166001600160a01b0319831681179093556040519116919082907fa06677f7b64342b4bcbde423684dbdb5356acfe41ad0285b6ecbe6dc4bf427f290600090a35050565b8280546200013c906200030b565b90600052602060002090601f016020900481019282620001605760008555620001ab565b82601f106200017b57805160ff1916838001178555620001ab565b82800160010185558215620001ab579182015b82811115620001ab5782518255916020019190600101906200018e565b50620001b9929150620001bd565b5090565b5b80821115620001b95760008155600101620001be565b634e487b7160e01b600052604160045260246000fd5b600082601f830112620001fc57600080fd5b81516001600160401b0380821115620002195762000219620001d4565b604051601f8301601f19908116603f01168101908282118183101715620002445762000244620001d4565b816040528381526020925086838588010111156200026157600080fd5b600091505b8382101562000285578582018301518183018401529082019062000266565b83821115620002975760008385830101525b9695505050505050565b60008060408385031215620002b557600080fd5b82516001600160401b0380821115620002cd57600080fd5b620002db86838701620001ea565b93506020850151915080821115620002f257600080fd5b506200030185828601620001ea565b9150509250929050565b600181811c908216806200032057607f821691505b602082108114156200034257634e487b7160e01b600052602260045260246000fd5b50919050565b61179e80620003586000396000f3fe608060405234801561001057600080fd5b50600436106101da5760003560e01c80636d16fa411161010457806395d89b41116100a2578063c87b56dd11610071578063c87b56dd146103e9578063e985e9c5146103fc578063f2fde38b1461042a578063f77c47911461043d57600080fd5b806395d89b41146103b3578063a22cb465146103bb578063b88d4fde146103ce578063bc968326146103e157600080fd5b80637bee684b116100de5780637bee684b14610374578063852679071461037c5780638ada6b0f1461038f5780638da5cb5b146103a257600080fd5b80636d16fa411461034657806370a0823114610359578063715018a61461036c57600080fd5b80632d9c77e11161017c5780635161fdf51161014b5780635161fdf5146102fa57806356d3163d1461030d5780636352211e146103205780636a6278421461033357600080fd5b80632d9c77e1146102ae57806340d097c3146102c157806342842e0e146102d457806342966c68146102e757600080fd5b8063081812fc116101b8578063081812fc1461023d578063095ea7b31461027e57806318160ddd1461029357806323b872dd1461029b57600080fd5b806301ffc9a7146101df578063056097ac1461020757806306fdde0314610228575b600080fd5b6101f26101ed366004611375565b61044e565b60405190151581526020015b60405180910390f35b61021a6102153660046113ae565b6104a0565b6040519081526020016101fe565b61023061054c565b6040516101fe9190611413565b61026661024b366004611446565b6004602052600090815260409020546001600160a01b031681565b6040516001600160a01b0390911681526020016101fe565b61029161028c36600461145f565b6105da565b005b60095461021a565b6102916102a936600461148b565b61066c565b61021a6102bc366004611446565b6107a0565b61021a6102cf3660046114cc565b6107e8565b6102916102e236600461148b565b610876565b6102916102f5366004611446565b61097b565b610266610308366004611446565b6109e4565b61029161031b3660046114cc565b610a35565b61026661032e366004611446565b610a82565b61021a6103413660046114cc565b610ade565b6102916103543660046114cc565b610b1a565b61021a6103673660046114cc565b610b91565b610291610bf4565b610291610c2b565b61029161038a3660046114e9565b610c79565b600854610266906001600160a01b031681565b6006546001600160a01b0316610266565b610230610cde565b6102916103c936600461150e565b610ceb565b6102916103dc366004611541565b610d82565b600a5461021a565b6102306103f7366004611446565b610e77565b6101f261040a3660046113ae565b600560209081526000928352604080842090915290825290205460ff1681565b6102916104383660046114cc565b610f17565b6007546001600160a01b0316610266565b60006301ffc9a760e01b6001600160e01b03198316148061047f57506380ac58cd60e01b6001600160e01b03198316145b8061049a5750635b5e139f60e01b6001600160e01b03198316145b92915050565b6006546000906001600160a01b031633146104ce57604051632e57521560e01b815260040160405180910390fd5b6040516370a0823160e01b81523060048201526001600160a01b038416906370a0823190602401602060405180830381865afa158015610512573d6000803e3d6000fd5b505050506040513d601f19601f8201168201806040525081019061053691906115e0565b905061049a6001600160a01b0384168383610f72565b60008054610559906115f9565b80601f0160208091040260200160405190810160405280929190818152602001828054610585906115f9565b80156105d25780601f106105a7576101008083540402835291602001916105d2565b820191906000526020600020905b8154815290600101906020018083116105b557829003601f168201915b505050505081565b6007546001600160a01b0316331461060557604051632e57521560e01b815260040160405180910390fd5b600081815260046020908152604080832080546001600160a01b0319166001600160a01b038781169182179092556002909352818420549151859492909116917f8c5be1e5ebec7d5bd14f71427d1e84f3dd0314c0f7b2291e5b200ac8c7c3b92591a45050565b6007546001600160a01b0316331461069757604051632e57521560e01b815260040160405180910390fd5b6000818152600260205260409020546001600160a01b038481169116146106d15760405163104ca12160e11b815260040160405180910390fd5b6001600160a01b0382166106f857604051631b8fe22360e01b815260040160405180910390fd5b6001600160a01b0380841660008181526003602090815260408083208054600019019055938616808352848320805460010190558583526002825284832080546001600160a01b03199081168317909155600b8352858420429055600c83528584208054821683179055600490925284832080549092169091559251849392917fddf252ad1be2c89b69c2b068fc378daa952ba7f163c4a11628f55a4df523b3ef91a4505050565b6000818152600260205260408120546001600160a01b03166107d557604051634d5e5fb360e01b815260040160405180910390fd5b506000908152600b602052604090205490565b6007546000906001600160a01b0316331461081657604051632e57521560e01b815260040160405180910390fd5b50600a546108248282610ff0565b6000818152600b60209081526040808320429055600c909152902080546001600160a01b0319166001600160a01b039390931692909217909155600a8054600190810190915560098054909101905590565b6007546001600160a01b031633146108a157604051632e57521560e01b815260040160405180910390fd5b6108ac83838361066c565b6001600160a01b0382163b158015906109585750604051630a85bd0160e11b8082523360048301526001600160a01b03858116602484015260448301849052608060648401526000608484015290919084169063150b7a029060a4016020604051808303816000875af1158015610927573d6000803e3d6000fd5b505050506040513d601f19601f8201168201806040525081019061094b9190611634565b6001600160e01b03191614155b1561097657604051630ca72d9160e31b815260040160405180910390fd5b505050565b6007546001600160a01b031633146109a657604051632e57521560e01b815260040160405180910390fd5b6109af816110e3565b6000908152600b60209081526040808320839055600c909152902080546001600160a01b031916905560098054600019019055565b6000818152600260205260408120546001600160a01b0316610a1957604051634d5e5fb360e01b815260040160405180910390fd5b506000908152600c60205260409020546001600160a01b031690565b6006546001600160a01b03163314610a6057604051632e57521560e01b815260040160405180910390fd5b600880546001600160a01b0319166001600160a01b0392909216919091179055565b6000818152600260205260409020546001600160a01b031680610ad95760405162461bcd60e51b815260206004820152600a6024820152691393d517d3525395115160b21b60448201526064015b60405180910390fd5b919050565b6007546000906001600160a01b03163314610b0c57604051632e57521560e01b815260040160405180910390fd5b50600a5461082482826111b0565b6006546001600160a01b03163314801590610b4057506007546001600160a01b03163314155b15610b5e57604051632e57521560e01b815260040160405180910390fd5b6001600160a01b038116610b8557604051631b8fe22360e01b815260040160405180910390fd5b610b8e816112bb565b50565b60006001600160a01b038216610bd85760405162461bcd60e51b815260206004820152600c60248201526b5a45524f5f4144445245535360a01b6044820152606401610ad0565b506001600160a01b031660009081526003602052604090205490565b6006546001600160a01b03163314610c1f57604051632e57521560e01b815260040160405180910390fd5b610c29600061130d565b565b6006546001600160a01b03163314801590610c5157506007546001600160a01b03163314155b15610c6f57604051632e57521560e01b815260040160405180910390fd5b610c2960006112bb565b6000828152600260205260409020546001600160a01b03163314610cb05760405163ea8e4eb560e01b815260040160405180910390fd5b6000918252600c602052604090912080546001600160a01b0319166001600160a01b03909216919091179055565b60018054610559906115f9565b6007546001600160a01b03163314610d1657604051632e57521560e01b815260040160405180910390fd5b3360008181526005602090815260408083206001600160a01b03871680855290835292819020805460ff191686151590811790915590519081529192917f17307eab39ab6107e8899845ad3d59bd9653f200f220920489ca2b5937696c31910160405180910390a35050565b6007546001600160a01b03163314610dad57604051632e57521560e01b815260040160405180910390fd5b610db885858561066c565b6001600160a01b0384163b15801590610e525750604051630a85bd0160e11b808252906001600160a01b0386169063150b7a0290610e029033908a90899089908990600401611651565b6020604051808303816000875af1158015610e21573d6000803e3d6000fd5b505050506040513d601f19601f82011682018060405250810190610e459190611634565b6001600160e01b03191614155b15610e7057604051630ca72d9160e31b815260040160405180910390fd5b5050505050565b6008546060906001600160a01b0316635bdd141f83610e9581610a82565b610e9e866107a0565b6040516001600160e01b031960e086901b16815260048101939093526001600160a01b0390911660248301526044820152606401600060405180830381865afa158015610eef573d6000803e3d6000fd5b505050506040513d6000823e601f3d908101601f1916820160405261049a91908101906116bb565b6006546001600160a01b03163314610f4257604051632e57521560e01b815260040160405180910390fd5b6001600160a01b038116610f6957604051631b8fe22360e01b815260040160405180910390fd5b610b8e8161130d565b600060405163a9059cbb60e01b8152836004820152826024820152602060006044836000895af13d15601f3d1160016000511416171691505080610fea5760405162461bcd60e51b815260206004820152600f60248201526e1514905394d1915497d19052531151608a1b6044820152606401610ad0565b50505050565b610ffa82826111b0565b6001600160a01b0382163b15806110a05750604051630a85bd0160e11b80825233600483015260006024830181905260448301849052608060648401526084830152906001600160a01b0384169063150b7a029060a4016020604051808303816000875af1158015611070573d6000803e3d6000fd5b505050506040513d601f19601f820116820180604052508101906110949190611634565b6001600160e01b031916145b6110df5760405162461bcd60e51b815260206004820152601060248201526f155394d0519157d49150d2541251539560821b6044820152606401610ad0565b5050565b6000818152600260205260409020546001600160a01b0316806111355760405162461bcd60e51b815260206004820152600a6024820152691393d517d3525395115160b21b6044820152606401610ad0565b6001600160a01b038116600081815260036020908152604080832080546000190190558583526002825280832080546001600160a01b031990811690915560049092528083208054909216909155518492907fddf252ad1be2c89b69c2b068fc378daa952ba7f163c4a11628f55a4df523b3ef908390a45050565b6001600160a01b0382166111fa5760405162461bcd60e51b81526020600482015260116024820152701253959053125117d49150d25412515395607a1b6044820152606401610ad0565b6000818152600260205260409020546001600160a01b0316156112505760405162461bcd60e51b815260206004820152600e60248201526d1053149150511657d3525395115160921b6044820152606401610ad0565b6001600160a01b038216600081815260036020908152604080832080546001019055848352600290915280822080546001600160a01b0319168417905551839291907fddf252ad1be2c89b69c2b068fc378daa952ba7f163c4a11628f55a4df523b3ef908290a45050565b600780546001600160a01b038381166001600160a01b0319831681179093556040519116919082907fa06677f7b64342b4bcbde423684dbdb5356acfe41ad0285b6ecbe6dc4bf427f290600090a35050565b600680546001600160a01b038381166001600160a01b0319831681179093556040519116919082907f8be0079c531659141344cd1fd0a4f28419497f9722a3daafe3b4186f6b6457e090600090a35050565b6001600160e01b031981168114610b8e57600080fd5b60006020828403121561138757600080fd5b81356113928161135f565b9392505050565b6001600160a01b0381168114610b8e57600080fd5b600080604083850312156113c157600080fd5b82356113cc81611399565b915060208301356113dc81611399565b809150509250929050565b60005b838110156114025781810151838201526020016113ea565b83811115610fea5750506000910152565b60208152600082518060208401526114328160408501602087016113e7565b601f01601f19169190910160400192915050565b60006020828403121561145857600080fd5b5035919050565b6000806040838503121561147257600080fd5b823561147d81611399565b946020939093013593505050565b6000806000606084860312156114a057600080fd5b83356114ab81611399565b925060208401356114bb81611399565b929592945050506040919091013590565b6000602082840312156114de57600080fd5b813561139281611399565b600080604083850312156114fc57600080fd5b8235915060208301356113dc81611399565b6000806040838503121561152157600080fd5b823561152c81611399565b9150602083013580151581146113dc57600080fd5b60008060008060006080868803121561155957600080fd5b853561156481611399565b9450602086013561157481611399565b935060408601359250606086013567ffffffffffffffff8082111561159857600080fd5b818801915088601f8301126115ac57600080fd5b8135818111156115bb57600080fd5b8960208285010111156115cd57600080fd5b9699959850939650602001949392505050565b6000602082840312156115f257600080fd5b5051919050565b600181811c9082168061160d57607f821691505b6020821081141561162e57634e487b7160e01b600052602260045260246000fd5b50919050565b60006020828403121561164657600080fd5b81516113928161135f565b6001600160a01b038681168252851660208201526040810184905260806060820181905281018290526000828460a0840137600060a0848401015260a0601f19601f85011683010190509695505050505050565b634e487b7160e01b600052604160045260246000fd5b6000602082840312156116cd57600080fd5b815167ffffffffffffffff808211156116e557600080fd5b818401915084601f8301126116f957600080fd5b81518181111561170b5761170b6116a5565b604051601f8201601f19908116603f01168101908382118183101715611733576117336116a5565b8160405282815287602084870101111561174c57600080fd5b61175d8360208301602088016113e7565b97965050505050505056fea26469706673582212200aa089e5652ba0085514111ee2030b4d58a68db623064619874bdd9a4059344f64736f6c634300080a0033",
    "linkReferences": {}
  },
  "methodIdentifiers": {
    "approve(address,uint256)": "095ea7b3",
    "balanceOf(address)": "70a08231",
    "burn(uint256)": "42966c68",
    "controller()": "f77c4791",
    "getApproved(uint256)": "081812fc",
    "getNextId()": "bc968326",
    "isApprovedForAll(address,address)": "e985e9c5",
    "mint(address)": "6a627842",
    "name()": "06fdde03",
    "owner()": "8da5cb5b",
    "ownerOf(uint256)": "6352211e",
    "recoverTokens(address,address)": "056097ac",
    "removeControl()": "7bee684b",
    "renderer()": "8ada6b0f",
    "renounceOwnership()": "715018a6",
    "safeMint(address)": "40d097c3",
    "safeTransferFrom(address,address,uint256)": "42842e0e",
    "safeTransferFrom(address,address,uint256,bytes)": "b88d4fde",
    "setApprovalForAll(address,bool)": "a22cb465",
    "setRenderer(address)": "56d3163d",
    "setSigner(uint256,address)": "85267907",
    "signerOf(uint256)": "5161fdf5",
    "supportsInterface(bytes4)": "01ffc9a7",
    "symbol()": "95d89b41",
    "timestampOf(uint256)": "2d9c77e1",
    "tokenURI(uint256)": "c87b56dd",
    "totalSupply()": "18160ddd",
    "transferControl(address)": "6d16fa41",
    "transferFrom(address,address,uint256)": "23b872dd",
    "transferOwnership(address)": "f2fde38b"
  },
  "id": 9
}