{
  "abi": [
    {
      "inputs": [],
      "name": "InvalidSignature",
      "type": "error"
    },
    {
      "inputs": [],
      "name": "IssuanceIsDisabled",
      "type": "error"
    },
    {
      "inputs": [],
      "name": "IssuancesLimitReached",
      "type": "error"
    },
    {
      "inputs": [],
      "name": "NotEligible",
      "type": "error"
    },
    {
      "inputs": [],
      "name": "PassportAlreadyIssued",
      "type": "error"
    },
    {
      "inputs": [],
      "name": "PassportNotIssued",
      "type": "error"
    },
    {
      "inputs": [],
      "name": "StillEligible",
      "type": "error"
    },
    {
      "anonymous": false,
      "inputs": [
        {
          "indexed": false,
          "internalType": "uint8",
          "name": "version",
          "type": "uint8"
        }
      ],
      "name": "Initialized",
      "type": "event"
    },
    {
      "anonymous": false,
      "inputs": [
        {
          "indexed": true,
          "internalType": "address",
          "name": "account",
          "type": "address"
        },
        {
          "indexed": true,
          "internalType": "uint256",
          "name": "passportId",
          "type": "uint256"
        }
      ],
      "name": "Issue",
      "type": "event"
    },
    {
      "anonymous": false,
      "inputs": [
        {
          "indexed": true,
          "internalType": "address",
          "name": "previousOwner",
          "type": "address"
        },
        {
          "indexed": true,
          "internalType": "address",
          "name": "newOwner",
          "type": "address"
        }
      ],
      "name": "OwnershipTransferred",
      "type": "event"
    },
    {
      "anonymous": false,
      "inputs": [
        {
          "indexed": true,
          "internalType": "address",
          "name": "amount",
          "type": "address"
        },
        {
          "indexed": true,
          "internalType": "uint256",
          "name": "passportId",
          "type": "uint256"
        }
      ],
      "name": "Withdraw",
      "type": "event"
    },
    {
      "inputs": [],
      "name": "DOMAIN_SEPARATOR",
      "outputs": [
        {
          "internalType": "bytes32",
          "name": "",
          "type": "bytes32"
        }
      ],
      "stateMutability": "view",
      "type": "function"
    },
    {
      "inputs": [
        {
          "internalType": "address",
          "name": "account",
          "type": "address"
        }
      ],
      "name": "adminRevoke",
      "outputs": [],
      "stateMutability": "nonpayable",
      "type": "function"
    },
    {
      "inputs": [
        {
          "internalType": "uint8",
          "name": "v",
          "type": "uint8"
        },
        {
          "internalType": "bytes32",
          "name": "r",
          "type": "bytes32"
        },
        {
          "internalType": "bytes32",
          "name": "s",
          "type": "bytes32"
        }
      ],
      "name": "claim",
      "outputs": [],
      "stateMutability": "nonpayable",
      "type": "function"
    },
    {
      "inputs": [],
      "name": "enabled",
      "outputs": [
        {
          "internalType": "bool",
          "name": "",
          "type": "bool"
        }
      ],
      "stateMutability": "view",
      "type": "function"
    },
    {
      "inputs": [
        {
          "internalType": "address",
          "name": "account",
          "type": "address"
        }
      ],
      "name": "hasPassport",
      "outputs": [
        {
          "internalType": "bool",
          "name": "",
          "type": "bool"
        }
      ],
      "stateMutability": "view",
      "type": "function"
    },
    {
      "inputs": [
        {
          "internalType": "contract IVotingEscrow",
          "name": "_veToken",
          "type": "address"
        },
        {
          "internalType": "contract Passport",
          "name": "_passToken",
          "type": "address"
        }
      ],
      "name": "initialize",
      "outputs": [],
      "stateMutability": "nonpayable",
      "type": "function"
    },
    {
      "inputs": [],
      "name": "maxIssuances",
      "outputs": [
        {
          "internalType": "uint256",
          "name": "",
          "type": "uint256"
        }
      ],
      "stateMutability": "view",
      "type": "function"
    },
    {
      "inputs": [],
      "name": "minLockedBalance",
      "outputs": [
        {
          "internalType": "uint256",
          "name": "",
          "type": "uint256"
        }
      ],
      "stateMutability": "view",
      "type": "function"
    },
    {
      "inputs": [],
      "name": "owner",
      "outputs": [
        {
          "internalType": "address",
          "name": "",
          "type": "address"
        }
      ],
      "stateMutability": "view",
      "type": "function"
    },
    {
      "inputs": [],
      "name": "passToken",
      "outputs": [
        {
          "internalType": "contract Passport",
          "name": "",
          "type": "address"
        }
      ],
      "stateMutability": "view",
      "type": "function"
    },
    {
      "inputs": [
        {
          "internalType": "address",
          "name": "account",
          "type": "address"
        }
      ],
      "name": "passportId",
      "outputs": [
        {
          "internalType": "uint256",
          "name": "",
          "type": "uint256"
        }
      ],
      "stateMutability": "view",
      "type": "function"
    },
    {
      "inputs": [
        {
          "internalType": "contract ERC20",
          "name": "token",
          "type": "address"
        },
        {
          "internalType": "address",
          "name": "to",
          "type": "address"
        }
      ],
      "name": "recoverTokens",
      "outputs": [
        {
          "internalType": "uint256",
          "name": "amount",
          "type": "uint256"
        }
      ],
      "stateMutability": "nonpayable",
      "type": "function"
    },
    {
      "inputs": [],
      "name": "renounceOwnership",
      "outputs": [],
      "stateMutability": "nonpayable",
      "type": "function"
    },
    {
      "inputs": [
        {
          "internalType": "address",
          "name": "account",
          "type": "address"
        }
      ],
      "name": "revoke",
      "outputs": [],
      "stateMutability": "nonpayable",
      "type": "function"
    },
    {
      "inputs": [],
      "name": "revokeUnderRatio",
      "outputs": [
        {
          "internalType": "uint8",
          "name": "",
          "type": "uint8"
        }
      ],
      "stateMutability": "view",
      "type": "function"
    },
    {
      "inputs": [
        {
          "internalType": "bool",
          "name": "status",
          "type": "bool"
        }
      ],
      "name": "setEnabled",
      "outputs": [],
      "stateMutability": "nonpayable",
      "type": "function"
    },
    {
      "inputs": [
        {
          "internalType": "uint256",
          "name": "supply",
          "type": "uint256"
        },
        {
          "internalType": "uint256",
          "name": "_minLockedBalance",
          "type": "uint256"
        },
        {
          "internalType": "uint8",
          "name": "_revokeUnderRatio",
          "type": "uint8"
        }
      ],
      "name": "setParams",
      "outputs": [],
      "stateMutability": "nonpayable",
      "type": "function"
    },
    {
      "inputs": [
        {
          "internalType": "string",
          "name": "_statement",
          "type": "string"
        }
      ],
      "name": "setStatement",
      "outputs": [],
      "stateMutability": "nonpayable",
      "type": "function"
    },
    {
      "inputs": [],
      "name": "statement",
      "outputs": [
        {
          "internalType": "string",
          "name": "",
          "type": "string"
        }
      ],
      "stateMutability": "view",
      "type": "function"
    },
    {
      "inputs": [],
      "name": "totalIssued",
      "outputs": [
        {
          "internalType": "uint256",
          "name": "",
          "type": "uint256"
        }
      ],
      "stateMutability": "view",
      "type": "function"
    },
    {
      "inputs": [
        {
          "internalType": "address",
          "name": "newOwner",
          "type": "address"
        }
      ],
      "name": "transferOwnership",
      "outputs": [],
      "stateMutability": "nonpayable",
      "type": "function"
    },
    {
      "inputs": [],
      "name": "veToken",
      "outputs": [
        {
          "internalType": "contract IVotingEscrow",
          "name": "",
          "type": "address"
        }
      ],
      "stateMutability": "view",
      "type": "function"
    },
    {
      "inputs": [
        {
          "internalType": "uint8",
          "name": "v",
          "type": "uint8"
        },
        {
          "internalType": "bytes32",
          "name": "r",
          "type": "bytes32"
        },
        {
          "internalType": "bytes32",
          "name": "s",
          "type": "bytes32"
        }
      ],
      "name": "verifySignature",
      "outputs": [],
      "stateMutability": "nonpayable",
      "type": "function"
    },
    {
      "inputs": [],
      "name": "withdraw",
      "outputs": [],
      "stateMutability": "nonpayable",
      "type": "function"
    }
  ],
  "bytecode": {
    "object": "0x608060405234801561001057600080fd5b5061001a3361001f565b61007a565b600080546001600160a01b038381166201000081810262010000600160b01b0319851617855560405193049190911692909183917f8be0079c531659141344cd1fd0a4f28419497f9722a3daafe3b4186f6b6457e091a35050565b6113b2806100896000396000f3fe608060405234801561001057600080fd5b50600436106101585760003560e01c806374a8f103116100c3578063cbd301db1161007c578063cbd301db146102f9578063d91d04c01461030c578063e42cb9f314610315578063f2fde38b1461032a578063f5be31931461033d578063fecfdff71461034657600080fd5b806374a8f103146102835780638cf105d3146102965780638da5cb5b146102a95780638fe066fc146102c05780639ac75d84146102d3578063aac6c6cd146102e657600080fd5b80633b92eb23116101155780633b92eb23146101e05780633ccfd60b1461020b57806345ab63bf14610213578063485cc955146102395780634dc30e871461024c578063715018a61461027b57600080fd5b806301483fc91461015d578063056097ac146101795780631ca8b8ab1461018c578063238dafe01461019f578063328d8f72146101c35780633644e515146101d8575b600080fd5b61016660065481565b6040519081526020015b60405180910390f35b610166610187366004610fa6565b610359565b61016661019a366004610fdf565b610418565b6002546101b390600160a01b900460ff1681565b6040519015158152602001610170565b6101d66101d1366004611003565b610478565b005b6101666104c7565b6001546101f3906001600160a01b031681565b6040516001600160a01b039091168152602001610170565b6101d66104e8565b60025461022790600160a81b900460ff1681565b60405160ff9091168152602001610170565b6101d6610247366004610fa6565b6104f3565b6101b361025a366004610fdf565b6001600160a01b031660009081526008602052604090205460ff1660011490565b6101d661059d565b6101d6610291366004610fdf565b6105d8565b6101d66102a4366004611036565b610698565b6000546201000090046001600160a01b03166101f3565b6101d66102ce366004610fdf565b610812565b6101d66102e1366004611069565b610843565b6101d66102f4366004611036565b61089d565b6101d66103073660046110b4565b6109c1565b61016660045481565b61031d610a09565b6040516101709190611165565b6101d6610338366004610fdf565b610a97565b61016660055481565b6002546101f3906001600160a01b031681565b600080546001600160a01b03620100009091041633146103945760405162461bcd60e51b815260040161038b906111ba565b60405180910390fd5b6040516370a0823160e01b81523060048201526001600160a01b038416906370a0823190602401602060405180830381865afa1580156103d8573d6000803e3d6000fd5b505050506040513d601f19601f820116820180604052508101906103fc91906111ef565b90506104126001600160a01b0384168383610b36565b92915050565b600061043f826001600160a01b031660009081526008602052604090205460ff1660011490565b61045c57604051633f8e4ee160e11b815260040160405180910390fd5b506001600160a01b031660009081526009602052604090205490565b6000546001600160a01b03620100009091041633146104a95760405162461bcd60e51b815260040161038b906111ba565b60028054911515600160a01b0260ff60a01b19909216919091179055565b6000600754600014156104e1576104dc610bae565b905090565b5060075490565b6104f133610c6f565b565b60006104ff6001610d32565b90508015610517576000805461ff0019166101001790555b600180546001600160a01b038086166001600160a01b031992831617909255600280549285169290911691909117905561054f610bae565b6007558015610598576000805461ff0019169055604051600181527f7f26b83ff96e1f2b6a682f133852f6798a09c465da95921460cefb38474024989060200160405180910390a15b505050565b6000546001600160a01b03620100009091041633146105ce5760405162461bcd60e51b815260040161038b906111ba565b6104f16000610dbf565b6002546006546064916105f691600160a81b90910460ff1690611208565b6106009190611235565b6001546040516370a0823160e01b81526001600160a01b038481166004830152909116906370a0823190602401602060405180830381865afa15801561064a573d6000803e3d6000fd5b505050506040513d601f19601f8201168201806040525081019061066e91906111ef565b1061068c57604051633bf996fd60e11b815260040160405180910390fd5b61069581610c6f565b50565b600060016106a46104c7565b7faa10bd975d52c837b341488f3c8a6aa86a6ae81c074611b9f362f2b9f8661a2a60036040516020016106d79190611292565b60405160208183030381529060405280519060200120604051602001610707929190918252602082015260400190565b6040516020818303038152906040528051906020012060405160200161074492919061190160f01b81526002810192909252602282015260420190565b60408051601f198184030181528282528051602091820120600084529083018083525260ff871690820152606081018590526080810184905260a0016020604051602081039080840390855afa1580156107a2573d6000803e3d6000fd5b5050604051601f1901519150506001600160a01b038116158015906107cf57506001600160a01b03811633145b61080c5760405162461bcd60e51b815260206004820152600e60248201526d24a72b20a624a22fa9a4a3a722a960911b604482015260640161038b565b50505050565b6000546001600160a01b036201000090910416331461068c5760405162461bcd60e51b815260040161038b906111ba565b6000546001600160a01b03620100009091041633146108745760405162461bcd60e51b815260040161038b906111ba565b6004929092556006556002805460ff909216600160a81b0260ff60a81b19909216919091179055565b600254600160a01b900460ff166108c7576040516327c88a4760e11b815260040160405180910390fd5b600454600554106108eb5760405163595639cb60e11b815260040160405180910390fd5b3360009081526008602052604090205460ff166001141561091f57604051633813e41b60e11b815260040160405180910390fd5b6006546001546040516370a0823160e01b81523360048201526001600160a01b03909116906370a0823190602401602060405180830381865afa15801561096a573d6000803e3d6000fd5b505050506040513d601f19601f8201168201806040525081019061098e91906111ef565b10156109ad57604051637c75aa6f60e11b815260040160405180910390fd5b6109b8838383610698565b61059833610e1a565b6000546001600160a01b03620100009091041633146109f25760405162461bcd60e51b815260040161038b906111ba565b8051610a05906003906020840190610ef8565b5050565b60038054610a1690611257565b80601f0160208091040260200160405190810160405280929190818152602001828054610a4290611257565b8015610a8f5780601f10610a6457610100808354040283529160200191610a8f565b820191906000526020600020905b815481529060010190602001808311610a7257829003601f168201915b505050505081565b6000546001600160a01b0362010000909104163314610ac85760405162461bcd60e51b815260040161038b906111ba565b6001600160a01b038116610b2d5760405162461bcd60e51b815260206004820152602660248201527f4f776e61626c653a206e6577206f776e657220697320746865207a65726f206160448201526564647265737360d01b606482015260840161038b565b61069581610dbf565b600060405163a9059cbb60e01b8152836004820152826024820152602060006044836000895af13d15601f3d116001600051141617169150508061080c5760405162461bcd60e51b815260206004820152600f60248201526e1514905394d1915497d19052531151608a1b604482015260640161038b565b604080518082018252600e81526d2830b9b9b837b93a24b9b9bab2b960911b60209182015281517f8b73c3c69bb8fe3d512ecc4cf759cc79239f7b179b0ffacaa9a75d522b39400f818301527f6bcaa52b88264510972d196cf31311fcb4be9107fb5ecf4996c92a026d014e42818401527fc89efdaa54c0f20c7adf612882df0950f5a951637e0307cdcb4c672f298b8bc660608201524660808201523060a0808301919091528351808303909101815260c0909101909252815191012090565b6000610c7a82610418565b600254604051630852cd8d60e31b8152600481018390529192506001600160a01b0316906342966c6890602401600060405180830381600087803b158015610cc157600080fd5b505af1158015610cd5573d6000803e3d6000fd5b5050506001600160a01b0383166000818152600860209081526040808320805460ff191690556009909152808220829055518493507f884edad9ce6fa2440d8a54cc123490eb96d2768479d49ff9c7366125a94243649190a35050565b60008054610100900460ff1615610d79578160ff166001148015610d555750303b155b610d715760405162461bcd60e51b815260040161038b9061132e565b506000919050565b60005460ff808416911610610da05760405162461bcd60e51b815260040161038b9061132e565b506000805460ff191660ff92909216919091179055600190565b919050565b600080546001600160a01b038381166201000081810262010000600160b01b0319851617855560405193049190911692909183917f8be0079c531659141344cd1fd0a4f28419497f9722a3daafe3b4186f6b6457e091a35050565b6002546040516340d097c360e01b81526001600160a01b03838116600483015260009216906340d097c3906024016020604051808303816000875af1158015610e67573d6000803e3d6000fd5b505050506040513d601f19601f82011682018060405250810190610e8b91906111ef565b6005805460019081019091556001600160a01b0384166000818152600860209081526040808320805460ff1916909517909455600990528281208490559151929350839290917fc65a3f767206d2fdcede0b094a4840e01c0dd0be1888b5ba800346eaa0123c1691a35050565b828054610f0490611257565b90600052602060002090601f016020900481019282610f265760008555610f6c565b82601f10610f3f57805160ff1916838001178555610f6c565b82800160010185558215610f6c579182015b82811115610f6c578251825591602001919060010190610f51565b50610f78929150610f7c565b5090565b5b80821115610f785760008155600101610f7d565b6001600160a01b038116811461069557600080fd5b60008060408385031215610fb957600080fd5b8235610fc481610f91565b91506020830135610fd481610f91565b809150509250929050565b600060208284031215610ff157600080fd5b8135610ffc81610f91565b9392505050565b60006020828403121561101557600080fd5b81358015158114610ffc57600080fd5b803560ff81168114610dba57600080fd5b60008060006060848603121561104b57600080fd5b61105484611025565b95602085013595506040909401359392505050565b60008060006060848603121561107e57600080fd5b833592506020840135915061109560408501611025565b90509250925092565b634e487b7160e01b600052604160045260246000fd5b6000602082840312156110c657600080fd5b813567ffffffffffffffff808211156110de57600080fd5b818401915084601f8301126110f257600080fd5b8135818111156111045761110461109e565b604051601f8201601f19908116603f0116810190838211818310171561112c5761112c61109e565b8160405282815287602084870101111561114557600080fd5b826020860160208301376000928101602001929092525095945050505050565b600060208083528351808285015260005b8181101561119257858101830151858201604001528201611176565b818111156111a4576000604083870101525b50601f01601f1916929092016040019392505050565b6020808252818101527f4f776e61626c653a2063616c6c6572206973206e6f7420746865206f776e6572604082015260600190565b60006020828403121561120157600080fd5b5051919050565b600081600019048311821515161561123057634e487b7160e01b600052601160045260246000fd5b500290565b60008261125257634e487b7160e01b600052601260045260246000fd5b500490565b600181811c9082168061126b57607f821691505b6020821081141561128c57634e487b7160e01b600052602260045260246000fd5b50919050565b600080835481600182811c9150808316806112ae57607f831692505b60208084108214156112ce57634e487b7160e01b86526022600452602486fd5b8180156112e257600181146112f357611320565b60ff19861689528489019650611320565b60008a81526020902060005b868110156113185781548b8201529085019083016112ff565b505084890196505b509498975050505050505050565b6020808252602e908201527f496e697469616c697a61626c653a20636f6e747261637420697320616c72656160408201526d191e481a5b9a5d1a585b1a5e995960921b60608201526080019056fea264697066735822122057264480c40c0e6153ea86366ff1ca6e39ef19dd9a1dba67a63e05875766c76b64736f6c634300080a0033",
    "linkReferences": {}
  }
}