{
  "_format": "hh-sol-artifact-1",
  "contractName": "PassportNFT",
  "sourceName": "contracts/Passport.sol",
  "abi": [
    {
      "inputs": [],
      "name": "AlreadyMinted",
      "type": "error"
    },
    {
      "inputs": [],
      "name": "InvalidFrom",
      "type": "error"
    },
    {
      "inputs": [],
      "name": "InvalidRecipient",
      "type": "error"
    },
    {
      "inputs": [],
      "name": "NotAuthorized",
      "type": "error"
    },
    {
      "inputs": [],
      "name": "NotMinted",
      "type": "error"
    },
    {
      "inputs": [],
      "name": "TokenOwnerMismatch",
      "type": "error"
    },
    {
      "inputs": [],
      "name": "UnsafeRecipient",
      "type": "error"
    },
    {
      "anonymous": false,
      "inputs": [
        {
          "indexed": true,
          "internalType": "address",
          "name": "owner",
          "type": "address"
        },
        {
          "indexed": true,
          "internalType": "address",
          "name": "spender",
          "type": "address"
        },
        {
          "indexed": true,
          "internalType": "uint256",
          "name": "id",
          "type": "uint256"
        }
      ],
      "name": "Approval",
      "type": "event"
    },
    {
      "anonymous": false,
      "inputs": [
        {
          "indexed": true,
          "internalType": "address",
          "name": "owner",
          "type": "address"
        },
        {
          "indexed": true,
          "internalType": "address",
          "name": "operator",
          "type": "address"
        },
        {
          "indexed": false,
          "internalType": "bool",
          "name": "approved",
          "type": "bool"
        }
      ],
      "name": "ApprovalForAll",
      "type": "event"
    },
    {
      "anonymous": false,
      "inputs": [
        {
          "indexed": true,
          "internalType": "address",
          "name": "previousOwner",
          "type": "address"
        },
        {
          "indexed": true,
          "internalType": "address",
          "name": "newOwner",
          "type": "address"
        }
      ],
      "name": "OwnershipTransferred",
      "type": "event"
    },
    {
      "anonymous": false,
      "inputs": [
        {
          "indexed": true,
          "internalType": "address",
          "name": "from",
          "type": "address"
        },
        {
          "indexed": true,
          "internalType": "address",
          "name": "to",
          "type": "address"
        },
        {
          "indexed": true,
          "internalType": "uint256",
          "name": "id",
          "type": "uint256"
        }
      ],
      "name": "Transfer",
      "type": "event"
    },
    {
      "inputs": [
        {
          "internalType": "address",
          "name": "spender",
          "type": "address"
        },
        {
          "internalType": "uint256",
          "name": "id",
          "type": "uint256"
        }
      ],
      "name": "approve",
      "outputs": [],
      "stateMutability": "nonpayable",
      "type": "function"
    },
    {
      "inputs": [
        {
          "internalType": "address",
          "name": "",
          "type": "address"
        }
      ],
      "name": "balanceOf",
      "outputs": [
        {
          "internalType": "uint256",
          "name": "",
          "type": "uint256"
        }
      ],
      "stateMutability": "view",
      "type": "function"
    },
    {
      "inputs": [],
      "name": "baseURI",
      "outputs": [
        {
          "internalType": "string",
          "name": "",
          "type": "string"
        }
      ],
      "stateMutability": "view",
      "type": "function"
    },
    {
      "inputs": [
        {
          "internalType": "uint256",
          "name": "id",
          "type": "uint256"
        }
      ],
      "name": "burn",
      "outputs": [],
      "stateMutability": "nonpayable",
      "type": "function"
    },
    {
      "inputs": [
        {
          "internalType": "address",
          "name": "owner",
          "type": "address"
        }
      ],
      "name": "burnFromOwner",
      "outputs": [],
      "stateMutability": "nonpayable",
      "type": "function"
    },
    {
      "inputs": [
        {
          "internalType": "address",
          "name": "",
          "type": "address"
        }
      ],
      "name": "byOwner",
      "outputs": [
        {
          "internalType": "uint256",
          "name": "",
          "type": "uint256"
        }
      ],
      "stateMutability": "view",
      "type": "function"
    },
    {
      "inputs": [
        {
          "internalType": "uint256",
          "name": "",
          "type": "uint256"
        }
      ],
      "name": "getApproved",
      "outputs": [
        {
          "internalType": "address",
          "name": "",
          "type": "address"
        }
      ],
      "stateMutability": "view",
      "type": "function"
    },
    {
      "inputs": [],
      "name": "getNextId",
      "outputs": [
        {
          "internalType": "uint256",
          "name": "",
          "type": "uint256"
        }
      ],
      "stateMutability": "view",
      "type": "function"
    },
    {
      "inputs": [
        {
          "internalType": "address",
          "name": "",
          "type": "address"
        },
        {
          "internalType": "address",
          "name": "",
          "type": "address"
        }
      ],
      "name": "isApprovedForAll",
      "outputs": [
        {
          "internalType": "bool",
          "name": "",
          "type": "bool"
        }
      ],
      "stateMutability": "view",
      "type": "function"
    },
    {
      "inputs": [
        {
          "internalType": "address",
          "name": "to",
          "type": "address"
        }
      ],
      "name": "mint",
      "outputs": [],
      "stateMutability": "nonpayable",
      "type": "function"
    },
    {
      "inputs": [],
      "name": "name",
      "outputs": [
        {
          "internalType": "string",
          "name": "",
          "type": "string"
        }
      ],
      "stateMutability": "view",
      "type": "function"
    },
    {
      "inputs": [],
      "name": "owner",
      "outputs": [
        {
          "internalType": "address",
          "name": "",
          "type": "address"
        }
      ],
      "stateMutability": "view",
      "type": "function"
    },
    {
      "inputs": [
        {
          "internalType": "uint256",
          "name": "",
          "type": "uint256"
        }
      ],
      "name": "ownerOf",
      "outputs": [
        {
          "internalType": "address",
          "name": "",
          "type": "address"
        }
      ],
      "stateMutability": "view",
      "type": "function"
    },
    {
      "inputs": [],
      "name": "renounceOwnership",
      "outputs": [],
      "stateMutability": "nonpayable",
      "type": "function"
    },
    {
      "inputs": [
        {
          "internalType": "address",
          "name": "from",
          "type": "address"
        },
        {
          "internalType": "address",
          "name": "to",
          "type": "address"
        },
        {
          "internalType": "uint256",
          "name": "id",
          "type": "uint256"
        }
      ],
      "name": "safeTransferFrom",
      "outputs": [],
      "stateMutability": "nonpayable",
      "type": "function"
    },
    {
      "inputs": [
        {
          "internalType": "address",
          "name": "from",
          "type": "address"
        },
        {
          "internalType": "address",
          "name": "to",
          "type": "address"
        },
        {
          "internalType": "uint256",
          "name": "id",
          "type": "uint256"
        },
        {
          "internalType": "bytes",
          "name": "data",
          "type": "bytes"
        }
      ],
      "name": "safeTransferFrom",
      "outputs": [],
      "stateMutability": "nonpayable",
      "type": "function"
    },
    {
      "inputs": [
        {
          "internalType": "address",
          "name": "operator",
          "type": "address"
        },
        {
          "internalType": "bool",
          "name": "approved",
          "type": "bool"
        }
      ],
      "name": "setApprovalForAll",
      "outputs": [],
      "stateMutability": "nonpayable",
      "type": "function"
    },
    {
      "inputs": [
        {
          "internalType": "string",
          "name": "_baseURI",
          "type": "string"
        }
      ],
      "name": "setBaseURI",
      "outputs": [],
      "stateMutability": "nonpayable",
      "type": "function"
    },
    {
      "inputs": [
        {
          "internalType": "bytes4",
          "name": "interfaceId",
          "type": "bytes4"
        }
      ],
      "name": "supportsInterface",
      "outputs": [
        {
          "internalType": "bool",
          "name": "",
          "type": "bool"
        }
      ],
      "stateMutability": "view",
      "type": "function"
    },
    {
      "inputs": [],
      "name": "symbol",
      "outputs": [
        {
          "internalType": "string",
          "name": "",
          "type": "string"
        }
      ],
      "stateMutability": "view",
      "type": "function"
    },
    {
      "inputs": [
        {
          "internalType": "uint256",
          "name": "tokenId",
          "type": "uint256"
        }
      ],
      "name": "tokenURI",
      "outputs": [
        {
          "internalType": "string",
          "name": "",
          "type": "string"
        }
      ],
      "stateMutability": "view",
      "type": "function"
    },
    {
      "inputs": [],
      "name": "totalSupply",
      "outputs": [
        {
          "internalType": "uint256",
          "name": "",
          "type": "uint256"
        }
      ],
      "stateMutability": "view",
      "type": "function"
    },
    {
      "inputs": [
        {
          "internalType": "address",
          "name": "from",
          "type": "address"
        },
        {
          "internalType": "address",
          "name": "to",
          "type": "address"
        },
        {
          "internalType": "uint256",
          "name": "id",
          "type": "uint256"
        }
      ],
      "name": "transferFrom",
      "outputs": [],
      "stateMutability": "nonpayable",
      "type": "function"
    },
    {
      "inputs": [
        {
          "internalType": "address",
          "name": "newOwner",
          "type": "address"
        }
      ],
      "name": "transferOwnership",
      "outputs": [],
      "stateMutability": "nonpayable",
      "type": "function"
    }
  ],
  "bytecode": "0x60806040526040518060400160405280601081526020017f4e6174696f6e332050617373706f7274000000000000000000000000000000008152506001908051906020019062000051929190620001a0565b506040518060400160405280600681526020017f4e33504153530000000000000000000000000000000000000000000000000000815250600290805190602001906200009f929190620001a0565b50348015620000ad57600080fd5b50620000ce620000c2620000d460201b60201c565b620000dc60201b60201c565b620002b5565b600033905090565b60008060009054906101000a900473ffffffffffffffffffffffffffffffffffffffff169050816000806101000a81548173ffffffffffffffffffffffffffffffffffffffff021916908373ffffffffffffffffffffffffffffffffffffffff1602179055508173ffffffffffffffffffffffffffffffffffffffff168173ffffffffffffffffffffffffffffffffffffffff167f8be0079c531659141344cd1fd0a4f28419497f9722a3daafe3b4186f6b6457e060405160405180910390a35050565b828054620001ae906200027f565b90600052602060002090601f016020900481019282620001d257600085556200021e565b82601f10620001ed57805160ff19168380011785556200021e565b828001600101855582156200021e579182015b828111156200021d57825182559160200191906001019062000200565b5b5090506200022d919062000231565b5090565b5b808211156200024c57600081600090555060010162000232565b5090565b7f4e487b7100000000000000000000000000000000000000000000000000000000600052602260045260246000fd5b600060028204905060018216806200029857607f821691505b60208210811415620002af57620002ae62000250565b5b50919050565b612da780620002c56000396000f3fe608060405234801561001057600080fd5b50600436106101585760003560e01c80636c0360eb116100c3578063a22cb4651161007c578063a22cb465146103b1578063b88d4fde146103cd578063bc968326146103e9578063c87b56dd14610407578063e985e9c514610437578063f2fde38b1461046757610158565b80636c0360eb1461030157806370a082311461031f578063715018a61461034f5780638d10af52146103595780638da5cb5b1461037557806395d89b411461039357610158565b806323b872dd1161011557806323b872dd1461024557806342842e0e1461026157806342966c681461027d57806355f804b3146102995780636352211e146102b55780636a627842146102e557610158565b806301ffc9a71461015d57806306fdde031461018d578063081812fc146101ab578063095ea7b3146101db578063140cfd23146101f757806318160ddd14610227575b600080fd5b610177600480360381019061017291906120f0565b610483565b6040516101849190612138565b60405180910390f35b610195610515565b6040516101a291906121ec565b60405180910390f35b6101c560048036038101906101c09190612244565b6105a3565b6040516101d291906122b2565b60405180910390f35b6101f560048036038101906101f091906122f9565b6105d6565b005b610211600480360381019061020c9190612339565b61083c565b60405161021e9190612375565b60405180910390f35b61022f610854565b60405161023c9190612375565b60405180910390f35b61025f600480360381019061025a9190612390565b61085a565b005b61027b60048036038101906102769190612390565b610cc7565b005b61029760048036038101906102929190612244565b610e76565b005b6102b360048036038101906102ae9190612518565b610efe565b005b6102cf60048036038101906102ca9190612244565b610f94565b6040516102dc91906122b2565b60405180910390f35b6102ff60048036038101906102fa9190612339565b610fc7565b005b61030961106a565b60405161031691906121ec565b60405180910390f35b61033960048036038101906103349190612339565b6110f8565b6040516103469190612375565b60405180910390f35b610357611110565b005b610373600480360381019061036e9190612339565b611198565b005b61037d611377565b60405161038a91906122b2565b60405180910390f35b61039b6113a0565b6040516103a891906121ec565b60405180910390f35b6103cb60048036038101906103c6919061258d565b61142e565b005b6103e760048036038101906103e2919061266e565b6115a7565b005b6103f1611759565b6040516103fe9190612375565b60405180910390f35b610421600480360381019061041c9190612244565b611763565b60405161042e91906121ec565b60405180910390f35b610451600480360381019061044c91906126f1565b611831565b60405161045e9190612138565b60405180910390f35b610481600480360381019061047c9190612339565b611860565b005b60006301ffc9a760e01b827bffffffffffffffffffffffffffffffffffffffffffffffffffffffff191614806104de57506380ac58cd60e01b827bffffffffffffffffffffffffffffffffffffffffffffffffffffffff1916145b8061050e5750635b5e139f60e01b827bffffffffffffffffffffffffffffffffffffffffffffffffffffffff1916145b9050919050565b6001805461052290612760565b80601f016020809104026020016040519081016040528092919081815260200182805461054e90612760565b801561059b5780601f106105705761010080835404028352916020019161059b565b820191906000526020600020905b81548152906001019060200180831161057e57829003601f168201915b505050505081565b60096020528060005260406000206000915054906101000a900473ffffffffffffffffffffffffffffffffffffffff1681565b6105de611958565b73ffffffffffffffffffffffffffffffffffffffff166105fc611377565b73ffffffffffffffffffffffffffffffffffffffff1614610652576040517f08c379a0000000000000000000000000000000000000000000000000000000008152600401610649906127de565b60405180910390fd5b60006008600083815260200190815260200160002060009054906101000a900473ffffffffffffffffffffffffffffffffffffffff1690508073ffffffffffffffffffffffffffffffffffffffff163373ffffffffffffffffffffffffffffffffffffffff1614158015610753575060001515600a60008373ffffffffffffffffffffffffffffffffffffffff1673ffffffffffffffffffffffffffffffffffffffff16815260200190815260200160002060003373ffffffffffffffffffffffffffffffffffffffff1673ffffffffffffffffffffffffffffffffffffffff16815260200190815260200160002060009054906101000a900460ff161515145b1561078a576040517fea8e4eb500000000000000000000000000000000000000000000000000000000815260040160405180910390fd5b826009600084815260200190815260200160002060006101000a81548173ffffffffffffffffffffffffffffffffffffffff021916908373ffffffffffffffffffffffffffffffffffffffff160217905550818373ffffffffffffffffffffffffffffffffffffffff168273ffffffffffffffffffffffffffffffffffffffff167f8c5be1e5ebec7d5bd14f71427d1e84f3dd0314c0f7b2291e5b200ac8c7c3b92560405160405180910390a4505050565b60076020528060005260406000206000915090505481565b60045481565b610862611958565b73ffffffffffffffffffffffffffffffffffffffff16610880611377565b73ffffffffffffffffffffffffffffffffffffffff16146108d6576040517f08c379a00000000000000000000000000000000000000000000000000000000081526004016108cd906127de565b60405180910390fd5b6008600082815260200190815260200160002060009054906101000a900473ffffffffffffffffffffffffffffffffffffffff1673ffffffffffffffffffffffffffffffffffffffff168373ffffffffffffffffffffffffffffffffffffffff161461096e576040517f2099424200000000000000000000000000000000000000000000000000000000815260040160405180910390fd5b600073ffffffffffffffffffffffffffffffffffffffff168273ffffffffffffffffffffffffffffffffffffffff1614156109d5576040517f9c8d2cd200000000000000000000000000000000000000000000000000000000815260040160405180910390fd5b8273ffffffffffffffffffffffffffffffffffffffff163373ffffffffffffffffffffffffffffffffffffffff1614158015610a9e575060001515600a60008573ffffffffffffffffffffffffffffffffffffffff1673ffffffffffffffffffffffffffffffffffffffff16815260200190815260200160002060003373ffffffffffffffffffffffffffffffffffffffff1673ffffffffffffffffffffffffffffffffffffffff16815260200190815260200160002060009054906101000a900460ff161515145b8015610b0957506009600082815260200190815260200160002060009054906101000a900473ffffffffffffffffffffffffffffffffffffffff1673ffffffffffffffffffffffffffffffffffffffff163373ffffffffffffffffffffffffffffffffffffffff1614155b15610b40576040517fea8e4eb500000000000000000000000000000000000000000000000000000000815260040160405180910390fd5b600660008473ffffffffffffffffffffffffffffffffffffffff1673ffffffffffffffffffffffffffffffffffffffff1681526020019081526020016000206000815480929190600190039190505550600660008373ffffffffffffffffffffffffffffffffffffffff1673ffffffffffffffffffffffffffffffffffffffff16815260200190815260200160002060008154809291906001019190505550816008600083815260200190815260200160002060006101000a81548173ffffffffffffffffffffffffffffffffffffffff021916908373ffffffffffffffffffffffffffffffffffffffff1602179055506009600082815260200190815260200160002060006101000a81549073ffffffffffffffffffffffffffffffffffffffff0219169055808273ffffffffffffffffffffffffffffffffffffffff168473ffffffffffffffffffffffffffffffffffffffff167fddf252ad1be2c89b69c2b068fc378daa952ba7f163c4a11628f55a4df523b3ef60405160405180910390a4505050565b610ccf611958565b73ffffffffffffffffffffffffffffffffffffffff16610ced611377565b73ffffffffffffffffffffffffffffffffffffffff1614610d43576040517f08c379a0000000000000000000000000000000000000000000000000000000008152600401610d3a906127de565b60405180910390fd5b610d4e83838361085a565b60008273ffffffffffffffffffffffffffffffffffffffff163b14158015610e3a575063150b7a0260e01b7bffffffffffffffffffffffffffffffffffffffffffffffffffffffff19168273ffffffffffffffffffffffffffffffffffffffff1663150b7a023386856040518463ffffffff1660e01b8152600401610dd593929190612835565b6020604051808303816000875af1158015610df4573d6000803e3d6000fd5b505050506040513d601f19601f82011682018060405250810190610e189190612894565b7bffffffffffffffffffffffffffffffffffffffffffffffffffffffff191614155b15610e71576040517f3da6393100000000000000000000000000000000000000000000000000000000815260040160405180910390fd5b505050565b610e7e611958565b73ffffffffffffffffffffffffffffffffffffffff16610e9c611377565b73ffffffffffffffffffffffffffffffffffffffff1614610ef2576040517f08c379a0000000000000000000000000000000000000000000000000000000008152600401610ee9906127de565b60405180910390fd5b610efb81611960565b50565b610f06611958565b73ffffffffffffffffffffffffffffffffffffffff16610f24611377565b73ffffffffffffffffffffffffffffffffffffffff1614610f7a576040517f08c379a0000000000000000000000000000000000000000000000000000000008152600401610f71906127de565b60405180910390fd5b8060039080519060200190610f90929190611fe1565b5050565b60086020528060005260406000206000915054906101000a900473ffffffffffffffffffffffffffffffffffffffff1681565b610fcf611958565b73ffffffffffffffffffffffffffffffffffffffff16610fed611377565b73ffffffffffffffffffffffffffffffffffffffff1614611043576040517f08c379a000000000000000000000000000000000000000000000000000000000815260040161103a906127de565b60405180910390fd5b61104f81600554611b69565b60056000815480929190611062906128f0565b919050555050565b6003805461107790612760565b80601f01602080910402602001604051908101604052809291908181526020018280546110a390612760565b80156110f05780601f106110c5576101008083540402835291602001916110f0565b820191906000526020600020905b8154815290600101906020018083116110d357829003601f168201915b505050505081565b60066020528060005260406000206000915090505481565b611118611958565b73ffffffffffffffffffffffffffffffffffffffff16611136611377565b73ffffffffffffffffffffffffffffffffffffffff161461118c576040517f08c379a0000000000000000000000000000000000000000000000000000000008152600401611183906127de565b60405180910390fd5b6111966000611dbc565b565b6111a0611958565b73ffffffffffffffffffffffffffffffffffffffff166111be611377565b73ffffffffffffffffffffffffffffffffffffffff1614611214576040517f08c379a000000000000000000000000000000000000000000000000000000000815260040161120b906127de565b60405180910390fd5b6000600660008373ffffffffffffffffffffffffffffffffffffffff1673ffffffffffffffffffffffffffffffffffffffff16815260200190815260200160002054141561128e576040517f4d5e5fb300000000000000000000000000000000000000000000000000000000815260040160405180910390fd5b6000600760008373ffffffffffffffffffffffffffffffffffffffff1673ffffffffffffffffffffffffffffffffffffffff1681526020019081526020016000205490506008600082815260200190815260200160002060009054906101000a900473ffffffffffffffffffffffffffffffffffffffff1673ffffffffffffffffffffffffffffffffffffffff168273ffffffffffffffffffffffffffffffffffffffff161461136a576040517fe3a7d84a00000000000000000000000000000000000000000000000000000000815260040160405180910390fd5b61137381611960565b5050565b60008060009054906101000a900473ffffffffffffffffffffffffffffffffffffffff16905090565b600280546113ad90612760565b80601f01602080910402602001604051908101604052809291908181526020018280546113d990612760565b80156114265780601f106113fb57610100808354040283529160200191611426565b820191906000526020600020905b81548152906001019060200180831161140957829003601f168201915b505050505081565b611436611958565b73ffffffffffffffffffffffffffffffffffffffff16611454611377565b73ffffffffffffffffffffffffffffffffffffffff16146114aa576040517f08c379a00000000000000000000000000000000000000000000000000000000081526004016114a1906127de565b60405180910390fd5b80600a60003373ffffffffffffffffffffffffffffffffffffffff1673ffffffffffffffffffffffffffffffffffffffff16815260200190815260200160002060008473ffffffffffffffffffffffffffffffffffffffff1673ffffffffffffffffffffffffffffffffffffffff16815260200190815260200160002060006101000a81548160ff0219169083151502179055508173ffffffffffffffffffffffffffffffffffffffff163373ffffffffffffffffffffffffffffffffffffffff167f17307eab39ab6107e8899845ad3d59bd9653f200f220920489ca2b5937696c318360405161159b9190612138565b60405180910390a35050565b6115af611958565b73ffffffffffffffffffffffffffffffffffffffff166115cd611377565b73ffffffffffffffffffffffffffffffffffffffff1614611623576040517f08c379a000000000000000000000000000000000000000000000000000000000815260040161161a906127de565b60405180910390fd5b61162e84848461085a565b60008373ffffffffffffffffffffffffffffffffffffffff163b1415801561171c575063150b7a0260e01b7bffffffffffffffffffffffffffffffffffffffffffffffffffffffff19168373ffffffffffffffffffffffffffffffffffffffff1663150b7a02338786866040518563ffffffff1660e01b81526004016116b7949392919061297d565b6020604051808303816000875af11580156116d6573d6000803e3d6000fd5b505050506040513d601f19601f820116820180604052508101906116fa9190612894565b7bffffffffffffffffffffffffffffffffffffffffffffffffffffffff191614155b15611753576040517f3da6393100000000000000000000000000000000000000000000000000000000815260040160405180910390fd5b50505050565b6000600554905090565b6060600073ffffffffffffffffffffffffffffffffffffffff166008600084815260200190815260200160002060009054906101000a900473ffffffffffffffffffffffffffffffffffffffff1673ffffffffffffffffffffffffffffffffffffffff1614156117ff576040517f4d5e5fb300000000000000000000000000000000000000000000000000000000815260040160405180910390fd5b600361180a83611e80565b60405160200161181b929190612b31565b6040516020818303038152906040529050919050565b600a6020528160005260406000206020528060005260406000206000915091509054906101000a900460ff1681565b611868611958565b73ffffffffffffffffffffffffffffffffffffffff16611886611377565b73ffffffffffffffffffffffffffffffffffffffff16146118dc576040517f08c379a00000000000000000000000000000000000000000000000000000000081526004016118d3906127de565b60405180910390fd5b600073ffffffffffffffffffffffffffffffffffffffff168173ffffffffffffffffffffffffffffffffffffffff16141561194c576040517f08c379a000000000000000000000000000000000000000000000000000000000815260040161194390612bdd565b60405180910390fd5b61195581611dbc565b50565b600033905090565b60006008600083815260200190815260200160002060009054906101000a900473ffffffffffffffffffffffffffffffffffffffff169050600073ffffffffffffffffffffffffffffffffffffffff168173ffffffffffffffffffffffffffffffffffffffff1614156119ff576040517f4d5e5fb300000000000000000000000000000000000000000000000000000000815260040160405180910390fd5b60046000815480929190611a1290612bfd565b9190505550600660008273ffffffffffffffffffffffffffffffffffffffff1673ffffffffffffffffffffffffffffffffffffffff168152602001908152602001600020600090556008600083815260200190815260200160002060006101000a81549073ffffffffffffffffffffffffffffffffffffffff0219169055600760008273ffffffffffffffffffffffffffffffffffffffff1673ffffffffffffffffffffffffffffffffffffffff168152602001908152602001600020600090556009600083815260200190815260200160002060006101000a81549073ffffffffffffffffffffffffffffffffffffffff021916905581600073ffffffffffffffffffffffffffffffffffffffff168273ffffffffffffffffffffffffffffffffffffffff167fddf252ad1be2c89b69c2b068fc378daa952ba7f163c4a11628f55a4df523b3ef60405160405180910390a45050565b600073ffffffffffffffffffffffffffffffffffffffff168273ffffffffffffffffffffffffffffffffffffffff161415611bd0576040517f9c8d2cd200000000000000000000000000000000000000000000000000000000815260040160405180910390fd5b600073ffffffffffffffffffffffffffffffffffffffff166008600083815260200190815260200160002060009054906101000a900473ffffffffffffffffffffffffffffffffffffffff1673ffffffffffffffffffffffffffffffffffffffff1614611c69576040517fddefae2800000000000000000000000000000000000000000000000000000000815260040160405180910390fd5b60046000815480929190611c7c906128f0565b91905055506001600660008473ffffffffffffffffffffffffffffffffffffffff1673ffffffffffffffffffffffffffffffffffffffff16815260200190815260200160002081905550816008600083815260200190815260200160002060006101000a81548173ffffffffffffffffffffffffffffffffffffffff021916908373ffffffffffffffffffffffffffffffffffffffff16021790555080600760008473ffffffffffffffffffffffffffffffffffffffff1673ffffffffffffffffffffffffffffffffffffffff16815260200190815260200160002081905550808273ffffffffffffffffffffffffffffffffffffffff16600073ffffffffffffffffffffffffffffffffffffffff167fddf252ad1be2c89b69c2b068fc378daa952ba7f163c4a11628f55a4df523b3ef60405160405180910390a45050565b60008060009054906101000a900473ffffffffffffffffffffffffffffffffffffffff169050816000806101000a81548173ffffffffffffffffffffffffffffffffffffffff021916908373ffffffffffffffffffffffffffffffffffffffff1602179055508173ffffffffffffffffffffffffffffffffffffffff168173ffffffffffffffffffffffffffffffffffffffff167f8be0079c531659141344cd1fd0a4f28419497f9722a3daafe3b4186f6b6457e060405160405180910390a35050565b60606000821415611ec8576040518060400160405280600181526020017f30000000000000000000000000000000000000000000000000000000000000008152509050611fdc565b600082905060005b60008214611efa578080611ee3906128f0565b915050600a82611ef39190612c56565b9150611ed0565b60008167ffffffffffffffff811115611f1657611f156123ed565b5b6040519080825280601f01601f191660200182016040528015611f485781602001600182028036833780820191505090505b5090505b60008514611fd557600182611f619190612c87565b9150600a85611f709190612cbb565b6030611f7c9190612cec565b60f81b818381518110611f9257611f91612d42565b5b60200101907effffffffffffffffffffffffffffffffffffffffffffffffffffffffffffff1916908160001a905350600a85611fce9190612c56565b9450611f4c565b8093505050505b919050565b828054611fed90612760565b90600052602060002090601f01602090048101928261200f5760008555612056565b82601f1061202857805160ff1916838001178555612056565b82800160010185558215612056579182015b8281111561205557825182559160200191906001019061203a565b5b5090506120639190612067565b5090565b5b80821115612080576000816000905550600101612068565b5090565b6000604051905090565b600080fd5b600080fd5b60007fffffffff0000000000000000000000000000000000000000000000000000000082169050919050565b6120cd81612098565b81146120d857600080fd5b50565b6000813590506120ea816120c4565b92915050565b6000602082840312156121065761210561208e565b5b6000612114848285016120db565b91505092915050565b60008115159050919050565b6121328161211d565b82525050565b600060208201905061214d6000830184612129565b92915050565b600081519050919050565b600082825260208201905092915050565b60005b8381101561218d578082015181840152602081019050612172565b8381111561219c576000848401525b50505050565b6000601f19601f8301169050919050565b60006121be82612153565b6121c8818561215e565b93506121d881856020860161216f565b6121e1816121a2565b840191505092915050565b6000602082019050818103600083015261220681846121b3565b905092915050565b6000819050919050565b6122218161220e565b811461222c57600080fd5b50565b60008135905061223e81612218565b92915050565b60006020828403121561225a5761225961208e565b5b60006122688482850161222f565b91505092915050565b600073ffffffffffffffffffffffffffffffffffffffff82169050919050565b600061229c82612271565b9050919050565b6122ac81612291565b82525050565b60006020820190506122c760008301846122a3565b92915050565b6122d681612291565b81146122e157600080fd5b50565b6000813590506122f3816122cd565b92915050565b600080604083850312156123105761230f61208e565b5b600061231e858286016122e4565b925050602061232f8582860161222f565b9150509250929050565b60006020828403121561234f5761234e61208e565b5b600061235d848285016122e4565b91505092915050565b61236f8161220e565b82525050565b600060208201905061238a6000830184612366565b92915050565b6000806000606084860312156123a9576123a861208e565b5b60006123b7868287016122e4565b93505060206123c8868287016122e4565b92505060406123d98682870161222f565b9150509250925092565b600080fd5b600080fd5b7f4e487b7100000000000000000000000000000000000000000000000000000000600052604160045260246000fd5b612425826121a2565b810181811067ffffffffffffffff82111715612444576124436123ed565b5b80604052505050565b6000612457612084565b9050612463828261241c565b919050565b600067ffffffffffffffff821115612483576124826123ed565b5b61248c826121a2565b9050602081019050919050565b82818337600083830152505050565b60006124bb6124b684612468565b61244d565b9050828152602081018484840111156124d7576124d66123e8565b5b6124e2848285612499565b509392505050565b600082601f8301126124ff576124fe6123e3565b5b813561250f8482602086016124a8565b91505092915050565b60006020828403121561252e5761252d61208e565b5b600082013567ffffffffffffffff81111561254c5761254b612093565b5b612558848285016124ea565b91505092915050565b61256a8161211d565b811461257557600080fd5b50565b60008135905061258781612561565b92915050565b600080604083850312156125a4576125a361208e565b5b60006125b2858286016122e4565b92505060206125c385828601612578565b9150509250929050565b600067ffffffffffffffff8211156125e8576125e76123ed565b5b6125f1826121a2565b9050602081019050919050565b600061261161260c846125cd565b61244d565b90508281526020810184848401111561262d5761262c6123e8565b5b612638848285612499565b509392505050565b600082601f830112612655576126546123e3565b5b81356126658482602086016125fe565b91505092915050565b600080600080608085870312156126885761268761208e565b5b6000612696878288016122e4565b94505060206126a7878288016122e4565b93505060406126b88782880161222f565b925050606085013567ffffffffffffffff8111156126d9576126d8612093565b5b6126e587828801612640565b91505092959194509250565b600080604083850312156127085761270761208e565b5b6000612716858286016122e4565b9250506020612727858286016122e4565b9150509250929050565b7f4e487b7100000000000000000000000000000000000000000000000000000000600052602260045260246000fd5b6000600282049050600182168061277857607f821691505b6020821081141561278c5761278b612731565b5b50919050565b7f4f776e61626c653a2063616c6c6572206973206e6f7420746865206f776e6572600082015250565b60006127c860208361215e565b91506127d382612792565b602082019050919050565b600060208201905081810360008301526127f7816127bb565b9050919050565b600082825260208201905092915050565b50565b600061281f6000836127fe565b915061282a8261280f565b600082019050919050565b600060808201905061284a60008301866122a3565b61285760208301856122a3565b6128646040830184612366565b818103606083015261287581612812565b9050949350505050565b60008151905061288e816120c4565b92915050565b6000602082840312156128aa576128a961208e565b5b60006128b88482850161287f565b91505092915050565b7f4e487b7100000000000000000000000000000000000000000000000000000000600052601160045260246000fd5b60006128fb8261220e565b91507fffffffffffffffffffffffffffffffffffffffffffffffffffffffffffffffff82141561292e5761292d6128c1565b5b600182019050919050565b600081519050919050565b600061294f82612939565b61295981856127fe565b935061296981856020860161216f565b612972816121a2565b840191505092915050565b600060808201905061299260008301876122a3565b61299f60208301866122a3565b6129ac6040830185612366565b81810360608301526129be8184612944565b905095945050505050565b600081905092915050565b60008190508160005260206000209050919050565b600081546129f681612760565b612a0081866129c9565b94506001821660008114612a1b5760018114612a2c57612a5f565b60ff19831686528186019350612a5f565b612a35856129d4565b60005b83811015612a5757815481890152600182019150602081019050612a38565b838801955050505b50505092915050565b7f2f00000000000000000000000000000000000000000000000000000000000000600082015250565b6000612a9e6001836129c9565b9150612aa982612a68565b600182019050919050565b6000612abf82612153565b612ac981856129c9565b9350612ad981856020860161216f565b80840191505092915050565b7f2e6a736f6e000000000000000000000000000000000000000000000000000000600082015250565b6000612b1b6005836129c9565b9150612b2682612ae5565b600582019050919050565b6000612b3d82856129e9565b9150612b4882612a91565b9150612b548284612ab4565b9150612b5f82612b0e565b91508190509392505050565b7f4f776e61626c653a206e6577206f776e657220697320746865207a65726f206160008201527f6464726573730000000000000000000000000000000000000000000000000000602082015250565b6000612bc760268361215e565b9150612bd282612b6b565b604082019050919050565b60006020820190508181036000830152612bf681612bba565b9050919050565b6000612c088261220e565b91506000821415612c1c57612c1b6128c1565b5b600182039050919050565b7f4e487b7100000000000000000000000000000000000000000000000000000000600052601260045260246000fd5b6000612c618261220e565b9150612c6c8361220e565b925082612c7c57612c7b612c27565b5b828204905092915050565b6000612c928261220e565b9150612c9d8361220e565b925082821015612cb057612caf6128c1565b5b828203905092915050565b6000612cc68261220e565b9150612cd18361220e565b925082612ce157612ce0612c27565b5b828206905092915050565b6000612cf78261220e565b9150612d028361220e565b9250827fffffffffffffffffffffffffffffffffffffffffffffffffffffffffffffffff03821115612d3757612d366128c1565b5b828201905092915050565b7f4e487b7100000000000000000000000000000000000000000000000000000000600052603260045260246000fdfea2646970667358221220e52d4a487cc952b2998d37db302eb5aedec5e6836254c7bba00e685ae671064764736f6c634300080a0033",
  "linkReferences": {},
  "deployedLinkReferences": {}
}