{
  "abi": [
    {
      "inputs": [],
      "name": "InvalidSignature",
      "type": "error"
    },
    {
      "inputs": [],
      "name": "IssuanceIsDisabled",
      "type": "error"
    },
    {
      "inputs": [],
      "name": "IssuancesLimitReached",
      "type": "error"
    },
    {
      "inputs": [],
      "name": "NonRevocable",
      "type": "error"
    },
    {
      "inputs": [],
      "name": "NotEligible",
      "type": "error"
    },
    {
      "inputs": [],
      "name": "PassportAlreadyIssued",
      "type": "error"
    },
    {
      "inputs": [],
      "name": "PassportNotIssued",
      "type": "error"
    },
    {
      "anonymous": false,
      "inputs": [
        {
          "indexed": false,
          "internalType": "uint8",
          "name": "version",
          "type": "uint8"
        }
      ],
      "name": "Initialized",
      "type": "event"
    },
    {
      "anonymous": false,
      "inputs": [
        {
          "indexed": true,
          "internalType": "address",
          "name": "account",
          "type": "address"
        },
        {
          "indexed": true,
          "internalType": "uint256",
          "name": "passportId",
          "type": "uint256"
        }
      ],
      "name": "Issue",
      "type": "event"
    },
    {
      "anonymous": false,
      "inputs": [
        {
          "indexed": true,
          "internalType": "address",
          "name": "previousOwner",
          "type": "address"
        },
        {
          "indexed": true,
          "internalType": "address",
          "name": "newOwner",
          "type": "address"
        }
      ],
      "name": "OwnershipTransferred",
      "type": "event"
    },
    {
      "anonymous": false,
      "inputs": [
        {
          "indexed": false,
          "internalType": "uint256",
          "name": "claimRequiredBalance",
          "type": "uint256"
        },
        {
          "indexed": false,
          "internalType": "uint256",
          "name": "revokeUnderBalance",
          "type": "uint256"
        }
      ],
      "name": "UpdateRequirements",
      "type": "event"
    },
    {
      "anonymous": false,
      "inputs": [
        {
          "indexed": true,
          "internalType": "address",
          "name": "account",
          "type": "address"
        },
        {
          "indexed": true,
          "internalType": "uint256",
          "name": "passportId",
          "type": "uint256"
        }
      ],
      "name": "Withdraw",
      "type": "event"
    },
    {
      "inputs": [],
      "name": "DOMAIN_SEPARATOR",
      "outputs": [
        {
          "internalType": "bytes32",
          "name": "",
          "type": "bytes32"
        }
      ],
      "stateMutability": "view",
      "type": "function"
    },
    {
      "inputs": [
        {
          "internalType": "address",
          "name": "account",
          "type": "address"
        }
      ],
      "name": "adminRevoke",
      "outputs": [],
      "stateMutability": "nonpayable",
      "type": "function"
    },
    {
      "inputs": [
        {
          "internalType": "uint8",
          "name": "v",
          "type": "uint8"
        },
        {
          "internalType": "bytes32",
          "name": "r",
          "type": "bytes32"
        },
        {
          "internalType": "bytes32",
          "name": "s",
          "type": "bytes32"
        }
      ],
      "name": "claim",
      "outputs": [],
      "stateMutability": "nonpayable",
      "type": "function"
    },
    {
      "inputs": [],
      "name": "claimRequiredBalance",
      "outputs": [
        {
          "internalType": "uint256",
          "name": "",
          "type": "uint256"
        }
      ],
      "stateMutability": "view",
      "type": "function"
    },
    {
      "inputs": [],
      "name": "enabled",
      "outputs": [
        {
          "internalType": "bool",
          "name": "",
          "type": "bool"
        }
      ],
      "stateMutability": "view",
      "type": "function"
    },
    {
      "inputs": [
        {
          "internalType": "contract IVotingEscrow",
          "name": "_veToken",
          "type": "address"
        },
        {
          "internalType": "contract Passport",
          "name": "_passToken",
          "type": "address"
        },
        {
          "internalType": "uint256",
          "name": "_maxIssuances",
          "type": "uint256"
        }
      ],
      "name": "initialize",
      "outputs": [],
      "stateMutability": "nonpayable",
      "type": "function"
    },
    {
      "inputs": [],
      "name": "maxIssuances",
      "outputs": [
        {
          "internalType": "uint256",
          "name": "",
          "type": "uint256"
        }
      ],
      "stateMutability": "view",
      "type": "function"
    },
    {
      "inputs": [],
      "name": "owner",
      "outputs": [
        {
          "internalType": "address",
          "name": "",
          "type": "address"
        }
      ],
      "stateMutability": "view",
      "type": "function"
    },
    {
      "inputs": [],
      "name": "passToken",
      "outputs": [
        {
          "internalType": "contract Passport",
          "name": "",
          "type": "address"
        }
      ],
      "stateMutability": "view",
      "type": "function"
    },
    {
      "inputs": [
        {
          "internalType": "address",
          "name": "account",
          "type": "address"
        }
      ],
      "name": "passportId",
      "outputs": [
        {
          "internalType": "uint256",
          "name": "",
          "type": "uint256"
        }
      ],
      "stateMutability": "view",
      "type": "function"
    },
    {
      "inputs": [
        {
          "internalType": "address",
          "name": "account",
          "type": "address"
        }
      ],
      "name": "passportStatus",
      "outputs": [
        {
          "internalType": "uint8",
          "name": "",
          "type": "uint8"
        }
      ],
      "stateMutability": "view",
      "type": "function"
    },
    {
      "inputs": [
        {
          "internalType": "contract ERC20",
          "name": "token",
          "type": "address"
        },
        {
          "internalType": "address",
          "name": "to",
          "type": "address"
        }
      ],
      "name": "recoverTokens",
      "outputs": [
        {
          "internalType": "uint256",
          "name": "amount",
          "type": "uint256"
        }
      ],
      "stateMutability": "nonpayable",
      "type": "function"
    },
    {
      "inputs": [],
      "name": "renounceOwnership",
      "outputs": [],
      "stateMutability": "nonpayable",
      "type": "function"
    },
    {
      "inputs": [
        {
          "internalType": "address",
          "name": "account",
          "type": "address"
        }
      ],
      "name": "revoke",
      "outputs": [],
      "stateMutability": "nonpayable",
      "type": "function"
    },
    {
      "inputs": [],
      "name": "revokeUnderBalance",
      "outputs": [
        {
          "internalType": "uint256",
          "name": "",
          "type": "uint256"
        }
      ],
      "stateMutability": "view",
      "type": "function"
    },
    {
      "inputs": [
        {
          "internalType": "bool",
          "name": "status",
          "type": "bool"
        }
      ],
      "name": "setEnabled",
      "outputs": [],
      "stateMutability": "nonpayable",
      "type": "function"
    },
    {
      "inputs": [
        {
          "internalType": "uint256",
          "name": "_claimRequiredBalance",
          "type": "uint256"
        },
        {
          "internalType": "uint256",
          "name": "_revokeUnderBalance",
          "type": "uint256"
        }
      ],
      "name": "setParams",
      "outputs": [],
      "stateMutability": "nonpayable",
      "type": "function"
    },
    {
      "inputs": [
        {
          "internalType": "string",
          "name": "_statement",
          "type": "string"
        }
      ],
      "name": "setStatement",
      "outputs": [],
      "stateMutability": "nonpayable",
      "type": "function"
    },
    {
      "inputs": [
        {
          "internalType": "string",
          "name": "_termsURI",
          "type": "string"
        }
      ],
      "name": "setTermsURI",
      "outputs": [],
      "stateMutability": "nonpayable",
      "type": "function"
    },
    {
      "inputs": [],
      "name": "statement",
      "outputs": [
        {
          "internalType": "string",
          "name": "",
          "type": "string"
        }
      ],
      "stateMutability": "view",
      "type": "function"
    },
    {
      "inputs": [],
      "name": "termsURI",
      "outputs": [
        {
          "internalType": "string",
          "name": "",
          "type": "string"
        }
      ],
      "stateMutability": "view",
      "type": "function"
    },
    {
      "inputs": [],
      "name": "totalIssued",
      "outputs": [
        {
          "internalType": "uint256",
          "name": "",
          "type": "uint256"
        }
      ],
      "stateMutability": "view",
      "type": "function"
    },
    {
      "inputs": [
        {
          "internalType": "address",
          "name": "newOwner",
          "type": "address"
        }
      ],
      "name": "transferOwnership",
      "outputs": [],
      "stateMutability": "nonpayable",
      "type": "function"
    },
    {
      "inputs": [],
      "name": "veToken",
      "outputs": [
        {
          "internalType": "contract IVotingEscrow",
          "name": "",
          "type": "address"
        }
      ],
      "stateMutability": "view",
      "type": "function"
    },
    {
      "inputs": [
        {
          "internalType": "uint8",
          "name": "v",
          "type": "uint8"
        },
        {
          "internalType": "bytes32",
          "name": "r",
          "type": "bytes32"
        },
        {
          "internalType": "bytes32",
          "name": "s",
          "type": "bytes32"
        }
      ],
      "name": "verifySignature",
      "outputs": [],
      "stateMutability": "nonpayable",
      "type": "function"
    },
    {
      "inputs": [],
      "name": "withdraw",
      "outputs": [],
      "stateMutability": "nonpayable",
      "type": "function"
    }
  ],
  "bytecode": {
    "object": "0x608060405234801561001057600080fd5b5061001a3361001f565b61007a565b600080546001600160a01b038381166201000081810262010000600160b01b0319851617855560405193049190911692909183917f8be0079c531659141344cd1fd0a4f28419497f9722a3daafe3b4186f6b6457e091a35050565b6113fe806100896000396000f3fe608060405234801561001057600080fd5b506004361061018e5760003560e01c80638fe066fc116100de578063cbd301db11610097578063f2fde38b11610071578063f2fde38b14610365578063f5be319314610378578063f5c925d914610381578063fecfdff71461038957600080fd5b8063cbd301db14610334578063d91d04c014610347578063e42cb9f31461035057600080fd5b80638fe066fc146102a15780639cb8c64e146102b4578063a810d98b146102f2578063aac6c6cd146102fb578063b81095a01461030e578063c0324c771461032157600080fd5b80633b92eb231161014b578063715018a611610125578063715018a61461025c57806374a8f103146102645780638cf105d3146102775780638da5cb5b1461028a57600080fd5b80633b92eb23146102205780633ccfd60b1461024b578063594831921461025357600080fd5b8063056097ac146101935780631794bb3c146101b95780631ca8b8ab146101ce578063238dafe0146101e1578063328d8f72146102055780633644e51514610218575b600080fd5b6101a66101a136600461101c565b61039c565b6040519081526020015b60405180910390f35b6101cc6101c7366004611055565b61045b565b005b6101a66101dc366004611096565b61050b565b6002546101f590600160a01b900460ff1681565b60405190151581526020016101b0565b6101cc6102133660046110ba565b610560565b6101a66105af565b600154610233906001600160a01b031681565b6040516001600160a01b0390911681526020016101b0565b6101cc6105d0565b6101a660065481565b6101cc6105db565b6101cc610272366004611096565b610616565b6101cc6102853660046110dc565b6106b1565b6000546201000090046001600160a01b0316610233565b6101cc6102af366004611096565b610819565b6102e06102c2366004611096565b6001600160a01b03166000908152600a602052604090205460ff1690565b60405160ff90911681526020016101b0565b6101a660055481565b6101cc6103093660046110dc565b61084a565b6101cc61031c36600461112d565b610970565b6101cc61032f3660046111de565b6109b8565b6101cc61034236600461112d565b610a30565b6101a660035481565b610358610a74565b6040516101b09190611200565b6101cc610373366004611096565b610b02565b6101a660045481565b610358610ba1565b600254610233906001600160a01b031681565b600080546001600160a01b03620100009091041633146103d75760405162461bcd60e51b81526004016103ce90611255565b60405180910390fd5b6040516370a0823160e01b81523060048201526001600160a01b038416906370a0823190602401602060405180830381865afa15801561041b573d6000803e3d6000fd5b505050506040513d601f19601f8201168201806040525081019061043f919061128a565b90506104556001600160a01b0384168383610bae565b92915050565b60006104676001610c26565b9050801561047f576000805461ff0019166101001790555b600180546001600160a01b038087166001600160a01b031992831617909255600280549286169290911691909117905560038290556104bc610cae565b6009558015610505576000805461ff0019169055604051600181527f7f26b83ff96e1f2b6a682f133852f6798a09c465da95921460cefb38474024989060200160405180910390a15b50505050565b6001600160a01b0381166000908152600a602052604081205460ff1661054457604051633f8e4ee160e11b815260040160405180910390fd5b506001600160a01b03166000908152600b602052604090205490565b6000546001600160a01b03620100009091041633146105915760405162461bcd60e51b81526004016103ce90611255565b60028054911515600160a01b0260ff60a01b19909216919091179055565b6000600954600014156105c9576105c4610cae565b905090565b5060095490565b6105d933610d6f565b565b6000546001600160a01b036201000090910416331461060c5760405162461bcd60e51b81526004016103ce90611255565b6105d96000610e35565b6006546001546040516370a0823160e01b81526001600160a01b038481166004830152909116906370a0823190602401602060405180830381865afa158015610663573d6000803e3d6000fd5b505050506040513d601f19601f82011682018060405250810190610687919061128a565b106106a557604051631b93f2ab60e01b815260040160405180910390fd5b6106ae81610d6f565b50565b600060016106bd6105af565b7feb5728c2c944185de906e6fde8ed77f33dd20165e19b9d61c2295c962b8b695960076040516020016106f091906112de565b60405160208183030381529060405280519060200120600860405160200161071891906112de565b60408051601f1981840301815282825280516020918201209083019490945281019190915260608101919091526080016040516020818303038152906040528051906020012060405160200161078592919061190160f01b81526002810192909252602282015260420190565b60408051601f198184030181528282528051602091820120600084529083018083525260ff871690820152606081018590526080810184905260a0016020604051602081039080840390855afa1580156107e3573d6000803e3d6000fd5b5050604051601f1901519150506001600160a01b038116331461050557604051638baa579f60e01b815260040160405180910390fd5b6000546001600160a01b03620100009091041633146106a55760405162461bcd60e51b81526004016103ce90611255565b600254600160a01b900460ff16610874576040516327c88a4760e11b815260040160405180910390fd5b600354600454106108985760405163595639cb60e11b815260040160405180910390fd5b336000908152600a602052604090205460ff16156108c957604051633813e41b60e11b815260040160405180910390fd5b6005546001546040516370a0823160e01b81523360048201526001600160a01b03909116906370a0823190602401602060405180830381865afa158015610914573d6000803e3d6000fd5b505050506040513d601f19601f82011682018060405250810190610938919061128a565b101561095757604051637c75aa6f60e11b815260040160405180910390fd5b6109628383836106b1565b61096b33610e90565b505050565b6000546001600160a01b03620100009091041633146109a15760405162461bcd60e51b81526004016103ce90611255565b80516109b4906008906020840190610f6e565b5050565b6000546001600160a01b03620100009091041633146109e95760405162461bcd60e51b81526004016103ce90611255565b6005829055600681905560408051838152602081018390527f547ba05347b6f3b18eb30759309d6c764984732a923babe2320855c2293bbbb1910160405180910390a15050565b6000546001600160a01b0362010000909104163314610a615760405162461bcd60e51b81526004016103ce90611255565b80516109b4906007906020840190610f6e565b60078054610a81906112a3565b80601f0160208091040260200160405190810160405280929190818152602001828054610aad906112a3565b8015610afa5780601f10610acf57610100808354040283529160200191610afa565b820191906000526020600020905b815481529060010190602001808311610add57829003601f168201915b505050505081565b6000546001600160a01b0362010000909104163314610b335760405162461bcd60e51b81526004016103ce90611255565b6001600160a01b038116610b985760405162461bcd60e51b815260206004820152602660248201527f4f776e61626c653a206e6577206f776e657220697320746865207a65726f206160448201526564647265737360d01b60648201526084016103ce565b6106ae81610e35565b60088054610a81906112a3565b600060405163a9059cbb60e01b8152836004820152826024820152602060006044836000895af13d15601f3d11600160005114161716915050806105055760405162461bcd60e51b815260206004820152600f60248201526e1514905394d1915497d19052531151608a1b60448201526064016103ce565b60008054610100900460ff1615610c6d578160ff166001148015610c495750303b155b610c655760405162461bcd60e51b81526004016103ce9061137a565b506000919050565b60005460ff808416911610610c945760405162461bcd60e51b81526004016103ce9061137a565b506000805460ff191660ff92909216919091179055600190565b604080518082018252600e81526d2830b9b9b837b93a24b9b9bab2b960911b60209182015281517f8b73c3c69bb8fe3d512ecc4cf759cc79239f7b179b0ffacaa9a75d522b39400f818301527f6bcaa52b88264510972d196cf31311fcb4be9107fb5ecf4996c92a026d014e42818401527fc89efdaa54c0f20c7adf612882df0950f5a951637e0307cdcb4c672f298b8bc660608201524660808201523060a0808301919091528351808303909101815260c0909101909252815191012090565b6000610d7a8261050b565b600254604051630852cd8d60e31b8152600481018390529192506001600160a01b0316906342966c6890602401600060405180830381600087803b158015610dc157600080fd5b505af1158015610dd5573d6000803e3d6000fd5b5050506001600160a01b0383166000818152600a60209081526040808320805460ff19166002179055600b909152808220829055518493507f884edad9ce6fa2440d8a54cc123490eb96d2768479d49ff9c7366125a94243649190a35050565b600080546001600160a01b038381166201000081810262010000600160b01b0319851617855560405193049190911692909183917f8be0079c531659141344cd1fd0a4f28419497f9722a3daafe3b4186f6b6457e091a35050565b6002546040516340d097c360e01b81526001600160a01b03838116600483015260009216906340d097c3906024016020604051808303816000875af1158015610edd573d6000803e3d6000fd5b505050506040513d601f19601f82011682018060405250810190610f01919061128a565b6004805460019081019091556001600160a01b0384166000818152600a60209081526040808320805460ff1916909517909455600b90528281208490559151929350839290917fc65a3f767206d2fdcede0b094a4840e01c0dd0be1888b5ba800346eaa0123c1691a35050565b828054610f7a906112a3565b90600052602060002090601f016020900481019282610f9c5760008555610fe2565b82601f10610fb557805160ff1916838001178555610fe2565b82800160010185558215610fe2579182015b82811115610fe2578251825591602001919060010190610fc7565b50610fee929150610ff2565b5090565b5b80821115610fee5760008155600101610ff3565b6001600160a01b03811681146106ae57600080fd5b6000806040838503121561102f57600080fd5b823561103a81611007565b9150602083013561104a81611007565b809150509250929050565b60008060006060848603121561106a57600080fd5b833561107581611007565b9250602084013561108581611007565b929592945050506040919091013590565b6000602082840312156110a857600080fd5b81356110b381611007565b9392505050565b6000602082840312156110cc57600080fd5b813580151581146110b357600080fd5b6000806000606084860312156110f157600080fd5b833560ff8116811461110257600080fd5b95602085013595506040909401359392505050565b634e487b7160e01b600052604160045260246000fd5b60006020828403121561113f57600080fd5b813567ffffffffffffffff8082111561115757600080fd5b818401915084601f83011261116b57600080fd5b81358181111561117d5761117d611117565b604051601f8201601f19908116603f011681019083821181831017156111a5576111a5611117565b816040528281528760208487010111156111be57600080fd5b826020860160208301376000928101602001929092525095945050505050565b600080604083850312156111f157600080fd5b50508035926020909101359150565b600060208083528351808285015260005b8181101561122d57858101830151858201604001528201611211565b8181111561123f576000604083870101525b50601f01601f1916929092016040019392505050565b6020808252818101527f4f776e61626c653a2063616c6c6572206973206e6f7420746865206f776e6572604082015260600190565b60006020828403121561129c57600080fd5b5051919050565b600181811c908216806112b757607f821691505b602082108114156112d857634e487b7160e01b600052602260045260246000fd5b50919050565b600080835481600182811c9150808316806112fa57607f831692505b602080841082141561131a57634e487b7160e01b86526022600452602486fd5b81801561132e576001811461133f5761136c565b60ff1986168952848901965061136c565b60008a81526020902060005b868110156113645781548b82015290850190830161134b565b505084890196505b509498975050505050505050565b6020808252602e908201527f496e697469616c697a61626c653a20636f6e747261637420697320616c72656160408201526d191e481a5b9a5d1a585b1a5e995960921b60608201526080019056fea264697066735822122032ce90daad73d976bacdafa66a6caac484b248d78b854c5a138ccff0a01ac17964736f6c634300080a0033",
    "linkReferences": {}
  },
  "methodIdentifiers": {
    "DOMAIN_SEPARATOR()": "3644e515",
    "adminRevoke(address)": "8fe066fc",
    "claim(uint8,bytes32,bytes32)": "aac6c6cd",
    "claimRequiredBalance()": "a810d98b",
    "enabled()": "238dafe0",
    "initialize(address,address,uint256)": "1794bb3c",
    "maxIssuances()": "d91d04c0",
    "owner()": "8da5cb5b",
    "passToken()": "fecfdff7",
    "passportId(address)": "1ca8b8ab",
    "passportStatus(address)": "9cb8c64e",
    "recoverTokens(address,address)": "056097ac",
    "renounceOwnership()": "715018a6",
    "revoke(address)": "74a8f103",
    "revokeUnderBalance()": "59483192",
    "setEnabled(bool)": "328d8f72",
    "setParams(uint256,uint256)": "c0324c77",
    "setStatement(string)": "cbd301db",
    "setTermsURI(string)": "b81095a0",
    "statement()": "e42cb9f3",
    "termsURI()": "f5c925d9",
    "totalIssued()": "f5be3193",
    "transferOwnership(address)": "f2fde38b",
    "veToken()": "3b92eb23",
    "verifySignature(uint8,bytes32,bytes32)": "8cf105d3",
    "withdraw()": "3ccfd60b"
  },
  "id": 10
}