{
  "_format": "hh-sol-artifact-1",
  "contractName": "PassportIssuer",
  "sourceName": "contracts/passport/PassportIssuer.sol",
  "abi": [
    {
      "inputs": [],
      "name": "IssuanceIsDisabled",
      "type": "error"
    },
    {
      "inputs": [],
      "name": "IssuancesLimitReached",
      "type": "error"
    },
    {
      "inputs": [],
      "name": "NotEligible",
      "type": "error"
    },
    {
      "inputs": [],
      "name": "PassportAlreadyIssued",
      "type": "error"
    },
    {
      "inputs": [],
      "name": "PassportNotIssued",
      "type": "error"
    },
    {
      "inputs": [],
      "name": "StillEligible",
      "type": "error"
    },
    {
      "anonymous": false,
      "inputs": [
        {
          "indexed": true,
          "internalType": "address",
          "name": "account",
          "type": "address"
        },
        {
          "indexed": true,
          "internalType": "uint256",
          "name": "passportId",
          "type": "uint256"
        }
      ],
      "name": "Issue",
      "type": "event"
    },
    {
      "anonymous": false,
      "inputs": [
        {
          "indexed": true,
          "internalType": "address",
          "name": "previousOwner",
          "type": "address"
        },
        {
          "indexed": true,
          "internalType": "address",
          "name": "newOwner",
          "type": "address"
        }
      ],
      "name": "OwnershipTransferred",
      "type": "event"
    },
    {
      "anonymous": false,
      "inputs": [
        {
          "indexed": true,
          "internalType": "address",
          "name": "amount",
          "type": "address"
        },
        {
          "indexed": true,
          "internalType": "uint256",
          "name": "passportId",
          "type": "uint256"
        }
      ],
      "name": "Withdraw",
      "type": "event"
    },
    {
      "inputs": [],
      "name": "claim",
      "outputs": [],
      "stateMutability": "nonpayable",
      "type": "function"
    },
    {
      "inputs": [],
      "name": "enabled",
      "outputs": [
        {
          "internalType": "bool",
          "name": "",
          "type": "bool"
        }
      ],
      "stateMutability": "view",
      "type": "function"
    },
    {
      "inputs": [
        {
          "internalType": "address",
          "name": "account",
          "type": "address"
        }
      ],
      "name": "hasPassport",
      "outputs": [
        {
          "internalType": "bool",
          "name": "",
          "type": "bool"
        }
      ],
      "stateMutability": "view",
      "type": "function"
    },
    {
      "inputs": [
        {
          "internalType": "contract IVotingEscrow",
          "name": "_veToken",
          "type": "address"
        },
        {
          "internalType": "contract PassportNFT",
          "name": "_passToken",
          "type": "address"
        }
      ],
      "name": "initialize",
      "outputs": [],
      "stateMutability": "nonpayable",
      "type": "function"
    },
    {
      "inputs": [],
      "name": "maxIssuances",
      "outputs": [
        {
          "internalType": "uint256",
          "name": "",
          "type": "uint256"
        }
      ],
      "stateMutability": "view",
      "type": "function"
    },
    {
      "inputs": [],
      "name": "minLockedBalance",
      "outputs": [
        {
          "internalType": "uint256",
          "name": "",
          "type": "uint256"
        }
      ],
      "stateMutability": "view",
      "type": "function"
    },
    {
      "inputs": [],
      "name": "owner",
      "outputs": [
        {
          "internalType": "address",
          "name": "",
          "type": "address"
        }
      ],
      "stateMutability": "view",
      "type": "function"
    },
    {
      "inputs": [],
      "name": "passToken",
      "outputs": [
        {
          "internalType": "contract PassportNFT",
          "name": "",
          "type": "address"
        }
      ],
      "stateMutability": "view",
      "type": "function"
    },
    {
      "inputs": [
        {
          "internalType": "address",
          "name": "account",
          "type": "address"
        }
      ],
      "name": "passportId",
      "outputs": [
        {
          "internalType": "uint256",
          "name": "",
          "type": "uint256"
        }
      ],
      "stateMutability": "view",
      "type": "function"
    },
    {
      "inputs": [
        {
          "internalType": "contract IERC20",
          "name": "token",
          "type": "address"
        },
        {
          "internalType": "address",
          "name": "to",
          "type": "address"
        }
      ],
      "name": "recoverTokens",
      "outputs": [
        {
          "internalType": "uint256",
          "name": "amount",
          "type": "uint256"
        }
      ],
      "stateMutability": "nonpayable",
      "type": "function"
    },
    {
      "inputs": [],
      "name": "renounceOwnership",
      "outputs": [],
      "stateMutability": "nonpayable",
      "type": "function"
    },
    {
      "inputs": [
        {
          "internalType": "address",
          "name": "account",
          "type": "address"
        }
      ],
      "name": "revoke",
      "outputs": [],
      "stateMutability": "nonpayable",
      "type": "function"
    },
    {
      "inputs": [
        {
          "internalType": "bool",
          "name": "status",
          "type": "bool"
        }
      ],
      "name": "setEnabled",
      "outputs": [],
      "stateMutability": "nonpayable",
      "type": "function"
    },
    {
      "inputs": [
        {
          "internalType": "uint256",
          "name": "supply",
          "type": "uint256"
        },
        {
          "internalType": "uint256",
          "name": "_minLockedBalance",
          "type": "uint256"
        }
      ],
      "name": "setParams",
      "outputs": [],
      "stateMutability": "nonpayable",
      "type": "function"
    },
    {
      "inputs": [],
      "name": "totalIssued",
      "outputs": [
        {
          "internalType": "uint256",
          "name": "",
          "type": "uint256"
        }
      ],
      "stateMutability": "view",
      "type": "function"
    },
    {
      "inputs": [
        {
          "internalType": "address",
          "name": "newOwner",
          "type": "address"
        }
      ],
      "name": "transferOwnership",
      "outputs": [],
      "stateMutability": "nonpayable",
      "type": "function"
    },
    {
      "inputs": [],
      "name": "veToken",
      "outputs": [
        {
          "internalType": "contract IVotingEscrow",
          "name": "",
          "type": "address"
        }
      ],
      "stateMutability": "view",
      "type": "function"
    },
    {
      "inputs": [],
      "name": "withdraw",
      "outputs": [],
      "stateMutability": "nonpayable",
      "type": "function"
    }
  ],
  "bytecode": "0x608060405234801561001057600080fd5b5061002d61002261003260201b60201c565b61003a60201b60201c565b6100ff565b600033905090565b60008060029054906101000a900473ffffffffffffffffffffffffffffffffffffffff16905081600060026101000a81548173ffffffffffffffffffffffffffffffffffffffff021916908373ffffffffffffffffffffffffffffffffffffffff1602179055508173ffffffffffffffffffffffffffffffffffffffff168173ffffffffffffffffffffffffffffffffffffffff167f8be0079c531659141344cd1fd0a4f28419497f9722a3daafe3b4186f6b6457e060405160405180910390a35050565b611c548061010e6000396000f3fe608060405234801561001057600080fd5b50600436106101165760003560e01c80634e71d92d116100a2578063c0324c7711610071578063c0324c7714610295578063d91d04c0146102b1578063f2fde38b146102cf578063f5be3193146102eb578063fecfdff71461030957610116565b80634e71d92d14610247578063715018a61461025157806374a8f1031461025b5780638da5cb5b1461027757610116565b8063328d8f72116100e9578063328d8f72146101b75780633b92eb23146101d35780633ccfd60b146101f1578063485cc955146101fb5780634dc30e871461021757610116565b806301483fc91461011b578063056097ac146101395780631ca8b8ab14610169578063238dafe014610199575b600080fd5b610123610327565b6040516101309190611378565b60405180910390f35b610153600480360381019061014e9190611434565b61032d565b6040516101609190611378565b60405180910390f35b610183600480360381019061017e9190611474565b610458565b6040516101909190611378565b60405180910390f35b6101a16104e0565b6040516101ae91906114bc565b60405180910390f35b6101d160048036038101906101cc9190611503565b6104f3565b005b6101db61058c565b6040516101e8919061158f565b60405180910390f35b6101f96105b2565b005b61021560048036038101906102109190611626565b6105bd565b005b610231600480360381019061022c9190611474565b610725565b60405161023e91906114bc565b60405180910390f35b61024f610781565b005b610259610926565b005b61027560048036038101906102709190611474565b6109ae565b005b61027f610a90565b60405161028c9190611675565b60405180910390f35b6102af60048036038101906102aa91906116bc565b610ab9565b005b6102b9610b47565b6040516102c69190611378565b60405180910390f35b6102e960048036038101906102e49190611474565b610b4d565b005b6102f3610c45565b6040516103009190611378565b60405180910390f35b610311610c4b565b60405161031e919061171d565b60405180910390f35b60055481565b6000610337610c71565b73ffffffffffffffffffffffffffffffffffffffff16610355610a90565b73ffffffffffffffffffffffffffffffffffffffff16146103ab576040517f08c379a00000000000000000000000000000000000000000000000000000000081526004016103a290611795565b60405180910390fd5b8273ffffffffffffffffffffffffffffffffffffffff166370a08231306040518263ffffffff1660e01b81526004016103e49190611675565b602060405180830381865afa158015610401573d6000803e3d6000fd5b505050506040513d601f19601f8201168201806040525081019061042591906117ca565b905061045282828573ffffffffffffffffffffffffffffffffffffffff16610c799092919063ffffffff16565b92915050565b600061046382610725565b610499576040517f7f1c9dc200000000000000000000000000000000000000000000000000000000815260040160405180910390fd5b600760008373ffffffffffffffffffffffffffffffffffffffff1673ffffffffffffffffffffffffffffffffffffffff168152602001908152602001600020549050919050565b600260149054906101000a900460ff1681565b6104fb610c71565b73ffffffffffffffffffffffffffffffffffffffff16610519610a90565b73ffffffffffffffffffffffffffffffffffffffff161461056f576040517f08c379a000000000000000000000000000000000000000000000000000000000815260040161056690611795565b60405180910390fd5b80600260146101000a81548160ff02191690831515021790555050565b600160009054906101000a900473ffffffffffffffffffffffffffffffffffffffff1681565b6105bb33610cff565b565b600060019054906101000a900460ff166105e55760008054906101000a900460ff16156105ee565b6105ed610e73565b5b61062d576040517f08c379a000000000000000000000000000000000000000000000000000000000815260040161062490611869565b60405180910390fd5b60008060019054906101000a900460ff16159050801561067d576001600060016101000a81548160ff02191690831515021790555060016000806101000a81548160ff0219169083151502179055505b82600160006101000a81548173ffffffffffffffffffffffffffffffffffffffff021916908373ffffffffffffffffffffffffffffffffffffffff16021790555081600260006101000a81548173ffffffffffffffffffffffffffffffffffffffff021916908373ffffffffffffffffffffffffffffffffffffffff16021790555080156107205760008060016101000a81548160ff0219169083151502179055505b505050565b60006001600660008473ffffffffffffffffffffffffffffffffffffffff1673ffffffffffffffffffffffffffffffffffffffff16815260200190815260200160002060009054906101000a900460ff1660ff16149050919050565b600260149054906101000a900460ff166107c7576040517f4f91148e00000000000000000000000000000000000000000000000000000000815260040160405180910390fd5b60035460045410610804576040517fb2ac739600000000000000000000000000000000000000000000000000000000815260040160405180910390fd5b61080d33610725565b15610844576040517f7027c83600000000000000000000000000000000000000000000000000000000815260040160405180910390fd5b600554600160009054906101000a900473ffffffffffffffffffffffffffffffffffffffff1673ffffffffffffffffffffffffffffffffffffffff166370a08231336040518263ffffffff1660e01b81526004016108a29190611675565b602060405180830381865afa1580156108bf573d6000803e3d6000fd5b505050506040513d601f19601f820116820180604052508101906108e391906117ca565b101561091b576040517ff8eb54de00000000000000000000000000000000000000000000000000000000815260040160405180910390fd5b61092433610e84565b565b61092e610c71565b73ffffffffffffffffffffffffffffffffffffffff1661094c610a90565b73ffffffffffffffffffffffffffffffffffffffff16146109a2576040517f08c379a000000000000000000000000000000000000000000000000000000000815260040161099990611795565b60405180910390fd5b6109ac600061101d565b565b600554600160009054906101000a900473ffffffffffffffffffffffffffffffffffffffff1673ffffffffffffffffffffffffffffffffffffffff166370a08231836040518263ffffffff1660e01b8152600401610a0c9190611675565b602060405180830381865afa158015610a29573d6000803e3d6000fd5b505050506040513d601f19601f82011682018060405250810190610a4d91906117ca565b10610a84576040517f77f32dfa00000000000000000000000000000000000000000000000000000000815260040160405180910390fd5b610a8d81610cff565b50565b60008060029054906101000a900473ffffffffffffffffffffffffffffffffffffffff16905090565b610ac1610c71565b73ffffffffffffffffffffffffffffffffffffffff16610adf610a90565b73ffffffffffffffffffffffffffffffffffffffff1614610b35576040517f08c379a0000000000000000000000000000000000000000000000000000000008152600401610b2c90611795565b60405180910390fd5b81600381905550806005819055505050565b60035481565b610b55610c71565b73ffffffffffffffffffffffffffffffffffffffff16610b73610a90565b73ffffffffffffffffffffffffffffffffffffffff1614610bc9576040517f08c379a0000000000000000000000000000000000000000000000000000000008152600401610bc090611795565b60405180910390fd5b600073ffffffffffffffffffffffffffffffffffffffff168173ffffffffffffffffffffffffffffffffffffffff161415610c39576040517f08c379a0000000000000000000000000000000000000000000000000000000008152600401610c30906118fb565b60405180910390fd5b610c428161101d565b50565b60045481565b600260009054906101000a900473ffffffffffffffffffffffffffffffffffffffff1681565b600033905090565b610cfa8363a9059cbb60e01b8484604051602401610c9892919061191b565b604051602081830303815290604052907bffffffffffffffffffffffffffffffffffffffffffffffffffffffff19166020820180517bffffffffffffffffffffffffffffffffffffffffffffffffffffffff83818316178352505050506110e2565b505050565b6000610d0a82610458565b9050600260009054906101000a900473ffffffffffffffffffffffffffffffffffffffff1673ffffffffffffffffffffffffffffffffffffffff166342966c68826040518263ffffffff1660e01b8152600401610d679190611378565b600060405180830381600087803b158015610d8157600080fd5b505af1158015610d95573d6000803e3d6000fd5b50505050600660008373ffffffffffffffffffffffffffffffffffffffff1673ffffffffffffffffffffffffffffffffffffffff16815260200190815260200160002060006101000a81549060ff0219169055600760008373ffffffffffffffffffffffffffffffffffffffff1673ffffffffffffffffffffffffffffffffffffffff16815260200190815260200160002060009055808273ffffffffffffffffffffffffffffffffffffffff167f884edad9ce6fa2440d8a54cc123490eb96d2768479d49ff9c7366125a942436460405160405180910390a35050565b6000610e7e306111a9565b15905090565b6000600260009054906101000a900473ffffffffffffffffffffffffffffffffffffffff1673ffffffffffffffffffffffffffffffffffffffff166340d097c3836040518263ffffffff1660e01b8152600401610ee19190611675565b6020604051808303816000875af1158015610f00573d6000803e3d6000fd5b505050506040513d601f19601f82011682018060405250810190610f2491906117ca565b90506004600081548092919060010191905055506001600660008473ffffffffffffffffffffffffffffffffffffffff1673ffffffffffffffffffffffffffffffffffffffff16815260200190815260200160002060006101000a81548160ff021916908360ff16021790555080600760008473ffffffffffffffffffffffffffffffffffffffff1673ffffffffffffffffffffffffffffffffffffffff16815260200190815260200160002081905550808273ffffffffffffffffffffffffffffffffffffffff167fc65a3f767206d2fdcede0b094a4840e01c0dd0be1888b5ba800346eaa0123c1660405160405180910390a35050565b60008060029054906101000a900473ffffffffffffffffffffffffffffffffffffffff16905081600060026101000a81548173ffffffffffffffffffffffffffffffffffffffff021916908373ffffffffffffffffffffffffffffffffffffffff1602179055508173ffffffffffffffffffffffffffffffffffffffff168173ffffffffffffffffffffffffffffffffffffffff167f8be0079c531659141344cd1fd0a4f28419497f9722a3daafe3b4186f6b6457e060405160405180910390a35050565b6000611144826040518060400160405280602081526020017f5361666545524332303a206c6f772d6c6576656c2063616c6c206661696c65648152508573ffffffffffffffffffffffffffffffffffffffff166111cc9092919063ffffffff16565b90506000815111156111a457808060200190518101906111649190611959565b6111a3576040517f08c379a000000000000000000000000000000000000000000000000000000000815260040161119a906119f8565b60405180910390fd5b5b505050565b6000808273ffffffffffffffffffffffffffffffffffffffff163b119050919050565b60606111db84846000856111e4565b90509392505050565b606082471015611229576040517f08c379a000000000000000000000000000000000000000000000000000000000815260040161122090611a8a565b60405180910390fd5b611232856111a9565b611271576040517f08c379a000000000000000000000000000000000000000000000000000000000815260040161126890611af6565b60405180910390fd5b6000808673ffffffffffffffffffffffffffffffffffffffff16858760405161129a9190611b90565b60006040518083038185875af1925050503d80600081146112d7576040519150601f19603f3d011682016040523d82523d6000602084013e6112dc565b606091505b50915091506112ec8282866112f8565b92505050949350505050565b6060831561130857829050611358565b60008351111561131b5782518084602001fd5b816040517f08c379a000000000000000000000000000000000000000000000000000000000815260040161134f9190611bfc565b60405180910390fd5b9392505050565b6000819050919050565b6113728161135f565b82525050565b600060208201905061138d6000830184611369565b92915050565b600080fd5b600073ffffffffffffffffffffffffffffffffffffffff82169050919050565b60006113c382611398565b9050919050565b60006113d5826113b8565b9050919050565b6113e5816113ca565b81146113f057600080fd5b50565b600081359050611402816113dc565b92915050565b611411816113b8565b811461141c57600080fd5b50565b60008135905061142e81611408565b92915050565b6000806040838503121561144b5761144a611393565b5b6000611459858286016113f3565b925050602061146a8582860161141f565b9150509250929050565b60006020828403121561148a57611489611393565b5b60006114988482850161141f565b91505092915050565b60008115159050919050565b6114b6816114a1565b82525050565b60006020820190506114d160008301846114ad565b92915050565b6114e0816114a1565b81146114eb57600080fd5b50565b6000813590506114fd816114d7565b92915050565b60006020828403121561151957611518611393565b5b6000611527848285016114ee565b91505092915050565b6000819050919050565b600061155561155061154b84611398565b611530565b611398565b9050919050565b60006115678261153a565b9050919050565b60006115798261155c565b9050919050565b6115898161156e565b82525050565b60006020820190506115a46000830184611580565b92915050565b60006115b5826113b8565b9050919050565b6115c5816115aa565b81146115d057600080fd5b50565b6000813590506115e2816115bc565b92915050565b60006115f3826113b8565b9050919050565b611603816115e8565b811461160e57600080fd5b50565b600081359050611620816115fa565b92915050565b6000806040838503121561163d5761163c611393565b5b600061164b858286016115d3565b925050602061165c85828601611611565b9150509250929050565b61166f816113b8565b82525050565b600060208201905061168a6000830184611666565b92915050565b6116998161135f565b81146116a457600080fd5b50565b6000813590506116b681611690565b92915050565b600080604083850312156116d3576116d2611393565b5b60006116e1858286016116a7565b92505060206116f2858286016116a7565b9150509250929050565b60006117078261155c565b9050919050565b611717816116fc565b82525050565b6000602082019050611732600083018461170e565b92915050565b600082825260208201905092915050565b7f4f776e61626c653a2063616c6c6572206973206e6f7420746865206f776e6572600082015250565b600061177f602083611738565b915061178a82611749565b602082019050919050565b600060208201905081810360008301526117ae81611772565b9050919050565b6000815190506117c481611690565b92915050565b6000602082840312156117e0576117df611393565b5b60006117ee848285016117b5565b91505092915050565b7f496e697469616c697a61626c653a20636f6e747261637420697320616c72656160008201527f647920696e697469616c697a6564000000000000000000000000000000000000602082015250565b6000611853602e83611738565b915061185e826117f7565b604082019050919050565b6000602082019050818103600083015261188281611846565b9050919050565b7f4f776e61626c653a206e6577206f776e657220697320746865207a65726f206160008201527f6464726573730000000000000000000000000000000000000000000000000000602082015250565b60006118e5602683611738565b91506118f082611889565b604082019050919050565b60006020820190508181036000830152611914816118d8565b9050919050565b60006040820190506119306000830185611666565b61193d6020830184611369565b9392505050565b600081519050611953816114d7565b92915050565b60006020828403121561196f5761196e611393565b5b600061197d84828501611944565b91505092915050565b7f5361666545524332303a204552433230206f7065726174696f6e20646964206e60008201527f6f74207375636365656400000000000000000000000000000000000000000000602082015250565b60006119e2602a83611738565b91506119ed82611986565b604082019050919050565b60006020820190508181036000830152611a11816119d5565b9050919050565b7f416464726573733a20696e73756666696369656e742062616c616e636520666f60008201527f722063616c6c0000000000000000000000000000000000000000000000000000602082015250565b6000611a74602683611738565b9150611a7f82611a18565b604082019050919050565b60006020820190508181036000830152611aa381611a67565b9050919050565b7f416464726573733a2063616c6c20746f206e6f6e2d636f6e7472616374000000600082015250565b6000611ae0601d83611738565b9150611aeb82611aaa565b602082019050919050565b60006020820190508181036000830152611b0f81611ad3565b9050919050565b600081519050919050565b600081905092915050565b60005b83811015611b4a578082015181840152602081019050611b2f565b83811115611b59576000848401525b50505050565b6000611b6a82611b16565b611b748185611b21565b9350611b84818560208601611b2c565b80840191505092915050565b6000611b9c8284611b5f565b915081905092915050565b600081519050919050565b6000601f19601f8301169050919050565b6000611bce82611ba7565b611bd88185611738565b9350611be8818560208601611b2c565b611bf181611bb2565b840191505092915050565b60006020820190508181036000830152611c168184611bc3565b90509291505056fea2646970667358221220dd615f127d2011ba1832b1afe300b5220e40750ca14de356fd6fcdd5d4215bb564736f6c634300080a0033",
  "linkReferences": {},
  "deployedLinkReferences": {}
}