{
  "abi": [
    {
      "inputs": [
        {
          "internalType": "string",
          "name": "_name",
          "type": "string"
        },
        {
          "internalType": "string",
          "name": "_symbol",
          "type": "string"
        }
      ],
      "stateMutability": "nonpayable",
      "type": "constructor"
    },
    {
      "inputs": [],
      "name": "CallerIsNotAuthorized",
      "type": "error"
    },
    {
      "inputs": [],
      "name": "InvalidFrom",
      "type": "error"
    },
    {
      "inputs": [],
      "name": "TargetIsZeroAddress",
      "type": "error"
    },
    {
      "anonymous": false,
      "inputs": [
        {
          "indexed": true,
          "internalType": "address",
          "name": "owner",
          "type": "address"
        },
        {
          "indexed": true,
          "internalType": "address",
          "name": "spender",
          "type": "address"
        },
        {
          "indexed": true,
          "internalType": "uint256",
          "name": "id",
          "type": "uint256"
        }
      ],
      "name": "Approval",
      "type": "event"
    },
    {
      "anonymous": false,
      "inputs": [
        {
          "indexed": true,
          "internalType": "address",
          "name": "owner",
          "type": "address"
        },
        {
          "indexed": true,
          "internalType": "address",
          "name": "operator",
          "type": "address"
        },
        {
          "indexed": false,
          "internalType": "bool",
          "name": "approved",
          "type": "bool"
        }
      ],
      "name": "ApprovalForAll",
      "type": "event"
    },
    {
      "anonymous": false,
      "inputs": [
        {
          "indexed": true,
          "internalType": "address",
          "name": "previousController",
          "type": "address"
        },
        {
          "indexed": true,
          "internalType": "address",
          "name": "newController",
          "type": "address"
        }
      ],
      "name": "ControlTransferred",
      "type": "event"
    },
    {
      "anonymous": false,
      "inputs": [
        {
          "indexed": true,
          "internalType": "address",
          "name": "previousOwner",
          "type": "address"
        },
        {
          "indexed": true,
          "internalType": "address",
          "name": "newOwner",
          "type": "address"
        }
      ],
      "name": "OwnershipTransferred",
      "type": "event"
    },
    {
      "anonymous": false,
      "inputs": [
        {
          "indexed": true,
          "internalType": "address",
          "name": "from",
          "type": "address"
        },
        {
          "indexed": true,
          "internalType": "address",
          "name": "to",
          "type": "address"
        },
        {
          "indexed": true,
          "internalType": "uint256",
          "name": "id",
          "type": "uint256"
        }
      ],
      "name": "Transfer",
      "type": "event"
    },
    {
      "inputs": [
        {
          "internalType": "address",
          "name": "spender",
          "type": "address"
        },
        {
          "internalType": "uint256",
          "name": "id",
          "type": "uint256"
        }
      ],
      "name": "approve",
      "outputs": [],
      "stateMutability": "nonpayable",
      "type": "function"
    },
    {
      "inputs": [
        {
          "internalType": "address",
          "name": "owner",
          "type": "address"
        }
      ],
      "name": "balanceOf",
      "outputs": [
        {
          "internalType": "uint256",
          "name": "",
          "type": "uint256"
        }
      ],
      "stateMutability": "view",
      "type": "function"
    },
    {
      "inputs": [
        {
          "internalType": "uint256",
          "name": "id",
          "type": "uint256"
        }
      ],
      "name": "burn",
      "outputs": [],
      "stateMutability": "nonpayable",
      "type": "function"
    },
    {
      "inputs": [],
      "name": "controller",
      "outputs": [
        {
          "internalType": "address",
          "name": "",
          "type": "address"
        }
      ],
      "stateMutability": "view",
      "type": "function"
    },
    {
      "inputs": [
        {
          "internalType": "uint256",
          "name": "",
          "type": "uint256"
        }
      ],
      "name": "getApproved",
      "outputs": [
        {
          "internalType": "address",
          "name": "",
          "type": "address"
        }
      ],
      "stateMutability": "view",
      "type": "function"
    },
    {
      "inputs": [],
      "name": "getNextId",
      "outputs": [
        {
          "internalType": "uint256",
          "name": "",
          "type": "uint256"
        }
      ],
      "stateMutability": "view",
      "type": "function"
    },
    {
      "inputs": [
        {
          "internalType": "address",
          "name": "",
          "type": "address"
        },
        {
          "internalType": "address",
          "name": "",
          "type": "address"
        }
      ],
      "name": "isApprovedForAll",
      "outputs": [
        {
          "internalType": "bool",
          "name": "",
          "type": "bool"
        }
      ],
      "stateMutability": "view",
      "type": "function"
    },
    {
      "inputs": [
        {
          "internalType": "address",
          "name": "to",
          "type": "address"
        }
      ],
      "name": "mint",
      "outputs": [
        {
          "internalType": "uint256",
          "name": "tokenId",
          "type": "uint256"
        }
      ],
      "stateMutability": "nonpayable",
      "type": "function"
    },
    {
      "inputs": [],
      "name": "name",
      "outputs": [
        {
          "internalType": "string",
          "name": "",
          "type": "string"
        }
      ],
      "stateMutability": "view",
      "type": "function"
    },
    {
      "inputs": [],
      "name": "owner",
      "outputs": [
        {
          "internalType": "address",
          "name": "",
          "type": "address"
        }
      ],
      "stateMutability": "view",
      "type": "function"
    },
    {
      "inputs": [
        {
          "internalType": "uint256",
          "name": "id",
          "type": "uint256"
        }
      ],
      "name": "ownerOf",
      "outputs": [
        {
          "internalType": "address",
          "name": "owner",
          "type": "address"
        }
      ],
      "stateMutability": "view",
      "type": "function"
    },
    {
      "inputs": [
        {
          "internalType": "contract ERC20",
          "name": "token",
          "type": "address"
        },
        {
          "internalType": "uint256",
          "name": "amount",
          "type": "uint256"
        },
        {
          "internalType": "address",
          "name": "to",
          "type": "address"
        }
      ],
      "name": "recoverTokens",
      "outputs": [],
      "stateMutability": "nonpayable",
      "type": "function"
    },
    {
      "inputs": [],
      "name": "removeControl",
      "outputs": [],
      "stateMutability": "nonpayable",
      "type": "function"
    },
    {
      "inputs": [],
      "name": "renderer",
      "outputs": [
        {
          "internalType": "contract Renderer",
          "name": "",
          "type": "address"
        }
      ],
      "stateMutability": "view",
      "type": "function"
    },
    {
      "inputs": [],
      "name": "renounceOwnership",
      "outputs": [],
      "stateMutability": "nonpayable",
      "type": "function"
    },
    {
      "inputs": [
        {
          "internalType": "address",
          "name": "to",
          "type": "address"
        }
      ],
      "name": "safeMint",
      "outputs": [
        {
          "internalType": "uint256",
          "name": "tokenId",
          "type": "uint256"
        }
      ],
      "stateMutability": "nonpayable",
      "type": "function"
    },
    {
      "inputs": [
        {
          "internalType": "address",
          "name": "from",
          "type": "address"
        },
        {
          "internalType": "address",
          "name": "to",
          "type": "address"
        },
        {
          "internalType": "uint256",
          "name": "id",
          "type": "uint256"
        }
      ],
      "name": "safeTransferFrom",
      "outputs": [],
      "stateMutability": "nonpayable",
      "type": "function"
    },
    {
      "inputs": [
        {
          "internalType": "address",
          "name": "from",
          "type": "address"
        },
        {
          "internalType": "address",
          "name": "to",
          "type": "address"
        },
        {
          "internalType": "uint256",
          "name": "id",
          "type": "uint256"
        },
        {
          "internalType": "bytes",
          "name": "data",
          "type": "bytes"
        }
      ],
      "name": "safeTransferFrom",
      "outputs": [],
      "stateMutability": "nonpayable",
      "type": "function"
    },
    {
      "inputs": [
        {
          "internalType": "address",
          "name": "operator",
          "type": "address"
        },
        {
          "internalType": "bool",
          "name": "approved",
          "type": "bool"
        }
      ],
      "name": "setApprovalForAll",
      "outputs": [],
      "stateMutability": "nonpayable",
      "type": "function"
    },
    {
      "inputs": [
        {
          "internalType": "contract Renderer",
          "name": "_renderer",
          "type": "address"
        }
      ],
      "name": "setRenderer",
      "outputs": [],
      "stateMutability": "nonpayable",
      "type": "function"
    },
    {
      "inputs": [
        {
          "internalType": "bytes4",
          "name": "interfaceId",
          "type": "bytes4"
        }
      ],
      "name": "supportsInterface",
      "outputs": [
        {
          "internalType": "bool",
          "name": "",
          "type": "bool"
        }
      ],
      "stateMutability": "view",
      "type": "function"
    },
    {
      "inputs": [],
      "name": "symbol",
      "outputs": [
        {
          "internalType": "string",
          "name": "",
          "type": "string"
        }
      ],
      "stateMutability": "view",
      "type": "function"
    },
    {
      "inputs": [
        {
          "internalType": "uint256",
          "name": "",
          "type": "uint256"
        }
      ],
      "name": "timestamps",
      "outputs": [
        {
          "internalType": "uint256",
          "name": "",
          "type": "uint256"
        }
      ],
      "stateMutability": "view",
      "type": "function"
    },
    {
      "inputs": [
        {
          "internalType": "uint256",
          "name": "id",
          "type": "uint256"
        }
      ],
      "name": "tokenURI",
      "outputs": [
        {
          "internalType": "string",
          "name": "",
          "type": "string"
        }
      ],
      "stateMutability": "view",
      "type": "function"
    },
    {
      "inputs": [],
      "name": "totalSupply",
      "outputs": [
        {
          "internalType": "uint256",
          "name": "",
          "type": "uint256"
        }
      ],
      "stateMutability": "view",
      "type": "function"
    },
    {
      "inputs": [
        {
          "internalType": "address",
          "name": "newController",
          "type": "address"
        }
      ],
      "name": "transferControl",
      "outputs": [],
      "stateMutability": "nonpayable",
      "type": "function"
    },
    {
      "inputs": [
        {
          "internalType": "address",
          "name": "from",
          "type": "address"
        },
        {
          "internalType": "address",
          "name": "to",
          "type": "address"
        },
        {
          "internalType": "uint256",
          "name": "id",
          "type": "uint256"
        }
      ],
      "name": "transferFrom",
      "outputs": [],
      "stateMutability": "nonpayable",
      "type": "function"
    },
    {
      "inputs": [
        {
          "internalType": "address",
          "name": "newOwner",
          "type": "address"
        }
      ],
      "name": "transferOwnership",
      "outputs": [],
      "stateMutability": "nonpayable",
      "type": "function"
    }
  ],
  "bytecode": {
    "object": "0x60806040523480156200001157600080fd5b5060405162001a1138038062001a118339810160408190526200003491620002a1565b8151829082906200004d9060009060208501906200012e565b508051620000639060019060208401906200012e565b50505062000077336200008a60201b60201c565b6200008233620000dc565b505062000348565b600680546001600160a01b038381166001600160a01b0319831681179093556040519116919082907f8be0079c531659141344cd1fd0a4f28419497f9722a3daafe3b4186f6b6457e090600090a35050565b600780546001600160a01b038381166001600160a01b0319831681179093556040519116919082907fa06677f7b64342b4bcbde423684dbdb5356acfe41ad0285b6ecbe6dc4bf427f290600090a35050565b8280546200013c906200030b565b90600052602060002090601f016020900481019282620001605760008555620001ab565b82601f106200017b57805160ff1916838001178555620001ab565b82800160010185558215620001ab579182015b82811115620001ab5782518255916020019190600101906200018e565b50620001b9929150620001bd565b5090565b5b80821115620001b95760008155600101620001be565b634e487b7160e01b600052604160045260246000fd5b600082601f830112620001fc57600080fd5b81516001600160401b0380821115620002195762000219620001d4565b604051601f8301601f19908116603f01168101908282118183101715620002445762000244620001d4565b816040528381526020925086838588010111156200026157600080fd5b600091505b8382101562000285578582018301518183018401529082019062000266565b83821115620002975760008385830101525b9695505050505050565b60008060408385031215620002b557600080fd5b82516001600160401b0380821115620002cd57600080fd5b620002db86838701620001ea565b93506020850151915080821115620002f257600080fd5b506200030185828601620001ea565b9150509250929050565b600181811c908216806200032057607f821691505b602082108114156200034257634e487b7160e01b600052602260045260246000fd5b50919050565b6116b980620003586000396000f3fe608060405234801561001057600080fd5b50600436106101c45760003560e01c806370a08231116100f9578063a22cb46511610097578063c87b56dd11610071578063c87b56dd146103b6578063e985e9c5146103c9578063f2fde38b146103f7578063f77c47911461040a57600080fd5b8063a22cb46514610388578063b88d4fde1461039b578063bc968326146103ae57600080fd5b80638ada6b0f116100d35780638ada6b0f1461033c5780638bc33af31461034f5780638da5cb5b1461036f57806395d89b411461038057600080fd5b806370a0823114610319578063715018a61461032c5780637bee684b1461033457600080fd5b806342842e0e1161016657806361b0a56e1161014057806361b0a56e146102cd5780636352211e146102e05780636a627842146102f35780636d16fa411461030657600080fd5b806342842e0e1461029457806342966c68146102a757806356d3163d146102ba57600080fd5b8063095ea7b3116101a2578063095ea7b31461024757806318160ddd1461025c57806323b872dd1461026e57806340d097c31461028157600080fd5b806301ffc9a7146101c957806306fdde03146101f1578063081812fc14610206575b600080fd5b6101dc6101d7366004611239565b61041b565b60405190151581526020015b60405180910390f35b6101f961046d565b6040516101e89190611289565b61022f6102143660046112bc565b6004602052600090815260409020546001600160a01b031681565b6040516001600160a01b0390911681526020016101e8565b61025a6102553660046112ea565b6104fb565b005b6008545b6040519081526020016101e8565b61025a61027c366004611316565b6105e2565b61026061028f366004611357565b610792565b61025a6102a2366004611316565b6107fe565b61025a6102b53660046112bc565b610839565b61025a6102c8366004611357565b61087a565b61025a6102db366004611374565b6108c7565b61022f6102ee3660046112bc565b610906565b610260610301366004611357565b61095d565b61025a610314366004611357565b6109b2565b610260610327366004611357565b610a29565b61025a610a8c565b61025a610ac3565b600a5461022f906001600160a01b031681565b61026061035d3660046112bc565b600b6020526000908152604090205481565b6006546001600160a01b031661022f565b6101f9610b11565b61025a6103963660046113b6565b610b1e565b61025a6103a93660046113f4565b610b8a565b600954610260565b6101f96103c43660046112bc565b610bc9565b6101dc6103d7366004611493565b600560209081526000928352604080842090915290825290205460ff1681565b61025a610405366004611357565b610c70565b6007546001600160a01b031661022f565b60006301ffc9a760e01b6001600160e01b03198316148061044c57506380ac58cd60e01b6001600160e01b03198316145b806104675750635b5e139f60e01b6001600160e01b03198316145b92915050565b6000805461047a906114c1565b80601f01602080910402602001604051908101604052809291908181526020018280546104a6906114c1565b80156104f35780601f106104c8576101008083540402835291602001916104f3565b820191906000526020600020905b8154815290600101906020018083116104d657829003601f168201915b505050505081565b6000818152600260205260409020546001600160a01b03163381148061054457506001600160a01b038116600090815260056020908152604080832033845290915290205460ff165b6105865760405162461bcd60e51b815260206004820152600e60248201526d1393d517d055551213d49256915160921b60448201526064015b60405180910390fd5b60008281526004602052604080822080546001600160a01b0319166001600160a01b0387811691821790925591518593918516917f8c5be1e5ebec7d5bd14f71427d1e84f3dd0314c0f7b2291e5b200ac8c7c3b92591a4505050565b6007546001600160a01b0316331461060d57604051632e57521560e01b815260040160405180910390fd5b6000818152600260205260409020546001600160a01b038481169116146106475760405163104ca12160e11b815260040160405180910390fd5b6001600160a01b03821661066e57604051631b8fe22360e01b815260040160405180910390fd5b336001600160a01b038416148015906106ab57506001600160a01b038316600090815260056020908152604080832033845290915290205460ff16155b80156106ce57506000818152600460205260409020546001600160a01b03163314155b80156106e557506007546001600160a01b03163314155b1561070357604051632e57521560e01b815260040160405180910390fd5b6001600160a01b0380841660008181526003602090815260408083208054600019019055938616808352848320805460010190558583526002825284832080546001600160a01b03199081168317909155600490925284832080549092169091559251849392917fddf252ad1be2c89b69c2b068fc378daa952ba7f163c4a11628f55a4df523b3ef91a4505050565b6007546000906001600160a01b031633146107c057604051632e57521560e01b815260040160405180910390fd5b6107cc82600954610ccb565b506009805490819060006107df836114fc565b9091555050600880549060006107f4836114fc565b9190505550919050565b6007546001600160a01b0316331461082957604051632e57521560e01b815260040160405180910390fd5b610834838383610d9b565b505050565b6007546001600160a01b0316331461086457604051632e57521560e01b815260040160405180910390fd5b61086d81610e6b565b5060088054600019019055565b6006546001600160a01b031633146108a557604051632e57521560e01b815260040160405180910390fd5b600a80546001600160a01b0319166001600160a01b0392909216919091179055565b6006546001600160a01b031633146108f257604051632e57521560e01b815260040160405180910390fd5b6108346001600160a01b0384168284610f38565b6000818152600260205260409020546001600160a01b0316806109585760405162461bcd60e51b815260206004820152600a6024820152691393d517d3525395115160b21b604482015260640161057d565b919050565b6007546000906001600160a01b0316331461098b57604051632e57521560e01b815260040160405180910390fd5b61099782600954610fb6565b50506009805460018082019092556008805490920190915590565b6006546001600160a01b031633148015906109d857506007546001600160a01b03163314155b156109f657604051632e57521560e01b815260040160405180910390fd5b6001600160a01b038116610a1d57604051631b8fe22360e01b815260040160405180910390fd5b610a26816110c1565b50565b60006001600160a01b038216610a705760405162461bcd60e51b815260206004820152600c60248201526b5a45524f5f4144445245535360a01b604482015260640161057d565b506001600160a01b031660009081526003602052604090205490565b6006546001600160a01b03163314610ab757604051632e57521560e01b815260040160405180910390fd5b610ac16000611113565b565b6006546001600160a01b03163314801590610ae957506007546001600160a01b03163314155b15610b0757604051632e57521560e01b815260040160405180910390fd5b610ac160006110c1565b6001805461047a906114c1565b3360008181526005602090815260408083206001600160a01b03871680855290835292819020805460ff191686151590811790915590519081529192917f17307eab39ab6107e8899845ad3d59bd9653f200f220920489ca2b5937696c31910160405180910390a35050565b6007546001600160a01b03163314610bb557604051632e57521560e01b815260040160405180910390fd5b610bc28585858585611165565b5050505050565b600a546060906001600160a01b0316635bdd141f83610be781610906565b6000868152600b60205260409081902054905160e085901b6001600160e01b031916815260048101939093526001600160a01b0390911660248301526044820152606401600060405180830381865afa158015610c48573d6000803e3d6000fd5b505050506040513d6000823e601f3d908101601f19168201604052610467919081019061153b565b6006546001600160a01b03163314610c9b57604051632e57521560e01b815260040160405180910390fd5b6001600160a01b038116610cc257604051631b8fe22360e01b815260040160405180910390fd5b610a2681611113565b610cd58282610fb6565b6001600160a01b0382163b1580610d7b5750604051630a85bd0160e11b80825233600483015260006024830181905260448301849052608060648401526084830152906001600160a01b0384169063150b7a029060a4016020604051808303816000875af1158015610d4b573d6000803e3d6000fd5b505050506040513d601f19601f82011682018060405250810190610d6f91906115e8565b6001600160e01b031916145b610d975760405162461bcd60e51b815260040161057d90611605565b5050565b610da68383836105e2565b6001600160a01b0382163b1580610e4f5750604051630a85bd0160e11b8082523360048301526001600160a01b03858116602484015260448301849052608060648401526000608484015290919084169063150b7a029060a4016020604051808303816000875af1158015610e1f573d6000803e3d6000fd5b505050506040513d601f19601f82011682018060405250810190610e4391906115e8565b6001600160e01b031916145b6108345760405162461bcd60e51b815260040161057d90611605565b6000818152600260205260409020546001600160a01b031680610ebd5760405162461bcd60e51b815260206004820152600a6024820152691393d517d3525395115160b21b604482015260640161057d565b6001600160a01b038116600081815260036020908152604080832080546000190190558583526002825280832080546001600160a01b031990811690915560049092528083208054909216909155518492907fddf252ad1be2c89b69c2b068fc378daa952ba7f163c4a11628f55a4df523b3ef908390a45050565b600060405163a9059cbb60e01b8152836004820152826024820152602060006044836000895af13d15601f3d1160016000511416171691505080610fb05760405162461bcd60e51b815260206004820152600f60248201526e1514905394d1915497d19052531151608a1b604482015260640161057d565b50505050565b6001600160a01b0382166110005760405162461bcd60e51b81526020600482015260116024820152701253959053125117d49150d25412515395607a1b604482015260640161057d565b6000818152600260205260409020546001600160a01b0316156110565760405162461bcd60e51b815260206004820152600e60248201526d1053149150511657d3525395115160921b604482015260640161057d565b6001600160a01b038216600081815260036020908152604080832080546001019055848352600290915280822080546001600160a01b0319168417905551839291907fddf252ad1be2c89b69c2b068fc378daa952ba7f163c4a11628f55a4df523b3ef908290a45050565b600780546001600160a01b038381166001600160a01b0319831681179093556040519116919082907fa06677f7b64342b4bcbde423684dbdb5356acfe41ad0285b6ecbe6dc4bf427f290600090a35050565b600680546001600160a01b038381166001600160a01b0319831681179093556040519116919082907f8be0079c531659141344cd1fd0a4f28419497f9722a3daafe3b4186f6b6457e090600090a35050565b6111708585856105e2565b6001600160a01b0384163b15806112075750604051630a85bd0160e11b808252906001600160a01b0386169063150b7a02906111b89033908a9089908990899060040161162f565b6020604051808303816000875af11580156111d7573d6000803e3d6000fd5b505050506040513d601f19601f820116820180604052508101906111fb91906115e8565b6001600160e01b031916145b610bc25760405162461bcd60e51b815260040161057d90611605565b6001600160e01b031981168114610a2657600080fd5b60006020828403121561124b57600080fd5b813561125681611223565b9392505050565b60005b83811015611278578181015183820152602001611260565b83811115610fb05750506000910152565b60208152600082518060208401526112a881604085016020870161125d565b601f01601f19169190910160400192915050565b6000602082840312156112ce57600080fd5b5035919050565b6001600160a01b0381168114610a2657600080fd5b600080604083850312156112fd57600080fd5b8235611308816112d5565b946020939093013593505050565b60008060006060848603121561132b57600080fd5b8335611336816112d5565b92506020840135611346816112d5565b929592945050506040919091013590565b60006020828403121561136957600080fd5b8135611256816112d5565b60008060006060848603121561138957600080fd5b8335611394816112d5565b92506020840135915060408401356113ab816112d5565b809150509250925092565b600080604083850312156113c957600080fd5b82356113d4816112d5565b9150602083013580151581146113e957600080fd5b809150509250929050565b60008060008060006080868803121561140c57600080fd5b8535611417816112d5565b94506020860135611427816112d5565b935060408601359250606086013567ffffffffffffffff8082111561144b57600080fd5b818801915088601f83011261145f57600080fd5b81358181111561146e57600080fd5b89602082850101111561148057600080fd5b9699959850939650602001949392505050565b600080604083850312156114a657600080fd5b82356114b1816112d5565b915060208301356113e9816112d5565b600181811c908216806114d557607f821691505b602082108114156114f657634e487b7160e01b600052602260045260246000fd5b50919050565b600060001982141561151e57634e487b7160e01b600052601160045260246000fd5b5060010190565b634e487b7160e01b600052604160045260246000fd5b60006020828403121561154d57600080fd5b815167ffffffffffffffff8082111561156557600080fd5b818401915084601f83011261157957600080fd5b81518181111561158b5761158b611525565b604051601f8201601f19908116603f011681019083821181831017156115b3576115b3611525565b816040528281528760208487010111156115cc57600080fd5b6115dd83602083016020880161125d565b979650505050505050565b6000602082840312156115fa57600080fd5b815161125681611223565b60208082526010908201526f155394d0519157d49150d2541251539560821b604082015260600190565b6001600160a01b038681168252851660208201526040810184905260806060820181905281018290526000828460a0840137600060a0848401015260a0601f19601f8501168301019050969550505050505056fea26469706673582212204008f722c859e1fa97bc7885d5dd3e79368e3b5f2a46734d4f4378ca04e865a764736f6c634300080a0033",
    "linkReferences": {}
  }
}