{
  "_format": "hh-sol-artifact-1",
  "contractName": "PassportIssuer",
  "sourceName": "contracts/membership/PassportIssuer.sol",
  "abi": [
    {
      "inputs": [],
      "name": "IssuanceIsDisabled",
      "type": "error"
    },
    {
      "inputs": [],
      "name": "IssuancesLimitReached",
      "type": "error"
    },
    {
      "inputs": [],
      "name": "NotEligible",
      "type": "error"
    },
    {
      "inputs": [],
      "name": "PassportAlreadyIssued",
      "type": "error"
    },
    {
      "inputs": [],
      "name": "PassportNotIssued",
      "type": "error"
    },
    {
      "inputs": [],
      "name": "StillEligible",
      "type": "error"
    },
    {
      "inputs": [],
      "name": "TransferFailed",
      "type": "error"
    },
    {
      "anonymous": false,
      "inputs": [
        {
          "indexed": true,
          "internalType": "address",
          "name": "account",
          "type": "address"
        },
        {
          "indexed": true,
          "internalType": "uint256",
          "name": "passportId",
          "type": "uint256"
        }
      ],
      "name": "Issue",
      "type": "event"
    },
    {
      "anonymous": false,
      "inputs": [
        {
          "indexed": true,
          "internalType": "address",
          "name": "previousOwner",
          "type": "address"
        },
        {
          "indexed": true,
          "internalType": "address",
          "name": "newOwner",
          "type": "address"
        }
      ],
      "name": "OwnershipTransferred",
      "type": "event"
    },
    {
      "anonymous": false,
      "inputs": [
        {
          "indexed": true,
          "internalType": "address",
          "name": "amount",
          "type": "address"
        },
        {
          "indexed": true,
          "internalType": "uint256",
          "name": "passportId",
          "type": "uint256"
        }
      ],
      "name": "Withdraw",
      "type": "event"
    },
    {
      "inputs": [],
      "name": "claim",
      "outputs": [],
      "stateMutability": "nonpayable",
      "type": "function"
    },
    {
      "inputs": [],
      "name": "enabled",
      "outputs": [
        {
          "internalType": "bool",
          "name": "",
          "type": "bool"
        }
      ],
      "stateMutability": "view",
      "type": "function"
    },
    {
      "inputs": [
        {
          "internalType": "address",
          "name": "account",
          "type": "address"
        }
      ],
      "name": "hasPassport",
      "outputs": [
        {
          "internalType": "bool",
          "name": "",
          "type": "bool"
        }
      ],
      "stateMutability": "view",
      "type": "function"
    },
    {
      "inputs": [
        {
          "internalType": "contract IVotingEscrow",
          "name": "_veToken",
          "type": "address"
        },
        {
          "internalType": "contract PassportNFT",
          "name": "_passToken",
          "type": "address"
        }
      ],
      "name": "initialize",
      "outputs": [],
      "stateMutability": "nonpayable",
      "type": "function"
    },
    {
      "inputs": [],
      "name": "maxIssuances",
      "outputs": [
        {
          "internalType": "uint256",
          "name": "",
          "type": "uint256"
        }
      ],
      "stateMutability": "view",
      "type": "function"
    },
    {
      "inputs": [],
      "name": "minLockedBalance",
      "outputs": [
        {
          "internalType": "uint256",
          "name": "",
          "type": "uint256"
        }
      ],
      "stateMutability": "view",
      "type": "function"
    },
    {
      "inputs": [],
      "name": "owner",
      "outputs": [
        {
          "internalType": "address",
          "name": "",
          "type": "address"
        }
      ],
      "stateMutability": "view",
      "type": "function"
    },
    {
      "inputs": [],
      "name": "passToken",
      "outputs": [
        {
          "internalType": "contract PassportNFT",
          "name": "",
          "type": "address"
        }
      ],
      "stateMutability": "view",
      "type": "function"
    },
    {
      "inputs": [
        {
          "internalType": "address",
          "name": "account",
          "type": "address"
        }
      ],
      "name": "passportId",
      "outputs": [
        {
          "internalType": "uint256",
          "name": "",
          "type": "uint256"
        }
      ],
      "stateMutability": "view",
      "type": "function"
    },
    {
      "inputs": [
        {
          "internalType": "contract IERC20",
          "name": "token",
          "type": "address"
        },
        {
          "internalType": "address",
          "name": "to",
          "type": "address"
        }
      ],
      "name": "recoverTokens",
      "outputs": [
        {
          "internalType": "uint256",
          "name": "amount",
          "type": "uint256"
        }
      ],
      "stateMutability": "nonpayable",
      "type": "function"
    },
    {
      "inputs": [],
      "name": "renounceOwnership",
      "outputs": [],
      "stateMutability": "nonpayable",
      "type": "function"
    },
    {
      "inputs": [
        {
          "internalType": "address",
          "name": "account",
          "type": "address"
        }
      ],
      "name": "revoke",
      "outputs": [],
      "stateMutability": "nonpayable",
      "type": "function"
    },
    {
      "inputs": [
        {
          "internalType": "bool",
          "name": "status",
          "type": "bool"
        }
      ],
      "name": "setEnabled",
      "outputs": [],
      "stateMutability": "nonpayable",
      "type": "function"
    },
    {
      "inputs": [
        {
          "internalType": "uint256",
          "name": "supply",
          "type": "uint256"
        },
        {
          "internalType": "uint256",
          "name": "_minLockedBalance",
          "type": "uint256"
        }
      ],
      "name": "setParams",
      "outputs": [],
      "stateMutability": "nonpayable",
      "type": "function"
    },
    {
      "inputs": [],
      "name": "totalIssued",
      "outputs": [
        {
          "internalType": "uint256",
          "name": "",
          "type": "uint256"
        }
      ],
      "stateMutability": "view",
      "type": "function"
    },
    {
      "inputs": [
        {
          "internalType": "address",
          "name": "newOwner",
          "type": "address"
        }
      ],
      "name": "transferOwnership",
      "outputs": [],
      "stateMutability": "nonpayable",
      "type": "function"
    },
    {
      "inputs": [],
      "name": "veToken",
      "outputs": [
        {
          "internalType": "contract IVotingEscrow",
          "name": "",
          "type": "address"
        }
      ],
      "stateMutability": "view",
      "type": "function"
    },
    {
      "inputs": [],
      "name": "withdraw",
      "outputs": [],
      "stateMutability": "nonpayable",
      "type": "function"
    }
  ],
  "bytecode": "0x608060405234801561001057600080fd5b5061002d61002261003260201b60201c565b61003a60201b60201c565b6100ff565b600033905090565b60008060029054906101000a900473ffffffffffffffffffffffffffffffffffffffff16905081600060026101000a81548173ffffffffffffffffffffffffffffffffffffffff021916908373ffffffffffffffffffffffffffffffffffffffff1602179055508173ffffffffffffffffffffffffffffffffffffffff168173ffffffffffffffffffffffffffffffffffffffff167f8be0079c531659141344cd1fd0a4f28419497f9722a3daafe3b4186f6b6457e060405160405180910390a35050565b6117008061010e6000396000f3fe608060405234801561001057600080fd5b50600436106101165760003560e01c80634e71d92d116100a2578063c0324c7711610071578063c0324c7714610295578063d91d04c0146102b1578063f2fde38b146102cf578063f5be3193146102eb578063fecfdff71461030957610116565b80634e71d92d14610247578063715018a61461025157806374a8f1031461025b5780638da5cb5b1461027757610116565b8063328d8f72116100e9578063328d8f72146101b75780633b92eb23146101d35780633ccfd60b146101f1578063485cc955146101fb5780634dc30e871461021757610116565b806301483fc91461011b578063056097ac146101395780631ca8b8ab14610169578063238dafe014610199575b600080fd5b610123610327565b6040516101309190611127565b60405180910390f35b610153600480360381019061014e91906111e3565b61032d565b6040516101609190611127565b60405180910390f35b610183600480360381019061017e9190611223565b610458565b6040516101909190611127565b60405180910390f35b6101a16104e0565b6040516101ae919061126b565b60405180910390f35b6101d160048036038101906101cc91906112b2565b6104f3565b005b6101db61058c565b6040516101e8919061133e565b60405180910390f35b6101f96105b2565b005b610215600480360381019061021091906113d5565b6105bd565b005b610231600480360381019061022c9190611223565b610725565b60405161023e919061126b565b60405180910390f35b61024f610781565b005b610259610926565b005b61027560048036038101906102709190611223565b6109ae565b005b61027f610a90565b60405161028c9190611424565b60405180910390f35b6102af60048036038101906102aa919061146b565b610ab9565b005b6102b9610b47565b6040516102c69190611127565b60405180910390f35b6102e960048036038101906102e49190611223565b610b4d565b005b6102f3610c45565b6040516103009190611127565b60405180910390f35b610311610c4b565b60405161031e91906114cc565b60405180910390f35b60055481565b6000610337610c71565b73ffffffffffffffffffffffffffffffffffffffff16610355610a90565b73ffffffffffffffffffffffffffffffffffffffff16146103ab576040517f08c379a00000000000000000000000000000000000000000000000000000000081526004016103a290611544565b60405180910390fd5b8273ffffffffffffffffffffffffffffffffffffffff166370a08231306040518263ffffffff1660e01b81526004016103e49190611424565b602060405180830381865afa158015610401573d6000803e3d6000fd5b505050506040513d601f19601f820116820180604052508101906104259190611579565b905061045282828573ffffffffffffffffffffffffffffffffffffffff16610c799092919063ffffffff16565b92915050565b600061046382610725565b610499576040517f7f1c9dc200000000000000000000000000000000000000000000000000000000815260040160405180910390fd5b600760008373ffffffffffffffffffffffffffffffffffffffff1673ffffffffffffffffffffffffffffffffffffffff168152602001908152602001600020549050919050565b600260149054906101000a900460ff1681565b6104fb610c71565b73ffffffffffffffffffffffffffffffffffffffff16610519610a90565b73ffffffffffffffffffffffffffffffffffffffff161461056f576040517f08c379a000000000000000000000000000000000000000000000000000000000815260040161056690611544565b60405180910390fd5b80600260146101000a81548160ff02191690831515021790555050565b600160009054906101000a900473ffffffffffffffffffffffffffffffffffffffff1681565b6105bb33610d08565b565b600060019054906101000a900460ff166105e55760008054906101000a900460ff16156105ee565b6105ed610e7c565b5b61062d576040517f08c379a000000000000000000000000000000000000000000000000000000000815260040161062490611618565b60405180910390fd5b60008060019054906101000a900460ff16159050801561067d576001600060016101000a81548160ff02191690831515021790555060016000806101000a81548160ff0219169083151502179055505b82600160006101000a81548173ffffffffffffffffffffffffffffffffffffffff021916908373ffffffffffffffffffffffffffffffffffffffff16021790555081600260006101000a81548173ffffffffffffffffffffffffffffffffffffffff021916908373ffffffffffffffffffffffffffffffffffffffff16021790555080156107205760008060016101000a81548160ff0219169083151502179055505b505050565b60006001600660008473ffffffffffffffffffffffffffffffffffffffff1673ffffffffffffffffffffffffffffffffffffffff16815260200190815260200160002060009054906101000a900460ff1660ff16149050919050565b600260149054906101000a900460ff166107c7576040517f4f91148e00000000000000000000000000000000000000000000000000000000815260040160405180910390fd5b60035460045410610804576040517fb2ac739600000000000000000000000000000000000000000000000000000000815260040160405180910390fd5b61080d33610725565b15610844576040517f7027c83600000000000000000000000000000000000000000000000000000000815260040160405180910390fd5b600554600160009054906101000a900473ffffffffffffffffffffffffffffffffffffffff1673ffffffffffffffffffffffffffffffffffffffff166370a08231336040518263ffffffff1660e01b81526004016108a29190611424565b602060405180830381865afa1580156108bf573d6000803e3d6000fd5b505050506040513d601f19601f820116820180604052508101906108e39190611579565b101561091b576040517ff8eb54de00000000000000000000000000000000000000000000000000000000815260040160405180910390fd5b61092433610e8d565b565b61092e610c71565b73ffffffffffffffffffffffffffffffffffffffff1661094c610a90565b73ffffffffffffffffffffffffffffffffffffffff16146109a2576040517f08c379a000000000000000000000000000000000000000000000000000000000815260040161099990611544565b60405180910390fd5b6109ac6000611026565b565b600554600160009054906101000a900473ffffffffffffffffffffffffffffffffffffffff1673ffffffffffffffffffffffffffffffffffffffff166370a08231836040518263ffffffff1660e01b8152600401610a0c9190611424565b602060405180830381865afa158015610a29573d6000803e3d6000fd5b505050506040513d601f19601f82011682018060405250810190610a4d9190611579565b10610a84576040517f77f32dfa00000000000000000000000000000000000000000000000000000000815260040160405180910390fd5b610a8d81610d08565b50565b60008060029054906101000a900473ffffffffffffffffffffffffffffffffffffffff16905090565b610ac1610c71565b73ffffffffffffffffffffffffffffffffffffffff16610adf610a90565b73ffffffffffffffffffffffffffffffffffffffff1614610b35576040517f08c379a0000000000000000000000000000000000000000000000000000000008152600401610b2c90611544565b60405180910390fd5b81600381905550806005819055505050565b60035481565b610b55610c71565b73ffffffffffffffffffffffffffffffffffffffff16610b73610a90565b73ffffffffffffffffffffffffffffffffffffffff1614610bc9576040517f08c379a0000000000000000000000000000000000000000000000000000000008152600401610bc090611544565b60405180910390fd5b600073ffffffffffffffffffffffffffffffffffffffff168173ffffffffffffffffffffffffffffffffffffffff161415610c39576040517f08c379a0000000000000000000000000000000000000000000000000000000008152600401610c30906116aa565b60405180910390fd5b610c4281611026565b50565b60045481565b600260009054906101000a900473ffffffffffffffffffffffffffffffffffffffff1681565b600033905090565b60006040517fa9059cbb000000000000000000000000000000000000000000000000000000008152836004820152826024820152602060006044836000895af13d15601f3d1160016000511416171691505080610d02576040517f90b8ec1800000000000000000000000000000000000000000000000000000000815260040160405180910390fd5b50505050565b6000610d1382610458565b9050600260009054906101000a900473ffffffffffffffffffffffffffffffffffffffff1673ffffffffffffffffffffffffffffffffffffffff166342966c68826040518263ffffffff1660e01b8152600401610d709190611127565b600060405180830381600087803b158015610d8a57600080fd5b505af1158015610d9e573d6000803e3d6000fd5b50505050600660008373ffffffffffffffffffffffffffffffffffffffff1673ffffffffffffffffffffffffffffffffffffffff16815260200190815260200160002060006101000a81549060ff0219169055600760008373ffffffffffffffffffffffffffffffffffffffff1673ffffffffffffffffffffffffffffffffffffffff16815260200190815260200160002060009055808273ffffffffffffffffffffffffffffffffffffffff167f884edad9ce6fa2440d8a54cc123490eb96d2768479d49ff9c7366125a942436460405160405180910390a35050565b6000610e87306110eb565b15905090565b6000600260009054906101000a900473ffffffffffffffffffffffffffffffffffffffff1673ffffffffffffffffffffffffffffffffffffffff166340d097c3836040518263ffffffff1660e01b8152600401610eea9190611424565b6020604051808303816000875af1158015610f09573d6000803e3d6000fd5b505050506040513d601f19601f82011682018060405250810190610f2d9190611579565b90506004600081548092919060010191905055506001600660008473ffffffffffffffffffffffffffffffffffffffff1673ffffffffffffffffffffffffffffffffffffffff16815260200190815260200160002060006101000a81548160ff021916908360ff16021790555080600760008473ffffffffffffffffffffffffffffffffffffffff1673ffffffffffffffffffffffffffffffffffffffff16815260200190815260200160002081905550808273ffffffffffffffffffffffffffffffffffffffff167fc65a3f767206d2fdcede0b094a4840e01c0dd0be1888b5ba800346eaa0123c1660405160405180910390a35050565b60008060029054906101000a900473ffffffffffffffffffffffffffffffffffffffff16905081600060026101000a81548173ffffffffffffffffffffffffffffffffffffffff021916908373ffffffffffffffffffffffffffffffffffffffff1602179055508173ffffffffffffffffffffffffffffffffffffffff168173ffffffffffffffffffffffffffffffffffffffff167f8be0079c531659141344cd1fd0a4f28419497f9722a3daafe3b4186f6b6457e060405160405180910390a35050565b6000808273ffffffffffffffffffffffffffffffffffffffff163b119050919050565b6000819050919050565b6111218161110e565b82525050565b600060208201905061113c6000830184611118565b92915050565b600080fd5b600073ffffffffffffffffffffffffffffffffffffffff82169050919050565b600061117282611147565b9050919050565b600061118482611167565b9050919050565b61119481611179565b811461119f57600080fd5b50565b6000813590506111b18161118b565b92915050565b6111c081611167565b81146111cb57600080fd5b50565b6000813590506111dd816111b7565b92915050565b600080604083850312156111fa576111f9611142565b5b6000611208858286016111a2565b9250506020611219858286016111ce565b9150509250929050565b60006020828403121561123957611238611142565b5b6000611247848285016111ce565b91505092915050565b60008115159050919050565b61126581611250565b82525050565b6000602082019050611280600083018461125c565b92915050565b61128f81611250565b811461129a57600080fd5b50565b6000813590506112ac81611286565b92915050565b6000602082840312156112c8576112c7611142565b5b60006112d68482850161129d565b91505092915050565b6000819050919050565b60006113046112ff6112fa84611147565b6112df565b611147565b9050919050565b6000611316826112e9565b9050919050565b60006113288261130b565b9050919050565b6113388161131d565b82525050565b6000602082019050611353600083018461132f565b92915050565b600061136482611167565b9050919050565b61137481611359565b811461137f57600080fd5b50565b6000813590506113918161136b565b92915050565b60006113a282611167565b9050919050565b6113b281611397565b81146113bd57600080fd5b50565b6000813590506113cf816113a9565b92915050565b600080604083850312156113ec576113eb611142565b5b60006113fa85828601611382565b925050602061140b858286016113c0565b9150509250929050565b61141e81611167565b82525050565b60006020820190506114396000830184611415565b92915050565b6114488161110e565b811461145357600080fd5b50565b6000813590506114658161143f565b92915050565b6000806040838503121561148257611481611142565b5b600061149085828601611456565b92505060206114a185828601611456565b9150509250929050565b60006114b68261130b565b9050919050565b6114c6816114ab565b82525050565b60006020820190506114e160008301846114bd565b92915050565b600082825260208201905092915050565b7f4f776e61626c653a2063616c6c6572206973206e6f7420746865206f776e6572600082015250565b600061152e6020836114e7565b9150611539826114f8565b602082019050919050565b6000602082019050818103600083015261155d81611521565b9050919050565b6000815190506115738161143f565b92915050565b60006020828403121561158f5761158e611142565b5b600061159d84828501611564565b91505092915050565b7f496e697469616c697a61626c653a20636f6e747261637420697320616c72656160008201527f647920696e697469616c697a6564000000000000000000000000000000000000602082015250565b6000611602602e836114e7565b915061160d826115a6565b604082019050919050565b60006020820190508181036000830152611631816115f5565b9050919050565b7f4f776e61626c653a206e6577206f776e657220697320746865207a65726f206160008201527f6464726573730000000000000000000000000000000000000000000000000000602082015250565b60006116946026836114e7565b915061169f82611638565b604082019050919050565b600060208201905081810360008301526116c381611687565b905091905056fea26469706673582212203d190918d8362b8bceb89730629b3e1021dc0657e591de37da7eea24f86494ab64736f6c634300080a0033",
  "linkReferences": {},
  "deployedLinkReferences": {}
}