{
  "_format": "hh-sol-artifact-1",
  "contractName": "PassportNFT",
  "sourceName": "contracts/passport/Passport.sol",
  "abi": [
    {
      "inputs": [
        {
          "internalType": "string",
          "name": "_name",
          "type": "string"
        },
        {
          "internalType": "string",
          "name": "_symbol",
          "type": "string"
        }
      ],
      "stateMutability": "nonpayable",
      "type": "constructor"
    },
    {
      "inputs": [],
      "name": "AlreadyMinted",
      "type": "error"
    },
    {
      "inputs": [],
      "name": "CallerIsNOtOwnerOrController",
      "type": "error"
    },
    {
      "inputs": [],
      "name": "CallerIsNotController",
      "type": "error"
    },
    {
      "inputs": [],
      "name": "CallerIsNotOwner",
      "type": "error"
    },
    {
      "inputs": [],
      "name": "InvalidFrom",
      "type": "error"
    },
    {
      "inputs": [],
      "name": "InvalidRecipient",
      "type": "error"
    },
    {
      "inputs": [],
      "name": "NewControllerIsZeroAddress",
      "type": "error"
    },
    {
      "inputs": [],
      "name": "NewOwnerIsZeroAddress",
      "type": "error"
    },
    {
      "inputs": [],
      "name": "NotAuthorized",
      "type": "error"
    },
    {
      "inputs": [],
      "name": "NotMinted",
      "type": "error"
    },
    {
      "inputs": [],
      "name": "TokenOwnerMismatch",
      "type": "error"
    },
    {
      "inputs": [],
      "name": "UnsafeRecipient",
      "type": "error"
    },
    {
      "anonymous": false,
      "inputs": [
        {
          "indexed": true,
          "internalType": "address",
          "name": "owner",
          "type": "address"
        },
        {
          "indexed": true,
          "internalType": "address",
          "name": "spender",
          "type": "address"
        },
        {
          "indexed": true,
          "internalType": "uint256",
          "name": "id",
          "type": "uint256"
        }
      ],
      "name": "Approval",
      "type": "event"
    },
    {
      "anonymous": false,
      "inputs": [
        {
          "indexed": true,
          "internalType": "address",
          "name": "owner",
          "type": "address"
        },
        {
          "indexed": true,
          "internalType": "address",
          "name": "operator",
          "type": "address"
        },
        {
          "indexed": false,
          "internalType": "bool",
          "name": "approved",
          "type": "bool"
        }
      ],
      "name": "ApprovalForAll",
      "type": "event"
    },
    {
      "anonymous": false,
      "inputs": [
        {
          "indexed": true,
          "internalType": "address",
          "name": "previousController",
          "type": "address"
        },
        {
          "indexed": true,
          "internalType": "address",
          "name": "newController",
          "type": "address"
        }
      ],
      "name": "ControlTransferred",
      "type": "event"
    },
    {
      "anonymous": false,
      "inputs": [
        {
          "indexed": true,
          "internalType": "address",
          "name": "previousOwner",
          "type": "address"
        },
        {
          "indexed": true,
          "internalType": "address",
          "name": "newOwner",
          "type": "address"
        }
      ],
      "name": "OwnershipTransferred",
      "type": "event"
    },
    {
      "anonymous": false,
      "inputs": [
        {
          "indexed": true,
          "internalType": "address",
          "name": "from",
          "type": "address"
        },
        {
          "indexed": true,
          "internalType": "address",
          "name": "to",
          "type": "address"
        },
        {
          "indexed": true,
          "internalType": "uint256",
          "name": "id",
          "type": "uint256"
        }
      ],
      "name": "Transfer",
      "type": "event"
    },
    {
      "inputs": [
        {
          "internalType": "address",
          "name": "spender",
          "type": "address"
        },
        {
          "internalType": "uint256",
          "name": "id",
          "type": "uint256"
        }
      ],
      "name": "approve",
      "outputs": [],
      "stateMutability": "nonpayable",
      "type": "function"
    },
    {
      "inputs": [
        {
          "internalType": "address",
          "name": "",
          "type": "address"
        }
      ],
      "name": "balanceOf",
      "outputs": [
        {
          "internalType": "uint256",
          "name": "",
          "type": "uint256"
        }
      ],
      "stateMutability": "view",
      "type": "function"
    },
    {
      "inputs": [],
      "name": "baseURI",
      "outputs": [
        {
          "internalType": "string",
          "name": "",
          "type": "string"
        }
      ],
      "stateMutability": "view",
      "type": "function"
    },
    {
      "inputs": [
        {
          "internalType": "uint256",
          "name": "id",
          "type": "uint256"
        }
      ],
      "name": "burn",
      "outputs": [],
      "stateMutability": "nonpayable",
      "type": "function"
    },
    {
      "inputs": [],
      "name": "controller",
      "outputs": [
        {
          "internalType": "address",
          "name": "",
          "type": "address"
        }
      ],
      "stateMutability": "view",
      "type": "function"
    },
    {
      "inputs": [
        {
          "internalType": "uint256",
          "name": "",
          "type": "uint256"
        }
      ],
      "name": "getApproved",
      "outputs": [
        {
          "internalType": "address",
          "name": "",
          "type": "address"
        }
      ],
      "stateMutability": "view",
      "type": "function"
    },
    {
      "inputs": [],
      "name": "getNextId",
      "outputs": [
        {
          "internalType": "uint256",
          "name": "",
          "type": "uint256"
        }
      ],
      "stateMutability": "view",
      "type": "function"
    },
    {
      "inputs": [
        {
          "internalType": "address",
          "name": "",
          "type": "address"
        },
        {
          "internalType": "address",
          "name": "",
          "type": "address"
        }
      ],
      "name": "isApprovedForAll",
      "outputs": [
        {
          "internalType": "bool",
          "name": "",
          "type": "bool"
        }
      ],
      "stateMutability": "view",
      "type": "function"
    },
    {
      "inputs": [
        {
          "internalType": "address",
          "name": "to",
          "type": "address"
        }
      ],
      "name": "mint",
      "outputs": [
        {
          "internalType": "uint256",
          "name": "tokenId",
          "type": "uint256"
        }
      ],
      "stateMutability": "nonpayable",
      "type": "function"
    },
    {
      "inputs": [],
      "name": "name",
      "outputs": [
        {
          "internalType": "string",
          "name": "",
          "type": "string"
        }
      ],
      "stateMutability": "view",
      "type": "function"
    },
    {
      "inputs": [],
      "name": "owner",
      "outputs": [
        {
          "internalType": "address",
          "name": "",
          "type": "address"
        }
      ],
      "stateMutability": "view",
      "type": "function"
    },
    {
      "inputs": [
        {
          "internalType": "uint256",
          "name": "",
          "type": "uint256"
        }
      ],
      "name": "ownerOf",
      "outputs": [
        {
          "internalType": "address",
          "name": "",
          "type": "address"
        }
      ],
      "stateMutability": "view",
      "type": "function"
    },
    {
      "inputs": [
        {
          "internalType": "contract IERC20",
          "name": "token",
          "type": "address"
        },
        {
          "internalType": "uint256",
          "name": "amount",
          "type": "uint256"
        },
        {
          "internalType": "address",
          "name": "to",
          "type": "address"
        }
      ],
      "name": "recoverTokens",
      "outputs": [],
      "stateMutability": "nonpayable",
      "type": "function"
    },
    {
      "inputs": [],
      "name": "removeControl",
      "outputs": [],
      "stateMutability": "nonpayable",
      "type": "function"
    },
    {
      "inputs": [],
      "name": "renounceOwnership",
      "outputs": [],
      "stateMutability": "nonpayable",
      "type": "function"
    },
    {
      "inputs": [
        {
          "internalType": "address",
          "name": "to",
          "type": "address"
        }
      ],
      "name": "safeMint",
      "outputs": [
        {
          "internalType": "uint256",
          "name": "tokenId",
          "type": "uint256"
        }
      ],
      "stateMutability": "nonpayable",
      "type": "function"
    },
    {
      "inputs": [
        {
          "internalType": "address",
          "name": "from",
          "type": "address"
        },
        {
          "internalType": "address",
          "name": "to",
          "type": "address"
        },
        {
          "internalType": "uint256",
          "name": "id",
          "type": "uint256"
        }
      ],
      "name": "safeTransferFrom",
      "outputs": [],
      "stateMutability": "nonpayable",
      "type": "function"
    },
    {
      "inputs": [
        {
          "internalType": "address",
          "name": "from",
          "type": "address"
        },
        {
          "internalType": "address",
          "name": "to",
          "type": "address"
        },
        {
          "internalType": "uint256",
          "name": "id",
          "type": "uint256"
        },
        {
          "internalType": "bytes",
          "name": "data",
          "type": "bytes"
        }
      ],
      "name": "safeTransferFrom",
      "outputs": [],
      "stateMutability": "nonpayable",
      "type": "function"
    },
    {
      "inputs": [
        {
          "internalType": "address",
          "name": "operator",
          "type": "address"
        },
        {
          "internalType": "bool",
          "name": "approved",
          "type": "bool"
        }
      ],
      "name": "setApprovalForAll",
      "outputs": [],
      "stateMutability": "nonpayable",
      "type": "function"
    },
    {
      "inputs": [
        {
          "internalType": "string",
          "name": "_baseURI",
          "type": "string"
        }
      ],
      "name": "setBaseURI",
      "outputs": [],
      "stateMutability": "nonpayable",
      "type": "function"
    },
    {
      "inputs": [
        {
          "internalType": "bytes4",
          "name": "interfaceId",
          "type": "bytes4"
        }
      ],
      "name": "supportsInterface",
      "outputs": [
        {
          "internalType": "bool",
          "name": "",
          "type": "bool"
        }
      ],
      "stateMutability": "view",
      "type": "function"
    },
    {
      "inputs": [],
      "name": "symbol",
      "outputs": [
        {
          "internalType": "string",
          "name": "",
          "type": "string"
        }
      ],
      "stateMutability": "view",
      "type": "function"
    },
    {
      "inputs": [
        {
          "internalType": "uint256",
          "name": "tokenId",
          "type": "uint256"
        }
      ],
      "name": "tokenURI",
      "outputs": [
        {
          "internalType": "string",
          "name": "",
          "type": "string"
        }
      ],
      "stateMutability": "view",
      "type": "function"
    },
    {
      "inputs": [],
      "name": "totalSupply",
      "outputs": [
        {
          "internalType": "uint256",
          "name": "",
          "type": "uint256"
        }
      ],
      "stateMutability": "view",
      "type": "function"
    },
    {
      "inputs": [
        {
          "internalType": "address",
          "name": "newController",
          "type": "address"
        }
      ],
      "name": "transferControl",
      "outputs": [],
      "stateMutability": "nonpayable",
      "type": "function"
    },
    {
      "inputs": [
        {
          "internalType": "address",
          "name": "from",
          "type": "address"
        },
        {
          "internalType": "address",
          "name": "to",
          "type": "address"
        },
        {
          "internalType": "uint256",
          "name": "id",
          "type": "uint256"
        }
      ],
      "name": "transferFrom",
      "outputs": [],
      "stateMutability": "nonpayable",
      "type": "function"
    },
    {
      "inputs": [
        {
          "internalType": "address",
          "name": "newOwner",
          "type": "address"
        }
      ],
      "name": "transferOwnership",
      "outputs": [],
      "stateMutability": "nonpayable",
      "type": "function"
    }
  ],
  "bytecode": "0x60806040523480156200001157600080fd5b5060405162003b2238038062003b22833981810160405281019062000037919062000470565b818181600090805190602001906200005192919062000223565b5080600190805190602001906200006a92919062000223565b5050506200007e336200009760201b60201c565b6200008f336200015d60201b60201c565b50506200055a565b6000600760009054906101000a900473ffffffffffffffffffffffffffffffffffffffff16905081600760006101000a81548173ffffffffffffffffffffffffffffffffffffffff021916908373ffffffffffffffffffffffffffffffffffffffff1602179055508173ffffffffffffffffffffffffffffffffffffffff168173ffffffffffffffffffffffffffffffffffffffff167f8be0079c531659141344cd1fd0a4f28419497f9722a3daafe3b4186f6b6457e060405160405180910390a35050565b6000600860009054906101000a900473ffffffffffffffffffffffffffffffffffffffff16905081600860006101000a81548173ffffffffffffffffffffffffffffffffffffffff021916908373ffffffffffffffffffffffffffffffffffffffff1602179055508173ffffffffffffffffffffffffffffffffffffffff168173ffffffffffffffffffffffffffffffffffffffff167fa06677f7b64342b4bcbde423684dbdb5356acfe41ad0285b6ecbe6dc4bf427f260405160405180910390a35050565b828054620002319062000524565b90600052602060002090601f016020900481019282620002555760008555620002a1565b82601f106200027057805160ff1916838001178555620002a1565b82800160010185558215620002a1579182015b82811115620002a057825182559160200191906001019062000283565b5b509050620002b09190620002b4565b5090565b5b80821115620002cf576000816000905550600101620002b5565b5090565b6000604051905090565b600080fd5b600080fd5b600080fd5b600080fd5b6000601f19601f8301169050919050565b7f4e487b7100000000000000000000000000000000000000000000000000000000600052604160045260246000fd5b6200033c82620002f1565b810181811067ffffffffffffffff821117156200035e576200035d62000302565b5b80604052505050565b600062000373620002d3565b905062000381828262000331565b919050565b600067ffffffffffffffff821115620003a457620003a362000302565b5b620003af82620002f1565b9050602081019050919050565b60005b83811015620003dc578082015181840152602081019050620003bf565b83811115620003ec576000848401525b50505050565b600062000409620004038462000386565b62000367565b905082815260208101848484011115620004285762000427620002ec565b5b62000435848285620003bc565b509392505050565b600082601f830112620004555762000454620002e7565b5b815162000467848260208601620003f2565b91505092915050565b600080604083850312156200048a5762000489620002dd565b5b600083015167ffffffffffffffff811115620004ab57620004aa620002e2565b5b620004b9858286016200043d565b925050602083015167ffffffffffffffff811115620004dd57620004dc620002e2565b5b620004eb858286016200043d565b9150509250929050565b7f4e487b7100000000000000000000000000000000000000000000000000000000600052602260045260246000fd5b600060028204905060018216806200053d57607f821691505b60208210811415620005545762000553620004f5565b5b50919050565b6135b8806200056a6000396000f3fe608060405234801561001057600080fd5b50600436106101a95760003560e01c80636c0360eb116100f9578063a22cb46511610097578063c87b56dd11610071578063c87b56dd14610492578063e985e9c5146104c2578063f2fde38b146104f2578063f77c47911461050e576101a9565b8063a22cb4651461043c578063b88d4fde14610458578063bc96832614610474576101a9565b8063715018a6116100d3578063715018a6146103ec5780637bee684b146103f65780638da5cb5b1461040057806395d89b411461041e576101a9565b80636c0360eb146103825780636d16fa41146103a057806370a08231146103bc576101a9565b806340d097c31161016657806355f804b31161014057806355f804b3146102ea57806361b0a56e146103065780636352211e146103225780636a62784214610352576101a9565b806340d097c31461028257806342842e0e146102b257806342966c68146102ce576101a9565b806301ffc9a7146101ae57806306fdde03146101de578063081812fc146101fc578063095ea7b31461022c57806318160ddd1461024857806323b872dd14610266575b600080fd5b6101c860048036038101906101c3919061274a565b61052c565b6040516101d59190612792565b60405180910390f35b6101e66105be565b6040516101f39190612846565b60405180910390f35b6102166004803603810190610211919061289e565b61064c565b604051610223919061290c565b60405180910390f35b61024660048036038101906102419190612953565b61067f565b005b610250610869565b60405161025d91906129a2565b60405180910390f35b610280600480360381019061027b91906129bd565b610873565b005b61029c60048036038101906102979190612a10565b610d2a565b6040516102a991906129a2565b60405180910390f35b6102cc60048036038101906102c791906129bd565b610df9565b005b6102e860048036038101906102e3919061289e565b610e90565b005b61030460048036038101906102ff9190612b72565b610f36565b005b610320600480360381019061031b9190612bf9565b610f50565b005b61033c6004803603810190610337919061289e565b611007565b604051610349919061290c565b60405180910390f35b61036c60048036038101906103679190612a10565b61103a565b60405161037991906129a2565b60405180910390f35b61038a6110fd565b6040516103979190612846565b60405180910390f35b6103ba60048036038101906103b59190612a10565b61118b565b005b6103d660048036038101906103d19190612a10565b6112e1565b6040516103e391906129a2565b60405180910390f35b6103f46112f9565b005b6103fe61138c565b005b61040861147b565b604051610415919061290c565b60405180910390f35b6104266114a5565b6040516104339190612846565b60405180910390f35b61045660048036038101906104519190612c78565b611533565b005b610472600480360381019061046d9190612d59565b611630565b005b61047c6116c9565b60405161048991906129a2565b60405180910390f35b6104ac60048036038101906104a7919061289e565b6116d3565b6040516104b99190612846565b60405180910390f35b6104dc60048036038101906104d79190612ddc565b6117a1565b6040516104e99190612792565b60405180910390f35b61050c60048036038101906105079190612a10565b6117d0565b005b6105166118ca565b604051610523919061290c565b60405180910390f35b60006301ffc9a760e01b827bffffffffffffffffffffffffffffffffffffffffffffffffffffffff1916148061058757506380ac58cd60e01b827bffffffffffffffffffffffffffffffffffffffffffffffffffffffff1916145b806105b75750635b5e139f60e01b827bffffffffffffffffffffffffffffffffffffffffffffffffffffffff1916145b9050919050565b600080546105cb90612e4b565b80601f01602080910402602001604051908101604052809291908181526020018280546105f790612e4b565b80156106445780601f1061061957610100808354040283529160200191610644565b820191906000526020600020905b81548152906001019060200180831161062757829003601f168201915b505050505081565b60056020528060005260406000206000915054906101000a900473ffffffffffffffffffffffffffffffffffffffff1681565b60006004600083815260200190815260200160002060009054906101000a900473ffffffffffffffffffffffffffffffffffffffff1690508073ffffffffffffffffffffffffffffffffffffffff163373ffffffffffffffffffffffffffffffffffffffff1614158015610780575060001515600660008373ffffffffffffffffffffffffffffffffffffffff1673ffffffffffffffffffffffffffffffffffffffff16815260200190815260200160002060003373ffffffffffffffffffffffffffffffffffffffff1673ffffffffffffffffffffffffffffffffffffffff16815260200190815260200160002060009054906101000a900460ff161515145b156107b7576040517fea8e4eb500000000000000000000000000000000000000000000000000000000815260040160405180910390fd5b826005600084815260200190815260200160002060006101000a81548173ffffffffffffffffffffffffffffffffffffffff021916908373ffffffffffffffffffffffffffffffffffffffff160217905550818373ffffffffffffffffffffffffffffffffffffffff168273ffffffffffffffffffffffffffffffffffffffff167f8c5be1e5ebec7d5bd14f71427d1e84f3dd0314c0f7b2291e5b200ac8c7c3b92560405160405180910390a4505050565b6000600954905090565b3373ffffffffffffffffffffffffffffffffffffffff16600860009054906101000a900473ffffffffffffffffffffffffffffffffffffffff1673ffffffffffffffffffffffffffffffffffffffff16146108fa576040517f1d2e3cc600000000000000000000000000000000000000000000000000000000815260040160405180910390fd5b6004600082815260200190815260200160002060009054906101000a900473ffffffffffffffffffffffffffffffffffffffff1673ffffffffffffffffffffffffffffffffffffffff168373ffffffffffffffffffffffffffffffffffffffff1614610992576040517f2099424200000000000000000000000000000000000000000000000000000000815260040160405180910390fd5b600073ffffffffffffffffffffffffffffffffffffffff168273ffffffffffffffffffffffffffffffffffffffff1614156109f9576040517f9c8d2cd200000000000000000000000000000000000000000000000000000000815260040160405180910390fd5b8273ffffffffffffffffffffffffffffffffffffffff163373ffffffffffffffffffffffffffffffffffffffff1614158015610ac2575060001515600660008573ffffffffffffffffffffffffffffffffffffffff1673ffffffffffffffffffffffffffffffffffffffff16815260200190815260200160002060003373ffffffffffffffffffffffffffffffffffffffff1673ffffffffffffffffffffffffffffffffffffffff16815260200190815260200160002060009054906101000a900460ff161515145b8015610b2d57506005600082815260200190815260200160002060009054906101000a900473ffffffffffffffffffffffffffffffffffffffff1673ffffffffffffffffffffffffffffffffffffffff163373ffffffffffffffffffffffffffffffffffffffff1614155b8015610b6c5750610b3c6118ca565b73ffffffffffffffffffffffffffffffffffffffff163373ffffffffffffffffffffffffffffffffffffffff1614155b15610ba3576040517fea8e4eb500000000000000000000000000000000000000000000000000000000815260040160405180910390fd5b600360008473ffffffffffffffffffffffffffffffffffffffff1673ffffffffffffffffffffffffffffffffffffffff1681526020019081526020016000206000815480929190600190039190505550600360008373ffffffffffffffffffffffffffffffffffffffff1673ffffffffffffffffffffffffffffffffffffffff16815260200190815260200160002060008154809291906001019190505550816004600083815260200190815260200160002060006101000a81548173ffffffffffffffffffffffffffffffffffffffff021916908373ffffffffffffffffffffffffffffffffffffffff1602179055506005600082815260200190815260200160002060006101000a81549073ffffffffffffffffffffffffffffffffffffffff0219169055808273ffffffffffffffffffffffffffffffffffffffff168473ffffffffffffffffffffffffffffffffffffffff167fddf252ad1be2c89b69c2b068fc378daa952ba7f163c4a11628f55a4df523b3ef60405160405180910390a4505050565b60003373ffffffffffffffffffffffffffffffffffffffff16600860009054906101000a900473ffffffffffffffffffffffffffffffffffffffff1673ffffffffffffffffffffffffffffffffffffffff1614610db3576040517f1d2e3cc600000000000000000000000000000000000000000000000000000000815260040160405180910390fd5b610dbf82600a546118f4565b600a549050600a6000815480929190610dd790612eac565b919050555060096000815480929190610def90612eac565b9190505550919050565b3373ffffffffffffffffffffffffffffffffffffffff16600860009054906101000a900473ffffffffffffffffffffffffffffffffffffffff1673ffffffffffffffffffffffffffffffffffffffff1614610e80576040517f1d2e3cc600000000000000000000000000000000000000000000000000000000815260040160405180910390fd5b610e8b838383611a26565b505050565b3373ffffffffffffffffffffffffffffffffffffffff16600860009054906101000a900473ffffffffffffffffffffffffffffffffffffffff1673ffffffffffffffffffffffffffffffffffffffff1614610f17576040517f1d2e3cc600000000000000000000000000000000000000000000000000000000815260040160405180910390fd5b610f2081611b59565b6009600081548092919060019003919050555050565b8060029080519060200190610f4c92919061263b565b5050565b3373ffffffffffffffffffffffffffffffffffffffff16600760009054906101000a900473ffffffffffffffffffffffffffffffffffffffff1673ffffffffffffffffffffffffffffffffffffffff1614610fd7576040517f6db2465f00000000000000000000000000000000000000000000000000000000815260040160405180910390fd5b61100281838573ffffffffffffffffffffffffffffffffffffffff16611d149092919063ffffffff16565b505050565b60046020528060005260406000206000915054906101000a900473ffffffffffffffffffffffffffffffffffffffff1681565b60003373ffffffffffffffffffffffffffffffffffffffff16600860009054906101000a900473ffffffffffffffffffffffffffffffffffffffff1673ffffffffffffffffffffffffffffffffffffffff16146110c3576040517f1d2e3cc600000000000000000000000000000000000000000000000000000000815260040160405180910390fd5b6110cf82600a54611d9a565b600a549050600a60008154809291906001019190505550600960008154809291906001019190505550919050565b6002805461110a90612e4b565b80601f016020809104026020016040519081016040528092919081815260200182805461113690612e4b565b80156111835780601f1061115857610100808354040283529160200191611183565b820191906000526020600020905b81548152906001019060200180831161116657829003601f168201915b505050505081565b3373ffffffffffffffffffffffffffffffffffffffff16600760009054906101000a900473ffffffffffffffffffffffffffffffffffffffff1673ffffffffffffffffffffffffffffffffffffffff161415801561123757503373ffffffffffffffffffffffffffffffffffffffff16600860009054906101000a900473ffffffffffffffffffffffffffffffffffffffff1673ffffffffffffffffffffffffffffffffffffffff1614155b1561126e576040517f488a4f6700000000000000000000000000000000000000000000000000000000815260040160405180910390fd5b600073ffffffffffffffffffffffffffffffffffffffff168173ffffffffffffffffffffffffffffffffffffffff1614156112d5576040517f0e43b2ee00000000000000000000000000000000000000000000000000000000815260040160405180910390fd5b6112de81611f9b565b50565b60036020528060005260406000206000915090505481565b3373ffffffffffffffffffffffffffffffffffffffff16600760009054906101000a900473ffffffffffffffffffffffffffffffffffffffff1673ffffffffffffffffffffffffffffffffffffffff1614611380576040517f6db2465f00000000000000000000000000000000000000000000000000000000815260040160405180910390fd5b61138a6000612061565b565b3373ffffffffffffffffffffffffffffffffffffffff16600760009054906101000a900473ffffffffffffffffffffffffffffffffffffffff1673ffffffffffffffffffffffffffffffffffffffff161415801561143857503373ffffffffffffffffffffffffffffffffffffffff16600860009054906101000a900473ffffffffffffffffffffffffffffffffffffffff1673ffffffffffffffffffffffffffffffffffffffff1614155b1561146f576040517f488a4f6700000000000000000000000000000000000000000000000000000000815260040160405180910390fd5b6114796000611f9b565b565b6000600760009054906101000a900473ffffffffffffffffffffffffffffffffffffffff16905090565b600180546114b290612e4b565b80601f01602080910402602001604051908101604052809291908181526020018280546114de90612e4b565b801561152b5780601f106115005761010080835404028352916020019161152b565b820191906000526020600020905b81548152906001019060200180831161150e57829003601f168201915b505050505081565b80600660003373ffffffffffffffffffffffffffffffffffffffff1673ffffffffffffffffffffffffffffffffffffffff16815260200190815260200160002060008473ffffffffffffffffffffffffffffffffffffffff1673ffffffffffffffffffffffffffffffffffffffff16815260200190815260200160002060006101000a81548160ff0219169083151502179055508173ffffffffffffffffffffffffffffffffffffffff163373ffffffffffffffffffffffffffffffffffffffff167f17307eab39ab6107e8899845ad3d59bd9653f200f220920489ca2b5937696c31836040516116249190612792565b60405180910390a35050565b3373ffffffffffffffffffffffffffffffffffffffff16600860009054906101000a900473ffffffffffffffffffffffffffffffffffffffff1673ffffffffffffffffffffffffffffffffffffffff16146116b7576040517f1d2e3cc600000000000000000000000000000000000000000000000000000000815260040160405180910390fd5b6116c384848484612127565b50505050565b6000600a54905090565b6060600073ffffffffffffffffffffffffffffffffffffffff166004600084815260200190815260200160002060009054906101000a900473ffffffffffffffffffffffffffffffffffffffff1673ffffffffffffffffffffffffffffffffffffffff16141561176f576040517f4d5e5fb300000000000000000000000000000000000000000000000000000000815260040160405180910390fd5b600261177a8361225d565b60405160200161178b92919061305d565b6040516020818303038152906040529050919050565b60066020528160005260406000206020528060005260406000206000915091509054906101000a900460ff1681565b3373ffffffffffffffffffffffffffffffffffffffff16600760009054906101000a900473ffffffffffffffffffffffffffffffffffffffff1673ffffffffffffffffffffffffffffffffffffffff1614611857576040517f6db2465f00000000000000000000000000000000000000000000000000000000815260040160405180910390fd5b600073ffffffffffffffffffffffffffffffffffffffff168173ffffffffffffffffffffffffffffffffffffffff1614156118be576040517f7448fbae00000000000000000000000000000000000000000000000000000000815260040160405180910390fd5b6118c781612061565b50565b6000600860009054906101000a900473ffffffffffffffffffffffffffffffffffffffff16905090565b6118fe8282611d9a565b60008273ffffffffffffffffffffffffffffffffffffffff163b141580156119eb575063150b7a0260e01b7bffffffffffffffffffffffffffffffffffffffffffffffffffffffff19168273ffffffffffffffffffffffffffffffffffffffff1663150b7a02336000856040518463ffffffff1660e01b8152600401611986939291906130ce565b6020604051808303816000875af11580156119a5573d6000803e3d6000fd5b505050506040513d601f19601f820116820180604052508101906119c9919061312d565b7bffffffffffffffffffffffffffffffffffffffffffffffffffffffff191614155b15611a22576040517f3da6393100000000000000000000000000000000000000000000000000000000815260040160405180910390fd5b5050565b611a31838383610873565b60008273ffffffffffffffffffffffffffffffffffffffff163b14158015611b1d575063150b7a0260e01b7bffffffffffffffffffffffffffffffffffffffffffffffffffffffff19168273ffffffffffffffffffffffffffffffffffffffff1663150b7a023386856040518463ffffffff1660e01b8152600401611ab8939291906130ce565b6020604051808303816000875af1158015611ad7573d6000803e3d6000fd5b505050506040513d601f19601f82011682018060405250810190611afb919061312d565b7bffffffffffffffffffffffffffffffffffffffffffffffffffffffff191614155b15611b54576040517f3da6393100000000000000000000000000000000000000000000000000000000815260040160405180910390fd5b505050565b60006004600083815260200190815260200160002060009054906101000a900473ffffffffffffffffffffffffffffffffffffffff169050600073ffffffffffffffffffffffffffffffffffffffff168173ffffffffffffffffffffffffffffffffffffffff161415611bf8576040517f4d5e5fb300000000000000000000000000000000000000000000000000000000815260040160405180910390fd5b600360008273ffffffffffffffffffffffffffffffffffffffff1673ffffffffffffffffffffffffffffffffffffffff16815260200190815260200160002060008154809291906001900391905055506004600083815260200190815260200160002060006101000a81549073ffffffffffffffffffffffffffffffffffffffff02191690556005600083815260200190815260200160002060006101000a81549073ffffffffffffffffffffffffffffffffffffffff021916905581600073ffffffffffffffffffffffffffffffffffffffff168273ffffffffffffffffffffffffffffffffffffffff167fddf252ad1be2c89b69c2b068fc378daa952ba7f163c4a11628f55a4df523b3ef60405160405180910390a45050565b611d958363a9059cbb60e01b8484604051602401611d3392919061315a565b604051602081830303815290604052907bffffffffffffffffffffffffffffffffffffffffffffffffffffffff19166020820180517bffffffffffffffffffffffffffffffffffffffffffffffffffffffff83818316178352505050506123be565b505050565b600073ffffffffffffffffffffffffffffffffffffffff168273ffffffffffffffffffffffffffffffffffffffff161415611e01576040517f9c8d2cd200000000000000000000000000000000000000000000000000000000815260040160405180910390fd5b600073ffffffffffffffffffffffffffffffffffffffff166004600083815260200190815260200160002060009054906101000a900473ffffffffffffffffffffffffffffffffffffffff1673ffffffffffffffffffffffffffffffffffffffff1614611e9a576040517fddefae2800000000000000000000000000000000000000000000000000000000815260040160405180910390fd5b600360008373ffffffffffffffffffffffffffffffffffffffff1673ffffffffffffffffffffffffffffffffffffffff16815260200190815260200160002060008154809291906001019190505550816004600083815260200190815260200160002060006101000a81548173ffffffffffffffffffffffffffffffffffffffff021916908373ffffffffffffffffffffffffffffffffffffffff160217905550808273ffffffffffffffffffffffffffffffffffffffff16600073ffffffffffffffffffffffffffffffffffffffff167fddf252ad1be2c89b69c2b068fc378daa952ba7f163c4a11628f55a4df523b3ef60405160405180910390a45050565b6000600860009054906101000a900473ffffffffffffffffffffffffffffffffffffffff16905081600860006101000a81548173ffffffffffffffffffffffffffffffffffffffff021916908373ffffffffffffffffffffffffffffffffffffffff1602179055508173ffffffffffffffffffffffffffffffffffffffff168173ffffffffffffffffffffffffffffffffffffffff167fa06677f7b64342b4bcbde423684dbdb5356acfe41ad0285b6ecbe6dc4bf427f260405160405180910390a35050565b6000600760009054906101000a900473ffffffffffffffffffffffffffffffffffffffff16905081600760006101000a81548173ffffffffffffffffffffffffffffffffffffffff021916908373ffffffffffffffffffffffffffffffffffffffff1602179055508173ffffffffffffffffffffffffffffffffffffffff168173ffffffffffffffffffffffffffffffffffffffff167f8be0079c531659141344cd1fd0a4f28419497f9722a3daafe3b4186f6b6457e060405160405180910390a35050565b612132848484610873565b60008373ffffffffffffffffffffffffffffffffffffffff163b14158015612220575063150b7a0260e01b7bffffffffffffffffffffffffffffffffffffffffffffffffffffffff19168373ffffffffffffffffffffffffffffffffffffffff1663150b7a02338786866040518563ffffffff1660e01b81526004016121bb94939291906131c7565b6020604051808303816000875af11580156121da573d6000803e3d6000fd5b505050506040513d601f19601f820116820180604052508101906121fe919061312d565b7bffffffffffffffffffffffffffffffffffffffffffffffffffffffff191614155b15612257576040517f3da6393100000000000000000000000000000000000000000000000000000000815260040160405180910390fd5b50505050565b606060008214156122a5576040518060400160405280600181526020017f300000000000000000000000000000000000000000000000000000000000000081525090506123b9565b600082905060005b600082146122d75780806122c090612eac565b915050600a826122d09190613242565b91506122ad565b60008167ffffffffffffffff8111156122f3576122f2612a47565b5b6040519080825280601f01601f1916602001820160405280156123255781602001600182028036833780820191505090505b5090505b600085146123b25760018261233e9190613273565b9150600a8561234d91906132a7565b603061235991906132d8565b60f81b81838151811061236f5761236e61332e565b5b60200101907effffffffffffffffffffffffffffffffffffffffffffffffffffffffffffff1916908160001a905350600a856123ab9190613242565b9450612329565b8093505050505b919050565b6000612420826040518060400160405280602081526020017f5361666545524332303a206c6f772d6c6576656c2063616c6c206661696c65648152508573ffffffffffffffffffffffffffffffffffffffff166124859092919063ffffffff16565b905060008151111561248057808060200190518101906124409190613372565b61247f576040517f08c379a000000000000000000000000000000000000000000000000000000000815260040161247690613411565b60405180910390fd5b5b505050565b6060612494848460008561249d565b90509392505050565b6060824710156124e2576040517f08c379a00000000000000000000000000000000000000000000000000000000081526004016124d9906134a3565b60405180910390fd5b6124eb856125b1565b61252a576040517f08c379a00000000000000000000000000000000000000000000000000000000081526004016125219061350f565b60405180910390fd5b6000808673ffffffffffffffffffffffffffffffffffffffff168587604051612553919061356b565b60006040518083038185875af1925050503d8060008114612590576040519150601f19603f3d011682016040523d82523d6000602084013e612595565b606091505b50915091506125a58282866125d4565b92505050949350505050565b6000808273ffffffffffffffffffffffffffffffffffffffff163b119050919050565b606083156125e457829050612634565b6000835111156125f75782518084602001fd5b816040517f08c379a000000000000000000000000000000000000000000000000000000000815260040161262b9190612846565b60405180910390fd5b9392505050565b82805461264790612e4b565b90600052602060002090601f01602090048101928261266957600085556126b0565b82601f1061268257805160ff19168380011785556126b0565b828001600101855582156126b0579182015b828111156126af578251825591602001919060010190612694565b5b5090506126bd91906126c1565b5090565b5b808211156126da5760008160009055506001016126c2565b5090565b6000604051905090565b600080fd5b600080fd5b60007fffffffff0000000000000000000000000000000000000000000000000000000082169050919050565b612727816126f2565b811461273257600080fd5b50565b6000813590506127448161271e565b92915050565b6000602082840312156127605761275f6126e8565b5b600061276e84828501612735565b91505092915050565b60008115159050919050565b61278c81612777565b82525050565b60006020820190506127a76000830184612783565b92915050565b600081519050919050565b600082825260208201905092915050565b60005b838110156127e75780820151818401526020810190506127cc565b838111156127f6576000848401525b50505050565b6000601f19601f8301169050919050565b6000612818826127ad565b61282281856127b8565b93506128328185602086016127c9565b61283b816127fc565b840191505092915050565b60006020820190508181036000830152612860818461280d565b905092915050565b6000819050919050565b61287b81612868565b811461288657600080fd5b50565b60008135905061289881612872565b92915050565b6000602082840312156128b4576128b36126e8565b5b60006128c284828501612889565b91505092915050565b600073ffffffffffffffffffffffffffffffffffffffff82169050919050565b60006128f6826128cb565b9050919050565b612906816128eb565b82525050565b600060208201905061292160008301846128fd565b92915050565b612930816128eb565b811461293b57600080fd5b50565b60008135905061294d81612927565b92915050565b6000806040838503121561296a576129696126e8565b5b60006129788582860161293e565b925050602061298985828601612889565b9150509250929050565b61299c81612868565b82525050565b60006020820190506129b76000830184612993565b92915050565b6000806000606084860312156129d6576129d56126e8565b5b60006129e48682870161293e565b93505060206129f58682870161293e565b9250506040612a0686828701612889565b9150509250925092565b600060208284031215612a2657612a256126e8565b5b6000612a348482850161293e565b91505092915050565b600080fd5b600080fd5b7f4e487b7100000000000000000000000000000000000000000000000000000000600052604160045260246000fd5b612a7f826127fc565b810181811067ffffffffffffffff82111715612a9e57612a9d612a47565b5b80604052505050565b6000612ab16126de565b9050612abd8282612a76565b919050565b600067ffffffffffffffff821115612add57612adc612a47565b5b612ae6826127fc565b9050602081019050919050565b82818337600083830152505050565b6000612b15612b1084612ac2565b612aa7565b905082815260208101848484011115612b3157612b30612a42565b5b612b3c848285612af3565b509392505050565b600082601f830112612b5957612b58612a3d565b5b8135612b69848260208601612b02565b91505092915050565b600060208284031215612b8857612b876126e8565b5b600082013567ffffffffffffffff811115612ba657612ba56126ed565b5b612bb284828501612b44565b91505092915050565b6000612bc6826128eb565b9050919050565b612bd681612bbb565b8114612be157600080fd5b50565b600081359050612bf381612bcd565b92915050565b600080600060608486031215612c1257612c116126e8565b5b6000612c2086828701612be4565b9350506020612c3186828701612889565b9250506040612c428682870161293e565b9150509250925092565b612c5581612777565b8114612c6057600080fd5b50565b600081359050612c7281612c4c565b92915050565b60008060408385031215612c8f57612c8e6126e8565b5b6000612c9d8582860161293e565b9250506020612cae85828601612c63565b9150509250929050565b600067ffffffffffffffff821115612cd357612cd2612a47565b5b612cdc826127fc565b9050602081019050919050565b6000612cfc612cf784612cb8565b612aa7565b905082815260208101848484011115612d1857612d17612a42565b5b612d23848285612af3565b509392505050565b600082601f830112612d4057612d3f612a3d565b5b8135612d50848260208601612ce9565b91505092915050565b60008060008060808587031215612d7357612d726126e8565b5b6000612d818782880161293e565b9450506020612d928782880161293e565b9350506040612da387828801612889565b925050606085013567ffffffffffffffff811115612dc457612dc36126ed565b5b612dd087828801612d2b565b91505092959194509250565b60008060408385031215612df357612df26126e8565b5b6000612e018582860161293e565b9250506020612e128582860161293e565b9150509250929050565b7f4e487b7100000000000000000000000000000000000000000000000000000000600052602260045260246000fd5b60006002820490506001821680612e6357607f821691505b60208210811415612e7757612e76612e1c565b5b50919050565b7f4e487b7100000000000000000000000000000000000000000000000000000000600052601160045260246000fd5b6000612eb782612868565b91507fffffffffffffffffffffffffffffffffffffffffffffffffffffffffffffffff821415612eea57612ee9612e7d565b5b600182019050919050565b600081905092915050565b60008190508160005260206000209050919050565b60008154612f2281612e4b565b612f2c8186612ef5565b94506001821660008114612f475760018114612f5857612f8b565b60ff19831686528186019350612f8b565b612f6185612f00565b60005b83811015612f8357815481890152600182019150602081019050612f64565b838801955050505b50505092915050565b7f2f00000000000000000000000000000000000000000000000000000000000000600082015250565b6000612fca600183612ef5565b9150612fd582612f94565b600182019050919050565b6000612feb826127ad565b612ff58185612ef5565b93506130058185602086016127c9565b80840191505092915050565b7f2e6a736f6e000000000000000000000000000000000000000000000000000000600082015250565b6000613047600583612ef5565b915061305282613011565b600582019050919050565b60006130698285612f15565b915061307482612fbd565b91506130808284612fe0565b915061308b8261303a565b91508190509392505050565b600082825260208201905092915050565b50565b60006130b8600083613097565b91506130c3826130a8565b600082019050919050565b60006080820190506130e360008301866128fd565b6130f060208301856128fd565b6130fd6040830184612993565b818103606083015261310e816130ab565b9050949350505050565b6000815190506131278161271e565b92915050565b600060208284031215613143576131426126e8565b5b600061315184828501613118565b91505092915050565b600060408201905061316f60008301856128fd565b61317c6020830184612993565b9392505050565b600081519050919050565b600061319982613183565b6131a38185613097565b93506131b38185602086016127c9565b6131bc816127fc565b840191505092915050565b60006080820190506131dc60008301876128fd565b6131e960208301866128fd565b6131f66040830185612993565b8181036060830152613208818461318e565b905095945050505050565b7f4e487b7100000000000000000000000000000000000000000000000000000000600052601260045260246000fd5b600061324d82612868565b915061325883612868565b92508261326857613267613213565b5b828204905092915050565b600061327e82612868565b915061328983612868565b92508282101561329c5761329b612e7d565b5b828203905092915050565b60006132b282612868565b91506132bd83612868565b9250826132cd576132cc613213565b5b828206905092915050565b60006132e382612868565b91506132ee83612868565b9250827fffffffffffffffffffffffffffffffffffffffffffffffffffffffffffffffff0382111561332357613322612e7d565b5b828201905092915050565b7f4e487b7100000000000000000000000000000000000000000000000000000000600052603260045260246000fd5b60008151905061336c81612c4c565b92915050565b600060208284031215613388576133876126e8565b5b60006133968482850161335d565b91505092915050565b7f5361666545524332303a204552433230206f7065726174696f6e20646964206e60008201527f6f74207375636365656400000000000000000000000000000000000000000000602082015250565b60006133fb602a836127b8565b91506134068261339f565b604082019050919050565b6000602082019050818103600083015261342a816133ee565b9050919050565b7f416464726573733a20696e73756666696369656e742062616c616e636520666f60008201527f722063616c6c0000000000000000000000000000000000000000000000000000602082015250565b600061348d6026836127b8565b915061349882613431565b604082019050919050565b600060208201905081810360008301526134bc81613480565b9050919050565b7f416464726573733a2063616c6c20746f206e6f6e2d636f6e7472616374000000600082015250565b60006134f9601d836127b8565b9150613504826134c3565b602082019050919050565b60006020820190508181036000830152613528816134ec565b9050919050565b600081905092915050565b600061354582613183565b61354f818561352f565b935061355f8185602086016127c9565b80840191505092915050565b6000613577828461353a565b91508190509291505056fea26469706673582212202ac5d025af3a3336780420a73e249d47849e54f538024112d3ccc0b82eea362164736f6c634300080a0033",
  "linkReferences": {},
  "deployedLinkReferences": {}
}