{
  "_format": "hh-sol-artifact-1",
  "contractName": "PassportIssuer",
  "sourceName": "contracts/PassportIssuer.sol",
  "abi": [
    {
      "inputs": [],
      "name": "AlreadyIssued",
      "type": "error"
    },
    {
      "inputs": [],
      "name": "IssuanceIsDisabled",
      "type": "error"
    },
    {
      "inputs": [],
      "name": "UnfinishedLockingPeriod",
      "type": "error"
    },
    {
      "anonymous": false,
      "inputs": [
        {
          "indexed": true,
          "internalType": "address",
          "name": "previousOwner",
          "type": "address"
        },
        {
          "indexed": true,
          "internalType": "address",
          "name": "newOwner",
          "type": "address"
        }
      ],
      "name": "OwnershipTransferred",
      "type": "event"
    },
    {
      "inputs": [],
      "name": "enabled",
      "outputs": [
        {
          "internalType": "bool",
          "name": "",
          "type": "bool"
        }
      ],
      "stateMutability": "view",
      "type": "function"
    },
    {
      "inputs": [
        {
          "internalType": "contract IERC20",
          "name": "_lockToken",
          "type": "address"
        },
        {
          "internalType": "contract PassportNFT",
          "name": "_passToken",
          "type": "address"
        }
      ],
      "name": "initialize",
      "outputs": [],
      "stateMutability": "nonpayable",
      "type": "function"
    },
    {
      "inputs": [],
      "name": "lockToken",
      "outputs": [
        {
          "internalType": "contract IERC20",
          "name": "",
          "type": "address"
        }
      ],
      "stateMutability": "view",
      "type": "function"
    },
    {
      "inputs": [],
      "name": "lockingAmount",
      "outputs": [
        {
          "internalType": "uint256",
          "name": "",
          "type": "uint256"
        }
      ],
      "stateMutability": "view",
      "type": "function"
    },
    {
      "inputs": [
        {
          "internalType": "address",
          "name": "",
          "type": "address"
        }
      ],
      "name": "lockingBalance",
      "outputs": [
        {
          "internalType": "uint256",
          "name": "",
          "type": "uint256"
        }
      ],
      "stateMutability": "view",
      "type": "function"
    },
    {
      "inputs": [
        {
          "internalType": "address",
          "name": "",
          "type": "address"
        }
      ],
      "name": "lockingEndBlock",
      "outputs": [
        {
          "internalType": "uint256",
          "name": "",
          "type": "uint256"
        }
      ],
      "stateMutability": "view",
      "type": "function"
    },
    {
      "inputs": [],
      "name": "lockingPeriod",
      "outputs": [
        {
          "internalType": "uint256",
          "name": "",
          "type": "uint256"
        }
      ],
      "stateMutability": "view",
      "type": "function"
    },
    {
      "inputs": [
        {
          "internalType": "address",
          "name": "to",
          "type": "address"
        }
      ],
      "name": "migrateIssuance",
      "outputs": [],
      "stateMutability": "nonpayable",
      "type": "function"
    },
    {
      "inputs": [],
      "name": "owner",
      "outputs": [
        {
          "internalType": "address",
          "name": "",
          "type": "address"
        }
      ],
      "stateMutability": "view",
      "type": "function"
    },
    {
      "inputs": [],
      "name": "passToken",
      "outputs": [
        {
          "internalType": "contract PassportNFT",
          "name": "",
          "type": "address"
        }
      ],
      "stateMutability": "view",
      "type": "function"
    },
    {
      "inputs": [],
      "name": "release",
      "outputs": [],
      "stateMutability": "nonpayable",
      "type": "function"
    },
    {
      "inputs": [],
      "name": "renounceOwnership",
      "outputs": [],
      "stateMutability": "nonpayable",
      "type": "function"
    },
    {
      "inputs": [],
      "name": "secure",
      "outputs": [],
      "stateMutability": "nonpayable",
      "type": "function"
    },
    {
      "inputs": [
        {
          "internalType": "bool",
          "name": "status",
          "type": "bool"
        }
      ],
      "name": "setEnabled",
      "outputs": [],
      "stateMutability": "nonpayable",
      "type": "function"
    },
    {
      "inputs": [
        {
          "internalType": "uint256",
          "name": "_lockingAmount",
          "type": "uint256"
        },
        {
          "internalType": "uint256",
          "name": "_lockingPeriod",
          "type": "uint256"
        }
      ],
      "name": "setLockingParams",
      "outputs": [],
      "stateMutability": "nonpayable",
      "type": "function"
    },
    {
      "inputs": [
        {
          "internalType": "address",
          "name": "newOwner",
          "type": "address"
        }
      ],
      "name": "transferOwnership",
      "outputs": [],
      "stateMutability": "nonpayable",
      "type": "function"
    }
  ],
  "bytecode": "0x60806040526001600560006101000a81548160ff02191690831515021790555034801561002b57600080fd5b5061004861003d61004d60201b60201c565b61005560201b60201c565b61011a565b600033905090565b60008060029054906101000a900473ffffffffffffffffffffffffffffffffffffffff16905081600060026101000a81548173ffffffffffffffffffffffffffffffffffffffff021916908373ffffffffffffffffffffffffffffffffffffffff1602179055508173ffffffffffffffffffffffffffffffffffffffff168173ffffffffffffffffffffffffffffffffffffffff167f8be0079c531659141344cd1fd0a4f28419497f9722a3daafe3b4186f6b6457e060405160405180910390a35050565b611a7d806101296000396000f3fe608060405234801561001057600080fd5b50600436106101005760003560e01c80639016100a11610097578063ccab0c4111610066578063ccab0c411461023d578063da1cc4181461026d578063f2fde38b14610289578063fecfdff7146102a557610100565b80639016100a146101c957806395ace238146101f9578063b69fcd5d14610215578063bca7a9e21461021f57610100565b8063550066d5116100d3578063550066d514610179578063715018a61461019757806386d1a69f146101a15780638da5cb5b146101ab57610100565b8063238dafe01461010557806325ab292e14610123578063328d8f7214610141578063485cc9551461015d575b600080fd5b61010d6102c3565b60405161011a9190611165565b60405180910390f35b61012b6102d6565b6040516101389190611199565b60405180910390f35b61015b600480360381019061015691906111e5565b6102dc565b005b610177600480360381019061017291906112c0565b610375565b005b6101816104dd565b60405161018e9190611199565b60405180910390f35b61019f6104e3565b005b6101a961056b565b005b6101b3610700565b6040516101c0919061130f565b60405180910390f35b6101e360048036038101906101de9190611356565b610729565b6040516101f09190611199565b60405180910390f35b610213600480360381019061020e9190611356565b610741565b005b61021d6107c0565b005b6102276109d6565b60405161023491906113e2565b60405180910390f35b61025760048036038101906102529190611356565b6109fc565b6040516102649190611199565b60405180910390f35b61028760048036038101906102829190611429565b610a14565b005b6102a3600480360381019061029e9190611356565b610aa2565b005b6102ad610b9a565b6040516102ba919061148a565b60405180910390f35b600560009054906101000a900460ff1681565b60035481565b6102e4610bc0565b73ffffffffffffffffffffffffffffffffffffffff16610302610700565b73ffffffffffffffffffffffffffffffffffffffff1614610358576040517f08c379a000000000000000000000000000000000000000000000000000000000815260040161034f90611502565b60405180910390fd5b80600560006101000a81548160ff02191690831515021790555050565b600060019054906101000a900460ff1661039d5760008054906101000a900460ff16156103a6565b6103a5610bc8565b5b6103e5576040517f08c379a00000000000000000000000000000000000000000000000000000000081526004016103dc90611594565b60405180910390fd5b60008060019054906101000a900460ff161590508015610435576001600060016101000a81548160ff02191690831515021790555060016000806101000a81548160ff0219169083151502179055505b82600160006101000a81548173ffffffffffffffffffffffffffffffffffffffff021916908373ffffffffffffffffffffffffffffffffffffffff16021790555081600260006101000a81548173ffffffffffffffffffffffffffffffffffffffff021916908373ffffffffffffffffffffffffffffffffffffffff16021790555080156104d85760008060016101000a81548160ff0219169083151502179055505b505050565b60045481565b6104eb610bc0565b73ffffffffffffffffffffffffffffffffffffffff16610509610700565b73ffffffffffffffffffffffffffffffffffffffff161461055f576040517f08c379a000000000000000000000000000000000000000000000000000000000815260040161055690611502565b60405180910390fd5b6105696000610bd9565b565b600760003373ffffffffffffffffffffffffffffffffffffffff1673ffffffffffffffffffffffffffffffffffffffff1681526020019081526020016000205443116105e3576040517f031eaf2700000000000000000000000000000000000000000000000000000000815260040160405180910390fd5b6105ec33610c9e565b61067833600660003373ffffffffffffffffffffffffffffffffffffffff1673ffffffffffffffffffffffffffffffffffffffff16815260200190815260200160002054600160009054906101000a900473ffffffffffffffffffffffffffffffffffffffff1673ffffffffffffffffffffffffffffffffffffffff16610d2e9092919063ffffffff16565b600660003373ffffffffffffffffffffffffffffffffffffffff1673ffffffffffffffffffffffffffffffffffffffff16815260200190815260200160002060009055600760003373ffffffffffffffffffffffffffffffffffffffff1673ffffffffffffffffffffffffffffffffffffffff16815260200190815260200160002060009055565b60008060029054906101000a900473ffffffffffffffffffffffffffffffffffffffff16905090565b60076020528060005260406000206000915090505481565b610749610bc0565b73ffffffffffffffffffffffffffffffffffffffff16610767610700565b73ffffffffffffffffffffffffffffffffffffffff16146107bd576040517f08c379a00000000000000000000000000000000000000000000000000000000081526004016107b490611502565b60405180910390fd5b50565b60001515600560009054906101000a900460ff161515141561080e576040517f4f91148e00000000000000000000000000000000000000000000000000000000815260040160405180910390fd5b6000600260009054906101000a900473ffffffffffffffffffffffffffffffffffffffff1673ffffffffffffffffffffffffffffffffffffffff166370a08231336040518263ffffffff1660e01b815260040161086b919061130f565b602060405180830381865afa158015610888573d6000803e3d6000fd5b505050506040513d601f19601f820116820180604052508101906108ac91906115c9565b146108e3576040517fc68e50c000000000000000000000000000000000000000000000000000000000815260040160405180910390fd5b6109343330600354600160009054906101000a900473ffffffffffffffffffffffffffffffffffffffff1673ffffffffffffffffffffffffffffffffffffffff16610db4909392919063ffffffff16565b61093d33610e3d565b600354600660003373ffffffffffffffffffffffffffffffffffffffff1673ffffffffffffffffffffffffffffffffffffffff16815260200190815260200160002081905550600454436109919190611625565b600760003373ffffffffffffffffffffffffffffffffffffffff1673ffffffffffffffffffffffffffffffffffffffff16815260200190815260200160002081905550565b600160009054906101000a900473ffffffffffffffffffffffffffffffffffffffff1681565b60066020528060005260406000206000915090505481565b610a1c610bc0565b73ffffffffffffffffffffffffffffffffffffffff16610a3a610700565b73ffffffffffffffffffffffffffffffffffffffff1614610a90576040517f08c379a0000000000000000000000000000000000000000000000000000000008152600401610a8790611502565b60405180910390fd5b81600381905550806004819055505050565b610aaa610bc0565b73ffffffffffffffffffffffffffffffffffffffff16610ac8610700565b73ffffffffffffffffffffffffffffffffffffffff1614610b1e576040517f08c379a0000000000000000000000000000000000000000000000000000000008152600401610b1590611502565b60405180910390fd5b600073ffffffffffffffffffffffffffffffffffffffff168173ffffffffffffffffffffffffffffffffffffffff161415610b8e576040517f08c379a0000000000000000000000000000000000000000000000000000000008152600401610b85906116ed565b60405180910390fd5b610b9781610bd9565b50565b600260009054906101000a900473ffffffffffffffffffffffffffffffffffffffff1681565b600033905090565b6000610bd330610ecd565b15905090565b60008060029054906101000a900473ffffffffffffffffffffffffffffffffffffffff16905081600060026101000a81548173ffffffffffffffffffffffffffffffffffffffff021916908373ffffffffffffffffffffffffffffffffffffffff1602179055508173ffffffffffffffffffffffffffffffffffffffff168173ffffffffffffffffffffffffffffffffffffffff167f8be0079c531659141344cd1fd0a4f28419497f9722a3daafe3b4186f6b6457e060405160405180910390a35050565b600260009054906101000a900473ffffffffffffffffffffffffffffffffffffffff1673ffffffffffffffffffffffffffffffffffffffff16638d10af52826040518263ffffffff1660e01b8152600401610cf9919061130f565b600060405180830381600087803b158015610d1357600080fd5b505af1158015610d27573d6000803e3d6000fd5b5050505050565b610daf8363a9059cbb60e01b8484604051602401610d4d92919061170d565b604051602081830303815290604052907bffffffffffffffffffffffffffffffffffffffffffffffffffffffff19166020820180517bffffffffffffffffffffffffffffffffffffffffffffffffffffffff8381831617835250505050610ef0565b505050565b610e37846323b872dd60e01b858585604051602401610dd593929190611736565b604051602081830303815290604052907bffffffffffffffffffffffffffffffffffffffffffffffffffffffff19166020820180517bffffffffffffffffffffffffffffffffffffffffffffffffffffffff8381831617835250505050610ef0565b50505050565b600260009054906101000a900473ffffffffffffffffffffffffffffffffffffffff1673ffffffffffffffffffffffffffffffffffffffff16636a627842826040518263ffffffff1660e01b8152600401610e98919061130f565b600060405180830381600087803b158015610eb257600080fd5b505af1158015610ec6573d6000803e3d6000fd5b5050505050565b6000808273ffffffffffffffffffffffffffffffffffffffff163b119050919050565b6000610f52826040518060400160405280602081526020017f5361666545524332303a206c6f772d6c6576656c2063616c6c206661696c65648152508573ffffffffffffffffffffffffffffffffffffffff16610fb79092919063ffffffff16565b9050600081511115610fb25780806020019051810190610f729190611782565b610fb1576040517f08c379a0000000000000000000000000000000000000000000000000000000008152600401610fa890611821565b60405180910390fd5b5b505050565b6060610fc68484600085610fcf565b90509392505050565b606082471015611014576040517f08c379a000000000000000000000000000000000000000000000000000000000815260040161100b906118b3565b60405180910390fd5b61101d85610ecd565b61105c576040517f08c379a00000000000000000000000000000000000000000000000000000000081526004016110539061191f565b60405180910390fd5b6000808673ffffffffffffffffffffffffffffffffffffffff16858760405161108591906119b9565b60006040518083038185875af1925050503d80600081146110c2576040519150601f19603f3d011682016040523d82523d6000602084013e6110c7565b606091505b50915091506110d78282866110e3565b92505050949350505050565b606083156110f357829050611143565b6000835111156111065782518084602001fd5b816040517f08c379a000000000000000000000000000000000000000000000000000000000815260040161113a9190611a25565b60405180910390fd5b9392505050565b60008115159050919050565b61115f8161114a565b82525050565b600060208201905061117a6000830184611156565b92915050565b6000819050919050565b61119381611180565b82525050565b60006020820190506111ae600083018461118a565b92915050565b600080fd5b6111c28161114a565b81146111cd57600080fd5b50565b6000813590506111df816111b9565b92915050565b6000602082840312156111fb576111fa6111b4565b5b6000611209848285016111d0565b91505092915050565b600073ffffffffffffffffffffffffffffffffffffffff82169050919050565b600061123d82611212565b9050919050565b600061124f82611232565b9050919050565b61125f81611244565b811461126a57600080fd5b50565b60008135905061127c81611256565b92915050565b600061128d82611232565b9050919050565b61129d81611282565b81146112a857600080fd5b50565b6000813590506112ba81611294565b92915050565b600080604083850312156112d7576112d66111b4565b5b60006112e58582860161126d565b92505060206112f6858286016112ab565b9150509250929050565b61130981611232565b82525050565b60006020820190506113246000830184611300565b92915050565b61133381611232565b811461133e57600080fd5b50565b6000813590506113508161132a565b92915050565b60006020828403121561136c5761136b6111b4565b5b600061137a84828501611341565b91505092915050565b6000819050919050565b60006113a86113a361139e84611212565b611383565b611212565b9050919050565b60006113ba8261138d565b9050919050565b60006113cc826113af565b9050919050565b6113dc816113c1565b82525050565b60006020820190506113f760008301846113d3565b92915050565b61140681611180565b811461141157600080fd5b50565b600081359050611423816113fd565b92915050565b600080604083850312156114405761143f6111b4565b5b600061144e85828601611414565b925050602061145f85828601611414565b9150509250929050565b6000611474826113af565b9050919050565b61148481611469565b82525050565b600060208201905061149f600083018461147b565b92915050565b600082825260208201905092915050565b7f4f776e61626c653a2063616c6c6572206973206e6f7420746865206f776e6572600082015250565b60006114ec6020836114a5565b91506114f7826114b6565b602082019050919050565b6000602082019050818103600083015261151b816114df565b9050919050565b7f496e697469616c697a61626c653a20636f6e747261637420697320616c72656160008201527f647920696e697469616c697a6564000000000000000000000000000000000000602082015250565b600061157e602e836114a5565b915061158982611522565b604082019050919050565b600060208201905081810360008301526115ad81611571565b9050919050565b6000815190506115c3816113fd565b92915050565b6000602082840312156115df576115de6111b4565b5b60006115ed848285016115b4565b91505092915050565b7f4e487b7100000000000000000000000000000000000000000000000000000000600052601160045260246000fd5b600061163082611180565b915061163b83611180565b9250827fffffffffffffffffffffffffffffffffffffffffffffffffffffffffffffffff038211156116705761166f6115f6565b5b828201905092915050565b7f4f776e61626c653a206e6577206f776e657220697320746865207a65726f206160008201527f6464726573730000000000000000000000000000000000000000000000000000602082015250565b60006116d76026836114a5565b91506116e28261167b565b604082019050919050565b60006020820190508181036000830152611706816116ca565b9050919050565b60006040820190506117226000830185611300565b61172f602083018461118a565b9392505050565b600060608201905061174b6000830186611300565b6117586020830185611300565b611765604083018461118a565b949350505050565b60008151905061177c816111b9565b92915050565b600060208284031215611798576117976111b4565b5b60006117a68482850161176d565b91505092915050565b7f5361666545524332303a204552433230206f7065726174696f6e20646964206e60008201527f6f74207375636365656400000000000000000000000000000000000000000000602082015250565b600061180b602a836114a5565b9150611816826117af565b604082019050919050565b6000602082019050818103600083015261183a816117fe565b9050919050565b7f416464726573733a20696e73756666696369656e742062616c616e636520666f60008201527f722063616c6c0000000000000000000000000000000000000000000000000000602082015250565b600061189d6026836114a5565b91506118a882611841565b604082019050919050565b600060208201905081810360008301526118cc81611890565b9050919050565b7f416464726573733a2063616c6c20746f206e6f6e2d636f6e7472616374000000600082015250565b6000611909601d836114a5565b9150611914826118d3565b602082019050919050565b60006020820190508181036000830152611938816118fc565b9050919050565b600081519050919050565b600081905092915050565b60005b83811015611973578082015181840152602081019050611958565b83811115611982576000848401525b50505050565b60006119938261193f565b61199d818561194a565b93506119ad818560208601611955565b80840191505092915050565b60006119c58284611988565b915081905092915050565b600081519050919050565b6000601f19601f8301169050919050565b60006119f7826119d0565b611a0181856114a5565b9350611a11818560208601611955565b611a1a816119db565b840191505092915050565b60006020820190508181036000830152611a3f81846119ec565b90509291505056fea2646970667358221220c2a138c717e54949dd5063a4c4c38fd2b55eedf3946a671b13d381ff0c87f43164736f6c634300080a0033",
  "linkReferences": {},
  "deployedLinkReferences": {}
}