{
 "abi": [
  {
   "anonymous": false,
   "inputs": [
    {
     "indexed": false,
     "name": "admin",
     "type": "address"
    }
   ],
   "name": "CommitOwnership",
   "type": "event"
  },
  {
   "anonymous": false,
   "inputs": [
    {
     "indexed": false,
     "name": "admin",
     "type": "address"
    }
   ],
   "name": "ApplyOwnership",
   "type": "event"
  },
  {
   "anonymous": false,
   "inputs": [
    {
     "indexed": false,
     "name": "status",
     "type": "bool"
    }
   ],
   "name": "DepositsLockedChange",
   "type": "event"
  },
  {
   "anonymous": false,
   "inputs": [
    {
     "indexed": true,
     "name": "provider",
     "type": "address"
    },
    {
     "indexed": false,
     "name": "value",
     "type": "uint256"
    },
    {
     "indexed": true,
     "name": "locktime",
     "type": "uint256"
    },
    {
     "indexed": false,
     "name": "type",
     "type": "int128"
    },
    {
     "indexed": false,
     "name": "ts",
     "type": "uint256"
    }
   ],
   "name": "Deposit",
   "type": "event"
  },
  {
   "anonymous": false,
   "inputs": [
    {
     "indexed": true,
     "name": "provider",
     "type": "address"
    },
    {
     "indexed": false,
     "name": "value",
     "type": "uint256"
    },
    {
     "indexed": false,
     "name": "ts",
     "type": "uint256"
    }
   ],
   "name": "Withdraw",
   "type": "event"
  },
  {
   "anonymous": false,
   "inputs": [
    {
     "indexed": false,
     "name": "prevSupply",
     "type": "uint256"
    },
    {
     "indexed": false,
     "name": "supply",
     "type": "uint256"
    }
   ],
   "name": "Supply",
   "type": "event"
  },
  {
   "inputs": [
    {
     "name": "token_addr",
     "type": "address"
    },
    {
     "name": "_name",
     "type": "string"
    },
    {
     "name": "_symbol",
     "type": "string"
    },
    {
     "name": "_version",
     "type": "string"
    }
   ],
   "outputs": [],
   "stateMutability": "nonpayable",
   "type": "constructor"
  },
  {
   "inputs": [
    {
     "name": "addr",
     "type": "address"
    }
   ],
   "name": "commit_transfer_ownership",
   "outputs": [],
   "stateMutability": "nonpayable",
   "type": "function"
  },
  {
   "inputs": [
    {
     "name": "new_status",
     "type": "bool"
    }
   ],
   "name": "set_depositsLocked",
   "outputs": [],
   "stateMutability": "nonpayable",
   "type": "function"
  },
  {
   "inputs": [],
   "name": "apply_transfer_ownership",
   "outputs": [],
   "stateMutability": "nonpayable",
   "type": "function"
  },
  {
   "inputs": [
    {
     "name": "addr",
     "type": "address"
    }
   ],
   "name": "commit_smart_wallet_checker",
   "outputs": [],
   "stateMutability": "nonpayable",
   "type": "function"
  },
  {
   "inputs": [],
   "name": "apply_smart_wallet_checker",
   "outputs": [],
   "stateMutability": "nonpayable",
   "type": "function"
  },
  {
   "inputs": [
    {
     "name": "addr",
     "type": "address"
    }
   ],
   "name": "get_last_user_slope",
   "outputs": [
    {
     "name": "",
     "type": "int128"
    }
   ],
   "stateMutability": "view",
   "type": "function"
  },
  {
   "inputs": [
    {
     "name": "_addr",
     "type": "address"
    },
    {
     "name": "_idx",
     "type": "uint256"
    }
   ],
   "name": "user_point_history__ts",
   "outputs": [
    {
     "name": "",
     "type": "uint256"
    }
   ],
   "stateMutability": "view",
   "type": "function"
  },
  {
   "inputs": [
    {
     "name": "_addr",
     "type": "address"
    }
   ],
   "name": "locked__end",
   "outputs": [
    {
     "name": "",
     "type": "uint256"
    }
   ],
   "stateMutability": "view",
   "type": "function"
  },
  {
   "inputs": [],
   "name": "checkpoint",
   "outputs": [],
   "stateMutability": "nonpayable",
   "type": "function"
  },
  {
   "inputs": [
    {
     "name": "_addr",
     "type": "address"
    },
    {
     "name": "_value",
     "type": "uint256"
    }
   ],
   "name": "deposit_for",
   "outputs": [],
   "stateMutability": "nonpayable",
   "type": "function"
  },
  {
   "inputs": [
    {
     "name": "_value",
     "type": "uint256"
    },
    {
     "name": "_unlock_time",
     "type": "uint256"
    }
   ],
   "name": "create_lock",
   "outputs": [],
   "stateMutability": "nonpayable",
   "type": "function"
  },
  {
   "inputs": [
    {
     "name": "_value",
     "type": "uint256"
    }
   ],
   "name": "increase_amount",
   "outputs": [],
   "stateMutability": "nonpayable",
   "type": "function"
  },
  {
   "inputs": [
    {
     "name": "_unlock_time",
     "type": "uint256"
    }
   ],
   "name": "increase_unlock_time",
   "outputs": [],
   "stateMutability": "nonpayable",
   "type": "function"
  },
  {
   "inputs": [],
   "name": "withdraw",
   "outputs": [],
   "stateMutability": "nonpayable",
   "type": "function"
  },
  {
   "inputs": [
    {
     "name": "addr",
     "type": "address"
    }
   ],
   "name": "balanceOf",
   "outputs": [
    {
     "name": "",
     "type": "uint256"
    }
   ],
   "stateMutability": "view",
   "type": "function"
  },
  {
   "inputs": [
    {
     "name": "addr",
     "type": "address"
    },
    {
     "name": "_t",
     "type": "uint256"
    }
   ],
   "name": "balanceOf",
   "outputs": [
    {
     "name": "",
     "type": "uint256"
    }
   ],
   "stateMutability": "view",
   "type": "function"
  },
  {
   "inputs": [
    {
     "name": "addr",
     "type": "address"
    },
    {
     "name": "_block",
     "type": "uint256"
    }
   ],
   "name": "balanceOfAt",
   "outputs": [
    {
     "name": "",
     "type": "uint256"
    }
   ],
   "stateMutability": "view",
   "type": "function"
  },
  {
   "inputs": [],
   "name": "totalSupply",
   "outputs": [
    {
     "name": "",
     "type": "uint256"
    }
   ],
   "stateMutability": "view",
   "type": "function"
  },
  {
   "inputs": [
    {
     "name": "t",
     "type": "uint256"
    }
   ],
   "name": "totalSupply",
   "outputs": [
    {
     "name": "",
     "type": "uint256"
    }
   ],
   "stateMutability": "view",
   "type": "function"
  },
  {
   "inputs": [
    {
     "name": "_block",
     "type": "uint256"
    }
   ],
   "name": "totalSupplyAt",
   "outputs": [
    {
     "name": "",
     "type": "uint256"
    }
   ],
   "stateMutability": "view",
   "type": "function"
  },
  {
   "inputs": [
    {
     "name": "_newController",
     "type": "address"
    }
   ],
   "name": "changeController",
   "outputs": [],
   "stateMutability": "nonpayable",
   "type": "function"
  },
  {
   "inputs": [],
   "name": "token",
   "outputs": [
    {
     "name": "",
     "type": "address"
    }
   ],
   "stateMutability": "view",
   "type": "function"
  },
  {
   "inputs": [],
   "name": "supply",
   "outputs": [
    {
     "name": "",
     "type": "uint256"
    }
   ],
   "stateMutability": "view",
   "type": "function"
  },
  {
   "inputs": [
    {
     "name": "arg0",
     "type": "address"
    }
   ],
   "name": "locked",
   "outputs": [
    {
     "name": "amount",
     "type": "int128"
    },
    {
     "name": "end",
     "type": "uint256"
    }
   ],
   "stateMutability": "view",
   "type": "function"
  },
  {
   "inputs": [],
   "name": "epoch",
   "outputs": [
    {
     "name": "",
     "type": "uint256"
    }
   ],
   "stateMutability": "view",
   "type": "function"
  },
  {
   "inputs": [
    {
     "name": "arg0",
     "type": "uint256"
    }
   ],
   "name": "point_history",
   "outputs": [
    {
     "name": "bias",
     "type": "int128"
    },
    {
     "name": "slope",
     "type": "int128"
    },
    {
     "name": "ts",
     "type": "uint256"
    },
    {
     "name": "blk",
     "type": "uint256"
    }
   ],
   "stateMutability": "view",
   "type": "function"
  },
  {
   "inputs": [
    {
     "name": "arg0",
     "type": "address"
    },
    {
     "name": "arg1",
     "type": "uint256"
    }
   ],
   "name": "user_point_history",
   "outputs": [
    {
     "name": "bias",
     "type": "int128"
    },
    {
     "name": "slope",
     "type": "int128"
    },
    {
     "name": "ts",
     "type": "uint256"
    },
    {
     "name": "blk",
     "type": "uint256"
    }
   ],
   "stateMutability": "view",
   "type": "function"
  },
  {
   "inputs": [
    {
     "name": "arg0",
     "type": "address"
    }
   ],
   "name": "user_point_epoch",
   "outputs": [
    {
     "name": "",
     "type": "uint256"
    }
   ],
   "stateMutability": "view",
   "type": "function"
  },
  {
   "inputs": [
    {
     "name": "arg0",
     "type": "uint256"
    }
   ],
   "name": "slope_changes",
   "outputs": [
    {
     "name": "",
     "type": "int128"
    }
   ],
   "stateMutability": "view",
   "type": "function"
  },
  {
   "inputs": [],
   "name": "controller",
   "outputs": [
    {
     "name": "",
     "type": "address"
    }
   ],
   "stateMutability": "view",
   "type": "function"
  },
  {
   "inputs": [],
   "name": "transfersEnabled",
   "outputs": [
    {
     "name": "",
     "type": "bool"
    }
   ],
   "stateMutability": "view",
   "type": "function"
  },
  {
   "inputs": [],
   "name": "depositsLocked",
   "outputs": [
    {
     "name": "",
     "type": "bool"
    }
   ],
   "stateMutability": "view",
   "type": "function"
  },
  {
   "inputs": [],
   "name": "name",
   "outputs": [
    {
     "name": "",
     "type": "string"
    }
   ],
   "stateMutability": "view",
   "type": "function"
  },
  {
   "inputs": [],
   "name": "symbol",
   "outputs": [
    {
     "name": "",
     "type": "string"
    }
   ],
   "stateMutability": "view",
   "type": "function"
  },
  {
   "inputs": [],
   "name": "version",
   "outputs": [
    {
     "name": "",
     "type": "string"
    }
   ],
   "stateMutability": "view",
   "type": "function"
  },
  {
   "inputs": [],
   "name": "decimals",
   "outputs": [
    {
     "name": "",
     "type": "uint256"
    }
   ],
   "stateMutability": "view",
   "type": "function"
  },
  {
   "inputs": [],
   "name": "future_smart_wallet_checker",
   "outputs": [
    {
     "name": "",
     "type": "address"
    }
   ],
   "stateMutability": "view",
   "type": "function"
  },
  {
   "inputs": [],
   "name": "smart_wallet_checker",
   "outputs": [
    {
     "name": "",
     "type": "address"
    }
   ],
   "stateMutability": "view",
   "type": "function"
  },
  {
   "inputs": [],
   "name": "admin",
   "outputs": [
    {
     "name": "",
     "type": "address"
    }
   ],
   "stateMutability": "view",
   "type": "function"
  },
  {
   "inputs": [],
   "name": "future_admin",
   "outputs": [
    {
     "name": "",
     "type": "address"
    }
   ],
   "stateMutability": "view",
   "type": "function"
  }
 ],
 "bytecode": {
  "object": "0x740100000000000000000000000000000000000000006020526f7fffffffffffffffffffffffffffffff6040527fffffffffffffffffffffffffffffffff8000000000000000000000000000000060605274012a05f1fffffffffffffffffffffffffdabf41c006080527ffffffffffffffffffffffffed5fa0e000000000000000000000000000000000060a05260806136046101403934156100a157600080fd5b602061360460c03960c05160205181106100ba57600080fd5b506060602060206136040160c03960c051613604016101c0396040602060206136040160c03960c0516004013511156100f257600080fd5b6040602060406136040160c03960c05161360401610240396020602060406136040160c03960c05160040135111561012957600080fd5b6040602060606136040160c03960c051613604016102a0396020602060606136040160c03960c05160040135111561016057600080fd5b3360115561014051600055436003600460c052602060c02060c052602060c0200155426002600460c052602060c02060c052602060c02001553360085560016009556001600a556020610380600463313ce5676103205261033c610140515afa6101c957600080fd5b601f3d116101d657600080fd5b600050610380516103005260ff6103005111156101f257600080fd5b61030051600e556101c080600b60c052602060c020602082510161012060006003818352015b8261012051602002111561022b5761024d565b61012051602002850151610120518501555b8151600101808352811415610218575b50505050505061024080600c60c052602060c020602082510161012060006002818352015b82610120516020021115610285576102a7565b61012051602002850151610120518501555b8151600101808352811415610272575b5050505050506102a080600d60c052602060c020602082510161012060006002818352015b826101205160200211156102df57610301565b61012051602002850151610120518501555b81516001018083528114156102cc575b5050505050506135ec56600436101561000d576132da565b600035601c52740100000000000000000000000000000000000000006020526f7fffffffffffffffffffffffffffffff6040527fffffffffffffffffffffffffffffffff8000000000000000000000000000000060605274012a05f1fffffffffffffffffffffffffdabf41c006080527ffffffffffffffffffffffffed5fa0e000000000000000000000000000000000060a052636b441a4060005114156101105734156100ba57600080fd5b60043560205181106100cb57600080fd5b5060115433146100da57600080fd5b600435601255600435610140527f2f56810a6bf40af059b96d3aea4db54081f378029a518390491093a7b67032e96020610140a1005b634e782813600051141561017e57341561012957600080fd5b6004356002811061013957600080fd5b50601154331461014857600080fd5b600435600a55600435610140527f3a6f72b4ed02517aec1d580529f912e860631ecb6fec4712d400294932aaffba6020610140a1005b636a1c05ae60005114156101f457341561019757600080fd5b60115433146101a557600080fd5b60125461014052600061014051186101bc57600080fd5b6101405160115561014051610160527febee2d5739011062cb4f14113f3b36bf0ffe3da5c0568f64189d1012a11891056020610160a1005b6357f901e2600051141561023557341561020d57600080fd5b600435602051811061021e57600080fd5b50601154331461022d57600080fd5b600435600f55005b638e5b490f600051141561026457341561024e57600080fd5b601154331461025c57600080fd5b600f54601055005b600015610355575b61016052610140523261014051181561034f576010546101805260006101805118156102de576020610220602463c23697a86101a052610140516101c0526101bc6000610180515af16102be57600080fd5b601f3d116102cb57600080fd5b60005061022051156102dd5761016051565b5b6308c379a06102605260206102805260256102a0527f536d61727420636f6e7472616374206465706f7369746f7273206e6f7420616c6102c0527f6c6f7765640000000000000000000000000000000000000000000000000000006102e0526102a050600061034e57608461027cfd5b5b61016051565b637c74a17460005114156103d957341561036e57600080fd5b600435602051811061037f57600080fd5b50600660043560e05260c052604060c0205461014052600161014051633b9aca0081106103ab57600080fd5b600560043560e05260c052604060c02060c052602060c0200160c052602060c020015460005260206000f350005b63da020a1860005114156104475734156103f257600080fd5b600435602051811061040357600080fd5b506002602435633b9aca00811061041957600080fd5b600560043560e05260c052604060c02060c052602060c0200160c052602060c020015460005260206000f350005b63adc63589600051141561049957341561046057600080fd5b600435602051811061047157600080fd5b506001600260043560e05260c052604060c02060c052602060c020015460005260206000f350005b600015610da1575b6101e0526101405261016052610180526101a0526101c05260803661020037608036610280376000610300526000610320526003546103405260006101405118156106aa57426101805111156104fd5760006101605113610500565b60005b1561059d5761016051630784ce00606051818061051c57600080fd5b83058060405190131561052e57600080fd5b809190121561053c57600080fd5b90509050610220526102205161018051428082101561055a57600080fd5b8082039050905060405181111561057057600080fd5b6060518183028060405190131561058657600080fd5b809190121561059457600080fd5b90509050610200525b426101c05111156105b45760006101a051136105b7565b60005b15610654576101a051630784ce0060605181806105d357600080fd5b8305806040519013156105e557600080fd5b80919012156105f357600080fd5b905090506102a0526102a0516101c051428082101561061157600080fd5b8082039050905060405181111561062757600080fd5b6060518183028060405190131561063d57600080fd5b809190121561064b57600080fd5b90509050610280525b60076101805160e05260c052604060c020546103005260006101c05118156106a957610180516101c05114156106915761030051610320526106a8565b60076101c05160e05260c052604060c02054610320525b5b5b610360600081526000816020015242816040015243816060015250600061034051111561074157610360610340516c01431e0fae6d7217caa000000081106106f157600080fd5b600460c052602060c020018060c052602060c02054825260018160c052602060c0200154826020015260028160c052602060c0200154826040015260038160c052602060c0200154826060015250505b6103a0516103e0526104006103608051825280602001518260200152806040015182604001528060600151826060015250506000610480526103a0514211156107f057670de0b6b3a7640000436103c0518082101561079f57600080fd5b8082039050905080820282158284830414176107ba57600080fd5b80905090509050426103a051808210156107d357600080fd5b8082039050905080806107e557600080fd5b820490509050610480525b6103e05162093a80808061080357600080fd5b82049050905062093a80808202821582848304141761082157600080fd5b809050905090506104a0526104c0600060ff818352015b6104a0805162093a8081818301101561085057600080fd5b8082019050905081525060006104e052426104a051111561087557426104a05261088c565b60076104a05160e05260c052604060c020546104e0525b6103608051610380516104a0516103e051808210156108aa57600080fd5b808203905090506040518111156108c057600080fd5b606051818302806040519013156108d657600080fd5b80919012156108e457600080fd5b90509050606051818303806040519013156108fe57600080fd5b809190121561090c57600080fd5b9050905081525061038080516104e0516060518183018060405190131561093257600080fd5b809190121561094057600080fd5b90509050815250600061036051121561095a576000610360525b600061038051121561096d576000610380525b6104a0516103e0526104a0516103a05261046051610480516104a051610440518082101561099a57600080fd5b8082039050905080820282158284830414176109b557600080fd5b80905090509050670de0b6b3a764000080806109d057600080fd5b8204905090508181830110156109e557600080fd5b808201905090506103c05261034080516001818183011015610a0657600080fd5b80820190509050815250426104a0511415610a2957436103c052610a9256610a81565b610340516c01431e0fae6d7217caa00000008110610a4657600080fd5b600460c052602060c0200160c052602060c0206103608051825580602001516001830155806040015160028301558060600151600383015550505b5b8151600101808352811415610838575b5050610340516003556000610140511815610b8e5761038080516102a0516102205160605181830380604051901315610aca57600080fd5b8091901215610ad857600080fd5b9050905060605181830180604051901315610af257600080fd5b8091901215610b0057600080fd5b905090508152506103608051610280516102005160605181830380604051901315610b2a57600080fd5b8091901215610b3857600080fd5b9050905060605181830180604051901315610b5257600080fd5b8091901215610b6057600080fd5b905090508152506000610380511215610b7a576000610380525b6000610360511215610b8d576000610360525b5b610340516c01431e0fae6d7217caa00000008110610bab57600080fd5b600460c052602060c0200160c052602060c0206103608051825580602001516001830155806040015160028301558060600151600383015550506000610140511815610d9b5742610180511115610c8a5761030080516102205160605181830180604051901315610c1b57600080fd5b8091901215610c2957600080fd5b90509050815250610180516101c0511415610c735761030080516102a05160605181830380604051901315610c5d57600080fd5b8091901215610c6b57600080fd5b905090508152505b6103005160076101805160e05260c052604060c020555b426101c0511115610cef57610180516101c0511115610cee5761032080516102a05160605181830380604051901315610cc257600080fd5b8091901215610cd057600080fd5b905090508152506103205160076101c05160e05260c052604060c020555b5b60066101405160e05260c052604060c020546001818183011015610d1257600080fd5b80820190509050610500526105005160066101405160e05260c052604060c02055426102c052436102e05261050051633b9aca008110610d5157600080fd5b60056101405160e05260c052604060c02060c052602060c0200160c052602060c0206102808051825580602001516001830155806040015160028301558060600151600383015550505b6101e051565b600015611043575b610200526101405261016052610180526101a0526101c0526101e0526102206101a080518252806020015182602001525050600154610260526102605161016051818183011015610df957600080fd5b8082019050905060015561028061022080518252806020015182602001525050610220805161016051604051811115610e3157600080fd5b60605181830180604051901315610e4757600080fd5b8091901215610e5557600080fd5b905090508152506000610180511815610e715761018051610240525b60026101405160e05260c052604060c02060c052602060c020610220805182558060200151600183015550506101406102c0525b6102c0515160206102c051016102c0526102c06102c0511015610ec757610ea5565b610140516102e0526103006102808051825280602001518260200152505061034061022080518252806020015182602001525050610360516103405161032051610300516102e051600658016104a1565b6102a06102c0525b6102c0515260206102c051036102c0526101406102c051101515610f4357610f20565b6000506000610160511815610fa857602061048060646323b872dd6103c052610140516103e052306104005261016051610420526103dc60006000545af1610f8a57600080fd5b601f3d11610f9757600080fd5b60005061048051610fa757600080fd5b5b610160516104a0526101e0516104c052426104e05261024051610140517f4566dfc29f6f11d13a418c26a02bef7c28bae749d4de47e4e6a7cddea6730d5960606104a0a36102605161050052610260516101605181818301101561100b57600080fd5b80820190509050610520527f5e2aa66efd74cce82b21852e317e5490d9ecc9e6bb953ae24d90851258cc2f5c6040610500a161020051565b63c2c4c5c1600051141561109257341561105c57600080fd5b600061014052604036610160376040366101a0376101c0516101a051610180516101605161014051600658016104a1565b600050005b633a46273e60005114156112a85762ffffff54156110af57600080fd5b600162ffffff5534156110c157600080fd5b60043560205181106110d257600080fd5b50610140600260043560e05260c052604060c0208060c052602060c02054825260018160c052602060c02001548260200152505060006024351161111557600080fd5b6308c379a06101805260206101a05260166101c0527f4e6f206578697374696e67206c6f636b20666f756e64000000000000000000006101e0526101c0506000610140511361116557606461019cfd5b6308c379a0610220526020610240526024610260527f43616e6e6f742061646420746f2065787069726564206c6f636b2e2057697468610280527f64726177000000000000000000000000000000000000000000000000000000006102a052610260504261016051116111d957608461023cfd5b6101406102e0525b6102e0515160206102e051016102e0526102e06102e0511015611203576111e1565b6004356103005260243561032052600061034052610360600260043560e05260c052604060c0208060c052602060c02054825260018160c052602060c02001548260200152505060006103a0526103a051610380516103605161034051610320516103005160065801610da9565b6102c06102e0525b6102e0515260206102e051036102e0526101406102e05110151561129c57611279565b600050600062ffffff55005b6365fc387360005114156115465762ffffff54156112c557600080fd5b600162ffffff5534156112d757600080fd5b3361014052610140516006580161026c565b60005060243562093a8080806112fe57600080fd5b82049050905062093a80808202821582848304141761131c57600080fd5b809050905090506101a0526101c060023360e05260c052604060c0208060c052602060c02054825260018160c052602060c02001548260200152505060006004351161136757600080fd5b6308c379a0610200526020610220526019610240527f5769746864726177206f6c6420746f6b656e732066697273740000000000000061026052610240506101c051156113b557606461021cfd5b6308c379a06102a05260206102c05260266102e0527f43616e206f6e6c79206c6f636b20756e74696c2074696d6520696e2074686520610300527f6675747572650000000000000000000000000000000000000000000000000000610320526102e050426101a051116114295760846102bcfd5b6308c379a061036052602061038052601e6103a0527f566f74696e67206c6f636b2063616e2062652034207965617273206d617800006103c0526103a05042630784ce0081818301101561147c57600080fd5b808201905090506101a051111561149457606461037cfd5b610140610400525b610400515160206104005101610400526104006104005110156114be5761149c565b3361042052600435610440526101a051610460526104806101c08051825280602001518260200152505060016104c0526104c0516104a0516104805161046051610440516104205160065801610da9565b6103e0610400525b610400515260206104005103610400526101406104005110151561153a57611517565b600050600062ffffff55005b634957677c600051141561173e5762ffffff541561156357600080fd5b600162ffffff55341561157557600080fd5b3361014052610140516006580161026c565b6000506101a060023360e05260c052604060c0208060c052602060c02054825260018160c052602060c0200154826020015250506000600435116115ca57600080fd5b6308c379a06101e0526020610200526016610220527f4e6f206578697374696e67206c6f636b20666f756e6400000000000000000000610240526102205060006101a0511361161a5760646101fcfd5b6308c379a06102805260206102a05260246102c0527f43616e6e6f742061646420746f2065787069726564206c6f636b2e20576974686102e0527f6472617700000000000000000000000000000000000000000000000000000000610300526102c050426101c0511161168e57608461029cfd5b610140610340525b610340515160206103405101610340526103406103405110156116b857611696565b33610360526004356103805260006103a0526103c06101a080518252806020015182602001525050600261040052610400516103e0516103c0516103a051610380516103605160065801610da9565b610320610340525b61034051526020610340510361034052610140610340511015156117325761170f565b600050600062ffffff55005b63eff7a61260005114156119fb5762ffffff541561175b57600080fd5b600162ffffff55341561176d57600080fd5b3361014052610140516006580161026c565b6000506101a060023360e05260c052604060c0208060c052602060c02054825260018160c052602060c02001548260200152505060043562093a8080806117c557600080fd5b82049050905062093a8080820282158284830414176117e357600080fd5b809050905090506101e0526308c379a061020052602061022052600c610240527f4c6f636b206578706972656400000000000000000000000000000000000000006102605261024050426101c0511161183d57606461021cfd5b6308c379a06102a05260206102c05260116102e0527f4e6f7468696e67206973206c6f636b6564000000000000000000000000000000610300526102e05060006101a0511361188d5760646102bcfd5b6308c379a061034052602061036052601f610380527f43616e206f6e6c7920696e637265617365206c6f636b206475726174696f6e006103a052610380506101c0516101e051116118df57606461035cfd5b6308c379a06103e052602061040052601e610420527f566f74696e67206c6f636b2063616e2062652034207965617273206d61780000610440526104205042630784ce0081818301101561193257600080fd5b808201905090506101e051111561194a5760646103fcfd5b610140610480525b6104805151602061048051016104805261048061048051101561197457611952565b336104a05260006104c0526101e0516104e0526105006101a0805182528060200151826020015250506003610540526105405161052051610500516104e0516104c0516104a05160065801610da9565b610460610480525b61048051526020610480510361048052610140610480511015156119ef576119cc565b600050600062ffffff55005b633ccfd60b6000511415611cbb5762ffffff5415611a1857600080fd5b600162ffffff553415611a2a57600080fd5b61014060023360e05260c052604060c0208060c052602060c02054825260018160c052602060c020015482602001525050600a5415611ab4576308c379a06101805260206101a05260166101c0527f546865206c6f636b206469646e277420657870697265000000000000000000006101e0526101c05061016051421015611ab357606461019cfd5b5b610140516000811215611ac657600080fd5b610220526102406101408051825280602001518260200152505060006101605260006101405260023360e05260c052604060c02060c052602060c0206101408051825580602001516001830155505060015461028052610280516102205180821015611b3157600080fd5b808203905090506001556101406102a0525b6102a0515160206102a051016102a0526102a06102a0511015611b6557611b43565b336102c0526102e061024080518252806020015182602001525050610320610140805182528060200151826020015250506103405161032051610300516102e0516102c051600658016104a1565b6102806102a0525b6102a0515260206102a051036102a0526101406102a051101515611bde57611bbb565b6000506020610440604463a9059cbb6103a052336103c052610220516103e0526103bc60006000545af1611c1157600080fd5b601f3d11611c1e57600080fd5b60005061044051611c2e57600080fd5b61022051610460524261048052337ff279e6a1f5e320cca91135676d9cb6e44ca8a08c0b88342bcdb1144f6511b5686040610460a2610280516104a052610280516102205180821015611c8057600080fd5b808203905090506104c0527f5e2aa66efd74cce82b21852e317e5490d9ecc9e6bb953ae24d90851258cc2f5c60406104a0a1600062ffffff55005b600015611dda575b61018052610140526101605260006101a052610160516101c0526101e060006080818352015b6101c0516101a051101515611cfd57611dc6565b6101a0516101c051818183011015611d1457600080fd5b808201905090506001818183011015611d2c57600080fd5b8082019050905060028080611d4057600080fd5b82049050905061020052610140516003610200516c01431e0fae6d7217caa00000008110611d6d57600080fd5b600460c052602060c0200160c052602060c0200154111515611d9657610200516101a052611db5565b61020051600180821015611da957600080fd5b808203905090506101c0525b5b8151600101808352811415611ce9575b50506101a051600052600051610180515650005b6370a082316000511415611df2574261014052611e17565b62fdd58e6000511415611e0f576020602461014037600050611e17565b600015611f8f575b3415611e2257600080fd5b6004356020518110611e3357600080fd5b50600660043560e05260c052604060c0205461016052610160511515611e6357600060005260206000f350611f8d565b61018061016051633b9aca008110611e7a57600080fd5b600560043560e05260c052604060c02060c052602060c020018060c052602060c02054825260018160c052602060c0200154826020015260028160c052602060c0200154826040015260038160c052602060c02001548260600152505061018080516101a051610140516101c05180821015611ef557600080fd5b80820390509050604051811115611f0b57600080fd5b60605181830280604051901315611f2157600080fd5b8091901215611f2f57600080fd5b9050905060605181830380604051901315611f4957600080fd5b8091901215611f5757600080fd5b905090508152506000610180511215611f71576000610180525b610180516000811215611f8357600080fd5b60005260206000f3505b005b634ee2cd7e600051141561249e573415611fa857600080fd5b6004356020518110611fb957600080fd5b50436024351115611fc957600080fd5b600061014052600660043560e05260c052604060c020546101605261018060006080818352015b6101605161014051101515612004576120d1565b610140516101605181818301101561201b57600080fd5b80820190509050600181818301101561203357600080fd5b808201905090506002808061204757600080fd5b8204905090506101a05260243560036101a051633b9aca00811061206a57600080fd5b600560043560e05260c052604060c02060c052602060c0200160c052602060c02001541115156120a1576101a051610140526120c0565b6101a0516001808210156120b457600080fd5b80820390509050610160525b5b8151600101808352811415611ff0575b50506101c061014051633b9aca0081106120ea57600080fd5b600560043560e05260c052604060c02060c052602060c020018060c052602060c02054825260018160c052602060c0200154826020015260028160c052602060c0200154826040015260038160c052602060c020015482606001525050600354610240526101405161016051610180516101a0516101c0516101e051610200516102205161024051610260516024356102a052610240516102c0526102c0516102a05160065801611cc3565b61032052610260526102405261022052610200526101e0526101c0526101a0526101805261016052610140526103205161026052610340610260516c01431e0fae6d7217caa000000081106121ea57600080fd5b600460c052602060c020018060c052602060c02054825260018160c052602060c0200154826020015260028160c052602060c0200154826040015260038160c052602060c02001548260600152505060006103c05260006103e0526102405161026051101561231f5761040061026051600181818301101561226b57600080fd5b808201905090506c01431e0fae6d7217caa0000000811061228b57600080fd5b600460c052602060c020018060c052602060c02054825260018160c052602060c0200154826020015260028160c052602060c0200154826040015260038160c052602060c020015482606001525050610460516103a051808210156122ef57600080fd5b808203905090506103c05261044051610380518082101561230f57600080fd5b808203905090506103e05261235a565b436103a0518082101561233157600080fd5b808203905090506103c05242610380518082101561234e57600080fd5b808203905090506103e0525b610380516104805260006103c05118156123dc5761048080516103e0516024356103a0518082101561238b57600080fd5b8082039050905080820282158284830414176123a657600080fd5b809050905090506103c05180806123bc57600080fd5b8204905090508181830110156123d157600080fd5b808201905090508152505b6101c080516101e0516104805161020051808210156123fa57600080fd5b8082039050905060405181111561241057600080fd5b6060518183028060405190131561242657600080fd5b809190121561243457600080fd5b905090506060518183038060405190131561244e57600080fd5b809190121561245c57600080fd5b9050905081525060006101c051121515612490576101c051600081121561248257600080fd5b60005260206000f35061249c565b600060005260206000f3505b005b6000156126a6575b6101e0526101405261016052610180526101a0526101c0526102006101408051825280602001518260200152806040015182604001528060600151826060015250506102405162093a8080806124fb57600080fd5b82049050905062093a80808202821582848304141761251957600080fd5b80905090509050610280526102a0600060ff818352015b610280805162093a8081818301101561254857600080fd5b8082019050905081525060006102c0526101c051610280511115612573576101c0516102805261258a565b60076102805160e05260c052604060c020546102c0525b6102008051610220516102805161024051808210156125a857600080fd5b808203905090506040518111156125be57600080fd5b606051818302806040519013156125d457600080fd5b80919012156125e257600080fd5b90509050606051818303806040519013156125fc57600080fd5b809190121561260a57600080fd5b905090508152506101c05161028051141561262457612671565b61022080516102c0516060518183018060405190131561264357600080fd5b809190121561265157600080fd5b9050905081525061028051610240525b8151600101808352811415612530575b50506000610200511215612686576000610200525b61020051600081121561269857600080fd5b6000526000516101e0515650005b6318160ddd60005114156126be5742610140526126e4565b63bd85b03960005114156126dc5760206004610140376000506126e4565b6000156127f7575b34156126ef57600080fd5b60035461016052610180610160516c01431e0fae6d7217caa0000000811061271657600080fd5b600460c052602060c020018060c052602060c02054825260018160c052602060c0200154826020015260028160c052602060c0200154826040015260038160c052602060c0200154826060015250506101405161016051610180516101a0516101c0516101e051610220610180805182528060200151826020015280604001518260400152806060015182606001525050610140516102a0526102a05161028051610260516102405161022051600658016124a6565b610300526101e0526101c0526101a0526101805261016052610140526103005160005260206000f350005b63981b24d06000511415612b5e57341561281057600080fd5b43600435111561281f57600080fd5b6003546101405261014051610160516004356101a052610140516101c0526101c0516101a05160065801611cc3565b6102205261016052610140526102205161016052610240610160516c01431e0fae6d7217caa0000000811061288257600080fd5b600460c052602060c020018060c052602060c02054825260018160c052602060c0200154826020015260028160c052602060c0200154826040015260038160c052602060c02001548260600152505060006102c05261014051610160511015612a03576102e06101605160018181830110156128fd57600080fd5b808201905090506c01431e0fae6d7217caa0000000811061291d57600080fd5b600460c052602060c020018060c052602060c02054825260018160c052602060c0200154826020015260028160c052602060c0200154826040015260038160c052602060c020015482606001525050610340516102a05118156129fe576004356102a0518082101561298e57600080fd5b808203905090506103205161028051808210156129aa57600080fd5b8082039050905080820282158284830414176129c557600080fd5b80905090509050610340516102a051808210156129e157600080fd5b8082039050905080806129f357600080fd5b8204905090506102c0525b612a8d565b436102a0511815612a8c576004356102a05180821015612a2257600080fd5b80820390509050426102805180821015612a3b57600080fd5b808203905090508082028215828483041417612a5657600080fd5b80905090509050436102a05180821015612a6f57600080fd5b808203905090508080612a8157600080fd5b8204905090506102c0525b5b610140610360525b610360515160206103605101610360526102e0610360511015612ab757612a95565b610380610240805182528060200151826020015280604001518260400152806060015182606001525050610280516102c051818183011015612af857600080fd5b8082019050905061040052610400516103e0516103c0516103a05161038051600658016124a6565b610460526102c0610360525b6103605152602061036051036103605261014061036051101515612b4f57612b2c565b6104605160005260206000f350005b633cebb8236000511415612b9f573415612b7757600080fd5b6004356020518110612b8857600080fd5b506008543314612b9757600080fd5b600435600855005b63fc0c546a6000511415612bc6573415612bb857600080fd5b60005460005260206000f350005b63047fc9aa6000511415612bed573415612bdf57600080fd5b60015460005260206000f350005b63cbf9fe5f6000511415612c76573415612c0657600080fd5b6004356020518110612c1757600080fd5b50610140808080600260043560e05260c052604060c02060c052602060c020548152505060208101905080806001600260043560e05260c052604060c02060c052602060c02001548152505060409050905060c05260c051610140f350005b63900cf0cf6000511415612c9d573415612c8f57600080fd5b60035460005260206000f350005b63d1febfb96000511415612dc0573415612cb657600080fd5b6101408080806004356c01431e0fae6d7217caa00000008110612cd857600080fd5b600460c052602060c0200160c052602060c0205481525050602081019050808060016004356c01431e0fae6d7217caa00000008110612d1657600080fd5b600460c052602060c0200160c052602060c020015481525050602081019050808060026004356c01431e0fae6d7217caa00000008110612d5557600080fd5b600460c052602060c0200160c052602060c020015481525050602081019050808060036004356c01431e0fae6d7217caa00000008110612d9457600080fd5b600460c052602060c0200160c052602060c02001548152505060809050905060c05260c051610140f350005b6328d09d476000511415612f09573415612dd957600080fd5b6004356020518110612dea57600080fd5b50610140808080602435633b9aca008110612e0457600080fd5b600560043560e05260c052604060c02060c052602060c0200160c052602060c020548152505060208101905080806001602435633b9aca008110612e4757600080fd5b600560043560e05260c052604060c02060c052602060c0200160c052602060c02001548152505060208101905080806002602435633b9aca008110612e8b57600080fd5b600560043560e05260c052604060c02060c052602060c0200160c052602060c02001548152505060208101905080806003602435633b9aca008110612ecf57600080fd5b600560043560e05260c052604060c02060c052602060c0200160c052602060c02001548152505060809050905060c05260c051610140f350005b63010ae7576000511415612f50573415612f2257600080fd5b6004356020518110612f3357600080fd5b50600660043560e05260c052604060c0205460005260206000f350005b63711974846000511415612f85573415612f6957600080fd5b600760043560e05260c052604060c0205460005260206000f350005b63f77c47916000511415612fac573415612f9e57600080fd5b60085460005260206000f350005b63bef97c876000511415612fd3573415612fc557600080fd5b60095460005260206000f350005b63f60ab7746000511415612ffa573415612fec57600080fd5b600a5460005260206000f350005b6306fdde0360005114156130ae57341561301357600080fd5b600b8060c052602060c020610180602082540161012060006003818352015b8261012051602002111561304557613067565b61012051850154610120516020028501525b8151600101808352811415613032575b50505050505061018051806101a001818260206001820306601f82010390500336823750506020610160526040610180510160206001820306601f8201039050610160f350005b6395d89b4160005114156131625734156130c757600080fd5b600c8060c052602060c020610180602082540161012060006002818352015b826101205160200211156130f95761311b565b61012051850154610120516020028501525b81516001018083528114156130e6575b50505050505061018051806101a001818260206001820306601f82010390500336823750506020610160526040610180510160206001820306601f8201039050610160f350005b6354fd4d50600051141561321657341561317b57600080fd5b600d8060c052602060c020610180602082540161012060006002818352015b826101205160200211156131ad576131cf565b61012051850154610120516020028501525b815160010180835281141561319a575b50505050505061018051806101a001818260206001820306601f82010390500336823750506020610160526040610180510160206001820306601f8201039050610160f350005b63313ce567600051141561323d57341561322f57600080fd5b600e5460005260206000f350005b638ff36fd1600051141561326457341561325657600080fd5b600f5460005260206000f350005b637175d4f7600051141561328b57341561327d57600080fd5b60105460005260206000f350005b63f851a44060005114156132b25734156132a457600080fd5b60115460005260206000f350005b6317f7182a60005114156132d95734156132cb57600080fd5b60125460005260206000f350005b5b60006000fd5b61030c6135ec0361030c60003961030c6135ec036000f3",
  "opcodes": "PUSH21 0x100000000000000000000 PUSH1 0x20 MSTORE PUSH16 0x7FFFFFFFFFFFFFFFFFFFFFFFFFFFFFFF PUSH1 0x40 MSTORE PUSH32 0xFFFFFFFFFFFFFFFFFFFFFFFFFFFFFFFF80000000000000000 PUSH1 0x60 MSTORE PUSH21 0x12A5F1FFFFFFFFFFFFFFFFFFFFFFFFFDABF41C0 PUSH1 0x80 MSTORE PUSH32 0xFFFFFFFFFFFFFFFFFFFFFFFED5FAE00000000000000000 PUSH1 0xA0 MSTORE PUSH1 0x80 PUSH2 0x364 PUSH2 0x140 CODECOPY CALLVALUE ISZERO PUSH2 0x0A1 JUMPI PUSH1 0x0 DUP1 REVERT JUMPDEST PUSH1 0x20 PUSH2 0x364 PUSH1 0xC0 CODECOPY PUSH1 0xC0 MLOAD PUSH1 0x20 MLOAD DUP2 LT PUSH2 0x0BA JUMPI PUSH1 0x0 DUP1 REVERT JUMPDEST POP PUSH1 0x60 PUSH1 0x20 PUSH1 0x20 PUSH2 0x364 ADD PUSH1 0xC0 CODECOPY PUSH1 0xC0 MLOAD PUSH2 0x364 ADD PUSH2 0x1C0 CODECOPY PUSH1 0x40 PUSH1 0x20 PUSH1 0x20 PUSH2 0x364 ADD PUSH1 0xC0 CODECOPY PUSH1 0xC0 MLOAD PUSH1 0x4 ADD CALLDATALOAD GT ISZERO PUSH2 0x0F2 JUMPI PUSH1 0x0 DUP1 REVERT JUMPDEST PUSH1 0x40 PUSH1 0x20 PUSH1 0x40 PUSH2 0x364 ADD PUSH1 0xC0 CODECOPY PUSH1 0xC0 MLOAD PUSH2 0x364 ADD PUSH2 0x240 CODECOPY PUSH1 0x20 PUSH1 0x20 PUSH1 0x40 PUSH2 0x364 ADD PUSH1 0xC0 CODECOPY PUSH1 0xC0 MLOAD PUSH1 0x4 ADD CALLDATALOAD GT ISZERO PUSH2 0x129 JUMPI PUSH1 0x0 DUP1 REVERT JUMPDEST PUSH1 0x40 PUSH1 0x20 PUSH1 0x60 PUSH2 0x364 ADD PUSH1 0xC0 CODECOPY PUSH1 0xC0 MLOAD PUSH2 0x364 ADD PUSH2 0x2A0 CODECOPY PUSH1 0x20 PUSH1 0x20 PUSH1 0x60 PUSH2 0x364 ADD PUSH1 0xC0 CODECOPY PUSH1 0xC0 MLOAD PUSH1 0x4 ADD CALLDATALOAD GT ISZERO PUSH2 0x160 JUMPI PUSH1 0x0 DUP1 REVERT JUMPDEST CALLER PUSH1 0x11 SSTORE PUSH2 0x140 MLOAD PUSH1 0x0 SSTORE NUMBER PUSH1 0x3 PUSH1 0x4 PUSH1 0xC0 MSTORE PUSH1 0x20 PUSH1 0xC0 SHA3 PUSH1 0xC0 MSTORE PUSH1 0x20 PUSH1 0xC0 SHA3 ADD SSTORE TIMESTAMP PUSH1 0x2 PUSH1 0x4 PUSH1 0xC0 MSTORE PUSH1 0x20 PUSH1 0xC0 SHA3 PUSH1 0xC0 MSTORE PUSH1 0x20 PUSH1 0xC0 SHA3 ADD SSTORE CALLER PUSH1 0x8 SSTORE PUSH1 0x1 PUSH1 0x9 SSTORE PUSH1 0x1 PUSH1 0xA SSTORE PUSH1 0x20 PUSH2 0x380 PUSH1 0x4 PUSH4 0x313CE567 PUSH2 0x320 MSTORE PUSH2 0x33C PUSH2 0x140 MLOAD GAS STATICCALL PUSH2 0x1C9 JUMPI PUSH1 0x0 DUP1 REVERT JUMPDEST PUSH1 0x1F RETURNDATASIZE GT PUSH2 0x1D6 JUMPI PUSH1 0x0 DUP1 REVERT JUMPDEST PUSH1 0x0 POP PUSH2 0x380 MLOAD PUSH2 0x30 MSTORE PUSH1 0xFF PUSH2 0x30 MLOAD GT ISZERO PUSH2 0x1F2 JUMPI PUSH1 0x0 DUP1 REVERT JUMPDEST PUSH2 0x30 MLOAD PUSH1 0xE SSTORE PUSH2 0x1C0 DUP1 PUSH1 0xB PUSH1 0xC0 MSTORE PUSH1 0x20 PUSH1 0xC0 SHA3 PUSH1 0x20 DUP3 MLOAD ADD PUSH2 0x120 PUSH1 0x0 PUSH1 0x3 DUP2 DUP4 MSTORE ADD JUMPDEST DUP3 PUSH2 0x120 MLOAD PUSH1 0x20 MUL GT ISZERO PUSH2 0x22B JUMPI PUSH2 0x24D JUMP JUMPDEST PUSH2 0x120 MLOAD PUSH1 0x20 MUL DUP6 ADD MLOAD PUSH2 0x120 MLOAD DUP6 ADD SSTORE JUMPDEST DUP2 MLOAD PUSH1 0x1 ADD DUP1 DUP4 MSTORE DUP2 EQ ISZERO PUSH2 0x218 JUMPI JUMPDEST POP POP POP POP POP POP PUSH2 0x240 DUP1 PUSH1 0xC PUSH1 0xC0 MSTORE PUSH1 0x20 PUSH1 0xC0 SHA3 PUSH1 0x20 DUP3 MLOAD ADD PUSH2 0x120 PUSH1 0x0 PUSH1 0x2 DUP2 DUP4 MSTORE ADD JUMPDEST DUP3 PUSH2 0x120 MLOAD PUSH1 0x20 MUL GT ISZERO PUSH2 0x285 JUMPI PUSH2 0x2A7 JUMP JUMPDEST PUSH2 0x120 MLOAD PUSH1 0x20 MUL DUP6 ADD MLOAD PUSH2 0x120 MLOAD DUP6 ADD SSTORE JUMPDEST DUP2 MLOAD PUSH1 0x1 ADD DUP1 DUP4 MSTORE DUP2 EQ ISZERO PUSH2 0x272 JUMPI JUMPDEST POP POP POP POP POP POP PUSH2 0x2A0 DUP1 PUSH1 0xD PUSH1 0xC0 MSTORE PUSH1 0x20 PUSH1 0xC0 SHA3 PUSH1 0x20 DUP3 MLOAD ADD PUSH2 0x120 PUSH1 0x0 PUSH1 0x2 DUP2 DUP4 MSTORE ADD JUMPDEST DUP3 PUSH2 0x120 MLOAD PUSH1 0x20 MUL GT ISZERO PUSH2 0x2DF JUMPI PUSH2 0x31 JUMP JUMPDEST PUSH2 0x120 MLOAD PUSH1 0x20 MUL DUP6 ADD MLOAD PUSH2 0x120 MLOAD DUP6 ADD SSTORE JUMPDEST DUP2 MLOAD PUSH1 0x1 ADD DUP1 DUP4 MSTORE DUP2 EQ ISZERO PUSH2 0x2CC JUMPI JUMPDEST POP POP POP POP POP POP PUSH2 0x35EC JUMP PUSH1 0x4 CALLDATASIZE LT ISZERO PUSH2 0x0D JUMPI PUSH2 0x32DA JUMP JUMPDEST PUSH1 0x0 CALLDATALOAD PUSH1 0x1C MSTORE PUSH21 0x100000000000000000000 PUSH1 0x20 MSTORE PUSH16 0x7FFFFFFFFFFFFFFFFFFFFFFFFFFFFFFF PUSH1 0x40 MSTORE PUSH32 0xFFFFFFFFFFFFFFFFFFFFFFFFFFFFFFFF80000000000000000 PUSH1 0x60 MSTORE PUSH21 0x12A5F1FFFFFFFFFFFFFFFFFFFFFFFFFDABF41C0 PUSH1 0x80 MSTORE PUSH32 0xFFFFFFFFFFFFFFFFFFFFFFFED5FAE00000000000000000 PUSH1 0xA0 MSTORE PUSH4 0x6B441A40 PUSH1 0x0 MLOAD EQ ISZERO PUSH2 0x110 JUMPI CALLVALUE ISZERO PUSH2 0x0BA JUMPI PUSH1 0x0 DUP1 REVERT JUMPDEST PUSH1 0x4 CALLDATALOAD PUSH1 0x20 MLOAD DUP2 LT PUSH2 0x0CB JUMPI PUSH1 0x0 DUP1 REVERT JUMPDEST POP PUSH1 0x11 SLOAD CALLER EQ PUSH2 0x0DA JUMPI PUSH1 0x0 DUP1 REVERT JUMPDEST PUSH1 0x4 CALLDATALOAD PUSH1 0x12 SSTORE PUSH1 0x4 CALLDATALOAD PUSH2 0x140 MSTORE PUSH32 0x2F5681A6BF4AF059B96D3AEA4DB54081F37829A518390491093A7B67032E9 PUSH1 0x20 PUSH2 0x140 LOG1 STOP JUMPDEST PUSH4 0x4E782813 PUSH1 0x0 MLOAD EQ ISZERO PUSH2 0x17E JUMPI CALLVALUE ISZERO PUSH2 0x129 JUMPI PUSH1 0x0 DUP1 REVERT JUMPDEST PUSH1 0x4 CALLDATALOAD PUSH1 0x2 DUP2 LT PUSH2 0x139 JUMPI PUSH1 0x0 DUP1 REVERT JUMPDEST POP PUSH1 0x11 SLOAD CALLER EQ PUSH2 0x148 JUMPI PUSH1 0x0 DUP1 REVERT JUMPDEST PUSH1 0x4 CALLDATALOAD PUSH1 0xA SSTORE PUSH1 0x4 CALLDATALOAD PUSH2 0x140 MSTORE PUSH32 0x3A6F72B4ED2517AEC1D58529F912E860631ECB6FEC4712D40294932AAFFBA PUSH1 0x20 PUSH2 0x140 LOG1 STOP JUMPDEST PUSH4 0x6A1C5AE PUSH1 0x0 MLOAD EQ ISZERO PUSH2 0x1F4 JUMPI CALLVALUE ISZERO PUSH2 0x197 JUMPI PUSH1 0x0 DUP1 REVERT JUMPDEST PUSH1 0x11 SLOAD CALLER EQ PUSH2 0x1A5 JUMPI PUSH1 0x0 DUP1 REVERT JUMPDEST PUSH1 0x12 SLOAD PUSH2 0x140 MSTORE PUSH1 0x0 PUSH2 0x140 MLOAD XOR PUSH2 0x1BC JUMPI PUSH1 0x0 DUP1 REVERT JUMPDEST PUSH2 0x140 MLOAD PUSH1 0x11 SSTORE PUSH2 0x140 MLOAD PUSH2 0x160 MSTORE PUSH32 0xEBEE2D573911062CB4F14113F3B36BFFFE3DA5C0568F64189D1012A118915 PUSH1 0x20 PUSH2 0x160 LOG1 STOP JUMPDEST PUSH4 0x57F91E2 PUSH1 0x0 MLOAD EQ ISZERO PUSH2 0x235 JUMPI CALLVALUE ISZERO PUSH2 0x2D JUMPI PUSH1 0x0 DUP1 REVERT JUMPDEST PUSH1 0x4 CALLDATALOAD PUSH1 0x20 MLOAD DUP2 LT PUSH2 0x21E JUMPI PUSH1 0x0 DUP1 REVERT JUMPDEST POP PUSH1 0x11 SLOAD CALLER EQ PUSH2 0x22D JUMPI PUSH1 0x0 DUP1 REVERT JUMPDEST PUSH1 0x4 CALLDATALOAD PUSH1 0xF SSTORE STOP JUMPDEST PUSH4 0x8E5B49F PUSH1 0x0 MLOAD EQ ISZERO PUSH2 0x264 JUMPI CALLVALUE ISZERO PUSH2 0x24E JUMPI PUSH1 0x0 DUP1 REVERT JUMPDEST PUSH1 0x11 SLOAD CALLER EQ PUSH2 0x25C JUMPI PUSH1 0x0 DUP1 REVERT JUMPDEST PUSH1 0xF SLOAD PUSH1 0x10 SSTORE STOP JUMPDEST PUSH1 0x0 ISZERO PUSH2 0x355 JUMPI JUMPDEST PUSH2 0x160 MSTORE PUSH2 0x140 MSTORE ORIGIN PUSH2 0x140 MLOAD XOR ISZERO PUSH2 0x34F JUMPI PUSH1 0x10 SLOAD PUSH2 0x180 MSTORE PUSH1 0x0 PUSH2 0x180 MLOAD XOR ISZERO PUSH2 0x2DE JUMPI PUSH1 0x20 PUSH2 0x220 PUSH1 0x24 PUSH4 0xC23697A8 PUSH2 0x1A0 MSTORE PUSH2 0x140 MLOAD PUSH2 0x1C0 MSTORE PUSH2 0x1BC PUSH1 0x0 PUSH2 0x180 MLOAD GAS CALL PUSH2 0x2BE JUMPI PUSH1 0x0 DUP1 REVERT JUMPDEST PUSH1 0x1F RETURNDATASIZE GT PUSH2 0x2CB JUMPI PUSH1 0x0 DUP1 REVERT JUMPDEST PUSH1 0x0 POP PUSH2 0x220 MLOAD ISZERO PUSH2 0x2DD JUMPI PUSH2 0x160 MLOAD JUMP JUMPDEST JUMPDEST PUSH4 0x8C379A0 PUSH2 0x260 MSTORE PUSH1 0x20 PUSH2 0x280 MSTORE PUSH1 0x25 PUSH2 0x2A0 MSTORE PUSH32 0x536D61727420636F6E7472616374206465706F7369746F7273206E6F7420616C PUSH2 0x2C0 MSTORE PUSH32 0x6C6F776564000000000000000000000000000 PUSH2 0x2E0 MSTORE PUSH2 0x2A0 POP PUSH1 0x0 PUSH2 0x34E JUMPI PUSH1 0x84 PUSH2 0x27C REVERT JUMPDEST JUMPDEST PUSH2 0x160 MLOAD JUMP JUMPDEST PUSH4 0x7C74A174 PUSH1 0x0 MLOAD EQ ISZERO PUSH2 0x3D9 JUMPI CALLVALUE ISZERO PUSH2 0x36E JUMPI PUSH1 0x0 DUP1 REVERT JUMPDEST PUSH1 0x4 CALLDATALOAD PUSH1 0x20 MLOAD DUP2 LT PUSH2 0x37F JUMPI PUSH1 0x0 DUP1 REVERT JUMPDEST POP PUSH1 0x6 PUSH1 0x4 CALLDATALOAD PUSH1 0xE0 MSTORE PUSH1 0xC0 MSTORE PUSH1 0x40 PUSH1 0xC0 SHA3 SLOAD PUSH2 0x140 MSTORE PUSH1 0x1 PUSH2 0x140 MLOAD PUSH4 0x3B9ACA0 DUP2 LT PUSH2 0x3AB JUMPI PUSH1 0x0 DUP1 REVERT JUMPDEST PUSH1 0x5 PUSH1 0x4 CALLDATALOAD PUSH1 0xE0 MSTORE PUSH1 0xC0 MSTORE PUSH1 0x40 PUSH1 0xC0 SHA3 PUSH1 0xC0 MSTORE PUSH1 0x20 PUSH1 0xC0 SHA3 ADD PUSH1 0xC0 MSTORE PUSH1 0x20 PUSH1 0xC0 SHA3 ADD SLOAD PUSH1 0x0 MSTORE PUSH1 0x20 PUSH1 0x0 RETURN POP STOP JUMPDEST PUSH4 0xDA2A18 PUSH1 0x0 MLOAD EQ ISZERO PUSH2 0x447 JUMPI CALLVALUE ISZERO PUSH2 0x3F2 JUMPI PUSH1 0x0 DUP1 REVERT JUMPDEST PUSH1 0x4 CALLDATALOAD PUSH1 0x20 MLOAD DUP2 LT PUSH2 0x43 JUMPI PUSH1 0x0 DUP1 REVERT JUMPDEST POP PUSH1 0x2 PUSH1 0x24 CALLDATALOAD PUSH4 0x3B9ACA0 DUP2 LT PUSH2 0x419 JUMPI PUSH1 0x0 DUP1 REVERT JUMPDEST PUSH1 0x5 PUSH1 0x4 CALLDATALOAD PUSH1 0xE0 MSTORE PUSH1 0xC0 MSTORE PUSH1 0x40 PUSH1 0xC0 SHA3 PUSH1 0xC0 MSTORE PUSH1 0x20 PUSH1 0xC0 SHA3 ADD PUSH1 0xC0 MSTORE PUSH1 0x20 PUSH1 0xC0 SHA3 ADD SLOAD PUSH1 0x0 MSTORE PUSH1 0x20 PUSH1 0x0 RETURN POP STOP JUMPDEST PUSH4 0xADC63589 PUSH1 0x0 MLOAD EQ ISZERO PUSH2 0x499 JUMPI CALLVALUE ISZERO PUSH2 0x460 JUMPI PUSH1 0x0 DUP1 REVERT JUMPDEST PUSH1 0x4 CALLDATALOAD PUSH1 0x20 MLOAD DUP2 LT PUSH2 0x471 JUMPI PUSH1 0x0 DUP1 REVERT JUMPDEST POP PUSH1 0x1 PUSH1 0x2 PUSH1 0x4 CALLDATALOAD PUSH1 0xE0 MSTORE PUSH1 0xC0 MSTORE PUSH1 0x40 PUSH1 0xC0 SHA3 PUSH1 0xC0 MSTORE PUSH1 0x20 PUSH1 0xC0 SHA3 ADD SLOAD PUSH1 0x0 MSTORE PUSH1 0x20 PUSH1 0x0 RETURN POP STOP JUMPDEST PUSH1 0x0 ISZERO PUSH2 0xDA1 JUMPI JUMPDEST PUSH2 0x1E0 MSTORE PUSH2 0x140 MSTORE PUSH2 0x160 MSTORE PUSH2 0x180 MSTORE PUSH2 0x1A0 MSTORE PUSH2 0x1C0 MSTORE PUSH1 0x80 CALLDATASIZE PUSH2 0x20 CALLDATACOPY PUSH1 0x80 CALLDATASIZE PUSH2 0x280 CALLDATACOPY PUSH1 0x0 PUSH2 0x30 MSTORE PUSH1 0x0 PUSH2 0x320 MSTORE PUSH1 0x3 SLOAD PUSH2 0x340 MSTORE PUSH1 0x0 PUSH2 0x140 MLOAD XOR ISZERO PUSH2 0x6AA JUMPI TIMESTAMP PUSH2 0x180 MLOAD GT ISZERO PUSH2 0x4FD JUMPI PUSH1 0x0 PUSH2 0x160 MLOAD SGT PUSH2 0x50 JUMP JUMPDEST PUSH1 0x0 JUMPDEST ISZERO PUSH2 0x59D JUMPI PUSH2 0x160 MLOAD PUSH4 0x784CE0 PUSH1 0x60 MLOAD DUP2 DUP1 PUSH2 0x51C JUMPI PUSH1 0x0 DUP1 REVERT JUMPDEST DUP4 SDIV DUP1 PUSH1 0x40 MLOAD SWAP1 SGT ISZERO PUSH2 0x52E JUMPI PUSH1 0x0 DUP1 REVERT JUMPDEST DUP1 SWAP2 SWAP1 SLT ISZERO PUSH2 0x53C JUMPI PUSH1 0x0 DUP1 REVERT JUMPDEST SWAP1 POP SWAP1 POP PUSH2 0x220 MSTORE PUSH2 0x220 MLOAD PUSH2 0x180 MLOAD TIMESTAMP DUP1 DUP3 LT ISZERO PUSH2 0x55A JUMPI PUSH1 0x0 DUP1 REVERT JUMPDEST DUP1 DUP3 SUB SWAP1 POP SWAP1 POP PUSH1 0x40 MLOAD DUP2 GT ISZERO PUSH2 0x570 JUMPI PUSH1 0x0 DUP1 REVERT JUMPDEST PUSH1 0x60 MLOAD DUP2 DUP4 MUL DUP1 PUSH1 0x40 MLOAD SWAP1 SGT ISZERO PUSH2 0x586 JUMPI PUSH1 0x0 DUP1 REVERT JUMPDEST DUP1 SWAP2 SWAP1 SLT ISZERO PUSH2 0x594 JUMPI PUSH1 0x0 DUP1 REVERT JUMPDEST SWAP1 POP SWAP1 POP PUSH2 0x20 MSTORE JUMPDEST TIMESTAMP PUSH2 0x1C0 MLOAD GT ISZERO PUSH2 0x5B4 JUMPI PUSH1 0x0 PUSH2 0x1A0 MLOAD SGT PUSH2 0x5B7 JUMP JUMPDEST PUSH1 0x0 JUMPDEST ISZERO PUSH2 0x654 JUMPI PUSH2 0x1A0 MLOAD PUSH4 0x784CE0 PUSH1 0x60 MLOAD DUP2 DUP1 PUSH2 0x5D3 JUMPI PUSH1 0x0 DUP1 REVERT JUMPDEST DUP4 SDIV DUP1 PUSH1 0x40 MLOAD SWAP1 SGT ISZERO PUSH2 0x5E5 JUMPI PUSH1 0x0 DUP1 REVERT JUMPDEST DUP1 SWAP2 SWAP1 SLT ISZERO PUSH2 0x5F3 JUMPI PUSH1 0x0 DUP1 REVERT JUMPDEST SWAP1 POP SWAP1 POP PUSH2 0x2A0 MSTORE PUSH2 0x2A0 MLOAD PUSH2 0x1C0 MLOAD TIMESTAMP DUP1 DUP3 LT ISZERO PUSH2 0x611 JUMPI PUSH1 0x0 DUP1 REVERT JUMPDEST DUP1 DUP3 SUB SWAP1 POP SWAP1 POP PUSH1 0x40 MLOAD DUP2 GT ISZERO PUSH2 0x627 JUMPI PUSH1 0x0 DUP1 REVERT JUMPDEST PUSH1 0x60 MLOAD DUP2 DUP4 MUL DUP1 PUSH1 0x40 MLOAD SWAP1 SGT ISZERO PUSH2 0x63D JUMPI PUSH1 0x0 DUP1 REVERT JUMPDEST DUP1 SWAP2 SWAP1 SLT ISZERO PUSH2 0x64B JUMPI PUSH1 0x0 DUP1 REVERT JUMPDEST SWAP1 POP SWAP1 POP PUSH2 0x280 MSTORE JUMPDEST PUSH1 0x7 PUSH2 0x180 MLOAD PUSH1 0xE0 MSTORE PUSH1 0xC0 MSTORE PUSH1 0x40 PUSH1 0xC0 SHA3 SLOAD PUSH2 0x30 MSTORE PUSH1 0x0 PUSH2 0x1C0 MLOAD XOR ISZERO PUSH2 0x6A9 JUMPI PUSH2 0x180 MLOAD PUSH2 0x1C0 MLOAD EQ ISZERO PUSH2 0x691 JUMPI PUSH2 0x30 MLOAD PUSH2 0x320 MSTORE PUSH2 0x6A8 JUMP JUMPDEST PUSH1 0x7 PUSH2 0x1C0 MLOAD PUSH1 0xE0 MSTORE PUSH1 0xC0 MSTORE PUSH1 0x40 PUSH1 0xC0 SHA3 SLOAD PUSH2 0x320 MSTORE JUMPDEST JUMPDEST JUMPDEST PUSH2 0x360 PUSH1 0x0 DUP2 MSTORE PUSH1 0x0 DUP2 PUSH1 0x20 ADD MSTORE TIMESTAMP DUP2 PUSH1 0x40 ADD MSTORE NUMBER DUP2 PUSH1 0x60 ADD MSTORE POP PUSH1 0x0 PUSH2 0x340 MLOAD GT ISZERO PUSH2 0x741 JUMPI PUSH2 0x360 PUSH2 0x340 MLOAD PUSH13 0x1431EFAE6D7217CAA0000 DUP2 LT PUSH2 0x6F1 JUMPI PUSH1 0x0 DUP1 REVERT JUMPDEST PUSH1 0x4 PUSH1 0xC0 MSTORE PUSH1 0x20 PUSH1 0xC0 SHA3 ADD DUP1 PUSH1 0xC0 MSTORE PUSH1 0x20 PUSH1 0xC0 SHA3 SLOAD DUP3 MSTORE PUSH1 0x1 DUP2 PUSH1 0xC0 MSTORE PUSH1 0x20 PUSH1 0xC0 SHA3 ADD SLOAD DUP3 PUSH1 0x20 ADD MSTORE PUSH1 0x2 DUP2 PUSH1 0xC0 MSTORE PUSH1 0x20 PUSH1 0xC0 SHA3 ADD SLOAD DUP3 PUSH1 0x40 ADD MSTORE PUSH1 0x3 DUP2 PUSH1 0xC0 MSTORE PUSH1 0x20 PUSH1 0xC0 SHA3 ADD SLOAD DUP3 PUSH1 0x60 ADD MSTORE POP POP JUMPDEST PUSH2 0x3A0 MLOAD PUSH2 0x3E0 MSTORE PUSH2 0x40 PUSH2 0x360 DUP1 MLOAD DUP3 MSTORE DUP1 PUSH1 0x20 ADD MLOAD DUP3 PUSH1 0x20 ADD MSTORE DUP1 PUSH1 0x40 ADD MLOAD DUP3 PUSH1 0x40 ADD MSTORE DUP1 PUSH1 0x60 ADD MLOAD DUP3 PUSH1 0x60 ADD MSTORE POP POP PUSH1 0x0 PUSH2 0x480 MSTORE PUSH2 0x3A0 MLOAD TIMESTAMP GT ISZERO PUSH2 0x7F0 JUMPI PUSH8 0xDE0B6B3A76400 NUMBER PUSH2 0x3C0 MLOAD DUP1 DUP3 LT ISZERO PUSH2 0x79F JUMPI PUSH1 0x0 DUP1 REVERT JUMPDEST DUP1 DUP3 SUB SWAP1 POP SWAP1 POP DUP1 DUP3 MUL DUP3 ISZERO DUP3 DUP5 DUP4 DIV EQ OR PUSH2 0x7BA JUMPI PUSH1 0x0 DUP1 REVERT JUMPDEST DUP1 SWAP1 POP SWAP1 POP SWAP1 POP TIMESTAMP PUSH2 0x3A0 MLOAD DUP1 DUP3 LT ISZERO PUSH2 0x7D3 JUMPI PUSH1 0x0 DUP1 REVERT JUMPDEST DUP1 DUP3 SUB SWAP1 POP SWAP1 POP DUP1 DUP1 PUSH2 0x7E5 JUMPI PUSH1 0x0 DUP1 REVERT JUMPDEST DUP3 DIV SWAP1 POP SWAP1 POP PUSH2 0x480 MSTORE JUMPDEST PUSH2 0x3E0 MLOAD PUSH3 0x93A80 DUP1 DUP1 PUSH2 0x83 JUMPI PUSH1 0x0 DUP1 REVERT JUMPDEST DUP3 DIV SWAP1 POP SWAP1 POP PUSH3 0x93A80 DUP1 DUP3 MUL DUP3 ISZERO DUP3 DUP5 DUP4 DIV EQ OR PUSH2 0x821 JUMPI PUSH1 0x0 DUP1 REVERT JUMPDEST DUP1 SWAP1 POP SWAP1 POP SWAP1 POP PUSH2 0x4A0 MSTORE PUSH2 0x4C0 PUSH1 0x0 PUSH1 0xFF DUP2 DUP4 MSTORE ADD JUMPDEST PUSH2 0x4A0 DUP1 MLOAD PUSH3 0x93A80 DUP2 DUP2 DUP4 ADD LT ISZERO PUSH2 0x850 JUMPI PUSH1 0x0 DUP1 REVERT JUMPDEST DUP1 DUP3 ADD SWAP1 POP SWAP1 POP DUP2 MSTORE POP PUSH1 0x0 PUSH2 0x4E0 MSTORE TIMESTAMP PUSH2 0x4A0 MLOAD GT ISZERO PUSH2 0x875 JUMPI TIMESTAMP PUSH2 0x4A0 MSTORE PUSH2 0x88C JUMP JUMPDEST PUSH1 0x7 PUSH2 0x4A0 MLOAD PUSH1 0xE0 MSTORE PUSH1 0xC0 MSTORE PUSH1 0x40 PUSH1 0xC0 SHA3 SLOAD PUSH2 0x4E0 MSTORE JUMPDEST PUSH2 0x360 DUP1 MLOAD PUSH2 0x380 MLOAD PUSH2 0x4A0 MLOAD PUSH2 0x3E0 MLOAD DUP1 DUP3 LT ISZERO PUSH2 0x8AA JUMPI PUSH1 0x0 DUP1 REVERT JUMPDEST DUP1 DUP3 SUB SWAP1 POP SWAP1 POP PUSH1 0x40 MLOAD DUP2 GT ISZERO PUSH2 0x8C0 JUMPI PUSH1 0x0 DUP1 REVERT JUMPDEST PUSH1 0x60 MLOAD DUP2 DUP4 MUL DUP1 PUSH1 0x40 MLOAD SWAP1 SGT ISZERO PUSH2 0x8D6 JUMPI PUSH1 0x0 DUP1 REVERT JUMPDEST DUP1 SWAP2 SWAP1 SLT ISZERO PUSH2 0x8E4 JUMPI PUSH1 0x0 DUP1 REVERT JUMPDEST SWAP1 POP SWAP1 POP PUSH1 0x60 MLOAD DUP2 DUP4 SUB DUP1 PUSH1 0x40 MLOAD SWAP1 SGT ISZERO PUSH2 0x8FE JUMPI PUSH1 0x0 DUP1 REVERT JUMPDEST DUP1 SWAP2 SWAP1 SLT ISZERO PUSH2 0x9C JUMPI PUSH1 0x0 DUP1 REVERT JUMPDEST SWAP1 POP SWAP1 POP DUP2 MSTORE POP PUSH2 0x380 DUP1 MLOAD PUSH2 0x4E0 MLOAD PUSH1 0x60 MLOAD DUP2 DUP4 ADD DUP1 PUSH1 0x40 MLOAD SWAP1 SGT ISZERO PUSH2 0x932 JUMPI PUSH1 0x0 DUP1 REVERT JUMPDEST DUP1 SWAP2 SWAP1 SLT ISZERO PUSH2 0x940 JUMPI PUSH1 0x0 DUP1 REVERT JUMPDEST SWAP1 POP SWAP1 POP DUP2 MSTORE POP PUSH1 0x0 PUSH2 0x360 MLOAD SLT ISZERO PUSH2 0x95A JUMPI PUSH1 0x0 PUSH2 0x360 MSTORE JUMPDEST PUSH1 0x0 PUSH2 0x380 MLOAD SLT ISZERO PUSH2 0x96D JUMPI PUSH1 0x0 PUSH2 0x380 MSTORE JUMPDEST PUSH2 0x4A0 MLOAD PUSH2 0x3E0 MSTORE PUSH2 0x4A0 MLOAD PUSH2 0x3A0 MSTORE PUSH2 0x460 MLOAD PUSH2 0x480 MLOAD PUSH2 0x4A0 MLOAD PUSH2 0x440 MLOAD DUP1 DUP3 LT ISZERO PUSH2 0x99A JUMPI PUSH1 0x0 DUP1 REVERT JUMPDEST DUP1 DUP3 SUB SWAP1 POP SWAP1 POP DUP1 DUP3 MUL DUP3 ISZERO DUP3 DUP5 DUP4 DIV EQ OR PUSH2 0x9B5 JUMPI PUSH1 0x0 DUP1 REVERT JUMPDEST DUP1 SWAP1 POP SWAP1 POP SWAP1 POP PUSH8 0xDE0B6B3A76400 DUP1 DUP1 PUSH2 0x9D0 JUMPI PUSH1 0x0 DUP1 REVERT JUMPDEST DUP3 DIV SWAP1 POP SWAP1 POP DUP2 DUP2 DUP4 ADD LT ISZERO PUSH2 0x9E5 JUMPI PUSH1 0x0 DUP1 REVERT JUMPDEST DUP1 DUP3 ADD SWAP1 POP SWAP1 POP PUSH2 0x3C0 MSTORE PUSH2 0x340 DUP1 MLOAD PUSH1 0x1 DUP2 DUP2 DUP4 ADD LT ISZERO PUSH2 0xA6 JUMPI PUSH1 0x0 DUP1 REVERT JUMPDEST DUP1 DUP3 ADD SWAP1 POP SWAP1 POP DUP2 MSTORE POP TIMESTAMP PUSH2 0x4A0 MLOAD EQ ISZERO PUSH2 0xA29 JUMPI NUMBER PUSH2 0x3C0 MSTORE PUSH2 0xA92 JUMP PUSH2 0xA81 JUMP JUMPDEST PUSH2 0x340 MLOAD PUSH13 0x1431EFAE6D7217CAA0000 DUP2 LT PUSH2 0xA46 JUMPI PUSH1 0x0 DUP1 REVERT JUMPDEST PUSH1 0x4 PUSH1 0xC0 MSTORE PUSH1 0x20 PUSH1 0xC0 SHA3 ADD PUSH1 0xC0 MSTORE PUSH1 0x20 PUSH1 0xC0 SHA3 PUSH2 0x360 DUP1 MLOAD DUP3 SSTORE DUP1 PUSH1 0x20 ADD MLOAD PUSH1 0x1 DUP4 ADD SSTORE DUP1 PUSH1 0x40 ADD MLOAD PUSH1 0x2 DUP4 ADD SSTORE DUP1 PUSH1 0x60 ADD MLOAD PUSH1 0x3 DUP4 ADD SSTORE POP POP JUMPDEST JUMPDEST DUP2 MLOAD PUSH1 0x1 ADD DUP1 DUP4 MSTORE DUP2 EQ ISZERO PUSH2 0x838 JUMPI JUMPDEST POP POP PUSH2 0x340 MLOAD PUSH1 0x3 SSTORE PUSH1 0x0 PUSH2 0x140 MLOAD XOR ISZERO PUSH2 0xB8E JUMPI PUSH2 0x380 DUP1 MLOAD PUSH2 0x2A0 MLOAD PUSH2 0x220 MLOAD PUSH1 0x60 MLOAD DUP2 DUP4 SUB DUP1 PUSH1 0x40 MLOAD SWAP1 SGT ISZERO PUSH2 0xACA JUMPI PUSH1 0x0 DUP1 REVERT JUMPDEST DUP1 SWAP2 SWAP1 SLT ISZERO PUSH2 0xAD8 JUMPI PUSH1 0x0 DUP1 REVERT JUMPDEST SWAP1 POP SWAP1 POP PUSH1 0x60 MLOAD DUP2 DUP4 ADD DUP1 PUSH1 0x40 MLOAD SWAP1 SGT ISZERO PUSH2 0xAF2 JUMPI PUSH1 0x0 DUP1 REVERT JUMPDEST DUP1 SWAP2 SWAP1 SLT ISZERO PUSH2 0xB0 JUMPI PUSH1 0x0 DUP1 REVERT JUMPDEST SWAP1 POP SWAP1 POP DUP2 MSTORE POP PUSH2 0x360 DUP1 MLOAD PUSH2 0x280 MLOAD PUSH2 0x20 MLOAD PUSH1 0x60 MLOAD DUP2 DUP4 SUB DUP1 PUSH1 0x40 MLOAD SWAP1 SGT ISZERO PUSH2 0xB2A JUMPI PUSH1 0x0 DUP1 REVERT JUMPDEST DUP1 SWAP2 SWAP1 SLT ISZERO PUSH2 0xB38 JUMPI PUSH1 0x0 DUP1 REVERT JUMPDEST SWAP1 POP SWAP1 POP PUSH1 0x60 MLOAD DUP2 DUP4 ADD DUP1 PUSH1 0x40 MLOAD SWAP1 SGT ISZERO PUSH2 0xB52 JUMPI PUSH1 0x0 DUP1 REVERT JUMPDEST DUP1 SWAP2 SWAP1 SLT ISZERO PUSH2 0xB60 JUMPI PUSH1 0x0 DUP1 REVERT JUMPDEST SWAP1 POP SWAP1 POP DUP2 MSTORE POP PUSH1 0x0 PUSH2 0x380 MLOAD SLT ISZERO PUSH2 0xB7A JUMPI PUSH1 0x0 PUSH2 0x380 MSTORE JUMPDEST PUSH1 0x0 PUSH2 0x360 MLOAD SLT ISZERO PUSH2 0xB8D JUMPI PUSH1 0x0 PUSH2 0x360 MSTORE JUMPDEST JUMPDEST PUSH2 0x340 MLOAD PUSH13 0x1431EFAE6D7217CAA0000 DUP2 LT PUSH2 0xBAB JUMPI PUSH1 0x0 DUP1 REVERT JUMPDEST PUSH1 0x4 PUSH1 0xC0 MSTORE PUSH1 0x20 PUSH1 0xC0 SHA3 ADD PUSH1 0xC0 MSTORE PUSH1 0x20 PUSH1 0xC0 SHA3 PUSH2 0x360 DUP1 MLOAD DUP3 SSTORE DUP1 PUSH1 0x20 ADD MLOAD PUSH1 0x1 DUP4 ADD SSTORE DUP1 PUSH1 0x40 ADD MLOAD PUSH1 0x2 DUP4 ADD SSTORE DUP1 PUSH1 0x60 ADD MLOAD PUSH1 0x3 DUP4 ADD SSTORE POP POP PUSH1 0x0 PUSH2 0x140 MLOAD XOR ISZERO PUSH2 0xD9B JUMPI TIMESTAMP PUSH2 0x180 MLOAD GT ISZERO PUSH2 0xC8A JUMPI PUSH2 0x30 DUP1 MLOAD PUSH2 0x220 MLOAD PUSH1 0x60 MLOAD DUP2 DUP4 ADD DUP1 PUSH1 0x40 MLOAD SWAP1 SGT ISZERO PUSH2 0xC1B JUMPI PUSH1 0x0 DUP1 REVERT JUMPDEST DUP1 SWAP2 SWAP1 SLT ISZERO PUSH2 0xC29 JUMPI PUSH1 0x0 DUP1 REVERT JUMPDEST SWAP1 POP SWAP1 POP DUP2 MSTORE POP PUSH2 0x180 MLOAD PUSH2 0x1C0 MLOAD EQ ISZERO PUSH2 0xC73 JUMPI PUSH2 0x30 DUP1 MLOAD PUSH2 0x2A0 MLOAD PUSH1 0x60 MLOAD DUP2 DUP4 SUB DUP1 PUSH1 0x40 MLOAD SWAP1 SGT ISZERO PUSH2 0xC5D JUMPI PUSH1 0x0 DUP1 REVERT JUMPDEST DUP1 SWAP2 SWAP1 SLT ISZERO PUSH2 0xC6B JUMPI PUSH1 0x0 DUP1 REVERT JUMPDEST SWAP1 POP SWAP1 POP DUP2 MSTORE POP JUMPDEST PUSH2 0x30 MLOAD PUSH1 0x7 PUSH2 0x180 MLOAD PUSH1 0xE0 MSTORE PUSH1 0xC0 MSTORE PUSH1 0x40 PUSH1 0xC0 SHA3 SSTORE JUMPDEST TIMESTAMP PUSH2 0x1C0 MLOAD GT ISZERO PUSH2 0xCEF JUMPI PUSH2 0x180 MLOAD PUSH2 0x1C0 MLOAD GT ISZERO PUSH2 0xCEE JUMPI PUSH2 0x320 DUP1 MLOAD PUSH2 0x2A0 MLOAD PUSH1 0x60 MLOAD DUP2 DUP4 SUB DUP1 PUSH1 0x40 MLOAD SWAP1 SGT ISZERO PUSH2 0xCC2 JUMPI PUSH1 0x0 DUP1 REVERT JUMPDEST DUP1 SWAP2 SWAP1 SLT ISZERO PUSH2 0xCD0 JUMPI PUSH1 0x0 DUP1 REVERT JUMPDEST SWAP1 POP SWAP1 POP DUP2 MSTORE POP PUSH2 0x320 MLOAD PUSH1 0x7 PUSH2 0x1C0 MLOAD PUSH1 0xE0 MSTORE PUSH1 0xC0 MSTORE PUSH1 0x40 PUSH1 0xC0 SHA3 SSTORE JUMPDEST JUMPDEST PUSH1 0x6 PUSH2 0x140 MLOAD PUSH1 0xE0 MSTORE PUSH1 0xC0 MSTORE PUSH1 0x40 PUSH1 0xC0 SHA3 SLOAD PUSH1 0x1 DUP2 DUP2 DUP4 ADD LT ISZERO PUSH2 0xD12 JUMPI PUSH1 0x0 DUP1 REVERT JUMPDEST DUP1 DUP3 ADD SWAP1 POP SWAP1 POP PUSH2 0x50 MSTORE PUSH2 0x50 MLOAD PUSH1 0x6 PUSH2 0x140 MLOAD PUSH1 0xE0 MSTORE PUSH1 0xC0 MSTORE PUSH1 0x40 PUSH1 0xC0 SHA3 SSTORE TIMESTAMP PUSH2 0x2C0 MSTORE NUMBER PUSH2 0x2E0 MSTORE PUSH2 0x50 MLOAD PUSH4 0x3B9ACA0 DUP2 LT PUSH2 0xD51 JUMPI PUSH1 0x0 DUP1 REVERT JUMPDEST PUSH1 0x5 PUSH2 0x140 MLOAD PUSH1 0xE0 MSTORE PUSH1 0xC0 MSTORE PUSH1 0x40 PUSH1 0xC0 SHA3 PUSH1 0xC0 MSTORE PUSH1 0x20 PUSH1 0xC0 SHA3 ADD PUSH1 0xC0 MSTORE PUSH1 0x20 PUSH1 0xC0 SHA3 PUSH2 0x280 DUP1 MLOAD DUP3 SSTORE DUP1 PUSH1 0x20 ADD MLOAD PUSH1 0x1 DUP4 ADD SSTORE DUP1 PUSH1 0x40 ADD MLOAD PUSH1 0x2 DUP4 ADD SSTORE DUP1 PUSH1 0x60 ADD MLOAD PUSH1 0x3 DUP4 ADD SSTORE POP POP JUMPDEST PUSH2 0x1E0 MLOAD JUMP JUMPDEST PUSH1 0x0 ISZERO PUSH2 0x1043 JUMPI JUMPDEST PUSH2 0x20 MSTORE PUSH2 0x140 MSTORE PUSH2 0x160 MSTORE PUSH2 0x180 MSTORE PUSH2 0x1A0 MSTORE PUSH2 0x1C0 MSTORE PUSH2 0x1E0 MSTORE PUSH2 0x220 PUSH2 0x1A0 DUP1 MLOAD DUP3 MSTORE DUP1 PUSH1 0x20 ADD MLOAD DUP3 PUSH1 0x20 ADD MSTORE POP POP PUSH1 0x1 SLOAD PUSH2 0x260 MSTORE PUSH2 0x260 MLOAD PUSH2 0x160 MLOAD DUP2 DUP2 DUP4 ADD LT ISZERO PUSH2 0xDF9 JUMPI PUSH1 0x0 DUP1 REVERT JUMPDEST DUP1 DUP3 ADD SWAP1 POP SWAP1 POP PUSH1 0x1 SSTORE PUSH2 0x280 PUSH2 0x220 DUP1 MLOAD DUP3 MSTORE DUP1 PUSH1 0x20 ADD MLOAD DUP3 PUSH1 0x20 ADD MSTORE POP POP PUSH2 0x220 DUP1 MLOAD PUSH2 0x160 MLOAD PUSH1 0x40 MLOAD DUP2 GT ISZERO PUSH2 0xE31 JUMPI PUSH1 0x0 DUP1 REVERT JUMPDEST PUSH1 0x60 MLOAD DUP2 DUP4 ADD DUP1 PUSH1 0x40 MLOAD SWAP1 SGT ISZERO PUSH2 0xE47 JUMPI PUSH1 0x0 DUP1 REVERT JUMPDEST DUP1 SWAP2 SWAP1 SLT ISZERO PUSH2 0xE55 JUMPI PUSH1 0x0 DUP1 REVERT JUMPDEST SWAP1 POP SWAP1 POP DUP2 MSTORE POP PUSH1 0x0 PUSH2 0x180 MLOAD XOR ISZERO PUSH2 0xE71 JUMPI PUSH2 0x180 MLOAD PUSH2 0x240 MSTORE JUMPDEST PUSH1 0x2 PUSH2 0x140 MLOAD PUSH1 0xE0 MSTORE PUSH1 0xC0 MSTORE PUSH1 0x40 PUSH1 0xC0 SHA3 PUSH1 0xC0 MSTORE PUSH1 0x20 PUSH1 0xC0 SHA3 PUSH2 0x220 DUP1 MLOAD DUP3 SSTORE DUP1 PUSH1 0x20 ADD MLOAD PUSH1 0x1 DUP4 ADD SSTORE POP POP PUSH2 0x140 PUSH2 0x2C0 MSTORE JUMPDEST PUSH2 0x2C0 MLOAD MLOAD PUSH1 0x20 PUSH2 0x2C0 MLOAD ADD PUSH2 0x2C0 MSTORE PUSH2 0x2C0 PUSH2 0x2C0 MLOAD LT ISZERO PUSH2 0xEC7 JUMPI PUSH2 0xEA5 JUMP JUMPDEST PUSH2 0x140 MLOAD PUSH2 0x2E0 MSTORE PUSH2 0x30 PUSH2 0x280 DUP1 MLOAD DUP3 MSTORE DUP1 PUSH1 0x20 ADD MLOAD DUP3 PUSH1 0x20 ADD MSTORE POP POP PUSH2 0x340 PUSH2 0x220 DUP1 MLOAD DUP3 MSTORE DUP1 PUSH1 0x20 ADD MLOAD DUP3 PUSH1 0x20 ADD MSTORE POP POP PUSH2 0x360 MLOAD PUSH2 0x340 MLOAD PUSH2 0x320 MLOAD PUSH2 0x30 MLOAD PUSH2 0x2E0 MLOAD PUSH1 0x6 PC ADD PUSH2 0x4A1 JUMP JUMPDEST PUSH2 0x2A0 PUSH2 0x2C0 MSTORE JUMPDEST PUSH2 0x2C0 MLOAD MSTORE PUSH1 0x20 PUSH2 0x2C0 MLOAD SUB PUSH2 0x2C0 MSTORE PUSH2 0x140 PUSH2 0x2C0 MLOAD LT ISZERO ISZERO PUSH2 0xF43 JUMPI PUSH2 0xF20 JUMP JUMPDEST PUSH1 0x0 POP PUSH1 0x0 PUSH2 0x160 MLOAD XOR ISZERO PUSH2 0xFA8 JUMPI PUSH1 0x20 PUSH2 0x480 PUSH1 0x64 PUSH4 0x23B872DD PUSH2 0x3C0 MSTORE PUSH2 0x140 MLOAD PUSH2 0x3E0 MSTORE ADDRESS PUSH2 0x40 MSTORE PUSH2 0x160 MLOAD PUSH2 0x420 MSTORE PUSH2 0x3DC PUSH1 0x0 PUSH1 0x0 SLOAD GAS CALL PUSH2 0xF8A JUMPI PUSH1 0x0 DUP1 REVERT JUMPDEST PUSH1 0x1F RETURNDATASIZE GT PUSH2 0xF97 JUMPI PUSH1 0x0 DUP1 REVERT JUMPDEST PUSH1 0x0 POP PUSH2 0x480 MLOAD PUSH2 0xFA7 JUMPI PUSH1 0x0 DUP1 REVERT JUMPDEST JUMPDEST PUSH2 0x160 MLOAD PUSH2 0x4A0 MSTORE PUSH2 0x1E0 MLOAD PUSH2 0x4C0 MSTORE TIMESTAMP PUSH2 0x4E0 MSTORE PUSH2 0x240 MLOAD PUSH2 0x140 MLOAD PUSH32 0x4566DFC29F6F11D13A418C26A02BEF7C28BAE749D4DE47E4E6A7CDDEA673D59 PUSH1 0x60 PUSH2 0x4A0 LOG3 PUSH2 0x260 MLOAD PUSH2 0x50 MSTORE PUSH2 0x260 MLOAD PUSH2 0x160 MLOAD DUP2 DUP2 DUP4 ADD LT ISZERO PUSH2 0x10B JUMPI PUSH1 0x0 DUP1 REVERT JUMPDEST DUP1 DUP3 ADD SWAP1 POP SWAP1 POP PUSH2 0x520 MSTORE PUSH32 0x5E2AA66EFD74CCE82B21852E317E5490D9ECC9E6BB953AE24D90851258CC2F5C PUSH1 0x40 PUSH2 0x50 LOG1 PUSH2 0x20 MLOAD JUMP JUMPDEST PUSH4 0xC2C4C5C1 PUSH1 0x0 MLOAD EQ ISZERO PUSH2 0x1092 JUMPI CALLVALUE ISZERO PUSH2 0x105C JUMPI PUSH1 0x0 DUP1 REVERT JUMPDEST PUSH1 0x0 PUSH2 0x140 MSTORE PUSH1 0x40 CALLDATASIZE PUSH2 0x160 CALLDATACOPY PUSH1 0x40 CALLDATASIZE PUSH2 0x1A0 CALLDATACOPY PUSH2 0x1C0 MLOAD PUSH2 0x1A0 MLOAD PUSH2 0x180 MLOAD PUSH2 0x160 MLOAD PUSH2 0x140 MLOAD PUSH1 0x6 PC ADD PUSH2 0x4A1 JUMP JUMPDEST PUSH1 0x0 POP STOP JUMPDEST PUSH4 0x3A46273E PUSH1 0x0 MLOAD EQ ISZERO PUSH2 0x12A8 JUMPI PUSH3 0xFFFFFF SLOAD ISZERO PUSH2 0x10AF JUMPI PUSH1 0x0 DUP1 REVERT JUMPDEST PUSH1 0x1 PUSH3 0xFFFFFF SSTORE CALLVALUE ISZERO PUSH2 0x10C1 JUMPI PUSH1 0x0 DUP1 REVERT JUMPDEST PUSH1 0x4 CALLDATALOAD PUSH1 0x20 MLOAD DUP2 LT PUSH2 0x10D2 JUMPI PUSH1 0x0 DUP1 REVERT JUMPDEST POP PUSH2 0x140 PUSH1 0x2 PUSH1 0x4 CALLDATALOAD PUSH1 0xE0 MSTORE PUSH1 0xC0 MSTORE PUSH1 0x40 PUSH1 0xC0 SHA3 DUP1 PUSH1 0xC0 MSTORE PUSH1 0x20 PUSH1 0xC0 SHA3 SLOAD DUP3 MSTORE PUSH1 0x1 DUP2 PUSH1 0xC0 MSTORE PUSH1 0x20 PUSH1 0xC0 SHA3 ADD SLOAD DUP3 PUSH1 0x20 ADD MSTORE POP POP PUSH1 0x0 PUSH1 0x24 CALLDATALOAD GT PUSH2 0x1115 JUMPI PUSH1 0x0 DUP1 REVERT JUMPDEST PUSH4 0x8C379A0 PUSH2 0x180 MSTORE PUSH1 0x20 PUSH2 0x1A0 MSTORE PUSH1 0x16 PUSH2 0x1C0 MSTORE PUSH32 0x4E6F206578697374696E67206C6F636B20666F756E640000000000 PUSH2 0x1E0 MSTORE PUSH2 0x1C0 POP PUSH1 0x0 PUSH2 0x140 MLOAD SGT PUSH2 0x1165 JUMPI PUSH1 0x64 PUSH2 0x19C REVERT JUMPDEST PUSH4 0x8C379A0 PUSH2 0x220 MSTORE PUSH1 0x20 PUSH2 0x240 MSTORE PUSH1 0x24 PUSH2 0x260 MSTORE PUSH32 0x43616E6E6F742061646420746F2065787069726564206C6F636B2E2057697468 PUSH2 0x280 MSTORE PUSH32 0x647261770000000000000000000000000000 PUSH2 0x2A0 MSTORE PUSH2 0x260 POP TIMESTAMP PUSH2 0x160 MLOAD GT PUSH2 0x11D9 JUMPI PUSH1 0x84 PUSH2 0x23C REVERT JUMPDEST PUSH2 0x140 PUSH2 0x2E0 MSTORE JUMPDEST PUSH2 0x2E0 MLOAD MLOAD PUSH1 0x20 PUSH2 0x2E0 MLOAD ADD PUSH2 0x2E0 MSTORE PUSH2 0x2E0 PUSH2 0x2E0 MLOAD LT ISZERO PUSH2 0x123 JUMPI PUSH2 0x11E1 JUMP JUMPDEST PUSH1 0x4 CALLDATALOAD PUSH2 0x30 MSTORE PUSH1 0x24 CALLDATALOAD PUSH2 0x320 MSTORE PUSH1 0x0 PUSH2 0x340 MSTORE PUSH2 0x360 PUSH1 0x2 PUSH1 0x4 CALLDATALOAD PUSH1 0xE0 MSTORE PUSH1 0xC0 MSTORE PUSH1 0x40 PUSH1 0xC0 SHA3 DUP1 PUSH1 0xC0 MSTORE PUSH1 0x20 PUSH1 0xC0 SHA3 SLOAD DUP3 MSTORE PUSH1 0x1 DUP2 PUSH1 0xC0 MSTORE PUSH1 0x20 PUSH1 0xC0 SHA3 ADD SLOAD DUP3 PUSH1 0x20 ADD MSTORE POP POP PUSH1 0x0 PUSH2 0x3A0 MSTORE PUSH2 0x3A0 MLOAD PUSH2 0x380 MLOAD PUSH2 0x360 MLOAD PUSH2 0x340 MLOAD PUSH2 0x320 MLOAD PUSH2 0x30 MLOAD PUSH1 0x6 PC ADD PUSH2 0xDA9 JUMP JUMPDEST PUSH2 0x2C0 PUSH2 0x2E0 MSTORE JUMPDEST PUSH2 0x2E0 MLOAD MSTORE PUSH1 0x20 PUSH2 0x2E0 MLOAD SUB PUSH2 0x2E0 MSTORE PUSH2 0x140 PUSH2 0x2E0 MLOAD LT ISZERO ISZERO PUSH2 0x129C JUMPI PUSH2 0x1279 JUMP JUMPDEST PUSH1 0x0 POP PUSH1 0x0 PUSH3 0xFFFFFF SSTORE STOP JUMPDEST PUSH4 0x65FC3873 PUSH1 0x0 MLOAD EQ ISZERO PUSH2 0x1546 JUMPI PUSH3 0xFFFFFF SLOAD ISZERO PUSH2 0x12C5 JUMPI PUSH1 0x0 DUP1 REVERT JUMPDEST PUSH1 0x1 PUSH3 0xFFFFFF SSTORE CALLVALUE ISZERO PUSH2 0x12D7 JUMPI PUSH1 0x0 DUP1 REVERT JUMPDEST CALLER PUSH2 0x140 MSTORE PUSH2 0x140 MLOAD PUSH1 0x6 PC ADD PUSH2 0x26C JUMP JUMPDEST PUSH1 0x0 POP PUSH1 0x24 CALLDATALOAD PUSH3 0x93A80 DUP1 DUP1 PUSH2 0x12FE JUMPI PUSH1 0x0 DUP1 REVERT JUMPDEST DUP3 DIV SWAP1 POP SWAP1 POP PUSH3 0x93A80 DUP1 DUP3 MUL DUP3 ISZERO DUP3 DUP5 DUP4 DIV EQ OR PUSH2 0x131C JUMPI PUSH1 0x0 DUP1 REVERT JUMPDEST DUP1 SWAP1 POP SWAP1 POP SWAP1 POP PUSH2 0x1A0 MSTORE PUSH2 0x1C0 PUSH1 0x2 CALLER PUSH1 0xE0 MSTORE PUSH1 0xC0 MSTORE PUSH1 0x40 PUSH1 0xC0 SHA3 DUP1 PUSH1 0xC0 MSTORE PUSH1 0x20 PUSH1 0xC0 SHA3 SLOAD DUP3 MSTORE PUSH1 0x1 DUP2 PUSH1 0xC0 MSTORE PUSH1 0x20 PUSH1 0xC0 SHA3 ADD SLOAD DUP3 PUSH1 0x20 ADD MSTORE POP POP PUSH1 0x0 PUSH1 0x4 CALLDATALOAD GT PUSH2 0x1367 JUMPI PUSH1 0x0 DUP1 REVERT JUMPDEST PUSH4 0x8C379A0 PUSH2 0x20 MSTORE PUSH1 0x20 PUSH2 0x220 MSTORE PUSH1 0x19 PUSH2 0x240 MSTORE PUSH32 0x5769746864726177206F6C6420746F6B656E732066697273740000000 PUSH2 0x260 MSTORE PUSH2 0x240 POP PUSH2 0x1C0 MLOAD ISZERO PUSH2 0x13B5 JUMPI PUSH1 0x64 PUSH2 0x21C REVERT JUMPDEST PUSH4 0x8C379A0 PUSH2 0x2A0 MSTORE PUSH1 0x20 PUSH2 0x2C0 MSTORE PUSH1 0x26 PUSH2 0x2E0 MSTORE PUSH32 0x43616E206F6E6C79206C6F636B20756E74696C2074696D6520696E2074686520 PUSH2 0x30 MSTORE PUSH32 0x66757475726500000000000000000000000000 PUSH2 0x320 MSTORE PUSH2 0x2E0 POP TIMESTAMP PUSH2 0x1A0 MLOAD GT PUSH2 0x1429 JUMPI PUSH1 0x84 PUSH2 0x2BC REVERT JUMPDEST PUSH4 0x8C379A0 PUSH2 0x360 MSTORE PUSH1 0x20 PUSH2 0x380 MSTORE PUSH1 0x1E PUSH2 0x3A0 MSTORE PUSH32 0x566F74696E67206C6F636B2063616E2062652034207965617273206D617800 PUSH2 0x3C0 MSTORE PUSH2 0x3A0 POP TIMESTAMP PUSH4 0x784CE0 DUP2 DUP2 DUP4 ADD LT ISZERO PUSH2 0x147C JUMPI PUSH1 0x0 DUP1 REVERT JUMPDEST DUP1 DUP3 ADD SWAP1 POP SWAP1 POP PUSH2 0x1A0 MLOAD GT ISZERO PUSH2 0x1494 JUMPI PUSH1 0x64 PUSH2 0x37C REVERT JUMPDEST PUSH2 0x140 PUSH2 0x40 MSTORE JUMPDEST PUSH2 0x40 MLOAD MLOAD PUSH1 0x20 PUSH2 0x40 MLOAD ADD PUSH2 0x40 MSTORE PUSH2 0x40 PUSH2 0x40 MLOAD LT ISZERO PUSH2 0x14BE JUMPI PUSH2 0x149C JUMP JUMPDEST CALLER PUSH2 0x420 MSTORE PUSH1 0x4 CALLDATALOAD PUSH2 0x440 MSTORE PUSH2 0x1A0 MLOAD PUSH2 0x460 MSTORE PUSH2 0x480 PUSH2 0x1C0 DUP1 MLOAD DUP3 MSTORE DUP1 PUSH1 0x20 ADD MLOAD DUP3 PUSH1 0x20 ADD MSTORE POP POP PUSH1 0x1 PUSH2 0x4C0 MSTORE PUSH2 0x4C0 MLOAD PUSH2 0x4A0 MLOAD PUSH2 0x480 MLOAD PUSH2 0x460 MLOAD PUSH2 0x440 MLOAD PUSH2 0x420 MLOAD PUSH1 0x6 PC ADD PUSH2 0xDA9 JUMP JUMPDEST PUSH2 0x3E0 PUSH2 0x40 MSTORE JUMPDEST PUSH2 0x40 MLOAD MSTORE PUSH1 0x20 PUSH2 0x40 MLOAD SUB PUSH2 0x40 MSTORE PUSH2 0x140 PUSH2 0x40 MLOAD LT ISZERO ISZERO PUSH2 0x153A JUMPI PUSH2 0x1517 JUMP JUMPDEST PUSH1 0x0 POP PUSH1 0x0 PUSH3 0xFFFFFF SSTORE STOP JUMPDEST PUSH4 0x4957677C PUSH1 0x0 MLOAD EQ ISZERO PUSH2 0x173E JUMPI PUSH3 0xFFFFFF SLOAD ISZERO PUSH2 0x1563 JUMPI PUSH1 0x0 DUP1 REVERT JUMPDEST PUSH1 0x1 PUSH3 0xFFFFFF SSTORE CALLVALUE ISZERO PUSH2 0x1575 JUMPI PUSH1 0x0 DUP1 REVERT JUMPDEST CALLER PUSH2 0x140 MSTORE PUSH2 0x140 MLOAD PUSH1 0x6 PC ADD PUSH2 0x26C JUMP JUMPDEST PUSH1 0x0 POP PUSH2 0x1A0 PUSH1 0x2 CALLER PUSH1 0xE0 MSTORE PUSH1 0xC0 MSTORE PUSH1 0x40 PUSH1 0xC0 SHA3 DUP1 PUSH1 0xC0 MSTORE PUSH1 0x20 PUSH1 0xC0 SHA3 SLOAD DUP3 MSTORE PUSH1 0x1 DUP2 PUSH1 0xC0 MSTORE PUSH1 0x20 PUSH1 0xC0 SHA3 ADD SLOAD DUP3 PUSH1 0x20 ADD MSTORE POP POP PUSH1 0x0 PUSH1 0x4 CALLDATALOAD GT PUSH2 0x15CA JUMPI PUSH1 0x0 DUP1 REVERT JUMPDEST PUSH4 0x8C379A0 PUSH2 0x1E0 MSTORE PUSH1 0x20 PUSH2 0x20 MSTORE PUSH1 0x16 PUSH2 0x220 MSTORE PUSH32 0x4E6F206578697374696E67206C6F636B20666F756E640000000000 PUSH2 0x240 MSTORE PUSH2 0x220 POP PUSH1 0x0 PUSH2 0x1A0 MLOAD SGT PUSH2 0x161A JUMPI PUSH1 0x64 PUSH2 0x1FC REVERT JUMPDEST PUSH4 0x8C379A0 PUSH2 0x280 MSTORE PUSH1 0x20 PUSH2 0x2A0 MSTORE PUSH1 0x24 PUSH2 0x2C0 MSTORE PUSH32 0x43616E6E6F742061646420746F2065787069726564206C6F636B2E2057697468 PUSH2 0x2E0 MSTORE PUSH32 0x647261770000000000000000000000000000 PUSH2 0x30 MSTORE PUSH2 0x2C0 POP TIMESTAMP PUSH2 0x1C0 MLOAD GT PUSH2 0x168E JUMPI PUSH1 0x84 PUSH2 0x29C REVERT JUMPDEST PUSH2 0x140 PUSH2 0x340 MSTORE JUMPDEST PUSH2 0x340 MLOAD MLOAD PUSH1 0x20 PUSH2 0x340 MLOAD ADD PUSH2 0x340 MSTORE PUSH2 0x340 PUSH2 0x340 MLOAD LT ISZERO PUSH2 0x16B8 JUMPI PUSH2 0x1696 JUMP JUMPDEST CALLER PUSH2 0x360 MSTORE PUSH1 0x4 CALLDATALOAD PUSH2 0x380 MSTORE PUSH1 0x0 PUSH2 0x3A0 MSTORE PUSH2 0x3C0 PUSH2 0x1A0 DUP1 MLOAD DUP3 MSTORE DUP1 PUSH1 0x20 ADD MLOAD DUP3 PUSH1 0x20 ADD MSTORE POP POP PUSH1 0x2 PUSH2 0x40 MSTORE PUSH2 0x40 MLOAD PUSH2 0x3E0 MLOAD PUSH2 0x3C0 MLOAD PUSH2 0x3A0 MLOAD PUSH2 0x380 MLOAD PUSH2 0x360 MLOAD PUSH1 0x6 PC ADD PUSH2 0xDA9 JUMP JUMPDEST PUSH2 0x320 PUSH2 0x340 MSTORE JUMPDEST PUSH2 0x340 MLOAD MSTORE PUSH1 0x20 PUSH2 0x340 MLOAD SUB PUSH2 0x340 MSTORE PUSH2 0x140 PUSH2 0x340 MLOAD LT ISZERO ISZERO PUSH2 0x1732 JUMPI PUSH2 0x17F JUMP JUMPDEST PUSH1 0x0 POP PUSH1 0x0 PUSH3 0xFFFFFF SSTORE STOP JUMPDEST PUSH4 0xEFF7A612 PUSH1 0x0 MLOAD EQ ISZERO PUSH2 0x19FB JUMPI PUSH3 0xFFFFFF SLOAD ISZERO PUSH2 0x175B JUMPI PUSH1 0x0 DUP1 REVERT JUMPDEST PUSH1 0x1 PUSH3 0xFFFFFF SSTORE CALLVALUE ISZERO PUSH2 0x176D JUMPI PUSH1 0x0 DUP1 REVERT JUMPDEST CALLER PUSH2 0x140 MSTORE PUSH2 0x140 MLOAD PUSH1 0x6 PC ADD PUSH2 0x26C JUMP JUMPDEST PUSH1 0x0 POP PUSH2 0x1A0 PUSH1 0x2 CALLER PUSH1 0xE0 MSTORE PUSH1 0xC0 MSTORE PUSH1 0x40 PUSH1 0xC0 SHA3 DUP1 PUSH1 0xC0 MSTORE PUSH1 0x20 PUSH1 0xC0 SHA3 SLOAD DUP3 MSTORE PUSH1 0x1 DUP2 PUSH1 0xC0 MSTORE PUSH1 0x20 PUSH1 0xC0 SHA3 ADD SLOAD DUP3 PUSH1 0x20 ADD MSTORE POP POP PUSH1 0x4 CALLDATALOAD PUSH3 0x93A80 DUP1 DUP1 PUSH2 0x17C5 JUMPI PUSH1 0x0 DUP1 REVERT JUMPDEST DUP3 DIV SWAP1 POP SWAP1 POP PUSH3 0x93A80 DUP1 DUP3 MUL DUP3 ISZERO DUP3 DUP5 DUP4 DIV EQ OR PUSH2 0x17E3 JUMPI PUSH1 0x0 DUP1 REVERT JUMPDEST DUP1 SWAP1 POP SWAP1 POP SWAP1 POP PUSH2 0x1E0 MSTORE PUSH4 0x8C379A0 PUSH2 0x20 MSTORE PUSH1 0x20 PUSH2 0x220 MSTORE PUSH1 0xC PUSH2 0x240 MSTORE PUSH32 0x4C6F636B206578706972656400000000000000000000 PUSH2 0x260 MSTORE PUSH2 0x240 POP TIMESTAMP PUSH2 0x1C0 MLOAD GT PUSH2 0x183D JUMPI PUSH1 0x64 PUSH2 0x21C REVERT JUMPDEST PUSH4 0x8C379A0 PUSH2 0x2A0 MSTORE PUSH1 0x20 PUSH2 0x2C0 MSTORE PUSH1 0x11 PUSH2 0x2E0 MSTORE PUSH32 0x4E6F7468696E67206973206C6F636B6564000000000000000 PUSH2 0x30 MSTORE PUSH2 0x2E0 POP PUSH1 0x0 PUSH2 0x1A0 MLOAD SGT PUSH2 0x188D JUMPI PUSH1 0x64 PUSH2 0x2BC REVERT JUMPDEST PUSH4 0x8C379A0 PUSH2 0x340 MSTORE PUSH1 0x20 PUSH2 0x360 MSTORE PUSH1 0x1F PUSH2 0x380 MSTORE PUSH32 0x43616E206F6E6C7920696E637265617365206C6F636B206475726174696F6E0 PUSH2 0x3A0 MSTORE PUSH2 0x380 POP PUSH2 0x1C0 MLOAD PUSH2 0x1E0 MLOAD GT PUSH2 0x18DF JUMPI PUSH1 0x64 PUSH2 0x35C REVERT JUMPDEST PUSH4 0x8C379A0 PUSH2 0x3E0 MSTORE PUSH1 0x20 PUSH2 0x40 MSTORE PUSH1 0x1E PUSH2 0x420 MSTORE PUSH32 0x566F74696E67206C6F636B2063616E2062652034207965617273206D617800 PUSH2 0x440 MSTORE PUSH2 0x420 POP TIMESTAMP PUSH4 0x784CE0 DUP2 DUP2 DUP4 ADD LT ISZERO PUSH2 0x1932 JUMPI PUSH1 0x0 DUP1 REVERT JUMPDEST DUP1 DUP3 ADD SWAP1 POP SWAP1 POP PUSH2 0x1E0 MLOAD GT ISZERO PUSH2 0x194A JUMPI PUSH1 0x64 PUSH2 0x3FC REVERT JUMPDEST PUSH2 0x140 PUSH2 0x480 MSTORE JUMPDEST PUSH2 0x480 MLOAD MLOAD PUSH1 0x20 PUSH2 0x480 MLOAD ADD PUSH2 0x480 MSTORE PUSH2 0x480 PUSH2 0x480 MLOAD LT ISZERO PUSH2 0x1974 JUMPI PUSH2 0x1952 JUMP JUMPDEST CALLER PUSH2 0x4A0 MSTORE PUSH1 0x0 PUSH2 0x4C0 MSTORE PUSH2 0x1E0 MLOAD PUSH2 0x4E0 MSTORE PUSH2 0x50 PUSH2 0x1A0 DUP1 MLOAD DUP3 MSTORE DUP1 PUSH1 0x20 ADD MLOAD DUP3 PUSH1 0x20 ADD MSTORE POP POP PUSH1 0x3 PUSH2 0x540 MSTORE PUSH2 0x540 MLOAD PUSH2 0x520 MLOAD PUSH2 0x50 MLOAD PUSH2 0x4E0 MLOAD PUSH2 0x4C0 MLOAD PUSH2 0x4A0 MLOAD PUSH1 0x6 PC ADD PUSH2 0xDA9 JUMP JUMPDEST PUSH2 0x460 PUSH2 0x480 MSTORE JUMPDEST PUSH2 0x480 MLOAD MSTORE PUSH1 0x20 PUSH2 0x480 MLOAD SUB PUSH2 0x480 MSTORE PUSH2 0x140 PUSH2 0x480 MLOAD LT ISZERO ISZERO PUSH2 0x19EF JUMPI PUSH2 0x19CC JUMP JUMPDEST PUSH1 0x0 POP PUSH1 0x0 PUSH3 0xFFFFFF SSTORE STOP JUMPDEST PUSH4 0x3CCFD6B PUSH1 0x0 MLOAD EQ ISZERO PUSH2 0x1CBB JUMPI PUSH3 0xFFFFFF SLOAD ISZERO PUSH2 0x1A18 JUMPI PUSH1 0x0 DUP1 REVERT JUMPDEST PUSH1 0x1 PUSH3 0xFFFFFF SSTORE CALLVALUE ISZERO PUSH2 0x1A2A JUMPI PUSH1 0x0 DUP1 REVERT JUMPDEST PUSH2 0x140 PUSH1 0x2 CALLER PUSH1 0xE0 MSTORE PUSH1 0xC0 MSTORE PUSH1 0x40 PUSH1 0xC0 SHA3 DUP1 PUSH1 0xC0 MSTORE PUSH1 0x20 PUSH1 0xC0 SHA3 SLOAD DUP3 MSTORE PUSH1 0x1 DUP2 PUSH1 0xC0 MSTORE PUSH1 0x20 PUSH1 0xC0 SHA3 ADD SLOAD DUP3 PUSH1 0x20 ADD MSTORE POP POP PUSH1 0xA SLOAD ISZERO PUSH2 0x1AB4 JUMPI PUSH4 0x8C379A0 PUSH2 0x180 MSTORE PUSH1 0x20 PUSH2 0x1A0 MSTORE PUSH1 0x16 PUSH2 0x1C0 MSTORE PUSH32 0x546865206C6F636B206469646E2774206578706972650000000000 PUSH2 0x1E0 MSTORE PUSH2 0x1C0 POP PUSH2 0x160 MLOAD TIMESTAMP LT ISZERO PUSH2 0x1AB3 JUMPI PUSH1 0x64 PUSH2 0x19C REVERT JUMPDEST JUMPDEST PUSH2 0x140 MLOAD PUSH1 0x0 DUP2 SLT ISZERO PUSH2 0x1AC6 JUMPI PUSH1 0x0 DUP1 REVERT JUMPDEST PUSH2 0x220 MSTORE PUSH2 0x240 PUSH2 0x140 DUP1 MLOAD DUP3 MSTORE DUP1 PUSH1 0x20 ADD MLOAD DUP3 PUSH1 0x20 ADD MSTORE POP POP PUSH1 0x0 PUSH2 0x160 MSTORE PUSH1 0x0 PUSH2 0x140 MSTORE PUSH1 0x2 CALLER PUSH1 0xE0 MSTORE PUSH1 0xC0 MSTORE PUSH1 0x40 PUSH1 0xC0 SHA3 PUSH1 0xC0 MSTORE PUSH1 0x20 PUSH1 0xC0 SHA3 PUSH2 0x140 DUP1 MLOAD DUP3 SSTORE DUP1 PUSH1 0x20 ADD MLOAD PUSH1 0x1 DUP4 ADD SSTORE POP POP PUSH1 0x1 SLOAD PUSH2 0x280 MSTORE PUSH2 0x280 MLOAD PUSH2 0x220 MLOAD DUP1 DUP3 LT ISZERO PUSH2 0x1B31 JUMPI PUSH1 0x0 DUP1 REVERT JUMPDEST DUP1 DUP3 SUB SWAP1 POP SWAP1 POP PUSH1 0x1 SSTORE PUSH2 0x140 PUSH2 0x2A0 MSTORE JUMPDEST PUSH2 0x2A0 MLOAD MLOAD PUSH1 0x20 PUSH2 0x2A0 MLOAD ADD PUSH2 0x2A0 MSTORE PUSH2 0x2A0 PUSH2 0x2A0 MLOAD LT ISZERO PUSH2 0x1B65 JUMPI PUSH2 0x1B43 JUMP JUMPDEST CALLER PUSH2 0x2C0 MSTORE PUSH2 0x2E0 PUSH2 0x240 DUP1 MLOAD DUP3 MSTORE DUP1 PUSH1 0x20 ADD MLOAD DUP3 PUSH1 0x20 ADD MSTORE POP POP PUSH2 0x320 PUSH2 0x140 DUP1 MLOAD DUP3 MSTORE DUP1 PUSH1 0x20 ADD MLOAD DUP3 PUSH1 0x20 ADD MSTORE POP POP PUSH2 0x340 MLOAD PUSH2 0x320 MLOAD PUSH2 0x30 MLOAD PUSH2 0x2E0 MLOAD PUSH2 0x2C0 MLOAD PUSH1 0x6 PC ADD PUSH2 0x4A1 JUMP JUMPDEST PUSH2 0x280 PUSH2 0x2A0 MSTORE JUMPDEST PUSH2 0x2A0 MLOAD MSTORE PUSH1 0x20 PUSH2 0x2A0 MLOAD SUB PUSH2 0x2A0 MSTORE PUSH2 0x140 PUSH2 0x2A0 MLOAD LT ISZERO ISZERO PUSH2 0x1BDE JUMPI PUSH2 0x1BBB JUMP JUMPDEST PUSH1 0x0 POP PUSH1 0x20 PUSH2 0x440 PUSH1 0x44 PUSH4 0xA959CBB PUSH2 0x3A0 MSTORE CALLER PUSH2 0x3C0 MSTORE PUSH2 0x220 MLOAD PUSH2 0x3E0 MSTORE PUSH2 0x3BC PUSH1 0x0 PUSH1 0x0 SLOAD GAS CALL PUSH2 0x1C11 JUMPI PUSH1 0x0 DUP1 REVERT JUMPDEST PUSH1 0x1F RETURNDATASIZE GT PUSH2 0x1C1E JUMPI PUSH1 0x0 DUP1 REVERT JUMPDEST PUSH1 0x0 POP PUSH2 0x440 MLOAD PUSH2 0x1C2E JUMPI PUSH1 0x0 DUP1 REVERT JUMPDEST PUSH2 0x220 MLOAD PUSH2 0x460 MSTORE TIMESTAMP PUSH2 0x480 MSTORE CALLER PUSH32 0xF279E6A1F5E320CCA91135676D9CB6E44CA8A08CB88342BCDB1144F6511B568 PUSH1 0x40 PUSH2 0x460 LOG2 PUSH2 0x280 MLOAD PUSH2 0x4A0 MSTORE PUSH2 0x280 MLOAD PUSH2 0x220 MLOAD DUP1 DUP3 LT ISZERO PUSH2 0x1C80 JUMPI PUSH1 0x0 DUP1 REVERT JUMPDEST DUP1 DUP3 SUB SWAP1 POP SWAP1 POP PUSH2 0x4C0 MSTORE PUSH32 0x5E2AA66EFD74CCE82B21852E317E5490D9ECC9E6BB953AE24D90851258CC2F5C PUSH1 0x40 PUSH2 0x4A0 LOG1 PUSH1 0x0 PUSH3 0xFFFFFF SSTORE STOP JUMPDEST PUSH1 0x0 ISZERO PUSH2 0x1DDA JUMPI JUMPDEST PUSH2 0x180 MSTORE PUSH2 0x140 MSTORE PUSH2 0x160 MSTORE PUSH1 0x0 PUSH2 0x1A0 MSTORE PUSH2 0x160 MLOAD PUSH2 0x1C0 MSTORE PUSH2 0x1E0 PUSH1 0x0 PUSH1 0x80 DUP2 DUP4 MSTORE ADD JUMPDEST PUSH2 0x1C0 MLOAD PUSH2 0x1A0 MLOAD LT ISZERO ISZERO PUSH2 0x1CFD JUMPI PUSH2 0x1DC6 JUMP JUMPDEST PUSH2 0x1A0 MLOAD PUSH2 0x1C0 MLOAD DUP2 DUP2 DUP4 ADD LT ISZERO PUSH2 0x1D14 JUMPI PUSH1 0x0 DUP1 REVERT JUMPDEST DUP1 DUP3 ADD SWAP1 POP SWAP1 POP PUSH1 0x1 DUP2 DUP2 DUP4 ADD LT ISZERO PUSH2 0x1D2C JUMPI PUSH1 0x0 DUP1 REVERT JUMPDEST DUP1 DUP3 ADD SWAP1 POP SWAP1 POP PUSH1 0x2 DUP1 DUP1 PUSH2 0x1D40 JUMPI PUSH1 0x0 DUP1 REVERT JUMPDEST DUP3 DIV SWAP1 POP SWAP1 POP PUSH2 0x20 MSTORE PUSH2 0x140 MLOAD PUSH1 0x3 PUSH2 0x20 MLOAD PUSH13 0x1431EFAE6D7217CAA0000 DUP2 LT PUSH2 0x1D6D JUMPI PUSH1 0x0 DUP1 REVERT JUMPDEST PUSH1 0x4 PUSH1 0xC0 MSTORE PUSH1 0x20 PUSH1 0xC0 SHA3 ADD PUSH1 0xC0 MSTORE PUSH1 0x20 PUSH1 0xC0 SHA3 ADD SLOAD GT ISZERO ISZERO PUSH2 0x1D96 JUMPI PUSH2 0x20 MLOAD PUSH2 0x1A0 MSTORE PUSH2 0x1DB5 JUMP JUMPDEST PUSH2 0x20 MLOAD PUSH1 0x1 DUP1 DUP3 LT ISZERO PUSH2 0x1DA9 JUMPI PUSH1 0x0 DUP1 REVERT JUMPDEST DUP1 DUP3 SUB SWAP1 POP SWAP1 POP PUSH2 0x1C0 MSTORE JUMPDEST JUMPDEST DUP2 MLOAD PUSH1 0x1 ADD DUP1 DUP4 MSTORE DUP2 EQ ISZERO PUSH2 0x1CE9 JUMPI JUMPDEST POP POP PUSH2 0x1A0 MLOAD PUSH1 0x0 MSTORE PUSH1 0x0 MLOAD PUSH2 0x180 MLOAD JUMP POP STOP JUMPDEST PUSH4 0x70A08231 PUSH1 0x0 MLOAD EQ ISZERO PUSH2 0x1DF2 JUMPI TIMESTAMP PUSH2 0x140 MSTORE PUSH2 0x1E17 JUMP JUMPDEST PUSH3 0xFDD58E PUSH1 0x0 MLOAD EQ ISZERO PUSH2 0x1EF JUMPI PUSH1 0x20 PUSH1 0x24 PUSH2 0x140 CALLDATACOPY PUSH1 0x0 POP PUSH2 0x1E17 JUMP JUMPDEST PUSH1 0x0 ISZERO PUSH2 0x1F8F JUMPI JUMPDEST CALLVALUE ISZERO PUSH2 0x1E22 JUMPI PUSH1 0x0 DUP1 REVERT JUMPDEST PUSH1 0x4 CALLDATALOAD PUSH1 0x20 MLOAD DUP2 LT PUSH2 0x1E33 JUMPI PUSH1 0x0 DUP1 REVERT JUMPDEST POP PUSH1 0x6 PUSH1 0x4 CALLDATALOAD PUSH1 0xE0 MSTORE PUSH1 0xC0 MSTORE PUSH1 0x40 PUSH1 0xC0 SHA3 SLOAD PUSH2 0x160 MSTORE PUSH2 0x160 MLOAD ISZERO ISZERO PUSH2 0x1E63 JUMPI PUSH1 0x0 PUSH1 0x0 MSTORE PUSH1 0x20 PUSH1 0x0 RETURN POP PUSH2 0x1F8D JUMP JUMPDEST PUSH2 0x180 PUSH2 0x160 MLOAD PUSH4 0x3B9ACA0 DUP2 LT PUSH2 0x1E7A JUMPI PUSH1 0x0 DUP1 REVERT JUMPDEST PUSH1 0x5 PUSH1 0x4 CALLDATALOAD PUSH1 0xE0 MSTORE PUSH1 0xC0 MSTORE PUSH1 0x40 PUSH1 0xC0 SHA3 PUSH1 0xC0 MSTORE PUSH1 0x20 PUSH1 0xC0 SHA3 ADD DUP1 PUSH1 0xC0 MSTORE PUSH1 0x20 PUSH1 0xC0 SHA3 SLOAD DUP3 MSTORE PUSH1 0x1 DUP2 PUSH1 0xC0 MSTORE PUSH1 0x20 PUSH1 0xC0 SHA3 ADD SLOAD DUP3 PUSH1 0x20 ADD MSTORE PUSH1 0x2 DUP2 PUSH1 0xC0 MSTORE PUSH1 0x20 PUSH1 0xC0 SHA3 ADD SLOAD DUP3 PUSH1 0x40 ADD MSTORE PUSH1 0x3 DUP2 PUSH1 0xC0 MSTORE PUSH1 0x20 PUSH1 0xC0 SHA3 ADD SLOAD DUP3 PUSH1 0x60 ADD MSTORE POP POP PUSH2 0x180 DUP1 MLOAD PUSH2 0x1A0 MLOAD PUSH2 0x140 MLOAD PUSH2 0x1C0 MLOAD DUP1 DUP3 LT ISZERO PUSH2 0x1EF5 JUMPI PUSH1 0x0 DUP1 REVERT JUMPDEST DUP1 DUP3 SUB SWAP1 POP SWAP1 POP PUSH1 0x40 MLOAD DUP2 GT ISZERO PUSH2 0x1FB JUMPI PUSH1 0x0 DUP1 REVERT JUMPDEST PUSH1 0x60 MLOAD DUP2 DUP4 MUL DUP1 PUSH1 0x40 MLOAD SWAP1 SGT ISZERO PUSH2 0x1F21 JUMPI PUSH1 0x0 DUP1 REVERT JUMPDEST DUP1 SWAP2 SWAP1 SLT ISZERO PUSH2 0x1F2F JUMPI PUSH1 0x0 DUP1 REVERT JUMPDEST SWAP1 POP SWAP1 POP PUSH1 0x60 MLOAD DUP2 DUP4 SUB DUP1 PUSH1 0x40 MLOAD SWAP1 SGT ISZERO PUSH2 0x1F49 JUMPI PUSH1 0x0 DUP1 REVERT JUMPDEST DUP1 SWAP2 SWAP1 SLT ISZERO PUSH2 0x1F57 JUMPI PUSH1 0x0 DUP1 REVERT JUMPDEST SWAP1 POP SWAP1 POP DUP2 MSTORE POP PUSH1 0x0 PUSH2 0x180 MLOAD SLT ISZERO PUSH2 0x1F71 JUMPI PUSH1 0x0 PUSH2 0x180 MSTORE JUMPDEST PUSH2 0x180 MLOAD PUSH1 0x0 DUP2 SLT ISZERO PUSH2 0x1F83 JUMPI PUSH1 0x0 DUP1 REVERT JUMPDEST PUSH1 0x0 MSTORE PUSH1 0x20 PUSH1 0x0 RETURN POP JUMPDEST STOP JUMPDEST PUSH4 0x4EE2CD7E PUSH1 0x0 MLOAD EQ ISZERO PUSH2 0x249E JUMPI CALLVALUE ISZERO PUSH2 0x1FA8 JUMPI PUSH1 0x0 DUP1 REVERT JUMPDEST PUSH1 0x4 CALLDATALOAD PUSH1 0x20 MLOAD DUP2 LT PUSH2 0x1FB9 JUMPI PUSH1 0x0 DUP1 REVERT JUMPDEST POP NUMBER PUSH1 0x24 CALLDATALOAD GT ISZERO PUSH2 0x1FC9 JUMPI PUSH1 0x0 DUP1 REVERT JUMPDEST PUSH1 0x0 PUSH2 0x140 MSTORE PUSH1 0x6 PUSH1 0x4 CALLDATALOAD PUSH1 0xE0 MSTORE PUSH1 0xC0 MSTORE PUSH1 0x40 PUSH1 0xC0 SHA3 SLOAD PUSH2 0x160 MSTORE PUSH2 0x180 PUSH1 0x0 PUSH1 0x80 DUP2 DUP4 MSTORE ADD JUMPDEST PUSH2 0x160 MLOAD PUSH2 0x140 MLOAD LT ISZERO ISZERO PUSH2 0x204 JUMPI PUSH2 0x20D1 JUMP JUMPDEST PUSH2 0x140 MLOAD PUSH2 0x160 MLOAD DUP2 DUP2 DUP4 ADD LT ISZERO PUSH2 0x201B JUMPI PUSH1 0x0 DUP1 REVERT JUMPDEST DUP1 DUP3 ADD SWAP1 POP SWAP1 POP PUSH1 0x1 DUP2 DUP2 DUP4 ADD LT ISZERO PUSH2 0x2033 JUMPI PUSH1 0x0 DUP1 REVERT JUMPDEST DUP1 DUP3 ADD SWAP1 POP SWAP1 POP PUSH1 0x2 DUP1 DUP1 PUSH2 0x2047 JUMPI PUSH1 0x0 DUP1 REVERT JUMPDEST DUP3 DIV SWAP1 POP SWAP1 POP PUSH2 0x1A0 MSTORE PUSH1 0x24 CALLDATALOAD PUSH1 0x3 PUSH2 0x1A0 MLOAD PUSH4 0x3B9ACA0 DUP2 LT PUSH2 0x206A JUMPI PUSH1 0x0 DUP1 REVERT JUMPDEST PUSH1 0x5 PUSH1 0x4 CALLDATALOAD PUSH1 0xE0 MSTORE PUSH1 0xC0 MSTORE PUSH1 0x40 PUSH1 0xC0 SHA3 PUSH1 0xC0 MSTORE PUSH1 0x20 PUSH1 0xC0 SHA3 ADD PUSH1 0xC0 MSTORE PUSH1 0x20 PUSH1 0xC0 SHA3 ADD SLOAD GT ISZERO ISZERO PUSH2 0x20A1 JUMPI PUSH2 0x1A0 MLOAD PUSH2 0x140 MSTORE PUSH2 0x20C0 JUMP JUMPDEST PUSH2 0x1A0 MLOAD PUSH1 0x1 DUP1 DUP3 LT ISZERO PUSH2 0x20B4 JUMPI PUSH1 0x0 DUP1 REVERT JUMPDEST DUP1 DUP3 SUB SWAP1 POP SWAP1 POP PUSH2 0x160 MSTORE JUMPDEST JUMPDEST DUP2 MLOAD PUSH1 0x1 ADD DUP1 DUP4 MSTORE DUP2 EQ ISZERO PUSH2 0x1FF0 JUMPI JUMPDEST POP POP PUSH2 0x1C0 PUSH2 0x140 MLOAD PUSH4 0x3B9ACA0 DUP2 LT PUSH2 0x20EA JUMPI PUSH1 0x0 DUP1 REVERT JUMPDEST PUSH1 0x5 PUSH1 0x4 CALLDATALOAD PUSH1 0xE0 MSTORE PUSH1 0xC0 MSTORE PUSH1 0x40 PUSH1 0xC0 SHA3 PUSH1 0xC0 MSTORE PUSH1 0x20 PUSH1 0xC0 SHA3 ADD DUP1 PUSH1 0xC0 MSTORE PUSH1 0x20 PUSH1 0xC0 SHA3 SLOAD DUP3 MSTORE PUSH1 0x1 DUP2 PUSH1 0xC0 MSTORE PUSH1 0x20 PUSH1 0xC0 SHA3 ADD SLOAD DUP3 PUSH1 0x20 ADD MSTORE PUSH1 0x2 DUP2 PUSH1 0xC0 MSTORE PUSH1 0x20 PUSH1 0xC0 SHA3 ADD SLOAD DUP3 PUSH1 0x40 ADD MSTORE PUSH1 0x3 DUP2 PUSH1 0xC0 MSTORE PUSH1 0x20 PUSH1 0xC0 SHA3 ADD SLOAD DUP3 PUSH1 0x60 ADD MSTORE POP POP PUSH1 0x3 SLOAD PUSH2 0x240 MSTORE PUSH2 0x140 MLOAD PUSH2 0x160 MLOAD PUSH2 0x180 MLOAD PUSH2 0x1A0 MLOAD PUSH2 0x1C0 MLOAD PUSH2 0x1E0 MLOAD PUSH2 0x20 MLOAD PUSH2 0x220 MLOAD PUSH2 0x240 MLOAD PUSH2 0x260 MLOAD PUSH1 0x24 CALLDATALOAD PUSH2 0x2A0 MSTORE PUSH2 0x240 MLOAD PUSH2 0x2C0 MSTORE PUSH2 0x2C0 MLOAD PUSH2 0x2A0 MLOAD PUSH1 0x6 PC ADD PUSH2 0x1CC3 JUMP JUMPDEST PUSH2 0x320 MSTORE PUSH2 0x260 MSTORE PUSH2 0x240 MSTORE PUSH2 0x220 MSTORE PUSH2 0x20 MSTORE PUSH2 0x1E0 MSTORE PUSH2 0x1C0 MSTORE PUSH2 0x1A0 MSTORE PUSH2 0x180 MSTORE PUSH2 0x160 MSTORE PUSH2 0x140 MSTORE PUSH2 0x320 MLOAD PUSH2 0x260 MSTORE PUSH2 0x340 PUSH2 0x260 MLOAD PUSH13 0x1431EFAE6D7217CAA0000 DUP2 LT PUSH2 0x21EA JUMPI PUSH1 0x0 DUP1 REVERT JUMPDEST PUSH1 0x4 PUSH1 0xC0 MSTORE PUSH1 0x20 PUSH1 0xC0 SHA3 ADD DUP1 PUSH1 0xC0 MSTORE PUSH1 0x20 PUSH1 0xC0 SHA3 SLOAD DUP3 MSTORE PUSH1 0x1 DUP2 PUSH1 0xC0 MSTORE PUSH1 0x20 PUSH1 0xC0 SHA3 ADD SLOAD DUP3 PUSH1 0x20 ADD MSTORE PUSH1 0x2 DUP2 PUSH1 0xC0 MSTORE PUSH1 0x20 PUSH1 0xC0 SHA3 ADD SLOAD DUP3 PUSH1 0x40 ADD MSTORE PUSH1 0x3 DUP2 PUSH1 0xC0 MSTORE PUSH1 0x20 PUSH1 0xC0 SHA3 ADD SLOAD DUP3 PUSH1 0x60 ADD MSTORE POP POP PUSH1 0x0 PUSH2 0x3C0 MSTORE PUSH1 0x0 PUSH2 0x3E0 MSTORE PUSH2 0x240 MLOAD PUSH2 0x260 MLOAD LT ISZERO PUSH2 0x231F JUMPI PUSH2 0x40 PUSH2 0x260 MLOAD PUSH1 0x1 DUP2 DUP2 DUP4 ADD LT ISZERO PUSH2 0x226B JUMPI PUSH1 0x0 DUP1 REVERT JUMPDEST DUP1 DUP3 ADD SWAP1 POP SWAP1 POP PUSH13 0x1431EFAE6D7217CAA0000 DUP2 LT PUSH2 0x228B JUMPI PUSH1 0x0 DUP1 REVERT JUMPDEST PUSH1 0x4 PUSH1 0xC0 MSTORE PUSH1 0x20 PUSH1 0xC0 SHA3 ADD DUP1 PUSH1 0xC0 MSTORE PUSH1 0x20 PUSH1 0xC0 SHA3 SLOAD DUP3 MSTORE PUSH1 0x1 DUP2 PUSH1 0xC0 MSTORE PUSH1 0x20 PUSH1 0xC0 SHA3 ADD SLOAD DUP3 PUSH1 0x20 ADD MSTORE PUSH1 0x2 DUP2 PUSH1 0xC0 MSTORE PUSH1 0x20 PUSH1 0xC0 SHA3 ADD SLOAD DUP3 PUSH1 0x40 ADD MSTORE PUSH1 0x3 DUP2 PUSH1 0xC0 MSTORE PUSH1 0x20 PUSH1 0xC0 SHA3 ADD SLOAD DUP3 PUSH1 0x60 ADD MSTORE POP POP PUSH2 0x460 MLOAD PUSH2 0x3A0 MLOAD DUP1 DUP3 LT ISZERO PUSH2 0x22EF JUMPI PUSH1 0x0 DUP1 REVERT JUMPDEST DUP1 DUP3 SUB SWAP1 POP SWAP1 POP PUSH2 0x3C0 MSTORE PUSH2 0x440 MLOAD PUSH2 0x380 MLOAD DUP1 DUP3 LT ISZERO PUSH2 0x23F JUMPI PUSH1 0x0 DUP1 REVERT JUMPDEST DUP1 DUP3 SUB SWAP1 POP SWAP1 POP PUSH2 0x3E0 MSTORE PUSH2 0x235A JUMP JUMPDEST NUMBER PUSH2 0x3A0 MLOAD DUP1 DUP3 LT ISZERO PUSH2 0x2331 JUMPI PUSH1 0x0 DUP1 REVERT JUMPDEST DUP1 DUP3 SUB SWAP1 POP SWAP1 POP PUSH2 0x3C0 MSTORE TIMESTAMP PUSH2 0x380 MLOAD DUP1 DUP3 LT ISZERO PUSH2 0x234E JUMPI PUSH1 0x0 DUP1 REVERT JUMPDEST DUP1 DUP3 SUB SWAP1 POP SWAP1 POP PUSH2 0x3E0 MSTORE JUMPDEST PUSH2 0x380 MLOAD PUSH2 0x480 MSTORE PUSH1 0x0 PUSH2 0x3C0 MLOAD XOR ISZERO PUSH2 0x23DC JUMPI PUSH2 0x480 DUP1 MLOAD PUSH2 0x3E0 MLOAD PUSH1 0x24 CALLDATALOAD PUSH2 0x3A0 MLOAD DUP1 DUP3 LT ISZERO PUSH2 0x238B JUMPI PUSH1 0x0 DUP1 REVERT JUMPDEST DUP1 DUP3 SUB SWAP1 POP SWAP1 POP DUP1 DUP3 MUL DUP3 ISZERO DUP3 DUP5 DUP4 DIV EQ OR PUSH2 0x23A6 JUMPI PUSH1 0x0 DUP1 REVERT JUMPDEST DUP1 SWAP1 POP SWAP1 POP SWAP1 POP PUSH2 0x3C0 MLOAD DUP1 DUP1 PUSH2 0x23BC JUMPI PUSH1 0x0 DUP1 REVERT JUMPDEST DUP3 DIV SWAP1 POP SWAP1 POP DUP2 DUP2 DUP4 ADD LT ISZERO PUSH2 0x23D1 JUMPI PUSH1 0x0 DUP1 REVERT JUMPDEST DUP1 DUP3 ADD SWAP1 POP SWAP1 POP DUP2 MSTORE POP JUMPDEST PUSH2 0x1C0 DUP1 MLOAD PUSH2 0x1E0 MLOAD PUSH2 0x480 MLOAD PUSH2 0x20 MLOAD DUP1 DUP3 LT ISZERO PUSH2 0x23FA JUMPI PUSH1 0x0 DUP1 REVERT JUMPDEST DUP1 DUP3 SUB SWAP1 POP SWAP1 POP PUSH1 0x40 MLOAD DUP2 GT ISZERO PUSH2 0x2410 JUMPI PUSH1 0x0 DUP1 REVERT JUMPDEST PUSH1 0x60 MLOAD DUP2 DUP4 MUL DUP1 PUSH1 0x40 MLOAD SWAP1 SGT ISZERO PUSH2 0x2426 JUMPI PUSH1 0x0 DUP1 REVERT JUMPDEST DUP1 SWAP2 SWAP1 SLT ISZERO PUSH2 0x2434 JUMPI PUSH1 0x0 DUP1 REVERT JUMPDEST SWAP1 POP SWAP1 POP PUSH1 0x60 MLOAD DUP2 DUP4 SUB DUP1 PUSH1 0x40 MLOAD SWAP1 SGT ISZERO PUSH2 0x244E JUMPI PUSH1 0x0 DUP1 REVERT JUMPDEST DUP1 SWAP2 SWAP1 SLT ISZERO PUSH2 0x245C JUMPI PUSH1 0x0 DUP1 REVERT JUMPDEST SWAP1 POP SWAP1 POP DUP2 MSTORE POP PUSH1 0x0 PUSH2 0x1C0 MLOAD SLT ISZERO ISZERO PUSH2 0x2490 JUMPI PUSH2 0x1C0 MLOAD PUSH1 0x0 DUP2 SLT ISZERO PUSH2 0x2482 JUMPI PUSH1 0x0 DUP1 REVERT JUMPDEST PUSH1 0x0 MSTORE PUSH1 0x20 PUSH1 0x0 RETURN POP PUSH2 0x249C JUMP JUMPDEST PUSH1 0x0 PUSH1 0x0 MSTORE PUSH1 0x20 PUSH1 0x0 RETURN POP JUMPDEST STOP JUMPDEST PUSH1 0x0 ISZERO PUSH2 0x26A6 JUMPI JUMPDEST PUSH2 0x1E0 MSTORE PUSH2 0x140 MSTORE PUSH2 0x160 MSTORE PUSH2 0x180 MSTORE PUSH2 0x1A0 MSTORE PUSH2 0x1C0 MSTORE PUSH2 0x20 PUSH2 0x140 DUP1 MLOAD DUP3 MSTORE DUP1 PUSH1 0x20 ADD MLOAD DUP3 PUSH1 0x20 ADD MSTORE DUP1 PUSH1 0x40 ADD MLOAD DUP3 PUSH1 0x40 ADD MSTORE DUP1 PUSH1 0x60 ADD MLOAD DUP3 PUSH1 0x60 ADD MSTORE POP POP PUSH2 0x240 MLOAD PUSH3 0x93A80 DUP1 DUP1 PUSH2 0x24FB JUMPI PUSH1 0x0 DUP1 REVERT JUMPDEST DUP3 DIV SWAP1 POP SWAP1 POP PUSH3 0x93A80 DUP1 DUP3 MUL DUP3 ISZERO DUP3 DUP5 DUP4 DIV EQ OR PUSH2 0x2519 JUMPI PUSH1 0x0 DUP1 REVERT JUMPDEST DUP1 SWAP1 POP SWAP1 POP SWAP1 POP PUSH2 0x280 MSTORE PUSH2 0x2A0 PUSH1 0x0 PUSH1 0xFF DUP2 DUP4 MSTORE ADD JUMPDEST PUSH2 0x280 DUP1 MLOAD PUSH3 0x93A80 DUP2 DUP2 DUP4 ADD LT ISZERO PUSH2 0x2548 JUMPI PUSH1 0x0 DUP1 REVERT JUMPDEST DUP1 DUP3 ADD SWAP1 POP SWAP1 POP DUP2 MSTORE POP PUSH1 0x0 PUSH2 0x2C0 MSTORE PUSH2 0x1C0 MLOAD PUSH2 0x280 MLOAD GT ISZERO PUSH2 0x2573 JUMPI PUSH2 0x1C0 MLOAD PUSH2 0x280 MSTORE PUSH2 0x258A JUMP JUMPDEST PUSH1 0x7 PUSH2 0x280 MLOAD PUSH1 0xE0 MSTORE PUSH1 0xC0 MSTORE PUSH1 0x40 PUSH1 0xC0 SHA3 SLOAD PUSH2 0x2C0 MSTORE JUMPDEST PUSH2 0x20 DUP1 MLOAD PUSH2 0x220 MLOAD PUSH2 0x280 MLOAD PUSH2 0x240 MLOAD DUP1 DUP3 LT ISZERO PUSH2 0x25A8 JUMPI PUSH1 0x0 DUP1 REVERT JUMPDEST DUP1 DUP3 SUB SWAP1 POP SWAP1 POP PUSH1 0x40 MLOAD DUP2 GT ISZERO PUSH2 0x25BE JUMPI PUSH1 0x0 DUP1 REVERT JUMPDEST PUSH1 0x60 MLOAD DUP2 DUP4 MUL DUP1 PUSH1 0x40 MLOAD SWAP1 SGT ISZERO PUSH2 0x25D4 JUMPI PUSH1 0x0 DUP1 REVERT JUMPDEST DUP1 SWAP2 SWAP1 SLT ISZERO PUSH2 0x25E2 JUMPI PUSH1 0x0 DUP1 REVERT JUMPDEST SWAP1 POP SWAP1 POP PUSH1 0x60 MLOAD DUP2 DUP4 SUB DUP1 PUSH1 0x40 MLOAD SWAP1 SGT ISZERO PUSH2 0x25FC JUMPI PUSH1 0x0 DUP1 REVERT JUMPDEST DUP1 SWAP2 SWAP1 SLT ISZERO PUSH2 0x26A JUMPI PUSH1 0x0 DUP1 REVERT JUMPDEST SWAP1 POP SWAP1 POP DUP2 MSTORE POP PUSH2 0x1C0 MLOAD PUSH2 0x280 MLOAD EQ ISZERO PUSH2 0x2624 JUMPI PUSH2 0x2671 JUMP JUMPDEST PUSH2 0x220 DUP1 MLOAD PUSH2 0x2C0 MLOAD PUSH1 0x60 MLOAD DUP2 DUP4 ADD DUP1 PUSH1 0x40 MLOAD SWAP1 SGT ISZERO PUSH2 0x2643 JUMPI PUSH1 0x0 DUP1 REVERT JUMPDEST DUP1 SWAP2 SWAP1 SLT ISZERO PUSH2 0x2651 JUMPI PUSH1 0x0 DUP1 REVERT JUMPDEST SWAP1 POP SWAP1 POP DUP2 MSTORE POP PUSH2 0x280 MLOAD PUSH2 0x240 MSTORE JUMPDEST DUP2 MLOAD PUSH1 0x1 ADD DUP1 DUP4 MSTORE DUP2 EQ ISZERO PUSH2 0x2530 JUMPI JUMPDEST POP POP PUSH1 0x0 PUSH2 0x20 MLOAD SLT ISZERO PUSH2 0x2686 JUMPI PUSH1 0x0 PUSH2 0x20 MSTORE JUMPDEST PUSH2 0x20 MLOAD PUSH1 0x0 DUP2 SLT ISZERO PUSH2 0x2698 JUMPI PUSH1 0x0 DUP1 REVERT JUMPDEST PUSH1 0x0 MSTORE PUSH1 0x0 MLOAD PUSH2 0x1E0 MLOAD JUMP POP STOP JUMPDEST PUSH4 0x1816DDD PUSH1 0x0 MLOAD EQ ISZERO PUSH2 0x26BE JUMPI TIMESTAMP PUSH2 0x140 MSTORE PUSH2 0x26E4 JUMP JUMPDEST PUSH4 0xBD85B039 PUSH1 0x0 MLOAD EQ ISZERO PUSH2 0x26DC JUMPI PUSH1 0x20 PUSH1 0x4 PUSH2 0x140 CALLDATACOPY PUSH1 0x0 POP PUSH2 0x26E4 JUMP JUMPDEST PUSH1 0x0 ISZERO PUSH2 0x27F7 JUMPI JUMPDEST CALLVALUE ISZERO PUSH2 0x26EF JUMPI PUSH1 0x0 DUP1 REVERT JUMPDEST PUSH1 0x3 SLOAD PUSH2 0x160 MSTORE PUSH2 0x180 PUSH2 0x160 MLOAD PUSH13 0x1431EFAE6D7217CAA0000 DUP2 LT PUSH2 0x2716 JUMPI PUSH1 0x0 DUP1 REVERT JUMPDEST PUSH1 0x4 PUSH1 0xC0 MSTORE PUSH1 0x20 PUSH1 0xC0 SHA3 ADD DUP1 PUSH1 0xC0 MSTORE PUSH1 0x20 PUSH1 0xC0 SHA3 SLOAD DUP3 MSTORE PUSH1 0x1 DUP2 PUSH1 0xC0 MSTORE PUSH1 0x20 PUSH1 0xC0 SHA3 ADD SLOAD DUP3 PUSH1 0x20 ADD MSTORE PUSH1 0x2 DUP2 PUSH1 0xC0 MSTORE PUSH1 0x20 PUSH1 0xC0 SHA3 ADD SLOAD DUP3 PUSH1 0x40 ADD MSTORE PUSH1 0x3 DUP2 PUSH1 0xC0 MSTORE PUSH1 0x20 PUSH1 0xC0 SHA3 ADD SLOAD DUP3 PUSH1 0x60 ADD MSTORE POP POP PUSH2 0x140 MLOAD PUSH2 0x160 MLOAD PUSH2 0x180 MLOAD PUSH2 0x1A0 MLOAD PUSH2 0x1C0 MLOAD PUSH2 0x1E0 MLOAD PUSH2 0x220 PUSH2 0x180 DUP1 MLOAD DUP3 MSTORE DUP1 PUSH1 0x20 ADD MLOAD DUP3 PUSH1 0x20 ADD MSTORE DUP1 PUSH1 0x40 ADD MLOAD DUP3 PUSH1 0x40 ADD MSTORE DUP1 PUSH1 0x60 ADD MLOAD DUP3 PUSH1 0x60 ADD MSTORE POP POP PUSH2 0x140 MLOAD PUSH2 0x2A0 MSTORE PUSH2 0x2A0 MLOAD PUSH2 0x280 MLOAD PUSH2 0x260 MLOAD PUSH2 0x240 MLOAD PUSH2 0x220 MLOAD PUSH1 0x6 PC ADD PUSH2 0x24A6 JUMP JUMPDEST PUSH2 0x30 MSTORE PUSH2 0x1E0 MSTORE PUSH2 0x1C0 MSTORE PUSH2 0x1A0 MSTORE PUSH2 0x180 MSTORE PUSH2 0x160 MSTORE PUSH2 0x140 MSTORE PUSH2 0x30 MLOAD PUSH1 0x0 MSTORE PUSH1 0x20 PUSH1 0x0 RETURN POP STOP JUMPDEST PUSH4 0x981B24D0 PUSH1 0x0 MLOAD EQ ISZERO PUSH2 0x2B5E JUMPI CALLVALUE ISZERO PUSH2 0x2810 JUMPI PUSH1 0x0 DUP1 REVERT JUMPDEST NUMBER PUSH1 0x4 CALLDATALOAD GT ISZERO PUSH2 0x281F JUMPI PUSH1 0x0 DUP1 REVERT JUMPDEST PUSH1 0x3 SLOAD PUSH2 0x140 MSTORE PUSH2 0x140 MLOAD PUSH2 0x160 MLOAD PUSH1 0x4 CALLDATALOAD PUSH2 0x1A0 MSTORE PUSH2 0x140 MLOAD PUSH2 0x1C0 MSTORE PUSH2 0x1C0 MLOAD PUSH2 0x1A0 MLOAD PUSH1 0x6 PC ADD PUSH2 0x1CC3 JUMP JUMPDEST PUSH2 0x220 MSTORE PUSH2 0x160 MSTORE PUSH2 0x140 MSTORE PUSH2 0x220 MLOAD PUSH2 0x160 MSTORE PUSH2 0x240 PUSH2 0x160 MLOAD PUSH13 0x1431EFAE6D7217CAA0000 DUP2 LT PUSH2 0x2882 JUMPI PUSH1 0x0 DUP1 REVERT JUMPDEST PUSH1 0x4 PUSH1 0xC0 MSTORE PUSH1 0x20 PUSH1 0xC0 SHA3 ADD DUP1 PUSH1 0xC0 MSTORE PUSH1 0x20 PUSH1 0xC0 SHA3 SLOAD DUP3 MSTORE PUSH1 0x1 DUP2 PUSH1 0xC0 MSTORE PUSH1 0x20 PUSH1 0xC0 SHA3 ADD SLOAD DUP3 PUSH1 0x20 ADD MSTORE PUSH1 0x2 DUP2 PUSH1 0xC0 MSTORE PUSH1 0x20 PUSH1 0xC0 SHA3 ADD SLOAD DUP3 PUSH1 0x40 ADD MSTORE PUSH1 0x3 DUP2 PUSH1 0xC0 MSTORE PUSH1 0x20 PUSH1 0xC0 SHA3 ADD SLOAD DUP3 PUSH1 0x60 ADD MSTORE POP POP PUSH1 0x0 PUSH2 0x2C0 MSTORE PUSH2 0x140 MLOAD PUSH2 0x160 MLOAD LT ISZERO PUSH2 0x2A3 JUMPI PUSH2 0x2E0 PUSH2 0x160 MLOAD PUSH1 0x1 DUP2 DUP2 DUP4 ADD LT ISZERO PUSH2 0x28FD JUMPI PUSH1 0x0 DUP1 REVERT JUMPDEST DUP1 DUP3 ADD SWAP1 POP SWAP1 POP PUSH13 0x1431EFAE6D7217CAA0000 DUP2 LT PUSH2 0x291D JUMPI PUSH1 0x0 DUP1 REVERT JUMPDEST PUSH1 0x4 PUSH1 0xC0 MSTORE PUSH1 0x20 PUSH1 0xC0 SHA3 ADD DUP1 PUSH1 0xC0 MSTORE PUSH1 0x20 PUSH1 0xC0 SHA3 SLOAD DUP3 MSTORE PUSH1 0x1 DUP2 PUSH1 0xC0 MSTORE PUSH1 0x20 PUSH1 0xC0 SHA3 ADD SLOAD DUP3 PUSH1 0x20 ADD MSTORE PUSH1 0x2 DUP2 PUSH1 0xC0 MSTORE PUSH1 0x20 PUSH1 0xC0 SHA3 ADD SLOAD DUP3 PUSH1 0x40 ADD MSTORE PUSH1 0x3 DUP2 PUSH1 0xC0 MSTORE PUSH1 0x20 PUSH1 0xC0 SHA3 ADD SLOAD DUP3 PUSH1 0x60 ADD MSTORE POP POP PUSH2 0x340 MLOAD PUSH2 0x2A0 MLOAD XOR ISZERO PUSH2 0x29FE JUMPI PUSH1 0x4 CALLDATALOAD PUSH2 0x2A0 MLOAD DUP1 DUP3 LT ISZERO PUSH2 0x298E JUMPI PUSH1 0x0 DUP1 REVERT JUMPDEST DUP1 DUP3 SUB SWAP1 POP SWAP1 POP PUSH2 0x320 MLOAD PUSH2 0x280 MLOAD DUP1 DUP3 LT ISZERO PUSH2 0x29AA JUMPI PUSH1 0x0 DUP1 REVERT JUMPDEST DUP1 DUP3 SUB SWAP1 POP SWAP1 POP DUP1 DUP3 MUL DUP3 ISZERO DUP3 DUP5 DUP4 DIV EQ OR PUSH2 0x29C5 JUMPI PUSH1 0x0 DUP1 REVERT JUMPDEST DUP1 SWAP1 POP SWAP1 POP SWAP1 POP PUSH2 0x340 MLOAD PUSH2 0x2A0 MLOAD DUP1 DUP3 LT ISZERO PUSH2 0x29E1 JUMPI PUSH1 0x0 DUP1 REVERT JUMPDEST DUP1 DUP3 SUB SWAP1 POP SWAP1 POP DUP1 DUP1 PUSH2 0x29F3 JUMPI PUSH1 0x0 DUP1 REVERT JUMPDEST DUP3 DIV SWAP1 POP SWAP1 POP PUSH2 0x2C0 MSTORE JUMPDEST PUSH2 0x2A8D JUMP JUMPDEST NUMBER PUSH2 0x2A0 MLOAD XOR ISZERO PUSH2 0x2A8C JUMPI PUSH1 0x4 CALLDATALOAD PUSH2 0x2A0 MLOAD DUP1 DUP3 LT ISZERO PUSH2 0x2A22 JUMPI PUSH1 0x0 DUP1 REVERT JUMPDEST DUP1 DUP3 SUB SWAP1 POP SWAP1 POP TIMESTAMP PUSH2 0x280 MLOAD DUP1 DUP3 LT ISZERO PUSH2 0x2A3B JUMPI PUSH1 0x0 DUP1 REVERT JUMPDEST DUP1 DUP3 SUB SWAP1 POP SWAP1 POP DUP1 DUP3 MUL DUP3 ISZERO DUP3 DUP5 DUP4 DIV EQ OR PUSH2 0x2A56 JUMPI PUSH1 0x0 DUP1 REVERT JUMPDEST DUP1 SWAP1 POP SWAP1 POP SWAP1 POP NUMBER PUSH2 0x2A0 MLOAD DUP1 DUP3 LT ISZERO PUSH2 0x2A6F JUMPI PUSH1 0x0 DUP1 REVERT JUMPDEST DUP1 DUP3 SUB SWAP1 POP SWAP1 POP DUP1 DUP1 PUSH2 0x2A81 JUMPI PUSH1 0x0 DUP1 REVERT JUMPDEST DUP3 DIV SWAP1 POP SWAP1 POP PUSH2 0x2C0 MSTORE JUMPDEST JUMPDEST PUSH2 0x140 PUSH2 0x360 MSTORE JUMPDEST PUSH2 0x360 MLOAD MLOAD PUSH1 0x20 PUSH2 0x360 MLOAD ADD PUSH2 0x360 MSTORE PUSH2 0x2E0 PUSH2 0x360 MLOAD LT ISZERO PUSH2 0x2AB7 JUMPI PUSH2 0x2A95 JUMP JUMPDEST PUSH2 0x380 PUSH2 0x240 DUP1 MLOAD DUP3 MSTORE DUP1 PUSH1 0x20 ADD MLOAD DUP3 PUSH1 0x20 ADD MSTORE DUP1 PUSH1 0x40 ADD MLOAD DUP3 PUSH1 0x40 ADD MSTORE DUP1 PUSH1 0x60 ADD MLOAD DUP3 PUSH1 0x60 ADD MSTORE POP POP PUSH2 0x280 MLOAD PUSH2 0x2C0 MLOAD DUP2 DUP2 DUP4 ADD LT ISZERO PUSH2 0x2AF8 JUMPI PUSH1 0x0 DUP1 REVERT JUMPDEST DUP1 DUP3 ADD SWAP1 POP SWAP1 POP PUSH2 0x40 MSTORE PUSH2 0x40 MLOAD PUSH2 0x3E0 MLOAD PUSH2 0x3C0 MLOAD PUSH2 0x3A0 MLOAD PUSH2 0x380 MLOAD PUSH1 0x6 PC ADD PUSH2 0x24A6 JUMP JUMPDEST PUSH2 0x460 MSTORE PUSH2 0x2C0 PUSH2 0x360 MSTORE JUMPDEST PUSH2 0x360 MLOAD MSTORE PUSH1 0x20 PUSH2 0x360 MLOAD SUB PUSH2 0x360 MSTORE PUSH2 0x140 PUSH2 0x360 MLOAD LT ISZERO ISZERO PUSH2 0x2B4F JUMPI PUSH2 0x2B2C JUMP JUMPDEST PUSH2 0x460 MLOAD PUSH1 0x0 MSTORE PUSH1 0x20 PUSH1 0x0 RETURN POP STOP JUMPDEST PUSH4 0x3CEBB823 PUSH1 0x0 MLOAD EQ ISZERO PUSH2 0x2B9F JUMPI CALLVALUE ISZERO PUSH2 0x2B77 JUMPI PUSH1 0x0 DUP1 REVERT JUMPDEST PUSH1 0x4 CALLDATALOAD PUSH1 0x20 MLOAD DUP2 LT PUSH2 0x2B88 JUMPI PUSH1 0x0 DUP1 REVERT JUMPDEST POP PUSH1 0x8 SLOAD CALLER EQ PUSH2 0x2B97 JUMPI PUSH1 0x0 DUP1 REVERT JUMPDEST PUSH1 0x4 CALLDATALOAD PUSH1 0x8 SSTORE STOP JUMPDEST PUSH4 0xFCC546A PUSH1 0x0 MLOAD EQ ISZERO PUSH2 0x2BC6 JUMPI CALLVALUE ISZERO PUSH2 0x2BB8 JUMPI PUSH1 0x0 DUP1 REVERT JUMPDEST PUSH1 0x0 SLOAD PUSH1 0x0 MSTORE PUSH1 0x20 PUSH1 0x0 RETURN POP STOP JUMPDEST PUSH4 0x47FC9AA PUSH1 0x0 MLOAD EQ ISZERO PUSH2 0x2BED JUMPI CALLVALUE ISZERO PUSH2 0x2BDF JUMPI PUSH1 0x0 DUP1 REVERT JUMPDEST PUSH1 0x1 SLOAD PUSH1 0x0 MSTORE PUSH1 0x20 PUSH1 0x0 RETURN POP STOP JUMPDEST PUSH4 0xCBF9FE5F PUSH1 0x0 MLOAD EQ ISZERO PUSH2 0x2C76 JUMPI CALLVALUE ISZERO PUSH2 0x2C6 JUMPI PUSH1 0x0 DUP1 REVERT JUMPDEST PUSH1 0x4 CALLDATALOAD PUSH1 0x20 MLOAD DUP2 LT PUSH2 0x2C17 JUMPI PUSH1 0x0 DUP1 REVERT JUMPDEST POP PUSH2 0x140 DUP1 DUP1 DUP1 PUSH1 0x2 PUSH1 0x4 CALLDATALOAD PUSH1 0xE0 MSTORE PUSH1 0xC0 MSTORE PUSH1 0x40 PUSH1 0xC0 SHA3 PUSH1 0xC0 MSTORE PUSH1 0x20 PUSH1 0xC0 SHA3 SLOAD DUP2 MSTORE POP POP PUSH1 0x20 DUP2 ADD SWAP1 POP DUP1 DUP1 PUSH1 0x1 PUSH1 0x2 PUSH1 0x4 CALLDATALOAD PUSH1 0xE0 MSTORE PUSH1 0xC0 MSTORE PUSH1 0x40 PUSH1 0xC0 SHA3 PUSH1 0xC0 MSTORE PUSH1 0x20 PUSH1 0xC0 SHA3 ADD SLOAD DUP2 MSTORE POP POP PUSH1 0x40 SWAP1 POP SWAP1 POP PUSH1 0xC0 MSTORE PUSH1 0xC0 MLOAD PUSH2 0x140 RETURN POP STOP JUMPDEST PUSH4 0x90CF0CF PUSH1 0x0 MLOAD EQ ISZERO PUSH2 0x2C9D JUMPI CALLVALUE ISZERO PUSH2 0x2C8F JUMPI PUSH1 0x0 DUP1 REVERT JUMPDEST PUSH1 0x3 SLOAD PUSH1 0x0 MSTORE PUSH1 0x20 PUSH1 0x0 RETURN POP STOP JUMPDEST PUSH4 0xD1FEBFB9 PUSH1 0x0 MLOAD EQ ISZERO PUSH2 0x2DC0 JUMPI CALLVALUE ISZERO PUSH2 0x2CB6 JUMPI PUSH1 0x0 DUP1 REVERT JUMPDEST PUSH2 0x140 DUP1 DUP1 DUP1 PUSH1 0x4 CALLDATALOAD PUSH13 0x1431EFAE6D7217CAA0000 DUP2 LT PUSH2 0x2CD8 JUMPI PUSH1 0x0 DUP1 REVERT JUMPDEST PUSH1 0x4 PUSH1 0xC0 MSTORE PUSH1 0x20 PUSH1 0xC0 SHA3 ADD PUSH1 0xC0 MSTORE PUSH1 0x20 PUSH1 0xC0 SHA3 SLOAD DUP2 MSTORE POP POP PUSH1 0x20 DUP2 ADD SWAP1 POP DUP1 DUP1 PUSH1 0x1 PUSH1 0x4 CALLDATALOAD PUSH13 0x1431EFAE6D7217CAA0000 DUP2 LT PUSH2 0x2D16 JUMPI PUSH1 0x0 DUP1 REVERT JUMPDEST PUSH1 0x4 PUSH1 0xC0 MSTORE PUSH1 0x20 PUSH1 0xC0 SHA3 ADD PUSH1 0xC0 MSTORE PUSH1 0x20 PUSH1 0xC0 SHA3 ADD SLOAD DUP2 MSTORE POP POP PUSH1 0x20 DUP2 ADD SWAP1 POP DUP1 DUP1 PUSH1 0x2 PUSH1 0x4 CALLDATALOAD PUSH13 0x1431EFAE6D7217CAA0000 DUP2 LT PUSH2 0x2D55 JUMPI PUSH1 0x0 DUP1 REVERT JUMPDEST PUSH1 0x4 PUSH1 0xC0 MSTORE PUSH1 0x20 PUSH1 0xC0 SHA3 ADD PUSH1 0xC0 MSTORE PUSH1 0x20 PUSH1 0xC0 SHA3 ADD SLOAD DUP2 MSTORE POP POP PUSH1 0x20 DUP2 ADD SWAP1 POP DUP1 DUP1 PUSH1 0x3 PUSH1 0x4 CALLDATALOAD PUSH13 0x1431EFAE6D7217CAA0000 DUP2 LT PUSH2 0x2D94 JUMPI PUSH1 0x0 DUP1 REVERT JUMPDEST PUSH1 0x4 PUSH1 0xC0 MSTORE PUSH1 0x20 PUSH1 0xC0 SHA3 ADD PUSH1 0xC0 MSTORE PUSH1 0x20 PUSH1 0xC0 SHA3 ADD SLOAD DUP2 MSTORE POP POP PUSH1 0x80 SWAP1 POP SWAP1 POP PUSH1 0xC0 MSTORE PUSH1 0xC0 MLOAD PUSH2 0x140 RETURN POP STOP JUMPDEST PUSH4 0x28D09D47 PUSH1 0x0 MLOAD EQ ISZERO PUSH2 0x2F9 JUMPI CALLVALUE ISZERO PUSH2 0x2DD9 JUMPI PUSH1 0x0 DUP1 REVERT JUMPDEST PUSH1 0x4 CALLDATALOAD PUSH1 0x20 MLOAD DUP2 LT PUSH2 0x2DEA JUMPI PUSH1 0x0 DUP1 REVERT JUMPDEST POP PUSH2 0x140 DUP1 DUP1 DUP1 PUSH1 0x24 CALLDATALOAD PUSH4 0x3B9ACA0 DUP2 LT PUSH2 0x2E4 JUMPI PUSH1 0x0 DUP1 REVERT JUMPDEST PUSH1 0x5 PUSH1 0x4 CALLDATALOAD PUSH1 0xE0 MSTORE PUSH1 0xC0 MSTORE PUSH1 0x40 PUSH1 0xC0 SHA3 PUSH1 0xC0 MSTORE PUSH1 0x20 PUSH1 0xC0 SHA3 ADD PUSH1 0xC0 MSTORE PUSH1 0x20 PUSH1 0xC0 SHA3 SLOAD DUP2 MSTORE POP POP PUSH1 0x20 DUP2 ADD SWAP1 POP DUP1 DUP1 PUSH1 0x1 PUSH1 0x24 CALLDATALOAD PUSH4 0x3B9ACA0 DUP2 LT PUSH2 0x2E47 JUMPI PUSH1 0x0 DUP1 REVERT JUMPDEST PUSH1 0x5 PUSH1 0x4 CALLDATALOAD PUSH1 0xE0 MSTORE PUSH1 0xC0 MSTORE PUSH1 0x40 PUSH1 0xC0 SHA3 PUSH1 0xC0 MSTORE PUSH1 0x20 PUSH1 0xC0 SHA3 ADD PUSH1 0xC0 MSTORE PUSH1 0x20 PUSH1 0xC0 SHA3 ADD SLOAD DUP2 MSTORE POP POP PUSH1 0x20 DUP2 ADD SWAP1 POP DUP1 DUP1 PUSH1 0x2 PUSH1 0x24 CALLDATALOAD PUSH4 0x3B9ACA0 DUP2 LT PUSH2 0x2E8B JUMPI PUSH1 0x0 DUP1 REVERT JUMPDEST PUSH1 0x5 PUSH1 0x4 CALLDATALOAD PUSH1 0xE0 MSTORE PUSH1 0xC0 MSTORE PUSH1 0x40 PUSH1 0xC0 SHA3 PUSH1 0xC0 MSTORE PUSH1 0x20 PUSH1 0xC0 SHA3 ADD PUSH1 0xC0 MSTORE PUSH1 0x20 PUSH1 0xC0 SHA3 ADD SLOAD DUP2 MSTORE POP POP PUSH1 0x20 DUP2 ADD SWAP1 POP DUP1 DUP1 PUSH1 0x3 PUSH1 0x24 CALLDATALOAD PUSH4 0x3B9ACA0 DUP2 LT PUSH2 0x2ECF JUMPI PUSH1 0x0 DUP1 REVERT JUMPDEST PUSH1 0x5 PUSH1 0x4 CALLDATALOAD PUSH1 0xE0 MSTORE PUSH1 0xC0 MSTORE PUSH1 0x40 PUSH1 0xC0 SHA3 PUSH1 0xC0 MSTORE PUSH1 0x20 PUSH1 0xC0 SHA3 ADD PUSH1 0xC0 MSTORE PUSH1 0x20 PUSH1 0xC0 SHA3 ADD SLOAD DUP2 MSTORE POP POP PUSH1 0x80 SWAP1 POP SWAP1 POP PUSH1 0xC0 MSTORE PUSH1 0xC0 MLOAD PUSH2 0x140 RETURN POP STOP JUMPDEST PUSH4 0x1AE757 PUSH1 0x0 MLOAD EQ ISZERO PUSH2 0x2F50 JUMPI CALLVALUE ISZERO PUSH2 0x2F22 JUMPI PUSH1 0x0 DUP1 REVERT JUMPDEST PUSH1 0x4 CALLDATALOAD PUSH1 0x20 MLOAD DUP2 LT PUSH2 0x2F33 JUMPI PUSH1 0x0 DUP1 REVERT JUMPDEST POP PUSH1 0x6 PUSH1 0x4 CALLDATALOAD PUSH1 0xE0 MSTORE PUSH1 0xC0 MSTORE PUSH1 0x40 PUSH1 0xC0 SHA3 SLOAD PUSH1 0x0 MSTORE PUSH1 0x20 PUSH1 0x0 RETURN POP STOP JUMPDEST PUSH4 0x71197484 PUSH1 0x0 MLOAD EQ ISZERO PUSH2 0x2F85 JUMPI CALLVALUE ISZERO PUSH2 0x2F69 JUMPI PUSH1 0x0 DUP1 REVERT JUMPDEST PUSH1 0x7 PUSH1 0x4 CALLDATALOAD PUSH1 0xE0 MSTORE PUSH1 0xC0 MSTORE PUSH1 0x40 PUSH1 0xC0 SHA3 SLOAD PUSH1 0x0 MSTORE PUSH1 0x20 PUSH1 0x0 RETURN POP STOP JUMPDEST PUSH4 0xF77C4791 PUSH1 0x0 MLOAD EQ ISZERO PUSH2 0x2FAC JUMPI CALLVALUE ISZERO PUSH2 0x2F9E JUMPI PUSH1 0x0 DUP1 REVERT JUMPDEST PUSH1 0x8 SLOAD PUSH1 0x0 MSTORE PUSH1 0x20 PUSH1 0x0 RETURN POP STOP JUMPDEST PUSH4 0xBEF97C87 PUSH1 0x0 MLOAD EQ ISZERO PUSH2 0x2FD3 JUMPI CALLVALUE ISZERO PUSH2 0x2FC5 JUMPI PUSH1 0x0 DUP1 REVERT JUMPDEST PUSH1 0x9 SLOAD PUSH1 0x0 MSTORE PUSH1 0x20 PUSH1 0x0 RETURN POP STOP JUMPDEST PUSH4 0xF6AB774 PUSH1 0x0 MLOAD EQ ISZERO PUSH2 0x2FFA JUMPI CALLVALUE ISZERO PUSH2 0x2FEC JUMPI PUSH1 0x0 DUP1 REVERT JUMPDEST PUSH1 0xA SLOAD PUSH1 0x0 MSTORE PUSH1 0x20 PUSH1 0x0 RETURN POP STOP JUMPDEST PUSH4 0x6FDDE3 PUSH1 0x0 MLOAD EQ ISZERO PUSH2 0x30AE JUMPI CALLVALUE ISZERO PUSH2 0x3013 JUMPI PUSH1 0x0 DUP1 REVERT JUMPDEST PUSH1 0xB DUP1 PUSH1 0xC0 MSTORE PUSH1 0x20 PUSH1 0xC0 SHA3 PUSH2 0x180 PUSH1 0x20 DUP3 SLOAD ADD PUSH2 0x120 PUSH1 0x0 PUSH1 0x3 DUP2 DUP4 MSTORE ADD JUMPDEST DUP3 PUSH2 0x120 MLOAD PUSH1 0x20 MUL GT ISZERO PUSH2 0x3045 JUMPI PUSH2 0x3067 JUMP JUMPDEST PUSH2 0x120 MLOAD DUP6 ADD SLOAD PUSH2 0x120 MLOAD PUSH1 0x20 MUL DUP6 ADD MSTORE JUMPDEST DUP2 MLOAD PUSH1 0x1 ADD DUP1 DUP4 MSTORE DUP2 EQ ISZERO PUSH2 0x3032 JUMPI JUMPDEST POP POP POP POP POP POP PUSH2 0x180 MLOAD DUP1 PUSH2 0x1A0 ADD DUP2 DUP3 PUSH1 0x20 PUSH1 0x1 DUP3 SUB MOD PUSH1 0x1F DUP3 ADD SUB SWAP1 POP SUB CALLDATASIZE DUP3 CALLDATACOPY POP POP PUSH1 0x20 PUSH2 0x160 MSTORE PUSH1 0x40 PUSH2 0x180 MLOAD ADD PUSH1 0x20 PUSH1 0x1 DUP3 SUB MOD PUSH1 0x1F DUP3 ADD SUB SWAP1 POP PUSH2 0x160 RETURN POP STOP JUMPDEST PUSH4 0x95D89B41 PUSH1 0x0 MLOAD EQ ISZERO PUSH2 0x3162 JUMPI CALLVALUE ISZERO PUSH2 0x30C7 JUMPI PUSH1 0x0 DUP1 REVERT JUMPDEST PUSH1 0xC DUP1 PUSH1 0xC0 MSTORE PUSH1 0x20 PUSH1 0xC0 SHA3 PUSH2 0x180 PUSH1 0x20 DUP3 SLOAD ADD PUSH2 0x120 PUSH1 0x0 PUSH1 0x2 DUP2 DUP4 MSTORE ADD JUMPDEST DUP3 PUSH2 0x120 MLOAD PUSH1 0x20 MUL GT ISZERO PUSH2 0x30F9 JUMPI PUSH2 0x311B JUMP JUMPDEST PUSH2 0x120 MLOAD DUP6 ADD SLOAD PUSH2 0x120 MLOAD PUSH1 0x20 MUL DUP6 ADD MSTORE JUMPDEST DUP2 MLOAD PUSH1 0x1 ADD DUP1 DUP4 MSTORE DUP2 EQ ISZERO PUSH2 0x30E6 JUMPI JUMPDEST POP POP POP POP POP POP PUSH2 0x180 MLOAD DUP1 PUSH2 0x1A0 ADD DUP2 DUP3 PUSH1 0x20 PUSH1 0x1 DUP3 SUB MOD PUSH1 0x1F DUP3 ADD SUB SWAP1 POP SUB CALLDATASIZE DUP3 CALLDATACOPY POP POP PUSH1 0x20 PUSH2 0x160 MSTORE PUSH1 0x40 PUSH2 0x180 MLOAD ADD PUSH1 0x20 PUSH1 0x1 DUP3 SUB MOD PUSH1 0x1F DUP3 ADD SUB SWAP1 POP PUSH2 0x160 RETURN POP STOP JUMPDEST PUSH4 0x54FD4D50 PUSH1 0x0 MLOAD EQ ISZERO PUSH2 0x3216 JUMPI CALLVALUE ISZERO PUSH2 0x317B JUMPI PUSH1 0x0 DUP1 REVERT JUMPDEST PUSH1 0xD DUP1 PUSH1 0xC0 MSTORE PUSH1 0x20 PUSH1 0xC0 SHA3 PUSH2 0x180 PUSH1 0x20 DUP3 SLOAD ADD PUSH2 0x120 PUSH1 0x0 PUSH1 0x2 DUP2 DUP4 MSTORE ADD JUMPDEST DUP3 PUSH2 0x120 MLOAD PUSH1 0x20 MUL GT ISZERO PUSH2 0x31AD JUMPI PUSH2 0x31CF JUMP JUMPDEST PUSH2 0x120 MLOAD DUP6 ADD SLOAD PUSH2 0x120 MLOAD PUSH1 0x20 MUL DUP6 ADD MSTORE JUMPDEST DUP2 MLOAD PUSH1 0x1 ADD DUP1 DUP4 MSTORE DUP2 EQ ISZERO PUSH2 0x319A JUMPI JUMPDEST POP POP POP POP POP POP PUSH2 0x180 MLOAD DUP1 PUSH2 0x1A0 ADD DUP2 DUP3 PUSH1 0x20 PUSH1 0x1 DUP3 SUB MOD PUSH1 0x1F DUP3 ADD SUB SWAP1 POP SUB CALLDATASIZE DUP3 CALLDATACOPY POP POP PUSH1 0x20 PUSH2 0x160 MSTORE PUSH1 0x40 PUSH2 0x180 MLOAD ADD PUSH1 0x20 PUSH1 0x1 DUP3 SUB MOD PUSH1 0x1F DUP3 ADD SUB SWAP1 POP PUSH2 0x160 RETURN POP STOP JUMPDEST PUSH4 0x313CE567 PUSH1 0x0 MLOAD EQ ISZERO PUSH2 0x323D JUMPI CALLVALUE ISZERO PUSH2 0x322F JUMPI PUSH1 0x0 DUP1 REVERT JUMPDEST PUSH1 0xE SLOAD PUSH1 0x0 MSTORE PUSH1 0x20 PUSH1 0x0 RETURN POP STOP JUMPDEST PUSH4 0x8FF36FD1 PUSH1 0x0 MLOAD EQ ISZERO PUSH2 0x3264 JUMPI CALLVALUE ISZERO PUSH2 0x3256 JUMPI PUSH1 0x0 DUP1 REVERT JUMPDEST PUSH1 0xF SLOAD PUSH1 0x0 MSTORE PUSH1 0x20 PUSH1 0x0 RETURN POP STOP JUMPDEST PUSH4 0x7175D4F7 PUSH1 0x0 MLOAD EQ ISZERO PUSH2 0x328B JUMPI CALLVALUE ISZERO PUSH2 0x327D JUMPI PUSH1 0x0 DUP1 REVERT JUMPDEST PUSH1 0x10 SLOAD PUSH1 0x0 MSTORE PUSH1 0x20 PUSH1 0x0 RETURN POP STOP JUMPDEST PUSH4 0xF851A440 PUSH1 0x0 MLOAD EQ ISZERO PUSH2 0x32B2 JUMPI CALLVALUE ISZERO PUSH2 0x32A4 JUMPI PUSH1 0x0 DUP1 REVERT JUMPDEST PUSH1 0x11 SLOAD PUSH1 0x0 MSTORE PUSH1 0x20 PUSH1 0x0 RETURN POP STOP JUMPDEST PUSH4 0x17F7182A PUSH1 0x0 MLOAD EQ ISZERO PUSH2 0x32D9 JUMPI CALLVALUE ISZERO PUSH2 0x32CB JUMPI PUSH1 0x0 DUP1 REVERT JUMPDEST PUSH1 0x12 SLOAD PUSH1 0x0 MSTORE PUSH1 0x20 PUSH1 0x0 RETURN POP STOP JUMPDEST JUMPDEST PUSH1 0x0 PUSH1 0x0 REVERT JUMPDEST PUSH2 0x3C PUSH2 0x35EC SUB PUSH2 0x3C PUSH1 0x0 CODECOPY PUSH2 0x3C PUSH2 0x35EC SUB PUSH1 0x0 RETURN"
 }
}